:100A600049EF05F0EA6A060EE96EEF5011E0050E57
:100A7000016EBF0E006E0400002EFDD7012EF9D7C7
:100A80002E0E006E002EFED700000400EF2EEFD7D2
:100A90001200F86AD09E046AB886A00EAF6E010EEE
:100AA000B06EA60EAC6E900EAB6E7086A00E756E1C
:100AB000010E766EA60E726E900E716EC150F00B26
:100AC000C16E000E0F01386F396F3A6F776A786A1E
:100AD000796A94908B90040E056EFA0E066E0001F2
:100AE000C1DF052E01D002D00F01F7D794908B8083
:100AF000040E056EFA0E066EB5DF052EFBD70F014C
:040B0000E8D703002F
:020000040030CA
:0E00000000F31E1D00B581000FC00FE00F4081
:00000001FF
;PIC18F26K22
;CRC=EC9B  CREATED="11-Apr-25 18:20"
