:040000007DEF04F09C
:08000800010EEA6E200EE96E04
:10001000EF5011E0050E016EBF0E006E0400002EC1
:10002000FDD7012EF9D72E0E006E002EFED7000050
:100030000400EF2EEFD712004850016A475C03E23C
:1000400047C000F00CD0006A080E496E47360036F3
:100050004850005CD8B0006E0136492EF7D7120028
:10006000200E42A8300E436E41C000F041AE08D0D1
:10007000001E002A00C041F02D0E436E428E4280C9
:10008000015041C047F0640E486ED6DF00C041F019
:10009000300E0124446E41C047F00A0E486ECCDF9A
:1000A000300E0024466E300E0124456E43C000F031
:1000B000300E445C04E0428242BE428412D043C00F
:1000C00044F0200E436E300E455C04E0428042BE98
:1000D000428207D0D8A4428004E144C045F0200EFB
:1000E000446E42B405D042B207D042B009D00CD021
:1000F0004350A4A8FED7736E4450A4A8FED7736ED5
:100100004550A4A8FED7736E4650A4A8FED7736EC0
:1001100029EF06F041542B51464F50454E3D226D7C
:1001200061696E322E747874220D0A0041542B518D
:10013000465345454B3D313032372C256C642C32CB
:100140000D0A000041542B5146524541443D313087
:1001500032372C34350D0A0041542B5146434C4F55
:1001600053453D313032370D0A000900F5520DE09C
:10017000F6CFAEF0F7CFAFF0F550A4A8FED7736E70
:10018000AEC0F6FFAFC0F7FFF0D712000900F6CF00
:10019000AFF0F7CFB0F0F550A4A8FED7736EAFC0A4
:1001A000F6FFB0C0F7FFAE2FF1D71200D8B203D0E0
:1001B000EA6AC20EE96E006A016A026A036AC26BE9
:1001C000C36BC46BC56BC151C011BF11BE112CE014
:1001D000200EC66FD890BA37BB37BC37BD37C23791
:1001E000C337C437C537C151C55D08E1C051C45DCF
:1001F00005E1BF51C35D02E1BE51C25D0FE3BE51D7
:10020000C25FBF51D8A0BF3DC35FC051D8A0C03DA1
:10021000C45FC151D8A0C13DC55FD880003601364A
:1002200002360336C62FD6D7C2C0EFFFC3C0ECFFDD
:10023000C4C0ECFFC5C0ECFF1200E950B26FB1AF13
:100240000DD0B207B28BAE1FAF1FB01FB11FAE2BC8
:10025000D8B4AF2BD8B4B02BD8B4B12B3B0EB96FF8
:100260009A0EB86FCA0EB76FB66B0A0EB46FD8820B
:10027000EA6AAE0EE96EB1C0BDF0B0C0BCF0AFC06E
:10028000BBF0AEC0BAF0B9C0C1F0B8C0C0F0B7C0E2
:10029000BFF0B6C0BEF08ADF015000520FE1B4518A
:1002A000010A0CE0B2510CE00F0BB45D01E027E253
:1002B000B2BF25D0B2BD04D0200E1CD0200EB21784
:1002C000B2AB0AD0B29B00C0B2F02D0EA4A8FED7EC
:1002D000736EB2C000F0B26B300EB2AB0BD0B29BFB
:1002E00000C0B2F02D0EA4A8FED7736EB2C000F00D
:1002F000B26B300E00260050A4A8FED7736ED892C1
:10030000B9C0BDF0B8C0BCF0B7C0BBF0B6C0BAF061
:10031000C16BC06BBF6B0A0EBE6F48DF03C0B9F084
:1003200002C0B8F001C0B7F000C0B6F0B42F9FD73C
:1003300038EF03F0A4AAFED771CF04F074CF01F018
:1003400004A202D071987188120023C103F0010148
:1003500022C1E9FF23C1EAFFEF5205E120C101F00C
:1003600021C102F04AD021C103F020C1E9FF21C11F
:10037000EAFFEF523FE021C125F120C124F123C162
:1003800027F122C126F125C103F024C1E9FF25C1CF
:10039000EAFFEF521EE027C103F026C1E9FF27C1A3
:1003A000EAFFEF5216E024C1E9FF25C1EAFFEFCFD3
:1003B00028F127C103F026C1E9FF27C1EAFFEF506A
:1003C000285D07E1242BD8B4252B262BD8B4272B66
:1003D000DAD727C103F026C1E9FF27C1EAFFEF52B0
:1003E00005E120C101F021C102F007D0202BD8B4D3
:1003F000212BB9D7000E016E026E000140EF02F012
:10040000B76BB66B01011E911F6B0001B55309E17B
:10041000B45307E1B751B35D4FE303E1B251B65DA9
:100420004BE2A4AA3ED001011F511F2B036ABA0F51
:10043000E96E000E0320EA6EEACF23F1E9CF22F144
:10044000000178DF23C1EAFF22C1E9FF01C0EFFF0D
:10045000040000D00000036A01011F51BA0FE96EC9
:10046000000E0320EA6EEF6A040000D00000216B4A
:10047000BA0E206FB1C023F1B0C022F1000165D7E0
:1004800002C0B9F001C0B8F0B851B9110AE00400D7
:1004900000D0000001011E81040000D00000000116
:1004A0000BD0B62BD8B4B72B0400050E006E002E6F
:1004B000FED700D00000AAD7050E0101206F000171
:1004C000A3DD000E01011EB1010E016E000152EF0D
:1004D00003F0B46BB56BB55101082BE3B3C003F067
:1004E000B2C0E9FFB3C0EAFFEF50400810E2B451D8
:1004F000100DF3CFB6F0B3C003F0B2C0E9FFB3C044
:10050000EAFFEF50B625BF0F0A0FB46F0CD0B451FD
:10051000100DF3CFB6F0B2C0E9FFB3C0EAFFEF5061
:10052000B625D00FB46FB551B52BB22BD8B4B32BC1
:10053000D2D7B4C001F01200F250036EF29EA68E24
:10054000A6840F01550EA76EAA0EA76EA682000004
:100550000350F21200011200D08CA69CF6503F0B03
:10056000006EC00EF6160A00AEC001F0006607D09D
:10057000EECFF5FF015204E00F00010603D00006A4
:100580000B000C003F0EF6143F0AF0E1A688D4DF02
:10059000D3DF0166EBD7F86A56EF04F04090409243
:1005A0004094466A456A9290899092928982040E9C
:1005B000AE6FFA0E0101206F000126DDAE2FF9D7D4
:1005C00092928992040EAE6FFA0E0101206F000123
:1005D0001BDDAE2FF9D7929089800A0EAE6FD20E36
:1005E0000101206F000110DDAE2FF9D792908990A4
:1005F000280EAE6FFA0E0101206F000105DDAE2F4F
:10060000F9D7140EF66E010EF76EAFDD040EAE6F65
:10061000FA0E0101206F0001F7DCAE2FF9D794909C
:100620008B80A46BA36BA26BA16B40B452D14090A2
:100630004092E00ED880A155A56F1B0EA255A66F63
:10064000000EA355A76F000EA455A86F2C0EF66ED2
:10065000010EF76E0F0EAE6F99DD410EE96EA8C068
:10066000B1F0A7C0B0F0A6C0AFF0A5C0AEF0E5D520
:100670003E0EF66E010EF76E040EAE6F87DD0D0EA8
:10068000A96F0A0EAA6F4F0EAB6F4B0EAC6FAD6B1E
:10069000B16BA90EB06FB56BB46B9C0EB36F400E0F
:1006A000B26FAED6440EF66E010EF76E5EDD056AD1
:1006B000526AA4AA4AD0036A0550060FE96E000EDA
:1006C0000320EA6EEACFB1F0E9CFB0F033DEB1C07B
:1006D000EAFFB0C0E9FF01C0EFFF040000D0000056
:1006E000036A0550060FE96E000E0320EA6EEF5014
:1006F0003A0804E140B002D040801DD0036A0550A2
:10070000060FE96E000E0320EA6EEF500D0813E1AC
:1007100040B211D040A00FD04082040000D00000B1
:10072000052A010E0524A127000EA223A323A4233A
:10073000040000D0000040A003D040B201D0052A40
:10074000522A040000D0000003D0040000D00000B2
:1007500052503B08AEE206503A08D8A4B9D0B36B69
:10076000070EB26FB6DE01C051F0B36B090EB26F67
:10077000B0DE01C0AEF0B36B0B0EB26FAADEAEC03E
:1007800044F001C043F0B36B0D0EB26FA2DE01C0A6
:1007900042F045C049F046C04AF043C047F044C06B
:1007A00048F0422C02D0408493D04A5206E149528C
:1007B00004E148500B08D8B08BD04A52D8A488D056
:1007C00049502F08D8A084D094948B84416A010E9C
:1007D000506E030E055C505C14E2036A5050060F25
:1007E000016E000E032201C0AEF003C0AFF003C0E3
:1007F000B3F001C0B2F06DDE01504126020E50266A
:10080000E8D7FF0ED8804154010F416E030E055CFE
:10081000036A060F016E000E032201C0AEF003C092
:10082000AFF003C0B3F001C0B2F053DE0150415C41
:1008300003E094928B824CD094928B92425237E197
:10084000090E506E4F6A030E055C505C23E24F5058
:100850004F2A036A530F016E000E032201C0AEF04F
:1008600003C0AFF0036A5050060F016E000E032262
:1008700001C0B0F003C0B1F003C0B3F001C0B2F0EA
:1008800028DEAFC0EAFFAEC0E9FF01C0EFFF020EF5
:100890005026D9D749C0F8FF48C0F7FF47C0F6FF38
:1008A000EA6A530EE96E51C0AEF056D611D04250EE
:1008B00004080EE1B36B0F0EB26F0BDE01C0AEF099
:1008C000B36B110EB26F05DEAEC046F001C045F04D
:1008D000ACD6320E0101206F000104EC00F0580E7E
:1008E000F66E010EF76E41DC320E0101206F000141
:1008F00004EC00F0FF00ADEF04F0F86AD09E046A4B
:100900007086A00E756E010E766EA60E726E900E3B
:10091000716E3E6AC150F00BC16E000E0F01386F50
:10092000396F3A6F776A786A796A640E0101206FCD
:10093000000104EC00F0928680B60FD094928B8276
:10094000040E3F6EFA0E0101206F000104EC00F06E
:100950003F2EF8D794928B9221D600EF06F0030039
:100C000094908B80020E406EFA0E0101206F00015D
:100C100004EC00F0402EF8D794908B90020E406EBA
:100C2000FA0E0101206F000104EC00F0402EF8D70D
:100C30003E503E2A406E410EA4A8FED7736E3A0E77
:100C4000A4A8FED7736E40C041F0180E426E30EF7C
:0E0C500000F00A0EA4A8FED7736ED2D71200D1
:020000040030CA
:0E00000000F31E1D00B581000FC00FE00F4081
:00000001FF
;PIC18F26K22
;CRC=3DA4  CREATED="24-Mar-25 16:43"
