:0E000000948694883CEF68F034EF05F012000F
:0E001000A4A8FED7736E120039EF05F012009F
:040A600079EF67F0D3
:080A6800046ED8CF05F0E0CFC9
:100A700006F00001E9CF0CF0EACF07F0E1CF08F073
:100A8000E2CF09F0D9CF0AF0DACF0BF0F3CF12F0B2
:100A9000F4CF13F0FACF14F000C00EF001C00FF045
:100AA00002C010F003C011F09DA25AEF05F09EB2F3
:100AB00074EF0AF00EC000F00FC001F010C002F099
:100AC00011C003F00CC0E9FF07C0EAFF078E08C0A1
:100AD000E1FF09C0E2FF0AC0D9FF0BC0DAFF12C074
:100AE000F3FF13C0F4FF14C0FAFF045006C0E0FF88
:100AF00005C0D8FF1000F2CF0DF0F29EF76A100F7C
:100B0000F66E0B0EF7220900F5500DBEF28E1200A4
:100B100068656C6C6F20776F726C6400F2CF0DF0BB
:100B2000F29EF76A360FF66E0B0EF7220900F550AB
:100B30000DBEF28E12004F536F666600F2CF0DF0BD
:100B4000F29EF76A560FF66E0B0EF7220900F5506B
:100B50000DBEF28E1200244750524D430000F2CFDA
:100B60000DF0F29EF76A780FF66E0B0EF722090071
:100B7000F5500DBEF28E1200244750474741000049
:100B8000F2CF0DF0F29EF76A9A0FF66E0B0EF72277
:100B90000900F5500DBEF28E120024474E524D430F
:100BA0000000F2CF0DF0F29EF76ABC0FF66E0B0E4E
:100BB000F7220900F5500DBEF28E120024474E4771
:100BC00047410000F2CF0DF0F29EF76ADE0FF66E9D
:100BD0000B0EF7220900F5500DBEF28E1200566181
:100BE0006C696400F2CF0DF0F29EF76AFE0FF66EAC
:100BF0000B0EF7220900F5500DBEF28E120054685C
:100C0000656674206F7220546F77696E6720616328
:100C100074697669747920646574656374656400C9
:100C2000F2CF0DF0F29EF76A3A0FF66E0C0EF72235
:100C30000900F5500DBEF28E1200677073207369C3
:100C4000676E616C206C6F737400F2CF0DF0F29ED2
:100C5000F76A640FF66E0C0EF7220900F5500DBE10
:100C6000F28E1200496E76616C696400F2CF0DF06D
:100C7000F29EF76A860FF66E0C0EF7220900F55009
:100C80000DBEF28E12000D0A434F4E4E4543540DD9
:100C90000A00F2CF0DF0F29EF76AAC0FF66E0C0E62
:100CA000F7220900F5500DBEF28E12000D0A4F4BCF
:100CB0000D0A0D0A2B51485454504745543A2030E0
:100CC0002C3230302C00F2CF0DF0F29EF76AE00F9C
:100CD000F66E0C0EF7220900F5500DBEF28E1200D2
:100CE0000D0A4F4B0D0A0D0A2B51485454505245D2
:100CF000414446494C453A20300D0A00F2CF0DF0F0
:100D0000F29EF76A160FF66E0D0EF7220900F550E7
:100D10000DBEF28E12006F74612066696C652064EE
:100D20006F776E6C6F6164656400F2CF0DF0F29EB8
:100D3000F76A440FF66E0D0EF7220900F5500DBE4E
:100D4000F28E12004F536F6E0000F2CF0DF0F29E44
:100D5000F76A640FF66E0D0EF7220900F5500DBE0E
:100D6000F28E120049444C450000F2CF0DF0F29E85
:100D7000F76A840FF66E0D0EF7220900F5500DBECE
:100D8000F28E120052554E4E494E4700F2CF0DF0F2
:100D9000F29EF76AA60FF66E0D0EF7220900F550C7
:100DA0000DBEF28E12005041524B45440000F2CF6E
:100DB0000DF0F29EF76AC80FF66E0D0EF7220900CD
:100DC000F5500DBEF28E1200496E20526F6D696EA5
:100DD0006700F2CF0DF0F29EF76AEC0FF66E0D0E83
:100DE000F7220900F5500DBEF28E1200486F6D65B6
:100DF000204E6574776F726B0000F2CF0DF0F29E9B
:100E0000F76A140FF66E0E0EF7220900F5500DBEAC
:100E1000F28E120067707320676F74206669780025
:100E2000F2CF0DF0F29EF76A3A0FF66E0E0EF72231
:100E30000900F5500DBEF28E120073657276657270
:100E400020636F6E6E65637465640000F2CF0DF011
:100E5000F29EF76A660FF66E0E0EF7220900F55045
:100E60000DBEF28E1200222B393137303132353837
:100E7000363539362200F2CF0DF0F29EF76A900F28
:100E8000F66E0E0EF7220900F5500DBEF28E12001E
:100E9000736574757020636F6D706C6574650000A8
:100EA000F2CF0DF0F29EF76ABA0FF66E0E0EF72231
:100EB0000900F5500DBEF28E1200736572766572F0
:100EC000322073657400F2CF0DF0F29EF76AE00FE6
:100ED000F66E0E0EF7220900F5500DBEF28E1200CE
:100EE00073657461706E3A00F2CF0DF0F29EF76A8E
:100EF000020FF66E0F0EF7220900F5500DBEF28EAE
:100F0000120073657469643A0000F2CF0DF0F29E2E
:100F1000F76A240FF66E0F0EF7220900F5500DBE8A
:100F2000F28E12007365746970313A00F2CF0DF0E1
:100F3000F29EF76A460FF66E0F0EF7220900F55083
:100F40000DBEF28E12007365746970323A00F2CFF2
:100F50000DF0F29EF76A680FF66E0F0EF722090089
:100F6000F5500DBEF28E1200636C72697032000093
:100F7000F2CF0DF0F29EF76A8A0FF66E0F0EF7228F
:100F80000900F5500DBEF28E1200536574696E743F
:100F90006E3A0000F2CF0DF0F29EF76AAE0FF66ED9
:100FA0000F0EF7220900F5500DBEF28E12005365A8
:100FB00074696E74703A0000F2CF0DF0F29EF76A19
:100FC000D20FF66E0F0EF7220900F5500DBEF28E0D
:100FD000120049646C65696E743A0000F2CF0DF03E
:100FE000F29EF76AF60FF66E0F0EF7220900F55023
:100FF0000DBEF28E1200556E617574680000F2CF5E
:101000000DF0F29EF76A180FF66E100EF722090027
:10101000F5500DBEF28E1200556E617574686572E2
:10102000697A65640000F2CF0DF0F29EF76A400F16
:10103000F66E100EF7220900F5500DBEF28E12006A
:1010400053657473706565643A00F2CF0DF0F29EDB
:10105000F76A640FF66E100EF7220900F5500DBE08
:10106000F28E12005365747077643A00F2CF0DF07F
:10107000F29EF76A860FF66E100EF7220900F55001
:101080000DBEF28E1200526F616D696E673F0000F7
:10109000F2CF0DF0F29EF76AAA0FF66E100EF7224D
:1010A0000900F5500DBEF28E12005265626F6F742A
:1010B000696E6700F2CF0DF0F29EF76ACE0FF66E02
:1010C000100EF7220900F5500DBEF28E1200536586
:1010D00074545A3A0000F2CF0DF0F29EF76AF00F06
:1010E000F66E100EF7220900F5500DBEF28E1200BA
:1010F0004175746F20545A2073657400F2CF0DF05F
:10110000F29EF76A160FF66E110EF7220900F550DF
:101110000DBEF28E1200545A205365740000F2CFB7
:101120000DF0F29EF76A380FF66E110EF7220900E5
:10113000F5500DBEF28E1200696E76616C69642006
:10114000545A0000F2CF0DF0F29EF76A5E0FF66E71
:10115000110EF7220900F5500DBEF28E1200486FF5
:101160007420737461727400F2CF0DF0F29EF76A0E
:10117000820FF66E110EF7220900F5500DBEF28EA9
:1011800012005761726D2073746172740000F2CFA7
:101190000DF0F29EF76AA80FF66E110EF722090005
:1011A000F5500DBEF28E1200436F6C6420737461B3
:1011B00072740000F2CF0DF0F29EF76ACE0FF66E59
:1011C000110EF7220900F5500DBEF28E1200526C7E
:1011D000796F6E00F2CF0DF0F29EF76AEE0FF66EA9
:1011E000110EF7220900F5500DBEF28E1200526565
:1011F0006C6179205475726E6564204F4E00F2CF99
:101200000DF0F29EF76A180FF66E120EF722090023
:10121000F5500DBEF28E1200526C796F66660000BA
:10122000F2CF0DF0F29EF76A3A0FF66E120EF72229
:101230000900F5500DBEF28E120052656C617920E6
:101240005475726E6564204F46460000F2CF0DF073
:10125000F29EF76A660FF66E120EF7220900F5503D
:101260000DBEF28E1200454550524F4D2045524161
:1012700053454400F2CF0DF0F29EF76A8E0FF66EE2
:10128000120EF7220900F5500DBEF28E12004143F6
:101290004C2073657400F2CF0DF0F29EF76AB00F28
:1012A000F66E120EF7220900F5500DBEF28E1200F6
:1012B00044434C2073657400F2CF0DF0F29EF76A40
:1012C000D20FF66E120EF7220900F5500DBEF28E07
:1012D0001200526573746F726500F2CF0DF0F29ECA
:1012E000F76AF40FF66E120EF7220900F5500DBEE4
:1012F000F28E1200526573746F726520746F204411
:10130000656661756C742100F2CF0DF0F29EF76A8C
:10131000220FF66E130EF7220900F5500DBEF28E65
:101320001200417574686572697A65640000F2CFD5
:101330000DF0F29EF76A480FF66E130EF7220900C1
:10134000F5500DBEF28E12000D0A2B514D544F5028
:10135000454E3A20302C3000F2CF0DF0F29EF76A65
:10136000720FF66E130EF7220900F5500DBEF28EC5
:1013700012000D0A2B514D544F50454E3A20312C3E
:101380003000F2CF0DF0F29EF76A9C0FF66E130E4E
:10139000F7220900F5500DBEF28E12000D0A2B51F6
:1013A0004D54434F4E4E3A20302C302C3000F2CF6B
:1013B0000DF0F29EF76AC80FF66E130EF7220900C1
:1013C000F5500DBEF28E12000D0A2B514D54434FB5
:1013D0004E4E3A20312C302C3000F2CF0DF0F29EE0
:1013E000F76AF40FF66E130EF7220900F5500DBEE2
:1013F000F28E12000D0A2B514D54444953433A00CA
:10140000F2CF0DF0F29EF76A1A0FF66E140EF72265
:101410000900F5500DBEF28E12000D0A2B514D54ED
:10142000434C4F53453A0000F2CF0DF0F29EF76A5D
:10143000420FF66E140EF7220900F5500DBEF28E23
:1014400012000D0A2B514D5450554245583A203048
:101450002C302C300000F2CF0DF0F29EF76A700FA6
:10146000F66E140EF7220900F5500DBEF28E120032
:101470000D0A2B514D5450554245583A20312C30CD
:101480002C300000F2CF0DF0F29EF76A9E0FF66E40
:10149000140EF7220900F5500DBEF28E12004947D6
:1014A0006F6E0000F2CF0DF0F29EF76ABE0FF66E7F
:1014B000140EF7220900F5500DBEF28E12004947B6
:1014C0006F666600F2CF0DF0F29EF76ADE0FF66EE1
:1014D000140EF7220900F5500DBEF28E12004E4F89
:1014E00053455256494345000301DC2BDD2BE5A94A
:1014F00029D0E5BF27D0E82BD8B4E92BE95308E180
:10150000E851020805E392908990929289921AD04C
:10151000E95303E1E851100808E2E95306E1E85114
:10152000130803E3929089800DD0E95100080AE284
:10153000FF0A03E1E8516E0805E2E96BE86B92905F
:101540008990E58FE5AB2AD0E5BD28D0E82BD8B44B
:10155000E92BE95303E1E851100808E2E95306E1F9
:10156000E851130803E39290898018D0E95303E10E
:10157000E851EC0808E2E95306E1E851EF0803E31B
:10158000929089900BD0E951030808E2FF0A03E129
:10159000E8517D0803E2E96BE86BE58DDC51130847
:1015A00047E2DE2BDC6BE0530EE0E007E05105087C
:1015B00005E0E051030802E0E02D03D094928B9205
:1015C00002D094928B82D0AF1ED00101B2B702D06C
:1015D000030119D00301D52D09D0D67DD6AD03D096
:1015E00094928B8202D094928B920CD0D5510208A7
:1015F00005E1E05303E194928B8204D0D55302E1DC
:1016000094928B9215D00101B2B713D00301D0BFD1
:1016100002D001010ED0DF51010803E394928B82C6
:1016200002D094928B92DF2BDF51030801E2DF6B33
:1016300001010301DD51310814E2DD6BD0BF0DD093
:10164000D67BD6AB05D094928B8294948B8404D0B5
:1016500094928B9294948B9404D00101B2A700D001
:101660000301DE510408D8B0E5D0DE6B0101B2A75A
:10167000D6D00301D8530DE1D92BD8B4DA2BDA51E7
:10168000060807E2FF0A03E1D951090802E2DA6B12
:10169000D96BBE53D8A472D0E59301019CB106D09A
:1016A0009CB304D09CB702D09CA50BD00301D853A7
:1016B000D8B402D0010105D0010ED86FDA6BD96B16
:1016C00001010001F9531DE1F85101081AE303017A
:1016D000D0BD02D0000115D0E5A102D0000111D08B
:1016E000E12BD8B4E22BE25303E1E151780808E2A0
:1016F000E26BE16BE58101019C89010E0301D86F6A
:1017000010D00301E5A10DD00001F95306E1F85115
:101710000508D8A002D0030104D00301E26BE16BFD
:10172000E591E5B11CD00001FF510301DA5D08E34A
:1017300005E10001FE510301D95D02E3E5A707D0F1
:10174000E5A70CD0DA5303E1D9513B0807E2DA6B85
:10175000D96B01019C89010E0301D86F0ED0E451B1
:10176000DA5D0BE303E1E351D95D07E3DA6BD96B93
:1017700001019C89010E0301D86F47D0BE2D45D0D1
:10178000E26BE16BD6A705D0D697010ED86FDA6B66
:10179000D96BE5B31AD0E62BD8B4E72B090ED88065
:1017A00001010255006E070E0355036E00C001F0E3
:1017B00003500301E75D09E303E10150E65D05E342
:1017C000E76BE66BDA6BD96BE583D6A50AD0DA5303
:1017D00003E1D9511D0805E2DA6BD96B010ED86F10
:1017E00014D0010103510301DA5D0FE305E10101AA
:1017F00002510301D95D09E3E5A307D0DA6BD96B88
:1018000001019C89010E0301D86FD85304E1BE5336
:1018100002E0D6A503D0D6A101D0E58501010301E0
:10182000D6AF03D0D6B101D0DB2BDB511D0802E2CD
:10183000DB6BD6899E9200015AEF05F02450414996
:10184000523836342C302C302C393630302A313363
:101850000D0A000024504D544B3335332C312C31BC
:101860002C302C302C302A32420D0A0024504D549A
:101870004B3238362C312A32330D0A0024504D5465
:101880004B3232302C3230302A32430D0A00245091
:101890004D544B3331332C312A32450D0A0024503C
:1018A0004D544B3338362C302A32330D0A00245035
:1018B0004D544B3330312C322A32450D0A004154FD
:1018C0002B43545A553D310D0A00706F776572698C
:1018D0006E675F646F776E210A0041542B51485444
:1018E00054504346473D22636F6E74657874696453
:1018F000222C310D0A0041542B5148545450434678
:10190000473D22726573706F6E73656865616465CB
:1019100072222C310D0A000041542B51485454506E
:1019200055524C3D38362C38300D0A0068747470AE
:10193000733A2F2F7261772E6769746875627573B9
:101940006572636F6E74656E742E636F6D2F6E6F4C
:1019500075736861722D6E616A6565622F6F74615F
:101960005F746573745F66696C652F726566732F4B
:1019700068656164732F6D61696E2F6170702E6888
:101980006578000041542B51485454504745543D0C
:1019900038300D0A000041542B51485454505245E0
:1019A000414446494C453D225546533A6D61696E66
:1019B000322E747874222C38300D0A00696E6974E6
:1019C00020706F776572696E675F646F776E210A4A
:1019D000000049443A2025732C20677073206E6FF5
:1019E000742066697865640041542B435245473F33
:1019F0000D0A000041542B5149435347503D312CAF
:101A0000312C2261697274656C677072732E636F1A
:101A10006D222C22222C22222C310D0A000041544E
:101A20002B51494143543D310D0A000041542B5183
:101A30004944454143543D310D0A000041542B5166
:101A40004D544F50454E3D302C2231332E313237DC
:101A50002E3133322E313336222C313838330D0AC1
:101A6000000041542B514D54434F4E4E3D302C22DB
:101A7000626567696E6F77313233222C2254222CD3
:101A8000227474220D0A000041542B514D544449D4
:101A900053433D300D0A000041542B514D54434CEB
:101AA0004F53453D300D0A0041542B514D54505574
:101AB0004245583D302C302C302C302C2254222CD6
:101AC00025640D0A000041542B434D47463D310D1E
:101AD0000A0041542B435343533D2247534D220D9B
:101AE0000A0041542B434D47533D000041542B43C2
:101AF0004D47523D25630D0A000061706E207365ED
:101B0000743A257300006964207365743A25730084
:101B100069702564207365743A257300496E7420DA
:101B20006E207365743A25730000496E742070202E
:101B30007365743A2573000049646C6520696E749E
:101B4000207365743A25730073706565642073654E
:101B5000743A25730000505744206368616E6765CE
:101B60006420746F3A257300687474703A2F2F6D77
:101B70006170732E676F6F676C652E636F6D2F6D6D
:101B80006170733F713D256325322E36662C2563C7
:101B900025322E36660024504D544B3130312A33D5
:101BA000320D0A0024504D544B3130322A33310D5E
:101BB0000A0024504D544B3130332A33300D0A0083
:101BC000534F53206E756D62657220697320736583
:101BD0007420746F202B2573000056302E310000C6
:101BE00041542B434D47443D25630D0A00004154A9
:101BF0002B434D47463D310D0A0041542B4353437F
:101C0000533D2247534D220D0A0041542B434D476B
:101C10004C0D0A0041542B514D544F50454E3D0040
:101C200041542B514D54434F4E4E3D00222C220027
:101C3000222C2200222C2200220D0A0041542B517A
:101C40004D54444953433D0041542B514D544F5042
:101C5000454E3D0041542B514D54434F4E4E3D0097
:101C6000222C2200222C2200220D0A0041542B514A
:101C70004D54444953433D0041542B514D54434C22
:101C80004F53453D000041542B514D545055424552
:101C9000583D000025642C302C302C302C220000C4
:101CA00041540D0A0000415445300D0A00004154D2
:101CB0002B4950523D393630300D0A0041542657D9
:101CC0000D0A000041540D0A000041540D0A0000A5
:101CD0004154453026570D0A000041542B495052BB
:101CE0003D393630300D0A0041542B434D45453DBA
:101CF000320D0A0041542B434D47463D310D0A0039
:101D0000415426570D0A000041542B434D47443D92
:101D1000312C340D0A0041542B4350494E3F0D0ADB
:101D2000000041542B5149435347503D312C312C35
:101D30002200222C22222C22222C310D0A00415476
:101D40002B51494143543D310D0A000041542B436E
:101D500047534E3D310D0A00534F53206874747041
:101D60003A2F2F6D6170732E676F6F676C652E63EE
:101D70006F6D2F6D6170733F713D256325322E3677
:101D8000662C256325322E366600485F5354415237
:101D9000543A256C640A0000485F454E443A256C6D
:101DA000640A00007B226465766963654944223ACF
:101DB00020222573222C22494D4549223A202573A1
:101DC0002C2274696D657374616D70223A20220053
:101DD0002530346C642D253032752D253032752038
:101DE000253032753A253032753A25303275222C3D
:101DF000226461746156616C6964697479223A2065
:101E00002256616C6964222C22737461747573228A
:101E10003A20224E2564222C226C61746974756408
:101E200065223A202200253031312E3766222C22BD
:101E30006C6F6E676974756465223A2022253031B3
:101E4000322E3766222C227370656564223A202276
:101E50002530336C64222C22636F75727365223ACD
:101E600020222530336C64222C2269676E697469E4
:101E70006F6E223A2022000049476F66660049478C
:101E80006F6E0000222C2276656869636C6553745E
:101E900061747573223A202200005041524B454430
:101EA000000052554E4E494E470049444C450000F3
:101EB000222C226164646974696F6E616C44617480
:101EC00061223A20222573222C2274696D65496EA5
:101ED00074657276616C73223A202225732C257307
:101EE0002C2530334C64222C22616E676C65496E60
:101EF00074657276616C223A20222530336C64223C
:101F00002C2264697374616E6365496E74657276C0
:101F1000616C223A20222530336C64222C226773B4
:101F20006D537472656E677468223A2022253033CF
:101F300064222C2273657175656E63654E756D62E2
:101F40006572223A202200000D0A427265616B2000
:101F50004B3D256C6420433D25630D0A0000415430
:101F60000D0A000041540D0A000041542B43504912
:101F70004E3F0D0A00000D0A5055424C495348206F
:101F80004641494C0D0A000041540D0A00004154DD
:101F90002B43545A553D310D0A0041542B43434CB9
:101FA0004B3F0D0A000041542B514353510D0A0081
:101FB000070EEA6EF70EE96EEF5011E0050E016EA6
:101FC000BF0E006E0400002EFDD7012EF9D72E0E95
:101FD000006E002EFED700000400EF2EEFD7120097
:101FE000928680B622D00301BE2D05D0E581010E78
:101FF000D86FDA6BD96BBE6BEA6AD80EE96EF2CF96
:10200000E3F4F29E000E000142EC0AF00A0009001F
:10201000F550EE6E0009FBE10401E3BFF28E03010F
:10202000D6A501D0D6951BD000010301BE5301E116
:10203000BC85010EBE6FEA6AD80EE96EF2CFE3F4FA
:10204000F29E000E000152EC0AF00A000900F55061
:10205000EE6E0009FBE10401E3BFF28E0301000113
:102060001200938281A205D0300E0301BD6F04D00F
:102070000001310E0301BD6F000112000301BF53C7
:1020800019E1BE5317E1929A898AEA6AD10EE96E84
:10209000F2CFE3F4F29E000E0001DAEC08F00A0041
:1020A0000900F550EE6E0009FBE10401E3BFF28E7A
:1020B0001CD00301BF3D17D0929A899AEA6AD10ECB
:1020C000E96EF2CFE3F4F29E000E0001FFEC08F09F
:1020D0000A000900F550EE6E0009FBE10401E3BFC0
:1020E000F28E03D00301BF69040100011200080E43
:1020F000016E040E006E002EFED78B969496040E91
:10210000006E002EFED707018F378B98D8B09488C9
:10211000D8A09498948682A6FED7012E01D002D032
:102120000001E7D7040E006E002EFED78B96949622
:1021300000009488040E006E002EFED7040E006E80
:10214000002EFED7948682A6FED7016A040E006E8A
:10215000002EFED782B801808B9694968B98949827
:1021600000011200080E0701836F00C084F79488F5
:10217000040E006E002EFED7948682A6FED782B88B
:10218000D88082A8D8900136040E006E002EFED7AB
:1021900094968B96832FEBD79488040E006E002EB6
:1021A000FED78B988451D8A494980000948682A678
:1021B000FED7040E006E002EFED78B969496040E6A
:1021C000006E002EFED78B989498000137EF11F027
:1021D00007017F5303E17E51000803E2A80E816FDF
:1021E00002D0A00E816F9488040E006E002EFED7E0
:1021F0009486040E006E002EFED782A6FED78B9822
:102200009498040E006E002EFED78B96949681C78C
:102210008FF700016CDF7DC783F77EC784F77FC728
:1022200085F70701866B7DC78FF7000160DF7CC7EC
:102230008FF75DDF9488040E006E002EFED7948623
:10224000040E006E002EFED782A6FED78B989498BF
:10225000040E006E002EFED78B969496010E070199
:102260008125826F8F6F000142DF006A7BD701C03A
:1022700080F794980000948682A6FED7040E006E24
:10228000002EFED700D000009488040E006E002EB1
:10229000FED7070180C701F0000112000900F552C6
:1022A0000DE0F6CF7CF7F7CF7DF7F5509EA8FED76F
:1022B000AD6E7CC7F6FF7DC7F7FFF0D712000701B0
:1022C000865303E18551000803E2A80E896F02D00E
:1022D000A00E896F9488040E006E002EFED794869F
:1022E000040E006E002EFED78B989498040E006E9C
:1022F000002EFED78B96949689C78FF70001F7DEE4
:1023000084C78BF785C78CF786C78DF707018E6B5F
:1023100084C78FF70001EBDE83C78FF7E8DE87C73E
:102320008FF7E5DE94980000948682A6FED7040E0F
:10233000006E002EFED700D000009488040E006EC0
:10234000002EFED79488040E006E002EFED79486D1
:10235000040E006E002EFED78B989498040E006E2B
:10236000002EFED78B96949689C78FF7C0DE01505A
:102370000701889101B0888188A11ED09488040E3D
:10238000006E002EFED79486040E006E002EFED73F
:1023900082A6FED78B989498040E006E002EFED76E
:1023A0008B96949689C78FF70001A1DE0150070133
:1023B000889101B08881E0D7000112009EAAFED763
:1023C000ABCF16F0AECF01F016A202D0AB98AB881F
:1023D0001200040E0701F85F0AE3070EEA6EF80E1A
:1023E000E96EEF5004E001D00400EF2EFDD70001AC
:1023F0001200A4AAFED771CF16F074CF01F016A276
:1024000002D07198718812009EA8FED7AD6E2EEF93
:1024100012F09EAA14D0D2DF01C0E3F40400C70E6C
:102420000701F86F0001D5DF0401E351000108EC5A
:1024300000F00400C70E0701F86F0001CADFA4AA6C
:1024400013D0D7DF01C0E3F40400C70E0701F86F13
:102450000001BFDF0401E3510001D6D70400C70E1D
:102460000701F86F0001B5DFD4D76CEF69F0070101
:1024700085518719800B896F85AF05D0841F851F13
:10248000842BD8B4852B87AF05D0861F871F862B5A
:10249000D8B4872B84518603F3CF01F0F4CF00F03A
:1024A0008703F350002685518603F3500020026E07
:1024B00089AF05D0011E021E012AD8B4022A0001EC
:1024C000D5EF12F00701826B806B0A0E816F7F6B74
:1024D0007E6B7C517D1104E1000E016E026EEAD02C
:1024E0008251822B036A7C25E96E7D510320EA6EBE
:1024F000EFCF83F783512D080DE1010E806F8251DC
:10250000822B036A7C25E96E7D510320EA6EEFCFB2
:1025100083F70DD083512B080AE18251822B036A85
:102520007C25E96E7D510320EA6EEFCF83F783515E
:102530002F08D8B0B1D083513908D8A0ADD083517D
:10254000300821E1036A82517C25E96E7D51032028
:10255000EA6EEF5078080AE0036A82517C25E96E42
:102560007D510320EA6EEF5058080DE1100E816F87
:10257000822B8251822B036A7C25E96E7D510320D8
:10258000EA6EEFCF83F781510A0823E183512F08C8
:102590001FE2835139081CE3856B0A0E846F7FC7E5
:1025A00087F77EC786F7000162D7300E0701835D8B
:1025B00001247E6F000E02207F6F8251822B036AFE
:1025C0007C25E96E7D510320EA6EEFCF83F7DED7DD
:1025D00063D08151100860E18351600806E28351A5
:1025E0007A0803E38351DF0B01D08351836F83515A
:1025F0002F0803E28351390806E2835140084CE278
:102600008351460849E383512F081AE28351390860
:1026100017E37E35846F7F35856F84378537843740
:10262000853784378537F00E8417300E835D842517
:10263000016E000E8521036E01C07EF77F6F16D0FC
:102640007E35846F7F35856F84378537843785374E
:1026500084378537F00E8417410E835D0A0F842579
:10266000016E000E852101C07EF77F6F8251822BA3
:10267000036A7C25E96E7D510320EA6EEFCF83F774
:102680008351600806E283517A0803E38351DF0B2C
:1026900001D08351836FABD781510A0807E1802DA8
:1026A00005D07E1F7F1F7E2BD8B47F2B7EC701F005
:1026B0007FC702F00001120007017C517E03F3CFB7
:1026C00001F0F4CF00F07F03F35000267D517E032C
:1026D000F3500020026E000112000401FE91F9C4C3
:1026E00000F5F8C4FFF4FA51F825016E000EF92147
:1026F000036E015005010051035C63E308E10150E2
:102700000401FF5DD8A002D005015BD005010701DF
:102710007F6B7E6B00C57DF7FFC47CF7000158DD41
:1027200001C0FDF4010E0701F76F000141DC040157
:10273000FD510D0823E1F851FF5D0501016F040112
:10274000F95105010059026F0401FB5105010125F2
:10275000E96E0401FC5105010221EA6EEF6A010EE7
:102760000701F76F000124DC0401FE81010E07015F
:10277000F76F00011DDC050124D00401F851FF5D55
:102780000501016F0401F95105010059026F0401AF
:10279000FB5105010125E96E0401FC5105010221EF
:1027A000EA6EFDC4EFFF010E0701F76F000100DCC8
:1027B0000401FF2BD8A403D00501002B040193D7FB
:1027C0000501000E0401FEB1010E016E00011200B0
:1027D0008E0E006E32C501F031C502F0036A01AE03
:1027E00005D0011E021E022A01E1012A015209E15F
:1027F00002C001F0026A080E005E015202E1006AA6
:102800000ED0D89001BE04D0023601360006F9D7AA
:10281000050132AF02D0000102D0019E000112007A
:1028200042C549F505014651491B49AF05D0D89429
:10283000D89042BFD8802FD042C549F545C54AF54A
:1028400041514A5F06E049AF26D0D850010AD86E00
:1028500022D046C54AF542514A5F06E049AF1BD037
:10286000D850010AD86E17D047C54AF543514A5F80
:1028700006E049AF10D0D850010AD86E0CD048C538
:102880004AF544514A5F06E049AF05D0D850010AE5
:10289000D86E01D0D8900001120007018B51D8B436
:1028A00071D0006E8F51D8B46DD0002604E3810E34
:1028B000002668E204D07F0E005E64E363E08CC70C
:1028C00093F79051931B8C8F908F8E519203F4CF7E
:1028D00095F78D519103F4CF03F0F3CF94F7920362
:1028E000F3509527F4509423000E03228E51910348
:1028F000F3509527F4509423000E026A032202221B
:102900008C519203F3509427F4500322000E0222BC
:102910008C519103F3500326F4500222000E016AF9
:1029200001228E519003F3509427F4500322000E9D
:10293000022201228D519003F3500326F45002220B
:10294000000E01228C519003F3500226F450012214
:10295000002A01BE05D09437033602360136000640
:10296000000E94AF0AD0032A02220122015005E191
:10297000025003E1035001E1002A93BF018E93AF9F
:10298000019E04D0006A016A026A036A0001120013
:1029900007017F6B7E6B7D6BFE0E7C6F000118DC88
:1029A0000150690809E1010E0701F76F0001D8EC39
:1029B0000FF00101B287000107017F6B7E6B7D6B19
:1029C0007C6B000105DC0150220852E1010E070179
:1029D000F76F0001D8EC0FF0220EB06F010E04016A
:1029E000EC6FEC51100843E307017F6B7E6B7D6B4E
:1029F000ECC47CF70001E8EC10F001C0EBF4010E30
:102A00000701F76F0001D8EC0FF00401EB51220829
:102A100023E1036AEC51B00FE96E000E0320EA6E69
:102A2000EBC4EFFF010EEC25036AB00FE96E000E58
:102A30000320EA6EEF6A010E0701F76F0001D8EC80
:102A40000FF00301BC81010E0701F76F0001D8EC04
:102A50000FF004010CD009D0036AEC51B00FE96EFD
:102A6000000E0320EA6EEBC4EFFFEC2BBAD7000197
:102A700007017F6B7E6B7D6BAA0E7C6F0001E8EC1B
:102A800010F00150220856E1220E9F6F0401EF6BF7
:102A9000010EEE6FEF534DE1EE5110084AE3AA0E1E
:102AA000EE25F86F000EEF21F96F07017F6B7E6B4B
:102AB0007D6FF8C47CF70001E8EC10F001C0EDF484
:102AC000040000D000000401ED51220826E19F0E11
:102AD000EE25E96E000EEF21EA6EEDC4EFFF010E68
:102AE000EE25F86F000EEF21F96F9F0EF825E96EC5
:102AF000000EF921EA6EEF6A010E0701F76F00017F
:102B0000D8EC0FF00301BC83010E0701F76F000141
:102B1000D8EC0FF004010DD008D09F0EEE25E96E21
:102B2000000EEF21EA6EEDC4EFFFEE2BD8B4EF2BD1
:102B3000B1D7000107017F6B7E6B7D6B150E7C6F3B
:102B40000001E8EC10F001500D085DE10401F16BAB
:102B5000120EF06FF15347E1F051150844E30701FD
:102B60007F6B7E6BF1C47DF7F0C47CF70001E8EC6D
:102B700010F001C0E3F4010E0701F76F0001D8EC7B
:102B80000FF00401E3510D0815E1120EF05DF86F2E
:102B9000000EF159F96FC10EF825E96E000EF9210A
:102BA000EA6EEF6A010E0701F76F0001D8EC0FF033
:102BB000040119D0120EF05DF86F000EF159F96F93
:102BC000C10EF825E96E000EF921EA6EE3C4EFFFAD
:102BD000010E0701F76F0001D8EC0FF00401F02B94
:102BE000D8B4F12BB7D707017D6BC10E7C6F000104
:102BF00069DC02C0FBF001C0FAF0010E0701F76FBB
:102C00000001D8EC0FF007017F6B7E6B7D6B1D0E12
:102C10007C6F0001E8EC10F001500D085DE104014B
:102C2000F36B1A0EF26FF35347E1F2511D0844E3C0
:102C300007017F6B7E6BF3C47DF7F2C47CF7000164
:102C4000E8EC10F001C0E3F4010E0701F76F00019A
:102C5000D8EC0FF00401E3510D0815E11A0EF25DF6
:102C6000F86F000EF359F96FC90EF825E96E000EE2
:102C7000F921EA6EEF6A010E0701F76F0001D8EC47
:102C80000FF0040119D01A0EF25DF86F000EF3591F
:102C9000F96FC90EF825E96E000EF921EA6EE3C45A
:102CA000EFFF010E0701F76F0001D8EC0FF00401F0
:102CB000F22BD8B4F32BB7D707017D6BC90E7C6F0D
:102CC000000100DC02C0FFF001C0FEF0010E0701B0
:102CD000F76F0001D8EC0FF007017F6B7E6B7D6B07
:102CE000190E7C6F0001E8EC10F001500D08D8A41B
:102CF0007AD00401F56B160EF46FF55347E1F451E9
:102D0000190844E307017F6B7E6BF5C47DF7F4C4BB
:102D10007CF70001E8EC10F001C0E3F4010E0701BC
:102D2000F76F0001D8EC0FF00401E3510D0815E135
:102D3000160EF45DF86F000EF559F96FC50EF82503
:102D4000E96E000EF921EA6EEF6A010E0701F76FD6
:102D50000001D8EC0FF0040119D0160EF45DF86FE5
:102D6000000EF559F96FC50EF825E96E000EF92130
:102D7000EA6EE3C4EFFF010E0701F76F0001D8EC24
:102D80000FF00401F42BD8B4F52BB7D707017D6BF6
:102D9000C50E7C6F000162EC12F002C001F101C0AF
:102DA00000F10101015303E10051090805E201535B
:102DB00003E100511E0803E2016B0F0E006F01C119
:102DC0007DF700C17CF707017F6B3C0E7E6F000131
:102DD00073DC02C003F101C002F1010E0701F76FBD
:102DE0000001D8EC0FF007017F6B7E6B7D6BA70EA7
:102DF0007C6F0001E8EC10F001500D085FE1040168
:102E0000F76BA40EF66FF75347E1F651A70844E3BA
:102E100007017F6B7E6BF7C47DF7F6C47CF700017A
:102E2000E8EC10F001C0E3F4010E0701F76F0001B8
:102E3000D8EC0FF00401E3510D0815E1A40EF65D86
:102E4000F86F000EF759F96FCD0EF825E96E000EF8
:102E5000F921EA6EEF6A010E0701F76F0001D8EC65
:102E60000FF0040119D0A40EF65DF86F000EF759AB
:102E7000F96FCD0EF825E96E000EF921EA6EE3C474
:102E8000EFFF010E0701F76F0001D8EC0FF004010E
:102E9000F62BD8B4F72BB7D707017D6BCD0E7C6F1F
:102EA000000162EC12F002C0E4F301C0E3F3010E92
:102EB0000701F76F0001D8EC0FF005D00301E46BB8
:102EC0003C0EE36F000107017F6B7E6B7D6BF10EA3
:102ED0007C6F0001E8EC10F001502A080FE10401BA
:102EE000F96B300EF86F1F0EFA6FFC6B5E0EFB6F06
:102EF00000016DEC13F00101B28B000107017F6B43
:102F00007E6B7D6BF20E7C6F0001E8EC10F00150DF
:102F10002A080FE10401F96BD10EF86F1F0EFA6F4A
:102F2000FC6B7C0EFB6F00016DEC13F00101B28DA8
:102F3000000107017F6B7E6B7D6BFB0E7C6F0001D8
:102F4000E8EC10F001502A080FE10401F96B200EA3
:102F5000F86F0B0EFA6FFC6B310EFB6F00016DEC1E
:102F600013F00101B28F000107017F6B7E6B7D6B57
:102F7000FC0E7C6F0001E8EC10F001502A080FE114
:102F80000401F96B500EF86F1F0EFA6FFC6B400EC8
:102F9000FB6F00016DEC13F00101B2890001070124
:102FA0007F6B7E6B7D6BF40E7C6F0001E8EC10F0A4
:102FB00001C0BFF3050E0701F76F0001D8EC0FF059
:102FC00007017F6B7E6B7D6BA00E7C6F0001E8ECD0
:102FD00010F001C09AF0050E0701F76F0001D8EC60
:102FE0000FF007017F6B7E6B7D6BA10E7C6F000184
:102FF000E8EC10F001C09BF0050E0701F76F00012F
:10300000D8EC0FF007017F6B7E6B7D6BA20E7C6F9F
:103010000001E8EC10F001C09CF0050E0701F76F0D
:103020000001D8EC0FF007017F6B7E6B7D6BA30E68
:103030007C6F0001E8EC10F001C09DF0050E070167
:10304000F76F0001D8EC0FF007017F6B7E6B010E6C
:103050007D6F7C6B0001E8EC10F0012C93D0070130
:103060007F6B7E6B7D6BF50E7C6F0001E8EC10F0E2
:103070000301C36BC26BC16B01C0C0F3C2C3C3F316
:10308000C1C3C2F3C0C3C1F3C06B010E0701F76F28
:103090000001D8EC0FF007017F6B7E6B7D6BF60EA5
:1030A0007C6F0001E8EC10F001500301C013010E29
:1030B0000701F76F0001D8EC0FF007017F6B7E6B03
:1030C000010E7D6F7C6F0001E8EC10F00301C76B0F
:1030D000C66BC56B01C0C4F3C6C3C7F3C5C3C6F393
:1030E000C4C3C5F3C46B010E0701F76F0001D8EC30
:1030F0000FF007017F6B7E6B010E7D6F020E7C6F00
:103100000001E8EC10F001500301C413010E0701A7
:10311000F76F0001D8EC0FF00301C75320E1C6534D
:103120001EE1C55101081BE303E1C451350817E353
:10313000C76BC66B010EC56F360EC46F0701866B79
:10314000856B010E846F836B876B00015FEC11F060
:10315000010E0701F76F0001D8EC0FF00301C35314
:103160000FE1C2530DE1C15101080AE303E1C0516F
:10317000350806E3C36BC26B010EC16F360EC06F1C
:103180000ED000010301C76BC66B010EC56F360E72
:10319000C46FC36BC26B010EC16F360EC06F0701E7
:1031A0007F6B7E6B010E7D6F360E7C6F0001E8EC4D
:1031B00010F001507B080EE10301C36BC26B010EDE
:1031C000C16F360EC06FC76BC66B010EC56F360E72
:1031D000C46F00010401F96BC00EF86F070EFA6F9F
:1031E000040EFC6FE40EFB6F00016DEC13F0015256
:1031F00017E0040E07017D6FE40E7C6F000162ECA6
:1032000012F002C032F501C031F5E8EC13F003C052
:10321000CBF302C0CAF301C0C9F300C0C8F307D0A2
:103220000301CB6BCA6BC96B800EC86F0001040130
:10323000F96BC70EF86F070EFA6F040EFC6FE40E01
:10324000FB6F00016DEC13F0015242E0040E070128
:103250007D6FE40E7C6F000162EC12F002C032F56B
:1032600001C031F5E8EC13F003C0CFF302C0CEF398
:1032700001C0CDF300C0CCF30501446B436B426B3E
:10328000416BCFC348F5CEC347F5CDC346F5CCC39C
:1032900045F5000110EC14F01AE3CFC38EF7CEC34E
:1032A0008DF7CDC38CF7CCC38BF70701926B916B75
:1032B000800E906F7F0E8F6F00014DEC14F003C0F5
:1032C000CFF302C0CEF301C0CDF300C0CCF306D0E3
:1032D0000301CF6BCE6B800ECD6FCC6F00017CEF06
:1032E00069F00900F5520DE0F6CF87F7F7CF88F7C0
:1032F000F550A4A8FED7736E87C7F6FF88C7F7FFFF
:10330000F0D712009290899092928992960E0701BE
:10331000F76F0001D8EC0FF0929089800E0E040137
:10332000F76FFA0E0701F76F0001D8EC0FF00401F8
:10333000F72FF7D7929089900301D681D093140E7E
:103340000401F76FFA0E0701F76F0001D8EC0FF0D8
:103350000401F72FF7D79290899092928992960E56
:103360000701F76F0001D8EC0FF0929089800A0EE8
:103370000401F76FDC0E0701F76F0001D8EC0FF0C6
:103380000401F72FF7D7929089900301D69100019D
:103390001200F8C703F00701F7C7E9FFF8C7EAFF13
:1033A000EF5239E0F8C7FCF7F7C7FBF7FAC7FEF7AB
:1033B000F9C7FDF7FEC703F0FDC7E9FFFEC7EAFF47
:1033C000EF5216E0FBC7E9FFFCC7EAFFEFCFFFF7BC
:1033D000FEC703F0FDC7E9FFFEC7EAFFEF50FF5D40
:1033E00007E1FB2BD8B4FC2BFD2BD8B4FE2BE2D786
:1033F000FEC703F0FDC7E9FF03C0EAFFEF5205E196
:10340000F7C701F0F8C702F009D0F72BD8B4F82BB2
:103410000001BFD70701000E016E026E000112000D
:1034200007018E6B8D6BF591F66B8E518C5D6AE3A7
:1034300003E18B518D5D66E2A4AA4ED0F651F62BC6
:10344000036A910FE96E070E0320EA6EEACFFAF7DE
:10345000E9CFF9F70001F9EC11F0FAC7EAFFF9C773
:10346000E9FF01C0EFFF0400010E006E002EFED741
:1034700000D00000036A0701F651910FE96E070EB4
:103480000320EA6EEF6A0400010E006E002EFED7E4
:1034900000D00000070EF86F910EF76F8AC7FAF799
:1034A00089C7F9F7000175DF02C090F701C08FF7F7
:1034B00007018F51901110E00400010E006E002EE4
:1034C000FED700D00000F5810400010E006E002E32
:1034D000FED700D0000016D00400020EF76FF80EE1
:1034E000F86F0001E9EC11F00701F72FF8D78D2BE9
:1034F000D8B48E2B0400010E006E002EFED700D033
:10350000000093D7050EF76F0001D8EC0FF0000E06
:103510000701F5B1010E016E00011200270E040132
:10352000F86F100EF76FF96BFB91E80EF66E190E3F
:10353000F76E0001D6DE0401F8C403F0F751D8B4E9
:10354000F807F707031049E0A4AA46D00001F9ECF8
:1035500011F001C0FAF4040000D000000401FBB136
:1035600012D0FA512B080FE1F951F92B036AFC0F25
:10357000E96E040E0320EA6EFAC4EFFF040000D0E7
:103580000000FB810CD0FBA10AD0F951F92B036A92
:10359000FC0FE96E040E0320EA6EFAC4EFFF04008C
:1035A00000D00000F9510A080FE1050104512C0870
:1035B000D8B402D0040108D0040000D0000005C532
:1035C00001F00ED008D00401F9510A0805E1300ECF
:1035D000016E050105D00401AFD7300E016E050163
:1035E000000112003AC53CF539C53BF505013C51D7
:1035F000010825E303E13B51350821E307017F6B17
:103600007E6B3CC57DF73BC57CF70001E8EC10F014
:1036100001C03DF5040000D0000005013D510D083A
:1036200002E10DD008D03D51000108EC00F004008B
:1036300000D0000005013B2BD8B43C2BD8D70001AB
:1036400012000401E46BE66BE56BE5510F0873E1D2
:10365000E65371E17086220E756E000E766EA60E30
:10366000726E900E716E020EF76FFA0E0701F76F11
:103670000001D8EC0FF00401F72FF7D7A00EF66E7B
:103680001C0EF76E00012DDE080E0401F76FFA0E16
:103690000701F76F0001D8EC0FF00401F72FF7D7FF
:1036A000A60EF66E1C0EF76E00011BDE080E04015E
:1036B000F76FFA0E0701F76F0001D8EC0FF0040165
:1036C000F72FF7D7AE0EF66E1C0EF76E000109DE6F
:1036D000080E0401F76FFA0E0701F76F0001D8EC2E
:1036E0000FF00401F72FF7D7BC0EF66E1C0EF76E25
:1036F0000001F7DD080E0401F76FFA0E0701F76FFE
:103700000001D8EC0FF00401F72FF7D77086A00E58
:10371000756E010E766EA60E726E900E716E080EAC
:10372000F76FFA0E0701F76F0001D8EC0FF00401F4
:10373000F72FF7D72BD0E65303E1E551640826E2D3
:10374000E66BE56B0001DEDD080E0401F76FFA0E93
:103750000701F76F0001D8EC0FF00401F72FF7D73E
:10376000080EF76FFA0E0701F76F0001D8EC0FF0A3
:103770000401F72FF7D7080EF76FFA0E0701F76F5E
:103780000001D8EC0FF00401F72FF7D7C40EF66E46
:103790001C0EF76E0001A5DD0D0E0401E76F0A0E89
:1037A000E86F4F0EE96F4B0EEA6FEB6B040E0701EB
:1037B0008A6FE70E896F070E8C6FD00E8B6F00013A
:1037C0002FDE01500401E4270A0E0701F76F000104
:1037D000D8EC0FF00401E52BD8B4E62BE453D8B4B1
:1037E00034D7E66BE56B0A0E0701F76F0001D8ECE2
:1037F0000FF094DE01C0D1F30A0E0701F76F00014C
:10380000D8EC0FF00301D151310803E0D151350854
:1038100002E1D68304D0D693000E016E57D2070181
:103820007F6B7E6B7D6B7C690001E8EC10F00150D2
:103830006908D8B490D1050E0701F76F0001D8ECE4
:103840000FF0300E9A6F9B6F9C6F9D6F0701866B18
:10385000856B846BA00E836F300E876F00015FEC69
:1038600011F0050E0701F76F0001D8EC0FF007010A
:10387000866B856B846BA10E836F300E876F0001A2
:103880005FEC11F0050E0701F76F0001D8EC0FF0A7
:103890000701866B856B846BA20E836F300E876F7A
:1038A00000015FEC11F0050E0701F76F0001D8EC85
:1038B0000FF00701866B856B846BA30E836F300E50
:1038C000876F00015FEC11F0050E0701F76F000133
:1038D000D8EC0FF00401E46BCA0EF66E1C0EF76E06
:1038E0000001FFDC0D0E0401EC6F0A0EED6F4F0EB0
:1038F000EE6F4B0EEF6FF06B040E07018A6FEC0E4C
:10390000896F130E8C6F880E8B6F000189DD01505B
:103910000401E427C80E0701F76F0001D8EC0FF08F
:10392000D00EF66E1C0EF76EDCDC0D0E0401EC6F93
:103930000A0EED6F4F0EEE6F4B0EEF6FF06B040E35
:1039400007018A6FEC0E896F130E8C6F880E8B6FD8
:10395000000166DD01500401E427C80E0701F76F7E
:103960000001D8EC0FF0DA0EF66E1C0EF76EB9DC23
:103970000D0E0401EC6F0A0EED6F4F0EEE6F4B0E45
:10398000EF6FF06B040E07018A6FEC0E896F130E58
:103990008C6F880E8B6F000143DD01500401E4271A
:1039A000C80E0701F76F0001D8EC0FF0E80EF66EB5
:1039B0001C0EF76E96DC0D0E0401EC6F0A0EED6F17
:1039C0004F0EEE6F4B0EEF6FF06B040E07018A6F18
:1039D000EC0E896F130E8C6F880E8B6F000120DD4B
:1039E00001500401E427C80E0701F76F0001D8EC6D
:1039F0000FF0F40EF66E1C0EF76E73DC0D0E040164
:103A0000EC6F0A0EED6F4F0EEE6F4B0EEF6FF06B1B
:103A1000040E07018A6FEC0E896F130E8C6F880EEF
:103A20008B6F0001FDDC01500401E427C80E070183
:103A3000F76F0001D8EC0FF0000EF66E1D0EF76E5A
:103A400050DC0D0E0401EC6F0A0EED6F4F0EEE6FA1
:103A50004B0EEF6FF06B040E07018A6FEC0E896F4F
:103A6000130E8C6F880E8B6F0001DADC015004019D
:103A7000E427C80E0701F76F0001D8EC0FF0080E1D
:103A8000F66E1D0EF76E2DDC0D0E0401EC6F0A0EA6
:103A9000ED6F4F0EEE6F4B0EEF6FF06B040E0701E4
:103AA0008A6FEC0E896F130E8C6F880E8B6F00017E
:103AB000B7DC01500401E427C80E0701F76F0001CD
:103AC000D8EC0FF00401E45107082EE0E52BD8B440
:103AD000E62BE65303E1E551320826E2E66BE56B9F
:103AE000000110DC080E0401F76FFA0E0701F76FF2
:103AF0000001D8EC0FF00401F72FF7D7080EF76F8D
:103B0000FA0E0701F76F0001D8EC0FF00401F72F50
:103B1000F7D7080EF76FFA0E0701F76F0001D8EC20
:103B20000FF00401F72FF7D7E4510708D8A4D3D634
:103B3000010E0301D56F0701866B856B846B83696A
:103B4000690E876F00015FEC11F0050E0701F76F3A
:103B50000001D8EC0FF0160EF66E1D0EF76E71EC2C
:103B600019F0520E0401F16F450EF26F410EF36F22
:103B7000440EF46F590EF56FF66B040E07018A6F51
:103B8000F10E896F130E8C6F880E8B6F000148DC6D
:103B900001C0E4F4C80E0701F76F0001D8EC0FF084
:103BA00007017F6B7E6B7D6BFC0E7C6F0001E8EC88
:103BB00010F001502A0877E10401E42D01D002D071
:103BC000000171D0050E0701F76F0001D8EC0FF06E
:103BD0000301BC8D050E0701F76F0001D8EC0FF053
:103BE0000101B289050E0701F76F0001D8EC0FF053
:103BF000220EF66E1D0EF76E71EC19F005013A6B90
:103C0000500E396F0001EEDC320EF66E1D0EF76EAF
:103C100071EC19F00D0E0401F16F0A0EF26F4F0EE8
:103C2000F36F4B0EF46FF56B040E07018A6FF10E04
:103C3000896F130E8C6F880E8B6F000110EC1AF0D9
:103C400001500401E427C80E0701F76F0001D8EC0A
:103C50000FF00401E451020827E13E0EF66E1D0E3E
:103C6000F76E000171EC19F00D0E0401F16F0A0EF0
:103C7000F26F4F0EF36F4B0EF46FF56B040E0701EE
:103C80008A6FF10E896F130E8C6F880E8B6F000197
:103C900010EC1AF001500401E427C80E0701F76F79
:103CA0000001D8EC0FF00401E451030806E1030120
:103CB000D081020ED56F03D004010301D091050E0F
:103CC0000701F76F0001D8EC0FF0030100011200AB
:103CD0000701825302E1835342E07EC7E9FF7FC7B9
:103CE000EAFFEFCF84F781C703F080C7E9FF81C700
:103CF000EAFFEF50845D17E07FC703F07EC7E9FF5E
:103D000003C0EAFFEFCF84F781C703F080C7E9FF64
:103D100081C7EAFFEF50845D02E2FF0E01D0010E81
:103D2000016E1FD00BD07FC703F07EC7E9FF7FC7AE
:103D3000EAFFEF5203E1000E016E13D07FC703F0DC
:103D40007E517E2BD8B47F2B81C703F08051802B0E
:103D5000D8B4812B8251D8B483078207BAD7000E1A
:103D6000016E00011200040000D0000007019C6BEE
:103D70009C511D081CE3036A9C517C25E96E7D5112
:103D80000320EA6EEF503A0810E19C2B036A9C5125
:103D90007C25E96E7D510320EA6EEF50200801E199
:103DA0009C2B040000D0000002D09C2BE1D79CC7C4
:103DB0009DF7036A9D517C25E96E7D510320EA6ED3
:103DC000EF521DE09C519D5D036A7E0F016E070E50
:103DD000032203C09FF7036A9D517C25E96E7D5144
:103DE0000320EA6EEFCFA0F79FC7EAFF01C0E9FF0B
:103DF000A0C7EFFF040000D000009D2BDAD79C5134
:103E00009D5D036A7E0FE96E070E0320EA6EEF6A7E
:103E1000040000D000007DC7EAFF7CC7E9FF070E61
:103E2000E26E7E0EE16EE752E6CFEEFFFCE10400AB
:103E300000D00000000112000501486B476B4A6B7F
:103E40004B6B4C0EF66E1D0EF76E000171EC19F007
:103E5000050148511308D8A07FD004E147518708D5
:103E6000D8A07AD0472BD8B4482BA4AA68D0000198
:103E7000F9EC11F001C049F50400010E006E002EAE
:103E8000FED700D00000050149512B080BE14A6B19
:103E9000010E4B6F0400010E006E002EFED700D005
:103EA000000007D049510D0804E14B51020801E11F
:103EB00053D04B5344E04A514A2B036AE30FE96E57
:103EC000040E0320EA6E49C5EFFF0400010E006EE8
:103ED000002EFED700D00000036A4A51E30FE96EBE
:103EE000040E0320EA6EEF6A0400010E006E002E3D
:103EF000FED700D000004A51050821E12B0E4C6F7F
:103F0000430E4D6F470E4E6F530E4F6F4E0E506F58
:103F1000516B040E07017F6FE30E7E6F050E816FFC
:103F20004C0E806F836B050E826F0001D1DE015253
:103F3000D8B402D0050103D0020E05014B6F040076
:103F40000D0E526F2D0E0701F86F0001E9EC11F014
:103F50000501522FF7D77DD7040E07017D6FE30EC1
:103F60007C6F000100DF010E0701F76F0001D8EC44
:103F70000FF0EA6AE40EE96E040EE26EE30EE16E03
:103F8000E752E6CFEEFFFCE1010E0701F76F0001FB
:103F9000D8EC0FF0050E0701F76F0001D8EC0FF019
:103FA0009AEF69F00601226B0701506B4F6B060117
:103FB00021C603F02051D8B421072007031045E0A3
:103FC000A4AA3AD00001F9EC11F001C051F70701A1
:103FD00050C703F04F514F2BD8B4502B526F230EC4
:103FE0005225E96E060E0320EA6E51C7EFFF04006A
:103FF00000D00000230E4F25E96E060E5021EA6E18
:10400000EF6A040000D00000060122530AE1070114
:1040100051514F08D8B402D0060103D00601222B1B
:104020000BD0222D09D0070151514B08D8B402D032
:10403000060102D0060109D0010E0701F76F000149
:10404000D8EC0FF00701B3D70601230E016E060E60
:10405000026E00011200EBC3EAFFEAC3E9FF0701A9
:1040600089C7EFFFE92AD8B4EA2AEF6A0301EA2BED
:10407000D8B4EB2B00011200EF520FE0EACF7DF72E
:10408000E9CF7CF7EFCF89F7E6DF7DC7EAFF7CC792
:10409000E9FFE92AD8B4EA2AEFD7120021C623F6AD
:1040A00020C622F623C603F0060122C6E9FF23C676
:1040B000EAFFEF5206E0222BD8B4232B0001F2D7FF
:1040C00006012051225D006E21512359036E00C06C
:1040D00001F0000112000900F6CF7DF7F7CF7EF75F
:1040E000F550A4A8FED7736E7DC7F6FF7EC7F7FF15
:1040F00007017C2F01D002D00001EDD70001120092
:1041000007017EC7E9FF7FC7EAFFEFCF82F781C7CC
:1041100003F080C7E9FF81C7EAFFEF50825D15E138
:104120007FC703F07EC7E9FF03C0EAFFEF5203E158
:10413000000E016E1FD07FC703F07E517E2BD8B4D6
:104140007F2B802BD8B4812BDCD77FC703F07EC7B1
:10415000E9FF7FC7EAFFEFCF82F781C703F080C78F
:10416000E9FF81C7EAFFEF50825D02E2FF0E01D056
:10417000010E016E0001120087C78BF786C78AF710
:104180008BC703F007018AC7E9FF8BC7EAFFEF522D
:1041900030E089C78DF788C78CF78DC703F08CC7CF
:1041A000E9FF8DC7EAFFEF520AE186518A5D006E92
:1041B00087518B59036E00C001F023D010D08AC7FD
:1041C000E9FF8BC7EAFFEFCF8EF78DC703F08CC7EF
:1041D000E9FF8DC7EAFFEF508E5D01E104D08C2B23
:1041E000D8B48D2BDAD78A2BD8B48B2B0001C8D743
:1041F000070186518A5D006E87518B59036E00C09E
:1042000001F0000159EF21F087C78BF786C78AF7C5
:104210008BC703F007018AC7E9FF8BC7EAFFEF529C
:104220002AE089C78DF788C78CF78DC703F08CC744
:10423000E9FF8DC7EAFFEF5218E08AC7E9FF8BC795
:10424000EAFFEFCF8EF78DC703F08CC7E9FF8DC76C
:10425000EAFFEF508E5D05E18AC701F08BC702F0DF
:104260000DD08C2BD8B48D2BE0D78A2BD8B48B2BC8
:104270000001CED70701000E016E026E00017AEF39
:1042800021F007017E517F1104E07FC703F07E51CA
:1042900003D018C003F01750826F03C083F783C7A1
:1042A00087F782C786F781C789F780C788F700013B
:1042B00063D7015007018227000E832383C703F0D1
:1042C00082C7E9FF83C7EAFFEF520AE117C0E9FF9F
:1042D00018C0EAFF200EEF6E000E016E026E27D0AE
:1042E00083C787F782C786F781C789F780C788F7B2
:1042F00000018AD702C085F701C084F785C703F0A3
:10430000070184C7E9FF85C7EAFFEF5208E084C7C9
:10431000E9FF85C7EAFFEF6A842BD8B4852B85C7F0
:1043200018F084C717F082C701F083C702F00001BC
:1043300012007DC781F77CC780F77FC703F00701B4
:104340007EC7E9FF7FC7EAFFEF522CE081510008EA
:1043500006E2FF0A03E18051350801E223D07FC75E
:1043600003F07E517E2BD8B47F2BE96E03C0EAFFA9
:10437000EFCF82F7866B856B81C784F780C783F7A1
:1043800082C787F700015FEC11F0050E0701F76F98
:104390000001D8EC0FF00701802BD8B4812B00016D
:1043A000CCD707017FC703F07EC7E9FF7FC7EAFFCD
:1043B000EF5212E1866B856B81C784F780C783F764
:1043C0000D0E876F00015FEC11F0050E0701F76F0E
:1043D0000001D8EC0FF0070100011200EF5210E0CD
:1043E000EACF88F7E9CF87F7EF50A4A8FED7736E1E
:1043F00088C7EAFF87C7E9FFE92AD8B4EA2AEED7D7
:1044000012001A0E0701836FC60EF66E1A0EF76EB3
:10441000000171EC19F04F0E0701846F4B0E856F90
:10442000866B070E8A6F840E896F270E8C6F100EB5
:104430008B6F000110EC1AF00701829101B08281AC
:10444000020E876FFA0EF76F0001D8EC0FF007012C
:10445000872FF8D7D20EF66E1A0EF76E000171ECA8
:1044600019F04F0E0701846F4B0E856F866B070E98
:104470008A6F840E896F270E8C6F100E8B6F000170
:1044800010EC1AF00701829101B08281020E876F51
:10449000FA0EF76F0001D8EC0FF00701872FF8D75D
:1044A000E20EF66E1A0EF76E000171EC19F07FC77E
:1044B000EAFF7EC7E9FF92DF0D0EA4A8FED7736E58
:1044C0000A0EA4A8FED7736E3E0E0701846F856B9B
:1044D000070E8A6F840E896F270E8C6F100E8B6FFC
:1044E000000110EC1AF00701829101B08281320EB6
:1044F000F76F0001D8EC0FF081C7EAFF80C7E9FF32
:104500006DDF07018351A4A8FED7736E4F0E846F31
:104510004B0E856F866B070E8A6F840E896F270E90
:104520008C6F100E8B6F000110EC1AF00701829156
:1045300001B08281320EF76F0001D8EC0FF012004B
:1045400007017C5318E09290899092928992960E7E
:10455000F76F0001D8EC0FF0929089800E0E0701E2
:104560007D6FFA0EF76F0001D8EC0FF007017D2F79
:10457000F8D7929089900301D681D093D56B000132
:1045800012000900F6CF7DF7F7CF7EF7F5CF89F758
:1045900062DD7DC7F6FF7EC7F7FF07017C2F01D0E4
:1045A00002D00001EED70001120007018351016A19
:1045B000825D03E282C700F00CD0006A080E846FAF
:1045C000823700368351005CD8B0006E0136842FEC
:1045D000F7D700011200200E07017DA9300E7E6F73
:1045E0007CC700F07CAF08D0001E002A00C07CF71A
:1045F0002D0E7E6F7D8F7D8101507CC782F7640E0A
:10460000836F0001D2DF00C07CF7300E0124070168
:104610007F6F7CC782F70A0E836F0001C6DF300E02
:1046200000240701816F300E0124806F7EC700F0E7
:10463000300E7F5D04E07D837DBF7D8512D07EC717
:104640007FF7200E7E6F300E805D04E07D817DBFA0
:104650007D8307D0D8A47D8104E17FC780F7200E39
:104660007F6F7DB505D07DB307D07DB109D00CD06B
:104670007EC789F70001EFDC7FC789F70001EBDC1B
:1046800080C789F70001E7DC81C789F70001E3DC17
:10469000120007018951B608896F036A8AC78DF72E
:1046A0008A8FD8908A338B338C33033202320132B3
:1046B0000032892FF6D78DAF0BD0001E011E021ECF
:1046C000031E002AD8B4012AD8B4022AD8B4032A77
:1046D00000011200D8B204D0070EEA6E910EE96E06
:1046E000006A016A026A036A0701916B926B936B1D
:1046F000946B90518F118E118D112CE0200E956FBF
:10470000D89089378A378B378C37913792379337E0
:1047100094379051945D08E18F51935D05E18E517E
:10472000925D02E18D51915D0FE38D51915F8E514C
:10473000D8A08E3D925F8F51D8A08F3D935F90514E
:10474000D8A0903D945FD8800036013602360336FB
:10475000952FD6D791C7EFFF92C7ECFF93C7ECFF19
:1047600094C7ECFF00011200E9500701816F8051EE
:10477000836F1CE07FC78EF77EC78DF77DC78CF7F0
:104780007CC78BF7926B916B200E906F820E8F6FB0
:1047900000014DEC14F003C07FF702C07EF701C0AA
:1047A0007DF700C07CF70701832FE4D77FC78CF724
:1047B0007EC78BF77DC78AF77CC789F7000169DF61
:1047C00003C07FF702C07EF701C07DF700C07CF711
:1047D00007017FAF0DD08107818B7C1F7D1F7E1F5E
:1047E0007F1F7C2BD8B47D2BD8B47E2BD8B47F2BE5
:1047F0003B0E886F9A0E876FCA0E866F856B0A0E06
:10480000836F8051D8B4812BD882070EEA6E7C0E5C
:10481000E96E7FC78CF77EC78BF77DC78AF77CC7A9
:1048200089F788C790F787C78FF786C78EF785C740
:104830008DF700014FDF0150005213E1070180297D
:10484000835DD8A402D000010CD081510DE00F0B84
:10485000835D01E044E281BF42D081BD05D0200EDE
:1048600037D0200E0701811781AB0FD0819B80517B
:10487000D8A481070050816F2D0E896F00012BECA9
:1048800020F007018151006E816B8051835D0DE145
:104890000050816F2E0E896F00012BEC20F0070174
:1048A0008151006E200E8117000E300E81AB10D0AA
:1048B000819B8051D8A481070050816F2D0E896F94
:1048C00000012BEC20F007018151006E816B300E4E
:1048D000002600C089F700012BEC20F00701D892D8
:1048E00088C78CF787C78BF786C78AF785C789F78C
:1048F000906B8F6B8E6B0A0E8D6F0001EBDE03C029
:1049000088F702C087F701C086F700C085F7070166
:10491000832F7AD700011200EACF84F7E9CF83F71B
:1049200007017DAF08D0838F83A9832B7C1F7D1F58
:104930007C2BD8B47D2B7D39F0097F6F7F27E20F68
:10494000806F320F826F7D510F0B80278027822767
:10495000E90F816F812781277C390F0B81278227FF
:1049600081378237821F82377C510F0B82277F3736
:10497000070E7E6F0A0E81078227FDE380078127DD
:10498000FDE37F078027FDE37E077F27FDE3070E1A
:10499000EA6E7E0EE96E070E8315839DED52831538
:1049A00007E183B9EE5283B903D0200E006E21D007
:1049B000E926000EEA22E950820804E1EA500708DD
:1049C00001E1838DEF50006E08E183BD06D083B90D
:1049D0001ED083B702D0200E0BD083AF06D02D0E91
:1049E000006EED50839D839F04D083878399300EA2
:1049F0000026EACF7DF7E9CF7CF700C089F70001F8
:104A00002BEC20F07DC7EAFF7CC7E9FF0701EE50E1
:104A100083ADD1D7000154EF36F00900F5520DE017
:104A2000F6CF7CF7F7CF7DF7F5CF89F72BEC20F0A9
:104A30007CC7F6FF7DC7F7FFF0D78CEF36F08E0E00
:104A4000006E90C701F08FC702F0036A015209E1BE
:104A500002C001F0026A080E005E015202E1006A23
:104A600008D0D89001BE04D0023601360006F9D72E
:104A7000019E120007018F51D8B4A5D09B6F9351AE
:104A8000D8B4A1D09B5F05E37F0E9B27D8B09BD005
:104A900006D0810E9B5FD8A096D0D8B494D09BC787
:104AA00000F0016A026A036A9A6B90C799F7998FBE
:104AB00091C798F792C797F7190E9B6F9651975F1A
:104AC0000DE2010E985F0AE2995F08E29A5F06E242
:104AD0009A2B992B982B9651972728D09551985F10
:104AE00012E2010E995F0FE29A5F0DE29A2B992B69
:104AF000955198279651972719E3982B17E1992BF1
:104B000015E19A2B13D094518009995F0EE2010EA2
:104B10009A5F0BE29A2B9451800999279551982717
:104B2000E9E3992BE7E19A2BE5D703809B2F01D08E
:104B30000BD0D8909737983799379A37D890033653
:104B4000023601369C37BAD79CA106D0D8900132E4
:104B5000023203329C3302D0000635E09CBF1ED0E7
:104B6000D8909737983799379A379651975F07E2D9
:104B7000010E985F04E2995F02E29A5F1AE3955191
:104B8000985F05E2010E995F02E29A5F12E3945189
:104B90008009995F03E2010E9A5F0BE3032A09E1A2
:104BA000022A07E1012A05E1002A0DE00132023262
:104BB000033290C79BF794519B1B9BAF02D0018E91
:104BC00006D0019E04D0006A016A026A036A0001ED
:104BD0001200800ED8A202D00701941B0701996B26
:104BE0009A6B90C798F79451981B8F51D8B4DFD027
:104BF000976F006E9351D8B4E3D0975FD8B483D049
:104C00003EE394C79DF79D8F95C79CF796C79BF78A
:104C10009A6BD8909D339C339B339A33972FF8D758
:104C200098AF03D09981E0D0999197919989070E17
:104C3000EA6E920EE96EEBD0999998BF0AD097A1CF
:104C400013D09D339C339B339A33002AD8B4C7D0FA
:104C50000BD09DBF0CD0D8909A379B379C379D378F
:104C60000006D8B4BCD0F5D7998D6DD0999D90C76A
:104C700098F790AF02D09D8FABD09D9FA9D093C7DE
:104C800097F793C700F08F51975F90C79DF79D8F5F
:104C900091C79CF792C79BF79A6BD8909D339C3332
:104CA0009B339A33972FF8D798AF03D099839CD032
:104CB00099939791998B070EEA6E960EE96EA7D09D
:104CC000999B98BF0AD097A113D09D339C339B33F7
:104CD0009A33002AD8B483D00BD09DBF0CD0D89083
:104CE0009A379B379C379D370006D8B478D0F5D7D4
:104CF000998F29D0999F94C798F794AF02D09D8F30
:104D000067D09D9F65D094C79DF79D8F95C79CF7F1
:104D100096C79BF798AF04D09D9F998565D09995CC
:104D20009A6B9791070EEA6E920EE96E70D098BF5B
:104D30001CD090C798F797A106D09D339C339B3326
:104D40009A33002A4CE09AAF0BD09B2B09E19C2BA5
:104D500007E19D2B05E19D339C339B33002A3FE007
:104D600099BD84D799BFC6D71CD0800E9D1B9DAF1F
:104D700004D03AD094C798F70AD090C798F79D53BB
:104D800006E19C5304E19B5302E1006A21D09DBFE0
:104D900008D0D8909A379B379C379D37002EF7D78D
:104DA0001ED098AF02D09D8F13D09D9F11D093C776
:104DB00000F094C79DF795C79CF796C79BF708D05E
:104DC0008FC700F090C79DF791C79CF792C79BF7DC
:104DD0009DC701F09CC702F09BC703F034D0006A66
:104DE000016A026A036A2FD09A6B9B1F9C1F9D1F4A
:104DF0009A1F9A2B05E19B2B03E19C2B01E19D2B34
:104E000099B112D799B354D799B589D7B3D7EF5081
:104E10009B2705E39C2B03E19D2BD8B49781ED5292
:104E2000EF509C2703E39D2BD8B49781ED52EF50B0
:104E3000EFBE01D0800A9D27D8B0978199B9FCD6E2
:104E400099BB3ED774D7000112000701836B826BB8
:104E5000816B7F0E806F876B866B856B846B88811F
:104E6000889388958A6B7C517D1105E1006A016AFF
:104E7000026A036A12D18A518A2B036A7C25E96E81
:104E80007D510320EA6EEFCF89F78953D8B4C7D09C
:104E900088A10FD0895120080CE0889189512B08F6
:104EA00003E18893AFD005D089512D0802E18883B2
:104EB000A9D088B107D089512E0804E188B502D065
:104EC0008885A0D088B19BD089512F08D8B097D0C1
:104ED00089513908D8A093D0300E895F88A554D065
:104EE00083C78EF782C78DF781C78CF780C78BF792
:104EF000926B916B200E906F820E8F6F00014DECC4
:104F000014F003C083F702C082F701C081F700C02C
:104F100080F70701906B89C78FF7000190DD03C010
:104F20008EF702C08DF701C08CF700C08BF703C06D
:104F300092F702C091F701C090F700C08FF783C7C6
:104F400096F782C795F781C794F780C793F792DDEC
:104F5000D89287C792F786C791F785C790F784C71D
:104F60008FF703C096F702C095F701C094F700C011
:104F700093F72FDE03C087F702C086F701C085F7DD
:104F800000C084F73AD007018E6B8D6B200E8C6FBA
:104F9000820E8B6F87C792F786C791F785C790F708
:104FA00084C78FF700014DEC14F003C08EF702C0E8
:104FB0008DF701C08CF700C08BF70701906B89C794
:104FC0008FF700013CDDD8928EC792F78DC791F71D
:104FD0008CC790F78BC78FF703C096F702C095F781
:104FE00001C094F700C093F7F4DD03C087F702C057
:104FF00086F701C085F700C084F705D0070188B1A6
:1050000001D00DD0000107018A518A2B036A7C254B
:10501000E96E7D510320EA6EEFCF89F736D788A37A
:105020001AD08E6B8D6B800E8C6F7F0E8B6F87C747
:1050300092F786C791F785C790F784C78FF700016D
:105040004DEC14F003C087F702C086F701C085F766
:1050500000C084F707017E517F1117E08A530CE0EE
:105060008A077EC7E9FF7FC7EAFF8A517C25EF6E7A
:10507000000E7D21EC6E09D07EC7E9FF7FC7EAFFF5
:105080007DC7ECFFED527CC7EFFF84C700F085C7FA
:1050900001F086C702F087C703F000011200060E78
:1050A0000301E06F0601226B266B0701526B516B07
:1050B000270E546F100E536FEC0EF66E1A0EF76E2D
:1050C000080E7C6F00016BEC20F006012151A4A8B2
:1050D000FED7736E0D0EA4A8FED7736E0A0EA4A899
:1050E000FED7736E070154C703F05351D8B4540769
:1050F00053070310D8B4DBD0A4AAD1D00001F9EC37
:1051000011F001C023F6040000D000000601262D96
:105110000DD023512C080AE02751272B036A400F9A
:10512000E96E070E0320EA6E23C6EFFF2251020844
:1051300018E123512C0815E1265304E1010E266FD6
:10514000276B0FD0262D0DD0020E266F036A275134
:10515000400FE96E070E0320EA6EEF6A040000D0EC
:10516000000022530CE123512B0809E1010E226FAC
:105170000701526B516B040000D00000060123515F
:105180000D0809E12251030806E1040000D00000E7
:1051900007018DD00601222D01D003D02251020833
:1051A00025E1070152C703F05151512BD8B4522BBE
:1051B0007C6F280E7C25E96E060E0320EA6E23C65E
:1051C000EFFF040000D00000280E5125E96E060E06
:1051D0005221EA6EEF6A040000D00000525303E14E
:1051E00051517F0801E263D027D006012251030804
:1051F00024E1070152C703F05151512BD8B4522B6F
:105200007C6FDC0E7C25E96E060E0320EA6E23C659
:10521000EFFF040000D00000DC0E5125E96E060E01
:105220005221EA6EEF6A040000D00000525303E1FD
:105230005151630801E23BD0060123510A0809E1FC
:105240002251020806E10701526B516B030E060161
:10525000226F222D22D02B0E0701556F430E566F61
:105260004D0E576F470E586F520E596F5A6B060E00
:105270007F6F280E7E6F070E816F550E806F836BD8
:10528000050E826F000168EC1EF0015207E1020E6C
:105290000601226F040000D0000000010701010E8A
:1052A000F76F0001D8EC0FF006011CD70701070EBD
:1052B000EA6E5B0EE96EF2CF7CF7F29E100E016E85
:1052C000F76A000E000126EC07F00A000900F5CF8E
:1052D000EEFF012EFBD707017CBFF28E070E7F6F1A
:1052E000400E7E6F070E816F5B0E806F000180ECB9
:1052F00020F001520FE0070E07017F6F400E7E6F16
:10530000816BB00E806F000180EC20F00152D8A4B8
:1053100036EF39F00601DC512308D8A457D1070134
:10532000716B230E5B6F5C6B060E7F6FDC0E7E6F06
:10533000070E816F5B0E806F000141EC21F002C00F
:1053400070F701C06FF707016F517011D8B495D095
:105350007151000A000111E0010A1BE0030A25E077
:10536000010A2FE0070A39E0010A43E0030A4DE091
:10537000010A57E00F0A61E06CD007017D6B120E45
:105380007C6F70C77FF76FC77EF7000199EC21F043
:1053900060D007017D6B160E7C6F70C77FF76FC7FB
:1053A0007EF7000199EC21F054D007017D6B1A0EB5
:1053B0007C6F70C77FF76FC77EF7000199EC21F013
:1053C00048D007017D6B200E7C6F70C77FF76FC7D9
:1053D0007EF7000199EC21F03CD007017D6B500E67
:1053E0007C6F70C77FF76FC77EF7000199EC21F0E3
:1053F00030D007017D6B300E7C6F70C77FF76FC7B1
:105400007EF7000199EC21F024D007017D6B700E2E
:105410007C6F70C77FF76FC77EF7000199EC21F0B2
:1054200018D007017D6B800E7C6F70C77FF76FC748
:105430007EF7000199EC21F00CD007017D6B900EF6
:105440007C6F70C77FF76FC77EF7000199EC21F082
:1054500000D00701712B230E5B6F5C6B7F6B7E6B43
:10546000070E816F5B0E806F000141EC21F002C0DE
:1054700070F701C06FF767D70701866B856B846B88
:105480008369876900015FEC11F0050E0701F76F72
:105490000001D8EC0FF00701866B856B846BF00E72
:1054A000836F690E876F00015FEC11F0050E070135
:1054B000F76F0001D8EC0FF00701866B856B846BEA
:1054C000F10E836F2A0E876F00015FEC11F0050E5D
:1054D0000701F76F0001D8EC0FF00701866B856BB1
:1054E000846BFC0E836F2A0E876F00015FEC11F056
:1054F000050E0701F76F0001D8EC0FF00701866B6E
:10550000856B846BFB0E836F2A0E876F00015FEC47
:1055100011F0050E0701F76F0001D8EC0FF007013D
:10552000866B856B846BFE0E836F690E876F00013F
:105530005FEC11F0020E07017C6FFA0EF76F0001AD
:10554000D8EC0FF007017C2FF8D7070EEA6E5B0E40
:10555000E96EF2CF7CF7F29E0F0E016EF76A000E35
:1055600000013BEC07F00A000900F5CFEEFF012E29
:10557000FBD707017CBFF28E070E7F6F400E7E6F58
:10558000070E816F5B0E806F000101EC22F0040EAC
:1055900007017C6FFA0EF76F0001D8EC0FF00701DE
:1055A0007C2FF8D7010E7C6F0001A0EC22F0040ED6
:1055B00007017C6FFA0EF76F0001D8EC0FF00701BE
:1055C0007C2FF8D7FF0033EF39F00601DC512408B7
:1055D000D8A4AFD00701746B240E5B6F5C6B060E12
:1055E0007F6FDC0E7E6F070E816F5B0E806F000198
:1055F00041EC21F002C073F701C072F7070172514C
:1056000073115DE07451000A000107E0010A1CE01B
:10561000030A27E0010A32E03ED007017D6BD10E7C
:105620007C6F73C77FF772C77EF7000199EC21F09A
:10563000EA6A7C0EE96E73C7E2FF72C7E1FFE752C8
:10564000E6CFEEFFFCE127D0010E07017D6F040ECF
:105650007C6F73C77FF772C77EF7000199EC21F06A
:105660001AD0010E07017D6F140E7C6F73C77FF790
:1056700072C77EF7000199EC21F00DD0010E0701F1
:105680007D6F240E7C6F73C77FF772C77EF70001B2
:1056900099EC21F000D00701742B240E5B6F5C6B3A
:1056A0007F6B7E6B070E816F5B0E806F000141EC9C
:1056B00021F002C073F701C072F7A0D70701050EF1
:1056C000F76F0001D8EC0FF00701866B856B846BD8
:1056D000F20E836F2A0E876F00015FEC11F0050E4A
:1056E0000701F76F0001D8EC0FF0070EEA6E5B0EB2
:1056F000E96EF2CF7CF7F29E0C0E016EF76A000E97
:1057000050EC07F00A000900F5CFEEFF012EFBD7A1
:1057100007017CBFF28E070E7F6F400E7E6F070E73
:10572000816F5B0E806F000101EC22F033EF39F0E6
:105730000601070EEA6E5B0EE96EF2CF7CF7F29E71
:10574000080E016EF76A000E000163EC07F00A0014
:105750000900F5CFEEFF012EFBD707017CBFF28ECB
:10576000060E7F6FDC0E7E6F070E816F5B0E806F03
:10577000836B070E826F000168EC1EF001526DE131
:10578000060E07017D6FDC0E7C6F0001B3EC1EF08E
:1057900007017D6B500E7C6F060E7F6FDC0E7E6FF7
:1057A000000199EC21F00701866B856B846BFC0E80
:1057B000836F2A0E876F00015FEC11F0050E070161
:1057C000F76F0001D8EC0FF00701866B856B846BD7
:1057D0008369876B00015FEC11F0050E0701F76F1D
:1057E0000001D8EC0FF0EA6A400EE96E060EE26E98
:1057F000DC0EE16EE752E6CFEEFFFCE1050E07019D
:10580000F76F0001D8EC0FF0060E0301EB6F280EC6
:10581000EA6FFA0EF66E1A0EF76E080E07017C6F2D
:105820000001C1EC22F0060EEA6EDC0EE96E3CECE3
:1058300020F0050E0701F76F0001D8EC0FF0070EFE
:1058400007017F6F400E7E6F060E816F280E806FFE
:10585000000101EC22F033EF39F0070EEA6E5B0E27
:10586000E96EF2CF7CF7F29E070E016EF76A000E2A
:1058700074EC07F00A000900F5CFEEFF012EFBD70C
:1058800007017CBFF28E060E7F6FDC0E7E6F070E67
:10589000816F5B0E806F836B060E826F000168EC78
:1058A0001EF001526DE1060E07017D6FDC0E7C6F6C
:1058B0000001B3EC1EF007017D6B200E7C6F060E1D
:1058C0007F6FDC0E7E6F000199EC21F00701866B83
:1058D000856B846BFB0E836F2A0E876F00015FEC74
:1058E00011F0050E0701F76F0001D8EC0FF007016A
:1058F000866B856B846B8369876B00015FEC11F0AD
:10590000050E0701F76F0001D8EC0FF0EA6A310EBF
:10591000E96E060EE26EDC0EE16EE752E6CFEEFFB8
:10592000FCE1050E0701F76F0001D8EC0FF0060E41
:105930000301EB6F280EEA6F060EF66E1B0EF76E74
:10594000070E07017C6F0001C1EC22F0060EEA6E23
:10595000DC0EE96E3CEC20F0050E0701F76F00014C
:10596000D8EC0FF0070E07017F6F400E7E6F060E1A
:10597000816F280E806F000101EC22F033EF39F0C7
:10598000730E07015B6F650E5C6F740E5D6F690EC1
:105990005E6F700E5F6F606B060E7F6FDC0E7E6F4A
:1059A000070E816F5B0E806F836B050E826F0001A7
:1059B00068EC1EF00152D8A4F5D00701796B070EF0
:1059C000EA6E5B0EE96EF2CF7CF7F29E080E016E76
:1059D000F76A000E000185EC07F00A000900F5CF18
:1059E000EEFF012EFBD707017CBFF28E060E7F6F04
:1059F000DC0E7E6F070E816F5B0E806F836B060E71
:105A0000826F000168EC1EF001520BE10701766B1A
:105A1000300E756F786BF10E776F010E796F30D0A5
:105A20000001070EEA6E5B0EE96EF2CF7CF7F29E84
:105A3000080E016EF76A000E96EC07F00A000900E6
:105A4000F5CFEEFF012EFBD707017CBFF28E060ECD
:105A50007F6FDC0E7E6F070E816F5B0E806F836B36
:105A6000070E826F000168EC1EF001520AE1070187
:105A7000766BD10E756F786BF20E776F020E796FC1
:105A80000001060E07017D6FDC0E7C6F0001B3EC98
:105A90001EF076C77DF775C77CF7060E07017F6F8E
:105AA000DC0E7E6F000199EC21F00701866B856B9F
:105AB00078C784F777C783F72A0E876F00015FECFA
:105AC00011F0050E0701F76F0001D8EC0FF0070188
:105AD000866B856B846B8369876B00015FEC11F0CB
:105AE000050E0701F76F0001D8EC0FF00701792DC3
:105AF0000CD0EA6A5E0EE96E060EE26EDC0EE16E16
:105B0000E752E6CFEEFFFCE10BD0EA6A7C0EE96ECD
:105B1000060EE26EDC0EE16EE752E6CFEEFFFCE130
:105B2000050EF76F0001D8EC0FF0060E0301EB6FC6
:105B3000280EEA6F690E0701896F00012BEC20F037
:105B4000700E0701896F00012BEC20F079C77CF7FC
:105B5000180E07017D6F0001EBEC22F0140EF66EBB
:105B60001B0EF76E050E07017C6F0001C1EC22F0E1
:105B7000060EEA6EDC0EE96E3CEC20F0050E070125
:105B8000F76F0001D8EC0FF0070E07017F6F400E92
:105B90007E6F060E816F280E806F000101EC22F0EF
:105BA00033EF39F0070EEA6E5B0EE96EF2CF7CF749
:105BB000F29E070E016EF76A000EA7EC07F00A00CE
:105BC0000900F5CFEEFF012EFBD707017CBFF28E57
:105BD000060E7F6FDC0E7E6F070E816F5B0E806F8F
:105BE000836B060E826F000168EC1EF001520CE11F
:105BF0000701866B856B846BF20E836F876B0001E8
:105C00005FEC11F033EF39F0070EEA6E5B0EE96ED0
:105C1000F2CF7CF7F29E090E016EF76A000EB8EC27
:105C200007F00A000900F5CFEEFF012EFBD70701B0
:105C30007CBFF28E060E7F6FDC0E7E6F070E816FCB
:105C40005B0E806F836B080E826F000168EC1EF0A4
:105C5000015259E1060E07017D6FDC0E7C6F0001D9
:105C6000B3EC1EF007017D6B1A0E7C6F060E7F6F82
:105C7000DC0E7E6F000199EC21F0EA6AC90EE96E34
:105C8000060EE26EDC0EE16EE752E6CFEEFFFCE1BF
:105C9000060E07017D6FDC0E7C6F000162EC12F0D6
:105CA00002C0FFF001C0FEF0010E0701F76F000116
:105CB000D8EC0FF0060E0301EB6F280EEA6F1C0EF6
:105CC000F66E1B0EF76E0A0E07017C6F0001C1EC29
:105CD00022F0060EEA6EDC0EE96E3CEC20F0050EBA
:105CE0000701F76F0001D8EC0FF0070E07017F6F77
:105CF000400E7E6F060E816F280E806F000101EC52
:105D000022F033EF39F0070EEA6E5B0EE96EF2CF48
:105D10007CF7F29E090E016EF76A000ECAEC07F0DE
:105D20000A000900F5CFEEFF012EFBD707017CBF6B
:105D3000F28E060E7F6FDC0E7E6F070E816F5B0E9C
:105D4000806F836B080E826F000168EC1EF00152B9
:105D5000D8A476D0060E07017D6FDC0E7C6F0001A3
:105D6000B3EC1EF007017D6B160E7C6F060E7F6F85
:105D7000DC0E7E6F000199EC21F0EA6AC50EE96E37
:105D8000060EE26EDC0EE16EE752E6CFEEFFFCE1BE
:105D9000060E07017D6FDC0E7C6F000162EC12F0D5
:105DA00002C001F101C000F10101015303E1005102
:105DB000090805E2015303E100511E0803E2016BEB
:105DC0000F0E006F01C17DF700C17CF707017F6BEB
:105DD0003C0E7E6F00015CEC13F002C003F101C0C9
:105DE00002F1010E0701F76F0001D8EC0FF0060E6B
:105DF0000301EB6F280EEA6F2A0EF66E1B0EF76E8C
:105E00000A0E07017C6F0001C1EC22F0060EEA6E5B
:105E1000DC0EE96E3CEC20F0050E0701F76F000187
:105E2000D8EC0FF0070E07017F6F400E7E6F060E55
:105E3000816F280E806F000101EC22F033EF39F002
:105E4000070EEA6E5B0EE96EF2CF7CF7F29E090E4A
:105E5000016EF76A000EDCEC07F00A000900F5CFCE
:105E6000EEFF012EFBD707017CBFF28E060E7F6F7F
:105E7000DC0E7E6F070E816F5B0E806F836B080EEA
:105E8000826F000168EC1EF0015259E1060E070115
:105E90007D6FDC0E7C6F0001B3EC1EF007017D6BA3
:105EA000A40E7C6F060E7F6FDC0E7E6F000199ECF6
:105EB00021F0EA6ACD0EE96E060EE26EDC0EE16EAE
:105EC000E752E6CFEEFFFCE1060E07017D6FDC0E28
:105ED0007C6F000162EC12F002C0E4F301C0E3F356
:105EE000010E0701F76F0001D8EC0FF0060E030159
:105EF000EB6F280EEA6F380EF66E1B0EF76E0D0E66
:105F000007017C6F0001C1EC22F0060EEA6EDC0E88
:105F1000E96E3CEC20F0050E0701F76F0001D8ECAC
:105F20000FF0070E07017F6F400E7E6F060E816F28
:105F3000280E806F000101EC22F033EF39F0070EDC
:105F4000EA6E5B0EE96EF2CF7CF7F29E070E016EF1
:105F5000F76A000EEEEC07F00A000900F5CFEEFF3D
:105F6000012EFBD707017CBFF28E060E7F6FDC0E81
:105F70007E6F070E816F5B0E806F836B060E826FE4
:105F8000000168EC1EF0015238E10701866B856B59
:105F9000846B836B876900015FEC11F0050E0701CC
:105FA000F76F0001D8EC0FF0070EEA6E5B0EE96E9A
:105FB000F2CF7CF7F29E0D0E016EF76A000EFFEC39
:105FC00007F00A000900F5CFEEFF012EFBD707010D
:105FD0007CBFF28E070E7F6F400E7E6F070E816FC3
:105FE0005B0E806F000101EC22F0050E0701F76FD8
:105FF0000001D8EC0FF033EF39F0070EEA6E5B0EBC
:10600000E96EF2CF7CF7F29E0A0E016EF76A000E7F
:1060100013EC08F00A000900F5CFEEFF012EFBD7C4
:1060200007017CBFF28E060E7F6FDC0E7E6F070EBF
:10603000816F5B0E806F836B090E826F000168ECCD
:106040001EF0015259E1060E07017D6FDC0E7C6FD8
:106050000001B3EC1EF007017D6B120E7C6F060E83
:106060007F6FDC0E7E6F000199EC21F0EA6AC10EB1
:10607000E96E060EE26EDC0EE16EE752E6CFEEFF51
:10608000FCE1060E07017D6FDC0E7C6F000162EC07
:1060900012F002C0FBF001C0FAF0010E0701F76F29
:1060A0000001D8EC0FF0060E0301EB6F280EEA6F2B
:1060B000480EF66E1B0EF76E0A0E07017C6F00018C
:1060C000C1EC22F0060EEA6EDC0EE96E3CEC20F02C
:1060D000050E0701F76F0001D8EC0FF0070E07015E
:1060E0007F6F400E7E6F060E816F280E806F00015D
:1060F00001EC22F033EF39F0070EEA6E5B0EE96E29
:10610000F2CF7CF7F29E080E016EF76A000E25ECC6
:1061100008F00A000900F5CFEEFF012EFBD70701BA
:106120007CBFF28E060E7F6FDC0E7E6F070E816FD6
:106130005B0E806F836B070E826F000168EC1EF0B0
:106140000152D8A48BD00601E353D8A402D0000199
:1061500085D0E653D8A402D0000180D0E753D8B44C
:1061600002D000017BD0E3C69AF00701866B856BF5
:10617000846BA00E836FE3C687F700015FEC11F01C
:10618000050E0701F76F0001D8EC0FF0E4C69BF095
:106190000701866B856B846BA00E836FE4C687F75F
:1061A00000015FEC11F0050E0701F76F0001D8EC5C
:1061B0000FF0E5C69CF00701866B856B846BA00E23
:1061C000836FE5C687F700015FEC11F0050E07014C
:1061D000F76F0001D8EC0FF0E6C69DF00701866B63
:1061E000856B846BA00E836FE6C687F700015FECBA
:1061F00011F09E6B050E0701F76F0001D8EC0FF050
:10620000060E0301EB6F280EEA6F560EF66E1B0E9C
:10621000F76E0F0E07017C6F0001C1EC22F0EA6AF5
:106220009A0EE96E3CEC20F0050E0701F76F0001B5
:10623000D8EC0FF0070E07017F6F400E7E6F060E41
:10624000816F280E806F000101EC22F0050E07011E
:10625000F76F0001D8EC0FF033EF39F04C0E070167
:106260005B6F6F0E5C6F630E5D6F5E6B060E7F6F14
:10627000DC0E7E6F070E816F5B0E806F836B030EEB
:10628000826F000168EC1EF0015257E1060E030117
:10629000EB6F280EEA6F680EF66E1B0EF76E1E0E81
:1062A00007017C6F0001C1EC22F01CC189F72BECC7
:1062B00020F0890EE96E75C17FF774C17EF773C156
:1062C0007DF772C17CF7060E0701806F0001B4EC08
:1062D00023F02C0E0701896F00012BEC20F032C156
:1062E00089F72BEC20F0890EE96E79C17FF778C130
:1062F0007EF777C17DF776C17CF7060E0701806FC8
:106300000001B4EC23F0050E0701F76F0001D8EC93
:106310000FF0070E07017F6F400E7E6F060E816F34
:10632000280E806F000101EC22F0050E0701F76FC7
:106330000001D8EC0FF033EF39F0070EEA6E5B0E78
:10634000E96EF2CF7CF7F29E090E016EF76A000E3D
:1063500036EC08F00A000900F5CFEEFF012EFBD75E
:1063600007017CBFF28E060E7F6FDC0E7E6F070E7C
:10637000816F5B0E806F836B080E826F000168EC8B
:106380001EF0015230E10301D251350815E1590EDA
:1063900007015B6F650E5C6F730E5D6F5E6B070EC2
:1063A0007F6F400E7E6F070E816F5B0E806F000166
:1063B00001EC22F015D00301D251310812E14E0E4A
:1063C00007015B6F6F0E5C6F5D6B070E7F6F400E9A
:1063D0007E6F070E816F5B0E806F000101EC22F073
:1063E000030135EF39F0520E07015B6F730E5C6FDE
:1063F000740E5D6F5E6B060E7F6FDC0E7E6F070E98
:10640000816F5B0E806F836B030E826F000168ECFF
:106410001EF0015240E1070EEA6E5B0EE96EF2CF0C
:106420007CF7F29E0A0E016EF76A000E48EC08F047
:106430000A000900F5CFEEFF012EFBD707017CBF54
:10644000F28E070E7F6F400E7E6F070E816F5B0E20
:10645000806F000101EC22F0040E07017C6FFA0E40
:10646000F76F0001D8EC0FF007017C2FF8D7010E71
:106470007C6F0001A0EC22F0040E07017C6FFA0E85
:10648000F76F0001D8EC0FF007017C2FF8D7FF0061
:1064900033EF39F00001070EEA6E5B0EE96EF2CFC2
:1064A0007CF7F29E070E016EF76A000E5AEC08F0B8
:1064B0000A000900F5CFEEFF012EFBD707017CBFD4
:1064C000F28E060E7F6FDC0E7E6F070E816F5B0E05
:1064D000806F836B060E826F000168EC1EF0015224
:1064E000D8A466D1060E07017D6FDC0E7C6F00011B
:1064F000B3EC1EF001019D6B9E6B410E07015B6FBB
:10650000750E5C6F740E5D6F6F0E5E6F5F6B060EC7
:106510007F6FDC0E7E6F070E816F5B0E806F836B6B
