:040000001BEF00F002
:08000800EA6A060EE96EEF50F2
:1000100011E0050E016EBF0E006E0400002EFDD72C
:10002000012EF9D72E0E006E002EFED70000040020
:10003000EF2EEFD71200F86AD09E046A7086A00EE9
:10004000756E010E766EA60E726E900E716EB8868B
:10005000A00EAF6E010EB06EA60EAC6E900EAB6E23
:10006000C150F00BC16E000E0F01386F396F3A6F3F
:08007000776A786A796A0300DF
:020908001200DB
:100A000094908B8094928B8294948B84020E056ECA
:100A1000FA0E066E04EC00F0052EFAD794908B9037
:100A200094928B9294948B94020E056EFA0E066E3D
:0C0A300004EC00F0052EFAD7E3D712000A
:020000040030CA
:0E00000000F3001D00BF81000FC00FE00F4095
:00000001FF
;PIC18F26K22
;CRC=3256  CREATED="17-Jan-25 19:00"
