:0400000052EF05F0C6
:08000800010EEA6E2A0EE96EFA
:10001000EF5011E0050E016EBF0E006E0400002EC1
:10002000FDD7012EF9D72E0E006E002EFED7000050
:100030000400EF2EEFD7120001013151016A305D4B
:1000400003E230C100F00CD0006A080E326F303786
:1000500000363151005CD8B0006E0136322FF7D730
:1000600000011200200E01012BA9300E2C6F2AC1B5
:1000700000F02AAF08D0001E002A00C02AF12D0E81
:100080002C6F2B8F2B8101502AC130F1640E316F00
:100090000001D2DF00C02AF1300E012401012D6FD2
:1000A0002AC130F10A0E316F0001C6DF300E002484
:1000B00001012F6F300E01242E6F2CC100F0300E85
:1000C0002D5D04E02B832BBF2B8512D02CC12DF18D
:1000D000200E2C6F300E2E5D04E02B812BBF2B8366
:1000E00007D0D8A42B8104E12DC12EF1200E2D6F55
:1000F0002BB505D02BB307D02BB109D00CD02C5188
:10010000A4A8FED7736E2D51A4A8FED7736E2E51EE
:10011000A4A8FED7736E2F51A4A8FED7736E00015A
:1001200033EF06F041542B51464F50454E3D226D62
:1001300061696E312E747874220D0A0041542B517E
:10014000465345454B3D313032372C256C642C32BB
:100150000D0A000041542B5146524541443D313077
:1001600032372C34350D0A0041542B5146434C4F45
:1001700053453D313032370D0A009486948872EF32
:1001800005F0080E016E040E006E002EFED78B9651
:100190009496040E006E002EFED74A368B98D8B087
:1001A0009488D8A09498948682A6FED7012EEBD787
:1001B000040E006E002EFED78B9694960000948855
:1001C000040E006E002EFED7040E006E002EFED729
:1001D000948682A6FED7016A040E006E002EFED71A
:1001E00082B801808B9694968B9894981200080E92
:1001F000466E00C047F09488040E006E002EFED7B5
:10020000948682A6FED782B8D88082A8D89001367C
:10021000040E006E002EFED794968B96462EEBD7DA
:100220009488040E006E002EFED78B984750D8A4F9
:1002300094980000948682A6FED7040E006E002ECD
:10024000FED78B969496040E006E002EFED78B98E8
:10025000949874EF01F0425203E14150000803E228
:10026000A80E446E02D0A00E446E9488040E006E58
:10027000002EFED79486040E006E002EFED782A6B6
:10028000FED78B989498040E006E002EFED78B96A6
:10029000949644C04AF075DF40C046F041C047F034
:1002A00042C048F0496A40C04AF06BDF3FC04AF0A4
:1002B00068DF9488040E006E002EFED79486040E2C
:1002C000006E002EFED782A6FED78B989498040E5F
:1002D000006E002EFED78B969496010E4424456E38
:1002E0004A6E4FDF006A83D701C043F09498000044
:1002F000948682A6FED7040E006E002EFED700D094
:1003000000009488040E006E002EFED743C001F05A
:100310007FEF05F00900F5520DE0F6CFAEF0F7CF14
:10032000AFF0F550A4A8FED7736EAEC0F6FFAFC015
:10033000F7FFF0D712000900F6CFAFF0F7CFB0F01B
:10034000F550A4A8FED7736EAFC0F6FFB0C0F7FF9C
:10035000AE2FF1D71200D8B203D0EA6AC20EE96E0E
:10036000006A016A026A036AC26BC36BC46BC56B25
:10037000C151C011BF11BE112CE0200EC66FD89024
:10038000BA37BB37BC37BD37C237C337C437C537B9
:10039000C151C55D08E1C051C45D05E1BF51C35DF8
:1003A00002E1BE51C25D0FE3BE51C25FBF51D8A092
:1003B000BF3DC35FC051D8A0C03DC45FC151D8A0EC
:1003C000C13DC55FD8800036013602360336C62FE0
:1003D000D6D7C2C0EFFFC3C0ECFFC4C0ECFFC5C09E
:1003E000ECFF1200E950B26FB1AF0DD0B207B28B83
:1003F000AE1FAF1FB01FB11FAE2BD8B4AF2BD8B4F8
:10040000B02BD8B4B12B3B0EB96F9A0EB86FCA0E91
:10041000B76FB66B0A0EB46FD882EA6AAE0EE96E99
:10042000B1C0BDF0B0C0BCF0AFC0BBF0AEC0BAF060
:10043000B9C0C1F0B8C0C0F0B7C0BFF0B6C0BEF020
:100440008ADF015000520FE1B451010A0CE0B251B1
:100450000CE00F0BB45D01E027E2B2BF25D0B2BDC6
:1004600004D0200E1CD0200EB217B2AB0AD0B29B23
:1004700000C0B2F02D0EA4A8FED7736EB2C000F07B
:10048000B26B300EB2AB0BD0B29B00C0B2F02D0EEF
:10049000A4A8FED7736EB2C000F0B26B300E002677
:1004A0000050A4A8FED7736ED892B9C0BDF0B8C0F2
:1004B000BCF0B7C0BBF0B6C0BAF0C16BC06BBF6BCD
:1004C0000A0EBE6F48DF03C0B9F002C0B8F001C029
:1004D000B7F000C0B6F0B42F9FD70DEF04F0A4AA78
:1004E000FED771CF04F074CF01F004A202D071984E
:1004F0007188120023C103F0010122C1E9FF23C169
:10050000EAFFEF5205E120C101F021C102F04AD01B
:1005100021C103F020C1E9FF21C1EAFFEF523FE012
:1005200021C125F120C124F123C127F122C126F1E7
:1005300025C103F024C1E9FF25C1EAFFEF521EE007
:1005400027C103F026C1E9FF27C1EAFFEF5216E0F9
:1005500024C1E9FF25C1EAFFEFCF28F127C103F04D
:1005600026C1E9FF27C1EAFFEF50285D07E1242BF0
:10057000D8B4252B262BD8B4272BDAD727C103F0E4
:1005800026C1E9FF27C1EAFFEF5205E120C101F0D2
:1005900021C102F007D0202BD8B4212BB9D7000EEF
:1005A000016E026E000115EF03F0B76BB66B01012F
:1005B0001E911F6B0001B55309E1B45307E1B75118
:1005C000B35D4FE303E1B251B65D4BE2A4AA3ED066
:1005D00001011F511F2B036ABA0FE96E000E0320A1
:1005E000EA6EEACF23F1E9CF22F1000178DF23C1DF
:1005F000EAFF22C1E9FF01C0EFFF040000D00000C4
:10060000036A01011F51BA0FE96E000E0320EA6E62
:10061000EF6A040000D00000216BBA0E206FB1C059
:1006200023F1B0C022F1000165D702C0B9F001C0CA
:10063000B8F0B851B9110AE0040000D0000001017F
:100640001E81040000D0000000010BD0B62BD8B4EE
:10065000B72B0400050E006E002EFED700D0000060
:10066000AAD7050E01012A6F0001CEDC000E0101A0
:100670001EB1010E016E000127EF04F0B46BB56BE3
:10068000B55101082BE3B3C003F0B2C0E9FFB3C01A
:10069000EAFFEF50400810E2B451100DF3CFB6F06E
:1006A000B3C003F0B2C0E9FFB3C0EAFFEF50B62514
:1006B000BF0F0A0FB46F0CD0B451100DF3CFB6F0CA
:1006C000B2C0E9FFB3C0EAFFEF50B625D00FB46F58
:1006D000B551B52BB22BD8B4B32BD2D7B4C001F0DF
:1006E0001200F250036EF29EA68EA6840F01550EE4
:1006F000A76EAA0EA76EA68200000350F212000198
:100700001200D08CA69CF6503F0B006EC00EF61661
:100710000A00AEC001F0006607D0EECFF5FF01522F
:1007200004E00F00010603D000060B000C003F0E92
:10073000F6143F0AF0E1A688D4DFD3DF0166EBD7D9
:10074000F86A2BEF05F0409040924094466A456A63
:100750009290899092928982040EAE6FFA0E0101F6
:100760002A6F000151DCAE2FF9D792928992040EC4
:10077000AE6FFA0E01012A6F000146DCAE2FF9D7E9
:10078000929089800A0EAE6FD20E01012A6F00018D
:100790003BDCAE2FF9D792908990280EAE6FFA0EFF
:1007A00001012A6F000130DCAE2FF9D7240EF66E5E
:1007B000010EF76EAFDD040EAE6FFA0E01012A6F67
:1007C000000122DCAE2FF9D794908B80A46BA36B31
:1007D000A26BA16B40B452D140904092420ED8809F
:1007E000A155A56FE50EA255A66F010EA355A76FE3
:1007F000000EA455A86F3C0EF66E010EF76E0F0E9C
:10080000AE6F99DD410EE96EA8C0B1F0A7C0B0F09F
:10081000A6C0AFF0A5C0AEF0E5D54E0EF66E010E47
:10082000F76E040EAE6F87DD0D0EA96F0A0EAA6F6C
:100830004F0EAB6F4B0EAC6FAD6BB16BA90EB06FC3
:10084000B56BB46B9C0EB36F400EB26FAED6540E48
:10085000F66E010EF76E5EDD056A526AA4AA4AD0F2
:10086000036A0550060FE96E000E0320EA6EEACF18
:10087000B1F0E9CFB0F033DEB1C0EAFFB0C0E9FFBC
:1008800001C0EFFF040000D00000036A0550060F0E
:10089000E96E000E0320EA6EEF503A0804E140B022
:1008A00002D040801DD0036A0550060FE96E000E8D
:1008B0000320EA6EEF500D0813E140B211D040A0C2
:1008C0000FD04082040000D00000052A010E05244C
:1008D000A127000EA223A323A423040000D000001C
:1008E00040A003D040B201D0052A522A040000D013
:1008F000000003D0040000D0000052503B08AEE2DC
:1009000006503A08D8A4B9D0B36B070EB26FB6DE62
:1009100001C051F0B36B090EB26FB0DE01C0AEF092
:10092000B36B0B0EB26FAADEAEC044F001C043F051
:10093000B36B0D0EB26FA2DE01C042F045C049F0AC
:1009400046C04AF043C047F044C048F0422C02D0B1
:10095000408493D04A5206E1495204E148500B08C2
:10096000D8B08BD04A52D8A488D049502F08D8A0EC
:1009700084D094948B84416A010E506E030E055C02
:10098000505C14E2036A5050060F016E000E032201
:1009900001C0AEF003C0AFF003C0B3F001C0B2F0CD
:1009A0006DDE01504126020E5026E8D7FF0ED8809A
:1009B0004154010F416E030E055C036A060F016E80
:1009C000000E032201C0AEF003C0AFF003C0B3F0CD
:1009D00001C0B2F053DE0150415C03E094928B827F
:1009E0004CD094928B92425237E1090E506E4F6A6E
:1009F000030E055C505C23E24F504F2A036A530FED
:100A0000016E000E032201C0AEF003C0AFF0036A16
:100A10005050060F016E000E032201C0B0F003C05B
:100A2000B1F003C0B3F001C0B2F028DEAFC0EAFFFE
:100A3000AEC0E9FF01C0EFFF020E5026D9D749C072
:100A4000F8FF48C0F7FF47C0F6FFEA6A530EE96EA9
:100A500051C0AEF056D611D0425004080EE1B36B2F
:100A60000F0EB26F0BDE01C0AEF0B36B110EB26FA2
:100A700005DEAEC046F001C045F0ACD6320E010135
:100A80002A6F000104EC00F0680EF66E010EF76E9E
:100A900041DC320E01012A6F000104EC00F0FF007E
:100AA00083EF05F0F86AD09E046A7086A00E756E1A
:100AB000010E766EA60E726E900E716E3E6AC15079
:100AC000F00BC16E000E0F01386F396F3A6F776A05
:100AD000786A796A640E01012A6F000104EC00F063
:100AE000BDEF00F0640E01012A6F000104EC00F07C
:100AF000426A416A406AF70E3F6E2BEF01F00150E7
:0C0B00002A0801E120D600EF06F00300F7
:100C000094908B8094928B8294948B84020E010139
:100C1000296FFA0E2A6F000104EC00F00101292F60
:100C2000F8D794908B9094928B9294948B94020E1C
:100C3000296FFA0E2A6F000104EC00F00101292F40
:100C4000F8D73E503E2A296F410EA4A8FED7736EF6
:100C50003A0EA4A8FED7736E29C12AF1180E2B6F85
:100C6000000132EF00F00A0EA4A8FED7736EC8D7B9
:020C7000120070
:020000040030CA
:0E00000000F31E1D00B581000FC00FE00F4081
:00000001FF
;PIC18F26K22
;CRC=CAD9  CREATED="22-Mar-25 12:20"
