:040FD0003CEF69F099
:080FD800046ED8CF05F0E0CF54
:100FE00006F00001E9CF0CF0EACF07F0E1CF08F0FE
:100FF000E2CF09F0D9CF0AF0DACF0BF0F3CF12F03D
:10100000F4CF13F0FACF14F000C00EF001C00FF0CF
:1010100002C010F003C011F09DA212EF08F09EB2C2
:1010200040EF0DF00EC000F00FC001F010C002F054
:1010300011C003F00CC0E9FF07C0EAFF078E08C02B
:10104000E1FF09C0E2FF0AC0D9FF0BC0DAFF12C0FE
:10105000F3FF13C0F4FF14C0FAFF045006C0E0FF12
:1010600005C0D8FF1000F2CF0DF0F29EF76A800F96
:10107000F66E100EF7220900F5500DBEF28E12002A
:1010800068656C6C6F20776F726C6400F2CF0DF046
:10109000F29EF76AA60FF66E100EF7220900F550C1
:1010A0000DBEF28E12004F536F666600F2CF0DF048
:1010B000F29EF76AC60FF66E100EF7220900F55081
:1010C0000DBEF28E12002447504747410000F2CF78
:1010D0000DF0F29EF76AE80FF66E100EF722090087
:1010E000F5500DBEF28E120024474E4747410000D6
:1010F000F2CF0DF0F29EF76A0A0FF66E110EF7228C
:101100000900F5500DBEF28E1200244750524D4397
:101110000000F2CF0DF0F29EF76A2C0FF66E110E62
:10112000F7220900F5500DBEF28E120024474E52F0
:101130004D430000F2CF0DF0F29EF76A4E0FF66EAF
:10114000110EF7220900F5500DBEF28E1200566105
:101150006C696400F2CF0DF0F29EF76A6E0FF66EC6
:10116000110EF7220900F5500DBEF28E12005468E0
:10117000656674206F7220546F77696E67206163B3
:101180007469766974792064657465637465640054
:10119000F2CF0DF0F29EF76AAA0FF66E110EF7224B
:1011A0000900F5500DBEF28E12006770732073694E
:1011B000676E616C206C6F737400F2CF0DF0F29E5D
:1011C000F76AD40FF66E110EF7220900F5500DBE26
:1011D000F28E1200496E76616C696400F2CF0DF0F8
:1011E000F29EF76AF60FF66E110EF7220900F5501F
:1011F0000DBEF28E12000D0A434F4E4E4543540D64
:101200000A00F2CF0DF0F29EF76A1C0FF66E120E76
:10121000F7220900F5500DBEF28E12000D0A4F4B59
:101220000D0A0D0A2B51485454504745543A20306A
:101230002C3230302C00F2CF0DF0F29EF76A500FB6
:10124000F66E120EF7220900F5500DBEF28E120056
:101250000D0A4F4B0D0A0D0A2B514854545052455C
:10126000414446494C453A20300D0A00F2CF0DF07A
:10127000F29EF76A860FF66E120EF7220900F550FD
:101280000DBEF28E12006F746120696E2070726F55
:10129000677265737300F2CF0DF0F29EF76AB00FBC
:1012A000F66E120EF7220900F5500DBEF28E1200F6
:1012B0004F536F6E0000F2CF0DF0F29EF76AD00F21
:1012C000F66E120EF7220900F5500DBEF28E1200D6
:1012D00049444C450000F2CF0DF0F29EF76AF00F42
:1012E000F66E120EF7220900F5500DBEF28E1200B6
:1012F00052554E4E494E4700F2CF0DF0F29EF76A1E
:10130000120FF66E130EF7220900F5500DBEF28E85
:1013100012005041524B45440000F2CF0DF0F29EB6
:10132000F76A340FF66E130EF7220900F5500DBE62
:10133000F28E1200496E20526F6D696E6700F2CF17
:101340000DF0F29EF76A580FF66E130EF7220900A1
:10135000F5500DBEF28E1200486F6D65204E65741B
:10136000776F726B0000F2CF0DF0F29EF76A800F7C
:10137000F66E130EF7220900F5500DBEF28E120024
:1013800067707320676F742066697800F2CF0DF084
:10139000F29EF76AA60FF66E130EF7220900F550BB
:1013A0000DBEF28E120073657276657220636F6EE9
:1013B0006E65637465640000F2CF0DF0F29EF76A0B
:1013C000D20FF66E130EF7220900F5500DBEF28E05
:1013D00012004F54412046696E69736865640000CD
:1013E000F2CF0DF0F29EF76AFA0FF66E130EF722A7
:1013F0000900F5500DBEF28E1200222B3931373024
:1014000031323538363539362200F2CF0DF0F29EC2
:10141000F76A240FF66E140EF7220900F5500DBE80
:10142000F28E1200736574757020636F6D706C6559
:1014300074650000F2CF0DF0F29EF76A4E0FF66E63
:10144000140EF7220900F5500DBEF28E12007365DE
:1014500072766572322073657400F2CF0DF0F29EE1
:10146000F76A740FF66E140EF7220900F5500DBEE0
:10147000F28E120073657461706E3A00F2CF0DF057
:10148000F29EF76A960FF66E140EF7220900F550D9
:101490000DBEF28E120073657469643A0000F2CFDB
:1014A0000DF0F29EF76AB80FF66E140EF7220900DF
:1014B000F5500DBEF28E12004F544155524C3A0079
:1014C000F2CF0DF0F29EF76ADA0FF66E140EF722E5
:1014D0000900F5500DBEF28E1200636C7269703215
:1014E0000000F2CF0DF0F29EF76AFC0FF66E140EBC
:1014F000F7220900F5500DBEF28E12005365746993
:101500006E746E3A0000F2CF0DF0F29EF76A200F73
:10151000F66E150EF7220900F5500DBEF28E120080
:10152000536574696E74703A0000F2CF0DF0F29E4C
:10153000F76A440FF66E150EF7220900F5500DBE3E
:10154000F28E120049646C65696E743A0000F2CF45
:101550000DF0F29EF76A680FF66E150EF72209007D
:10156000F5500DBEF28E1200556E61757468000064
:10157000F2CF0DF0F29EF76A8A0FF66E150EF72283
:101580000900F5500DBEF28E1200556E617574683B
:101590006572697A65640000F2CF0DF0F29EF76A19
:1015A000B20FF66E150EF7220900F5500DBEF28E41
:1015B000120053657473706565643A00F2CF0DF0E4
:1015C000F29EF76AD60FF66E150EF7220900F55057
:1015D0000DBEF28E12005365747077643A00F2CF3C
:1015E0000DF0F29EF76AF80FF66E150EF72209005D
:1015F000F5500DBEF28E1200526F616D696E673F3D
:101600000000F2CF0DF0F29EF76A1C0FF66E160E78
:10161000F7220900F5500DBEF28E12005265626F7E
:101620006F74696E6700F2CF0DF0F29EF76A400F9B
:10163000F66E160EF7220900F5500DBEF28E12005E
:10164000536574545A3A0000F2CF0DF0F29EF76AD7
:10165000620FF66E160EF7220900F5500DBEF28EDF
:1016600012004175746F20545A2073657400F2CFD4
:101670000DF0F29EF76A880FF66E160EF72209003B
:10168000F5500DBEF28E1200545A205365740000BE
:10169000F2CF0DF0F29EF76AAA0FF66E160EF72241
:1016A0000900F5500DBEF28E1200696E76616C690C
:1016B0006420545A0000F2CF0DF0F29EF76AD00F6A
:1016C000F66E160EF7220900F5500DBEF28E1200CE
:1016D000486F7420737461727400F2CF0DF0F29E43
:1016E000F76AF40FF66E160EF7220900F5500DBEDC
:1016F000F28E12005761726D207374617274000073
:10170000F2CF0DF0F29EF76A1A0FF66E170EF7225F
:101710000900F5500DBEF28E1200436F6C64207309
:10172000746172740000F2CF0DF0F29EF76A400F00
:10173000F66E170EF7220900F5500DBEF28E12005C
:10174000526C796F6E00F2CF0DF0F29EF76A600F67
:10175000F66E170EF7220900F5500DBEF28E12003C
:1017600052656C6179205475726E6564204F4E002D
:10177000F2CF0DF0F29EF76A8A0FF66E170EF7227F
:101780000900F5500DBEF28E1200526C796F66663C
:101790000000F2CF0DF0F29EF76AAC0FF66E170E56
:1017A000F7220900F5500DBEF28E120052656C61F1
:1017B00079205475726E6564204F46460000F2CF62
:1017C0000DF0F29EF76AD80FF66E170EF722090099
:1017D000F5500DBEF28E1200454550524F4D20453A
:1017E000524153454400F2CF0DF0F29EF76A000FCC
:1017F000F66E180EF7220900F5500DBEF28E12009B
:1018000041434C2073657400F2CF0DF0F29EF76AED
:10181000220FF66E180EF7220900F5500DBEF28E5B
:10182000120044434C2073657400F2CF0DF0F29E19
:10183000F76A440FF66E180EF7220900F5500DBE38
:10184000F28E1200526573746F726500F2CF0DF064
:10185000F29EF76A660FF66E180EF7220900F55031
:101860000DBEF28E1200526573746F726520746F34
:101870002044656661756C742100F2CF0DF0F29E14
:10188000F76A940FF66E180EF7220900F5500DBE98
:10189000F28E1200417574686572697A65640000A1
:1018A000F2CF0DF0F29EF76ABA0FF66E180EF7221D
:1018B0000900F5500DBEF28E12000D0A2B514D5449
:1018C0004F50454E3A20302C3000F2CF0DF0F29EB2
:1018D000F76AE40FF66E180EF7220900F5500DBEF8
:1018E000F28E12000D0A2B514D544F50454E3A20A6
:1018F000312C3000F2CF0DF0F29EF76A0E0FF66E2B
:10190000190EF7220900F5500DBEF28E12000D0AD5
:101910002B514D54434F4E4E3A20302C302C30003A
:10192000F2CF0DF0F29EF76A3A0FF66E190EF7221B
:101930000900F5500DBEF28E12000D0A2B514D54C8
:10194000434F4E4E3A20312C302C3000F2CF0DF068
:10195000F29EF76A660FF66E190EF7220900F5502F
:101960000DBEF28E12000D0A2B514D5444495343C3
:101970003A00F2CF0DF0F29EF76A8C0FF66E190E58
:10198000F7220900F5500DBEF28E12002B514D5476
:10199000434C4F53453A0000F2CF0DF0F29EF76AE8
:1019A000B20FF66E190EF7220900F5500DBEF28E39
:1019B00012000D0A2B514D54434C4F53453A000031
:1019C000F2CF0DF0F29EF76ADA0FF66E190EF722DB
:1019D0000900F5500DBEF28E12000D0A2B514D5428
:1019E00050554245583A20302C302C300000F2CF70
:1019F0000DF0F29EF76A080FF66E1A0EF722090034
:101A0000F5500DBEF28E12000D0A2B514D5450555B
:101A10004245583A20312C302C300000F2CF0DF0E6
:101A2000F29EF76A360FF66E1A0EF7220900F5508D
:101A30000DBEF28E120049476F6E0000F2CF0DF01E
:101A4000F29EF76A560FF66E1A0EF7220900F5504D
:101A50000DBEF28E120049476F666600F2CF0DF0A0
:101A6000F29EF76A760FF66E1A0EF7220900F5500D
:101A70000DBEF28E12004E4F53455256494345005B
:101A80000401412B422B45AB29D04EB127D04F2B1F
:101A9000D8B4502B505308E14F51020805E39290FF
:101AA0008990929289921AD0505303E14F511008B5
:101AB00008E2505306E14F51130803E392908980E6
:101AC0000DD0505100080AE2FF0A03E14F516E08A1
:101AD00005E2506B4F6B929089904E8145AD2AD0B4
:101AE00045BF28D04F2BD8B4502B505303E14F5152
:101AF000100808E2505306E14F51130803E3929097
:101B0000898018D0505303E14F51EC0808E250533C
:101B100006E14F51EF0803E3929089900BD05051AA
:101B2000030808E2FF0A03E14F517D0803E2506B0E
:101B30004F6B458F4151130847E2432B416B47538D
:101B40000EE047074751050805E04751030802E04A
:101B5000472D03D094928B9202D094928B823AA11B
:101B60001ED0020117B902D0040119D004013B2D87
:101B700009D03A7F3AAF03D094928B8202D09492EC
:101B80008B920CD03B51020805E1475303E194923C
:101B90008B8204D03B5302E194928B9215D00201C8
:101BA00017B913D004013AB102D002010ED0465148
:101BB000010803E394928B8202D094928B92462B7D
:101BC0004651030801E2466B02010401425131080B
:101BD00014E2426B3AB10DD03A7D3AAD05D0949201
:101BE0008B8294948B8404D094928B9294948B9453
:101BF00004D0020117A900D0040143510408D8B051
:101C0000EBD0436B4EB302D0442B02D04E93446BC7
:101C1000020117A9D6D004013D530DE13E2BD8B4E3
:101C20003F2B3F51060807E2FF0A03E13E51090836
:101C300002E23F6B3E6B2353D8A472D0459502015C
:101C400000B106D000B304D000B702D000A50BD07D
:101C500004013D53D8B402D0020105D0010E3D6FFE
:101C60003F6B3E6B020101015D531DE15C510108B8
:101C70001AE3040135BF02D0010115D045A302D0FB
:101C8000010111D0482BD8B4492B495303E14851E5
:101C9000780808E2496B486B458302010089010E10
:101CA00004013D6F10D0040145A30DD001015D5327
:101CB00006E15C510508D8A002D0040104D004015B
:101CC000496B486B459345B31CD001016351040136
:101CD0003F5D08E305E10101625104013E5D02E35D
:101CE00045A907D045A90CD03F5303E13E513B081D
:101CF00007E23F6B3E6B02010089010E04013D6F5C
:101D00000ED04B513F5D0BE303E14A513E5D07E3CB
:101D10003F6B3E6B02010089010E04013D6F47D00D
:101D2000232D45D0496B486B3AA905D03A99010E4D
:101D30003D6F3F6B3E6B45B51AD04C2BD8B44D2B45
:101D4000090ED88001016655006E070E6755036EB7
:101D500000C001F0035004014D5D09E303E10150AF
:101D60004C5D05E34D6B4C6B3F6B3E6B45853AA775
:101D70000AD03F5303E13E511D0805E23F6B3E6B25
:101D8000010E3D6F14D00101675104013F5D0FE367
:101D900005E10101665104013E5D09E345A507D057
:101DA0003F6B3E6B02010089010E04013D6F3D5304
:101DB00004E1235302E03AA703D03AA301D04587B8
:101DC0000201040145A103D03AB301D0402B405198
:101DD0001D0802E2406B3A8B44510E0802E2446B4C
:101DE0004E879E92000112EF08F02450414952386C
:101DF00036342C302C302C3131353230302A3142CF
:101E00000D0A000024504D544B3335332C312C3106
:101E10002C302C302C302A32420D0A0024504D54E4
:101E20004B3238362C312A32330D0A0024504D54AF
:101E30004B3232302C3230302A32430D0A002450DB
:101E40004D544B3331332C312A32450D0A00245086
:101E50004D544B3338362C302A32330D0A0024507F
:101E60004D544B3330312C322A32450D0A00415447
:101E70002B514944454143543D310D0A0000415422
:101E80002B43545A553D310D0A00706F77657269C6
:101E90006E675F646F776E210A0041542B5148547E
:101EA00054504346473D22636F6E7465787469648D
:101EB000222C310D0A0041542B51485454504346B2
:101EC000473D22726573706F6E7365686561646506
:101ED00072222C310D0A000041542B5148545450A9
:101EE00055524C3D25642C313030300D0A006D6167
:101EF000696E2E6865780D0A000041542B514854D4
:101F000054504745543D31303030300D0A00415473
:101F10002B51485454505245414446494C453D226A
:101F20005546533A6D61696E322E747874222C389E
:101F3000300D0A0041542B514854545052454144ED
:101F400046494C453D225546533A6D61696E312EE6
:101F5000747874222C38300D0A00696E6974207010
:101F60006F776572696E675F646F776E210A000034
:101F700049443A2025732C20677073206E6F7420BB
:101F800066697865640041542B435245473F0D0A0A
:101F9000000041542B434D47463D310D0A0041544A
:101FA0002B435343533D2247534D220D0A004154C6
:101FB0002B434D47533D000041542B434D47523D69
:101FC00025630D0A000061706E207365743A2573F5
:101FD00000006964207365743A257300496E7420AB
:101FE0006E207365743A25730000496E742070206A
:101FF0007365743A2573000049646C6520696E74DA
:10200000207365743A257300737065656420736589
:10201000743A25730000505744206368616E676509
:102020006420746F3A257300687474703A2F2F6DB2
:102030006170732E676F6F676C652E636F6D2F6DA8
:102040006170733F713D256325322E36662C256302
:1020500025322E36660024504D544B3130312A3310
:10206000320D0A0024504D544B3130322A33310D99
:102070000A0024504D544B3130332A33300D0A00BE
:10208000534F53206E756D626572206973207365BE
:102090007420746F202B2573000041542B434D474F
:1020A000443D25630D0A000041542B434D47463DF6
:1020B000310D0A0041542B435343533D2247534DA6
:1020C000220D0A0041542B434D474C0D0A00415448
:1020D0002B514D544F50454E3D0041542B514D54C2
:1020E000434F4E4E3D00222C2200222C2200222C57
:1020F0002200220D0A0041542B514D5444495343B0
:102100003D0041542B514D54434C4F53453D2564A4
:102110000D0A000041542B514D544F50454E3D0087
:1021200041542B514D54434F4E4E3D00222C220022
:10213000222C2200220D0A0041542B514D544449B7
:1021400053433D0041542B514D54434C4F53453D57
:10215000000041542B514D5450554245583D00000C
:1021600025642C302C302C302C22000041540D0AD8
:102170000000415445300D0A000041542B49505293
:102180003D393630300D0A00415426570D0A000003
:1021900041540D0A000041540D0A000041544530DD
:1021A00026570D0A000041542B4950523D39363014
:1021B000300D0A0041542B434D45453D320D0A0078
:1021C00041542B434D47463D310D0A00415426579B
:1021D0000D0A000041542B434D47443D312C340D32
:1021E0000A0041542B4350494E3F0D0A0000415410
:1021F0002B5149435347503D312C312C2200222C86
:1022000022222C22222C310D0A0041542B5149410B
:1022100043543D310D0A000041542B4347534E3D7A
:10222000310D0A00534F5320687474703A2F2F6D8C
:102230006170732E676F6F676C652E636F6D2F6DA6
:102240006170733F713D256325322E36662C256300
:1022500025322E366600485F53544152543A256C5D
:10226000640A0000485F454E443A256C640A000049
:102270007B226465766963654944223A202225738E
:10228000222C22494D4549223A2025732C2274697B
:102290006D657374616D70223A2022002530346CB4
:1022A000642D253032752D2530327520253032755C
:1022B0003A253032753A25303275222C2264617409
:1022C0006156616C6964697479223A202256616CA6
:1022D0006964222C22737461747573223A20224E31
:1022E0002564222C226C61746974756465223A201D
:1022F0002200253031312E3766222C226C6F6E671A
:102300006974756465223A2022253031322E376691
:10231000222C227370656564223A20222530336CAA
:1023200064222C22636F75727365223A2022253055
:10233000336C64222C2269676E6974696F6E223A6D
:102340002022000049476F66660049476F6E000013
:10235000222C2276656869636C65537461747573A9
:10236000223A202200005041524B45440000525571
:102370004E4E494E470049444C450000222C2261F4
:1023800064646974696F6E616C44617461223A209F
:1023900022257300222C2274696D65496E74657262
:1023A00076616C73223A202225732C25732C2530FC
:1023B000334C64222C22616E676C65496E746572C1
:1023C00076616C223A20222530336C64222C226400
:1023D000697374616E6365496E74657276616C22AF
:1023E0003A20222530336C64222C2267736D53749B
:1023F00072656E677468223A202225303364222C7D
:102400002273657175656E63654E756D62657222C6
:102410003A2022000D0A427265616B204B3D256C0B
:102420006420433D25630D0A000041540D0A00005D
:1024300041540D0A000041542B4350494E3F0D0AB0
:1024400000000D0A5055424C495348204641494C22
:102450000D0A000041540D0A000041542B43545A08
:10246000553D310D0A0041542B43434C4B3F0D0A5F
:10247000000041542B514353510D0A00080EEA6EDF
:10248000640EE96EEF5011E0050E016EBF0E006E96
:102490000400002EFDD7012EF9D72E0E006E002E5F
:1024A000FED700000400EF2EEFD712009486948828
:1024B00035EF6AF0080E016E040E006E002EFED796
:1024C0008B969496040E006E002EFED70701FC3703
:1024D0008B98D8B09488D8A09498948682A6FED77A
:1024E000012E01D002D00001E7D7040E006E002EAD
:1024F000FED78B96949600009488040E006E002EF2
:10250000FED7040E006E002EFED7948682A6FED75C
:10251000016A040E006E002EFED782B801808B96F1
:1025200094968B98949800011200080E0701F06FA2
:1025300000C0F1F79488040E006E002EFED794863A
:1025400082A6FED782B8D88082A8D8900136040E21
:10255000006E002EFED794968B96F02FEBD79488C2
:10256000040E006E002EFED78B98F151D8A49498DB
:102570000000948682A6FED7040E006E002EFED7C1
:102580008B969496040E006E002EFED78B9894982E
:10259000000112EF13F0A00E0701EE6F9488040EF5
:1025A000006E002EFED79486040E006E002EFED71D
:1025B00082A6FED78B989498040E006E002EFED74C
:1025C0008B969496EEC7FCF7000174DFEAC7F0F72C
:1025D000EBC7F1F7ECC7F2F70701F36BEAC7FCF7BB
:1025E000000168DFE9C7FCF765DF9488040E006E20
:1025F000002EFED79486040E006E002EFED782A613
:10260000FED78B989498040E006E002EFED78B9602
:102610009496010E0701EE25EF6FFC6F00014ADF73
:10262000006A83D701C0EDF794980000948682A6D3
:10263000FED7040E006E002EFED700D00000948856
:10264000040E006E002EFED70701EDC701F0000159
:102650001200A00E0701F66F9488040E006E002E83
:10266000FED79486040E006E002EFED78B989498A9
:10267000040E006E002EFED78B969496F6C7FCF7DC
:10268000000118DFF1C7F8F7F2C7F9F7F3C7FAF757
:102690000701FB6BF1C7FCF700010CDFF0C7FCF78B
:1026A00009DFF4C7FCF706DF94980000948682A641
:1026B000FED7040E006E002EFED700D000009488D6
:1026C000040E006E002EFED79488040E006E002EBD
:1026D000FED79486040E006E002EFED78B98949839
:1026E000040E006E002EFED78B969496F6C7FCF76C
:1026F000E1DE01500701F59101B0F581F5A11ED091
:102700009488040E006E002EFED79486040E006E90
:10271000002EFED782A6FED78B989498040E006EEA
:10272000002EFED78B969496F6C7FCF70001C2DE0A
:1027300001500701F59101B0F581E0D700011200C9
:10274000928680B623D00401232D05D04583010E47
:102750003D6F3F6B3E6B236B010EEA6E3C0EE96EE4
:10276000F2CF4BF5F29E000E00010EEC0DF00A00C8
:102770000900F550EE6E0009FBE105014BBFF28E3A
:1027800004013AA701D03A971BD00001040123535A
:1027900001E12187010E236FEA6E3C0EE96EF2CF54
:1027A0004BF5F29E000E00011EEC0DF00A00090030
:1027B000F550EE6E0009FBE105014BBFF28E0401FE
:1027C00000011200938281A205D0300E0401226F15
:1027D00004D00001310E0401226F00011200040137
:1027E00024531AE1235318E1929A898A010EEA6E62
:1027F000350EE96EF2CF4BF5F29E000E000193EC20
:102800000BF00A000900F550EE6E0009FBE105012E
:102810004BBFF28E1DD00401243D18D0929A899AA4
:10282000010EEA6E350EE96EF2CF4BF5F29E000E08
:102830000001B8EC0BF00A000900F550EE6E00093B
:10284000FBE105014BBFF28E03D0040124690501B1
:10285000000112000900F5520DE0F6CFE9F7F7CFBD
:10286000EAF7F5509EA8FED7AD6EE9C7F6FFEAC7B6
:10287000F7FFF0D712000900F5520DE0F6CFF4F79C
:10288000F7CFF5F7F550A4A8FED7736EF4C7F6FF9F
:10289000F5C7F7FFF0D712000701F251F419800BCA
:1028A000F66FF2AF05D0F11FF21FF12BD8B4F22B67
:1028B000F4AF05D0F31FF41FF32BD8B4F42BF15170
:1028C000F303F3CF01F0F4CF00F0F403F35000264C
:1028D000F251F303F3500020026EF6AF05D0011E53
:1028E000021E012AD8B4022A0001EAEF14F00701FF
:1028F000EF6BED6B0A0EEE6FEC6BEB6BE951EA11CF
:1029000004E1000E016E026EEAD0EF51EF2B036A74
:10291000E925E96EEA510320EA6EEFCFF0F7F051B6
:102920002D080DE1010EED6FEF51EF2B036AE92544
:10293000E96EEA510320EA6EEFCFF0F70DD0F051C7
:102940002B080AE1EF51EF2B036AE925E96EEA5102
:102950000320EA6EEFCFF0F7F0512F08D8B0B1D0D6
:10296000F0513908D8A0ADD0F051300821E1036A08
:10297000EF51E925E96EEA510320EA6EEF5078083D
:102980000AE0036AEF51E925E96EEA510320EA6E95
:10299000EF5058080DE1100EEE6FEF2BEF51EF2BBB
:1029A000036AE925E96EEA510320EA6EEFCFF0F7FA
:1029B000EE510A0823E1F0512F081FE2F0513908C7
:1029C0001CE3F26B0A0EF16FECC7F4F7EBC7F3F7F9
:1029D000000162D7300E0701F05D0124EB6F000E9D
:1029E0000220EC6FEF51EF2B036AE925E96EEA5103
:1029F0000320EA6EEFCFF0F7DED763D0EE51100878
:102A000060E1F051600806E2F0517A0803E3F0510A
:102A1000DF0B01D0F051F06FF0512F0803E2F051BD
:102A2000390806E2F05140084CE2F051460849E30B
:102A3000F0512F081AE2F051390817E3EB35F16F26
:102A4000EC35F26FF137F237F137F237F137F23711
:102A5000F00EF117300EF05DF125016E000EF2213F
:102A6000036E01C0EBF7EC6F16D0EB35F16FEC3570
:102A7000F26FF137F237F137F237F137F237F00E04
:102A8000F117410EF05D0A0FF125016E000EF221E3
:102A900001C0EBF7EC6FEF51EF2B036AE925E96E0C
:102AA000EA510320EA6EEFCFF0F7F051600806E23A
:102AB000F0517A0803E3F051DF0B01D0F051F06FD1
:102AC000ABD7EE510A0807E1ED2D05D0EB1FEC1F47
:102AD000EB2BD8B4EC2BEBC701F0ECC702F00001F4
:102AE00012000701E951EB03F3CF01F0F4CF00F03E
:102AF000EC03F3500026EA51EB03F3500020026E82
:102B0000000112000501669161C568F560C567F5B1
:102B100062516025016E000E6121036E6851035CF5
:102B20004BE303E10150675D47E20701EC6BEB6BA0
:102B300068C5EAF767C5E9F700012DDD01C065F555
:102B4000010E0801646F000199DC050165510D0853
:102B50001BE16051675D696F615168596A6F63512C
:102B60006925E96E64516A21EA6EEF6A010E080177
:102B7000646F000183DC05016681010E0801646F4A
:102B800000017CDC050118D06051675D696F6151FF
:102B900068596A6F63516925E96E64516A21EA6E6A
:102BA00065C5EFFF010E0801646F000167DC0501D8
:102BB000672BD8B4682BACD7000E66B1010E016E3E
:102BC0000001120089C68BF688C68AF68BC603F010
:102BD00006018AC6E9FF8BC6EAFFEF5206E08A2BA0
:102BE000D8B48B2B0001F2D7060188518A5D006EA4
:102BF00089518B59036E00C001F0000112008E0E46
:102C0000006E9AC501F099C502F0036A01AE05D0C5
:102C1000011E021E022A01E1012A015209E102C03D
:102C200001F0026A080E005E015202E1006A0ED055
:102C3000D89001BE04D0023601360006F9D705014E
:102C40009AAF02D0000102D0019E00011200AAC575
:102C5000B1F50501AE51B11BB1AF05D0D894D890F4
:102C6000AABFD8802FD0AAC5B1F5ADC5B2F5A9517C
:102C7000B25F06E0B1AF26D0D850010AD86E22D09C
:102C8000AEC5B2F5AA51B25F06E0B1AF1BD0D850C5
:102C9000010AD86E17D0AFC5B2F5AB51B25F06E0EE
:102CA000B1AF10D0D850010AD86E0CD0B0C5B2F573
:102CB000AC51B25F06E0B1AF05D0D850010AD86E72
:102CC00001D0D890000112000701F851D8B47FD08C
:102CD000006EFC51D8B47BD0002605E3810E00269F
:102CE000D8B075D004D07F0E005E71E370E0F9C7F4
:102CF00000F8FD510801001B0701F98FFD8FFB5102
:102D0000FF03F4CF02F8FA51FE03F4CF03F0F3CF40
:102D100001F8FF03F35008010227F4500123000ECD
:102D200003220701FB51FE03F35008010227F45070
:102D30000123000E026A032202220701F951FF0358
:102D4000F35008010127F4500322000E022207016C
:102D5000F951FE03F3500326F4500222000E016ADB
:102D60000122FB51FD03F35008010127F450032217
:102D7000000E022201220701FA51FD03F35003263F
:102D8000F4500222000E0122F951FD03F3500226F5
:102D9000F4500122002A01BE06D008010137033693
:102DA000023601360006000E080101AF0AD0032AE0
:102DB00002220122015005E1025003E1035001E12A
:102DC000002A00BF018E00AF019E06D00701006AF5
:102DD000016A026A036A0801000112000701EC6B34
:102DE000EB6BEA6BF90EE96F0001CBEC12F00150CE
:102DF000A5080AE1010E0801646F00013EEC12F023
:102E00000201178709D00001010E0801646F00015B
:102E10003EEC12F0020117970701EC6BEB6BEA6BCB
:102E2000FE0EE96F0001CBEC12F00150690809E1D8
:102E3000010E0801646F00013EEC12F002011789D7
:102E400000010701EC6BEB6BEA6BE96B0001CBEC6B
:102E500012F00150220853E1010E0801646F0001D5
:102E60003EEC12F0220E0101146F010E0501546FA9
:102E70005451100843E30701EC6BEB6BEA6B54C54C
:102E8000E9F70001CBEC12F001C053F5010E080187
:102E9000646F00013EEC12F005015351220823E15A
:102EA000036A5451140FE96E010E0320EA6E53C5F4
:102EB000EFFF010E5425036A140FE96E010E032083
:102EC000EA6EEF6A010E0801646F00013EEC12F039
:102ED00004012183010E0801646F00013EEC12F031
:102EE00005010CD009D0036A5451140FE96E010E8C
:102EF0000320EA6E53C5EFFF542BBAD70001070138
:102F0000EC6BEB6BEA6BAA0EE96F0001CBEC12F0F5
:102F10000150220857E1220E0101036F0501576B92
:102F2000010E566F57534DE1565110084AE3AA0E51
:102F30005625606F000E5721616F0701EC6BEB6B3C
:102F4000EA6F60C5E9F70001CBEC12F001C055F55E
:102F5000040000D0000005015551220826E1030EAF
:102F60005625E96E010E5721EA6E55C5EFFF010E99
:102F70005625606F000E5721616F030E6025E96EC4
:102F8000010E6121EA6EEF6A010E0801646F000113
:102F90003EEC12F004012185010E0801646F00016E
:102FA0003EEC12F005010DD008D0030E5625E96E57
:102FB000010E5721EA6E55C5EFFF562BD8B4572B9B
:102FC000B1D700010701EC6BEB6BEA6B150EE96FF3
:102FD0000001CBEC12F001500D085EE10501596BC8
:102FE000120E586F595347E15851150844E3070131
:102FF000EC6BEB6B59C5EAF758C5E9F70001CBEC70
:1030000012F001C04BF5010E0801646F00013EECA7
:1030100012F005014B510D0815E1120E585D606F5D
:10302000000E5959616F250E6025E96E010E612170
:10303000EA6EEF6A010E0801646F00013EEC12F0C7
:10304000050119D0120E585D606F000E5959616F5D
:10305000250E6025E96E010E6121EA6E4BC5EFFF7A
:10306000010E0801646F00013EEC12F00501582BBF
:10307000D8B4592BB7D7010E0701EA6F250EE96FB7
:10308000000135DC02C05FF101C05EF1010E0801F4
:10309000646F00013EEC12F00701EC6BEB6BEA6B26
:1030A0001D0EE96F0001CBEC12F001500D085FE13D
:1030B00005015B6B1A0E5A6F5B5347E15A511D08AD
:1030C00044E30701EC6BEB6B5BC5EAF75AC5E9F724
:1030D0000001CBEC12F001C04BF5010E0801646F4A
:1030E00000013EEC12F005014B510D0815E11A0EDE
:1030F0005A5D606F000E5B59616F2D0E6025E96EA1
:10310000010E6121EA6EEF6A010E0801646F000191
:103110003EEC12F0050119D01A0E5A5D606F000ED8
:103120005B59616F2D0E6025E96E010E6121EA6E1B
:103130004BC5EFFF010E0801646F00013EEC12F079
:1031400005015A2BD8B45B2BB7D7010E0701EA6FE4
:103150002D0EE96F000177EC14F002C063F101C09D
:1031600062F1010E0801646F00013EEC12F00701EC
:10317000EC6BEB6BEA6B190EE96F0001CBEC12F014
:1031800001500D08D8A47BD005015D6B160E5C6F55
:103190005D5347E15C51190844E30701EC6BEB6BAD
:1031A0005DC5EAF75CC5E9F70001CBEC12F001C0A0
:1031B0004BF5010E0801646F00013EEC12F00501B1
:1031C0004B510D0815E1160E5C5D606F000E5D59E8
:1031D000616F290E6025E96E010E6121EA6EEF6ACA
:1031E000010E0801646F00013EEC12F0050119D0D8
:1031F000160E5C5D606F000E5D59616F290E6025D3
:10320000E96E010E6121EA6E4BC5EFFF010E080168
:10321000646F00013EEC12F005015C2BD8B45D2B0D
:10322000B7D7010E0701EA6F290EE96F000177ECAD
:1032300014F002C065F101C064F10101655303E1BE
:103240006451090805E2655303E164511E0803E275
:10325000656B0F0E646F65C1EAF764C1E9F707019A
:10326000EC6B3C0EEB6F00013CDC02C067F101C06F
:1032700066F1010E0801646F00013EEC12F00701D7
:10328000EC6BEB6BEA6BA70EE96F0001CBEC12F075
:1032900001500D0860E105015F6BA40E5E6F5F5386
:1032A00047E15E51A70844E30701EC6BEB6B5FC598
:1032B000EAF75EC5E9F70001CBEC12F001C04BF56F
:1032C000010E0801646F00013EEC12F005014B5144
:1032D0000D0815E1A40E5E5D606F000E5F59616F11
:1032E000310E6025E96E010E6121EA6EEF6A010E72
:1032F0000801646F00013EEC12F0050119D0A40E24
:103300005E5D606F000E5F59616F310E6025E96E82
:10331000010E6121EA6E4BC5EFFF010E0801646FDB
:1033200000013EEC12F005015E2BD8B45F2BB7D73D
:10333000010E0701EA6F310EE96F000177EC14F01E
:1033400002C04BF401C04AF4010E0801646F000191
:103350003EEC12F005D004014B6B3C0E4A6F0001AD
:103360000701EC6BEB6BEA6BF10EE96F0001CBEC44
:1033700012F001502A080FE10501616B300E606FF9
:103380001F0E626F646BC20E636F000182EC15F05A
:103390000201178D00010701EC6BEB6BEA6BF20E7B
:1033A000E96F0001CBEC12F001502A080FE1050192
:1033B000616BD10E606F1F0E626F646BE00E636F06
:1033C000000182EC15F00201178F00010701EC6B80
:1033D000EB6BEA6BFB0EE96F0001CBEC12F00150D6
:1033E0002A0817E10501616B200E606F0B0E626FFA
:1033F000646B950E636F000182EC15F0040121816E
:103400000601896B950E886F0001E2EC15F001C092
:1034100003F20701EC6BEB6BEA6BFC0EE96F00014A
:10342000CBEC12F001502A080FE10501616B500E40
:10343000606F1F0E626F646BA40E636F000182ECFD
:1034400015F00201178B00010701EC6BEB6BEA6BC7
:10345000F50EE96F0001CBEC12F001502A080DE1E6
:10346000010E0501616F350E606F640E626F646B53
:103470001F0E636F000182EC15F00701EC6BEB6B24
:10348000EA6BF40EE96F0001CBEC12F001C024F4FA
:10349000050E0801646F00013EEC12F00701EC6BB1
:1034A000EB6BEA6BA00EE96F0001CBEC12F001C0F0
:1034B000FEF0050E0801646F00013EEC12F00701FA
:1034C000EC6BEB6BEA6BA10EE96F0001CBEC12F039
:1034D00001C0FFF0050E0801646F00013EEC12F020
:1034E0000701EC6BEB6BEA6BA20EE96F0001CBEC12
:1034F00012F001C000F1050E0801646F00013EECFE
:1035000012F00701EC6BEB6BEA6BA30EE96F0001A5
:10351000CBEC12F001C001F1050E0801646F00014F
:103520003EEC12F00701EC6BEB6B010EEA6F9A0EAA
:10353000E96F0001CBEC12F0012C97D00701EC6B86
:10354000EB6B010EEA6F9B0EE96F0001CBEC12F002
:103550000401286B276B266B01C025F427C428F4CF
:1035600026C427F425C426F4256B010E0801646FD8
:1035700000013EEC12F00701EC6BEB6B010EEA6F01
:103580009C0EE96F0001CBEC12F0015004012513F1
:10359000010E0801646F00013EEC12F00701EC6BB4
:1035A000EB6B010EEA6F9D0EE96F0001CBEC12F0A0
:1035B00004012C6B2B6B2A6B01C029F42BC42CF457
:1035C0002AC42BF429C42AF4296B010E0801646F64
:1035D00000013EEC12F00701EC6BEB6B010EEA6FA1
:1035E0009E0EE96F0001CBEC12F00150040129138B
:1035F000010E0801646F00013EEC12F004012C532F
:1036000021E12B531FE12A5101081CE303E1295159
:103610009E0818E32C6B2B6B010E2A6F9F0E296FEF
:103620000701F36BF26B010EF16F9A0EF06FF46B02
:10363000000129EC13F0010E0801646F00013EEC5B
:1036400012F0040128530FE127530DE12651010820
:103650000AE303E125519E0806E3286B276B010E60
:10366000266F9F0E256F0ED0000104012C6B2B6B73
:10367000010E2A6F9F0E296F286B276B010E266F94
:103680009F0E256F0701EC6BEB6B010EEA6F9F0E2F
:10369000E96F0001CBEC12F001507B080EE1040150
:1036A000286B276B010E266F9F0E256F2C6B2B6BE3
:1036B000010E2A6F9F0E296F00010501616BC00E7C
:1036C000606F070E626F050E646F4C0E636F000132
:1036D00082EC15F0015217E0050E0701EA6F4C0E5F
:1036E000E96F000177EC14F002C09AF501C099F57A
:1036F000FFEC15F003C030F402C02FF401C02EF42B
:1037000000C02DF407D00401306B2F6B2E6B800EA0
:103710002D6F00010501616BC70E606F070E626FB0
:10372000050E646F4C0E636F000182EC15F00152C0
:1037300042E0050E0701EA6F4C0EE96F000177ECDD
:1037400014F002C09AF501C099F5FFEC15F003C022
:1037500034F402C033F401C032F400C031F4050186
:10376000AC6BAB6BAA6BA96B34C4B0F533C4AFF5CB
:1037700032C4AEF531C4ADF5000127EC16F01AE302
:1037800034C4FBF733C4FAF732C4F9F731C4F8F79D
:103790000701FF6BFE6B800EFD6F7F0EFC6F00015B
:1037A00064EC16F003C034F402C033F401C032F408
:1037B00000C031F406D00401346B336B800E326FDD
:1037C000316F0001C9EF6BF09290899092928992CB
:1037D000960E0801646F00013EEC12F09290898011
:1037E0000E0E05015F6FFA0E0801646F00013EECDA
:1037F00012F005015F2FF7D79290899004013A8368
:103800003595140E05015F6FFA0E0801646F000113
:103810003EEC12F005015F2FF7D7929089909292BB
:103820008992960E0801646F00013EEC12F09290AE
:1038300089800A0E05015F6FDC0E0801646F0001CC
:103840003EEC12F005015F2FF7D7929089900401AA
:103850003A9300011200A4AAFED771CF16F074CFDC
:1038600001F016A202D071987188120065C803F0A9
:10387000080164C8E9FF65C8EAFFEF5239E065C88E
:1038800069F864C868F867C86BF866C86AF86BC8F6
:1038900003F06AC8E9FF6BC8EAFFEF5216E068C898
:1038A000E9FF69C8EAFFEFCF6CF86BC803F06AC89C
:1038B000E9FF6BC8EAFFEF506C5D07E1682BD8B4F5
:1038C000692B6A2BD8B46B2BE2D76BC803F06AC89C
:1038D000E9FF03C0EAFFEF5205E164C801F065C8E3
:1038E00002F009D0642BD8B4652B0001BFD70801C2
:1038F000000E016E026E00011200040E0801655FE9
:103900000AE3080EEA6E650EE96EEF5004E001D09E
:103910000400EF2EFDD7000112000701FB6BFA6BCC
:1039200008016291636B0701FB51F95D6DE303E1EF
:10393000F851FA5D69E2A4AA50D008016351632BE3
:10394000036AFE0FE96E070E0320EA6EEACF67F8FE
:10395000E9CF66F800017FDF67C8EAFF66C8E9FFC4
:1039600001C0EFFF0400010E006E002EFED700D054
:103970000000036A08016351FE0FE96E070E032081
:10398000EA6EEF6A0400010E006E002EFED700D032
:103990000000070E656FFE0E646FF7C767F8F6C785
:1039A00066F8000163DF02C0FDF701C0FCF7070104
:1039B000FC51FD1112E00400010E006E002EFED736
:1039C00000D00000080162810400010E006E002E8C
:1039D000FED700D00000070117D00400020E080136
:1039E000646FF80E656F000188DF0801642FF9D756
:1039F0000701FA2BD8B4FB2B0400010E006E002E39
:103A0000FED700D0000090D7050E0801646F0001BA
:103A10003EEC12F0000E080162B1010E016E0001D1
:103A20001200270E0501606F100E5F6F616B6391CE
:103A3000860EF66E1F0EF76E00013BEC14F00501CA
:103A400060C503F05F51D8B460075F07031041E021
:103A5000A4AA3ED00001FFDE01C062F5040000D040
:103A60000000050163B112D062512B080FE16151D2
:103A7000612B036A640FE96E050E0320EA6E62C5CE
:103A8000EFFF040000D0000063810CD063A10AD0D6
:103A90006151612B036A640FE96E050E0320EA6E23
:103AA00062C5EFFF040000D0000061510A080AE17E
:103AB0006C512C0807E1040000D000006DC501F036
:103AC0000AD006D061510A0803E1300E016E03D01E
:103AD000B7D7300E016E00011200A4A8FED7736E96
:103AE0001200ADC5AFF5ACC5AEF50501AF5101088B
:103AF00024E303E1AE51350820E30701EC6BEB6BE7
:103B0000AFC5EAF7AEC5E9F70001CBEC12F001C092
:103B1000B0F5040000D000000501B0510D0802E12D
:103B20000CD007D0B0510001D8DF040000D0000055
:103B30000501AE2BD8B4AF2BD9D700011200050177
:103B40004C6B4E6B4D6B4D510F0877E14E5375E149
:103B50007086220E756E000E766EA60E726E900E38
:103B6000716E020E5F6FFA0E0801646F00013EEC89
:103B700012F005015F2FF7D76C0EF66E210EF76E6F
:103B800000013BEC14F0080E05015F6FFA0E08010E
:103B9000646F00013EEC12F005015F2FF7D7720E43
:103BA000F66E210EF76E00013BEC14F0080E0501D5
:103BB0005F6FFA0E0801646F00013EEC12F0050120
:103BC0005F2FF7D77A0EF66E210EF76E00013BECF1
:103BD00014F0080E05015F6FFA0E0801646F000112
:103BE0003EEC12F005015F2FF7D7880EF66E210E1E
:103BF000F76E00013BEC14F0080E05015F6FFA0E42
:103C00000801646F00013EEC12F005015F2FF7D749
:103C10007086A00E756E010E766EA60E726E900EF8
:103C2000716E080E5F6FFA0E0801646F00013EECC2
:103C300012F005015F2FF7D72BD04E5303E14D5102
:103C4000640826E24E6B4D6B0001BEDD080E0501D7
:103C50005F6FFA0E0801646F00013EEC12F005017F
:103C60005F2FF7D7080E5F6FFA0E0801646F00012F
:103C70003EEC12F005015F2FF7D7080E5F6FFA0ECA
:103C80000801646F00013EEC12F005015F2FF7D7C9
:103C9000900EF66E210EF76E00013BEC14F00D0E47
:103CA00005014F6F0A0E506F4F0E516F4B0E526F42
:103CB000536B050E0701F76F4F0EF66F070EF96F86
:103CC000D00EF86F000129DE015005014C270A0EC5
:103CD0000801646F00013EEC12F005014D2BD8B4D1
:103CE0004E2B4C53D8B42FD74E6B4D6B0A0E080198
:103CF000646F00013EEC12F094DE01C036F40A0E4F
:103D00000801646F00013EEC12F0040136513108E5
:103D100003E03651350802E13A8504D03A95000EA9
:103D2000016E60D20701EC6BEB6BEA6BE969000195
:103D3000CBEC12F001506908D8B499D1050E0801F6
:103D4000646F00013EEC12F0300EFE6FFF6F010158
:103D5000006F016F0701F36BF26BF16BA00EF06F58
:103D6000300EF46F000129EC13F0050E0801646FAA
:103D700000013EEC12F00701F36BF26BF16BA10E48
:103D8000F06F300EF46F000129EC13F0050E0801FE
:103D9000646F00013EEC12F00701F36BF26BF16B04
:103DA000A20EF06F300EF46F000129EC13F0050E37
:103DB0000801646F00013EEC12F00701F36BF26B37
:103DC000F16BA30EF06F300EF46F000129EC13F0CD
:103DD000050E0801646F00013EEC12F005014C6B0A
:103DE000960EF66E210EF76E00013BEC14F00D0EF0
:103DF0000501546F0A0E556F4F0E566F4B0E576FDD
:103E0000586B050E0701F76F540EF66F130EF96F1E
:103E1000880EF86F000181DD015005014C27C80EA6
:103E20000801646F00013EEC12F09C0EF66E210E4C
:103E3000F76E3BEC14F00D0E0501546F0A0E556F32
:103E40004F0E566F4B0E576F586B050E0701F76FED
:103E5000540EF66F130EF96F880EF86F00015DDDDA
:103E6000015005014C27C80E0801646F00013EECAB
:103E700012F0A60EF66E210EF76E3BEC14F00D0E4E
:103E80000501546F0A0E556F4F0E566F4B0E576F4C
:103E9000586B050E0701F76F540EF66F130EF96F8E
:103EA000880EF86F000139DD015005014C27C80E5E
:103EB0000801646F00013EEC12F0B40EF66E210EA4
:103EC000F76E3BEC14F00D0E0501546F0A0E556FA2
:103ED0004F0E566F4B0E576F586B050E0701F76F5D
:103EE000540EF66F130EF96F880EF86F000115DD92
:103EF000015005014C27C80E0801646F00013EEC1B
:103F000012F0C00EF66E210EF76E3BEC14F00D0EA3
:103F10000501546F0A0E556F4F0E566F4B0E576FBB
:103F2000586B050E0701F76F540EF66F130EF96FFD
:103F3000880EF86F0001F1DC015005014C27C80E16
:103F40000801646F00013EEC12F0CC0EF66E210EFB
:103F5000F76E3BEC14F00D0E0501546F0A0E556F11
:103F60004F0E566F4B0E576F586B050E0701F76FCC
:103F7000540EF66F130EF96F880EF86F0001CDDC4A
:103F8000015005014C27C80E0801646F00013EEC8A
:103F900012F0D40EF66E210EF76E3BEC14F00D0EFF
:103FA0000501546F0A0E556F4F0E566F4B0E576F2B
:103FB000586B050E0701F76F540EF66F130EF96F6D
:103FC000880EF86F0001A9DC015005014C27C80ECE
:103FD0000801646F00013EEC12F005014C51070826
:103FE0002FE04D2BD8B44E2B4E5303E14D513208E8
:103FF00027E24E6B4D6B0001E4EC1BF0080E05014F
:104000005F6FFA0E0801646F00013EEC12F00501CB
:104010005F2FF7D7080E5F6FFA0E0801646F00017B
:104020003EEC12F005015F2FF7D7080E5F6FFA0E16
:104030000801646F00013EEC12F005015F2FF7D715
:104040004C510708D8A4CBD6010E04013B6F0701E1
:10405000F36BF26BF16BF069690EF46F000129EC00
:1040600013F0050E0801646F00013EEC12F0E20E41
:10407000F66E210EF76E3BEC14F0520E0501596FEF
:10408000450E5A6F410E5B6F440E5C6F590E5D6FAB
:104090005E6B050E0701F76F590EF66F130EF96F81
:1040A000880EF86F000139DC01C04CF5C80E08011C
:1040B000646F00013EEC12F00701EC6BEB6BEA6BF6
:1040C000FC0EE96F0001CBEC12F001502A0877E1F9
:1040D00005014C2D01D002D0000171D0050E080160
:1040E000646F00013EEC12F00401218F050E0801FF
:1040F000646F00013EEC12F00201178B050E0801FF
:10410000646F00013EEC12F0EE0EF66E210EF76EBB
:104110003BEC14F00501AD6B500EAC6F0001E1DC1F
:10412000FE0EF66E210EF76E3BEC14F00D0E05013F
:10413000596F0A0E5A6F4F0E5B6F4B0E5C6F5D6BC3
:10414000050E0701F76F590EF66F130EF96F880E03
:10415000F86F00018DEC1CF0015005014C27C80ED2
:104160000801646F00013EEC12F005014C51020899
:1041700027E10A0EF66E220EF76E00013BEC14F0FA
:104180000D0E0501596F0A0E5A6F4F0E5B6F4B0EE5
:104190005C6F5D6B050E0701F76F590EF66F130E1E
:1041A000F96F880EF86F00018DEC1CF001500501CD
:1041B0004C27C80E0801646F00013EEC12F00501A7
:1041C0004C51030806E104013583020E3B6F03D016
:1041D000050104013593050E0801646F00013EECF2
:1041E00012F00401000112000701EF5302E1F05345
:1041F00042E0EBC7E9FFECC7EAFFEFCFF1F7EEC70C
:1042000003F0EDC7E9FFEEC7EAFFEF50F15D17E0FD
:10421000ECC703F0EBC7E9FF03C0EAFFEFCFF1F70C
:10422000EEC703F0EDC7E9FFEEC7EAFFEF50F15D1F
:1042300002E2FF0E01D0010E016E1FD00BD0ECC7C1
:1042400003F0EBC7E9FFECC7EAFFEF5203E1000E12
:10425000016E13D0ECC703F0EB51EB2BD8B4EC2B71
:10426000EEC703F0ED51ED2BD8B4EE2BEF51D8B4DF
:10427000F007EF07BAD7000E016E0001120004002C
:1042800000D0000008014F6B4F511D0824E3036A62
:104290004F510701E925E96EEA510320EA6EEF501C
:1042A0003A0816E108014F2B036A4F510701E9252F
:1042B000E96EEA510320EA6EEF50200803E108019D
:1042C0004F2B0701040000D00000080104D00701B3
:1042D00008014F2BD9D74FC850F8036A5051070136
:1042E000E925E96EEA510320EA6EEF5221E0080168
:1042F0004F51505D036AEB0F016E070E032203C09E
:1043000052F8036A50510701E925E96EEA5103208A
:10431000EA6EEFCF53F8080152C8EAFF01C0E9FF87
:1043200053C8EFFF040000D00000502BD6D7070180
:1043300008014F51505D036AEB0FE96E070E032031
:10434000EA6EEF6A040000D00000EAC7EAFFE9C79E
:10435000E9FF070EE26EEB0EE16EE752E6CFEEFFED
:10436000FCE1040000D00000000112000501B06B68
:10437000AF6BB26BB36B180EF66E220EF76E0001C8
:104380003BEC14F00501B0511308D8A07FD004E134
:10439000AF518708D8A07AD0AF2BD8B4B02BA4AA3D
:1043A00068D000012BEC1CF001C0B1F50400010E37
:1043B000006E002EFED700D000000501B1512B0881
:1043C0000BE1B26B010EB36F0400010E006E002E04
:1043D000FED700D0000007D0B1510D0804E1B35161
:1043E000020801E153D0B35344E0B251B22B036A47
:1043F0004B0FE96E050E0320EA6EB1C5EFFF040016
:10440000010E006E002EFED700D00000036AB251EC
:104410004B0FE96E050E0320EA6EEF6A0400010EF1
:10442000006E002EFED700D00000B251050821E139
:104430002B0EB46F430EB56F470EB66F530EB76FAA
:104440004E0EB86FB96B050E0701EC6F4B0EEB6F9C
:10445000050EEE6FB40EED6FF06B050EEF6F000101
:10446000C3DE0152D8B402D0050103D0020E05010B
:10447000B36F04000D0EBA6F2D0E0801656F0001B9
:104480007DEC1CF00501BA2FF7D77DD7050E07018B
:10449000EA6F4B0EE96F0001F2DE010E0801646F56
:1044A00000013EEC12F0010EEA6E480EE96E050EB8
:1044B000E26E4B0EE16EE752E6CFEEFFFCE1010E3D
:1044C0000801646F00013EEC12F0050E0801646FF4
:1044D00000013EEC12F0E7EF6BF006018A6B07017A
:1044E000B86BB76B060189C603F08851D8B4890749
:1044F0008807031045E0A4AA3AD000012BEC1CF079
:1045000001C0B9F70701B8C703F0B751B72BD8B44A
:10451000B82BBA6F8B0EBA25E96E060E0320EA6E31
:10452000B9C7EFFF040000D000008B0EB725E96E7D
:10453000060EB821EA6EEF6A040000D00000060102
:104540008A530AE10701B9514F08D8B402D00601D5
:1045500003D006018A2B0BD08A2D09D00701B9514F
:104560004B08D8B402D0060102D0060109D0010ED2
:104570000801646F00013EEC12F00701B3D7060199
:104580008B0E016E060E026E0001120052C4EAFF8D
:1045900051C4E9FF0701F6C7EFFFE92AD8B4EA2AB8
:1045A000EF6A0401512BD8B4522B00011200EF52D4
:1045B0000FE0EACFEAF7E9CFE9F7EFCFF6F7E6DF6A
:1045C000EAC7EAFFE9C7E9FFE92AD8B4EA2AEFD740
:1045D00012000900F6CFEAF7F7CFEBF7F550A4A8E1
:1045E000FED7736EEAC7F6FFEBC7F7FF0701E92FA7
:1045F00001D002D00001EDD7000112000701EBC786
:10460000E9FFECC7EAFFEFCFEFF7EEC703F0EDC726
:10461000E9FFEEC7EAFFEF50EF5D15E1ECC703F0ED
:10462000EBC7E9FF03C0EAFFEF5203E1000E016EA2
:104630001FD0ECC703F0EB51EB2BD8B4EC2BED2BD8
:10464000D8B4EE2BDCD7ECC703F0EBC7E9FFECC71F
:10465000EAFFEFCFEFF7EEC703F0EDC7E9FFEEC7D4
:10466000EAFFEF50EF5D02E2FF0E01D0010E016E96
:1046700000011200F4C7F8F7F3C7F7F7F8C703F023
:104680000701F7C7E9FFF8C7EAFFEF5230E0F6C7C6
:10469000FAF7F5C7F9F7FAC703F0F9C7E9FFFAC760
:1046A000EAFFEF520AE1F351F75D006EF451F85959
:1046B000036E00C001F023D010D0F7C7E9FFF8C7A0
:1046C000EAFFEFCFFBF7FAC703F0F9C7E9FFFAC734
:1046D000EAFFEF50FB5D01E104D0F92BD8B4FA2BCF
:1046E000DAD7F72BD8B4F82B0001C8D70701F3515C
:1046F000F75D006EF451F859036E00C001F000013F
:10470000D7EF23F0F4C7F8F7F3C7F7F7F8C703F0CC
:104710000701F7C7E9FFF8C7EAFFEF522AE0F6C73B
:10472000FAF7F5C7F9F7FAC703F0F9C7E9FFFAC7CF
:10473000EAFFEF5218E0F7C7E9FFF8C7EAFFEFCF4B
:10474000FBF7FAC703F0F9C7E9FFFAC7EAFFEF5032
:10475000FB5D05E1F7C701F0F8C702F00DD0F92BBA
:10476000D8B4FA2BE0D7F72BD8B4F82B0001CED76A
:104770000701000E016E026E0001F8EF23F0070141
:10478000EB51EC1104E0ECC703F0EB5103D018C07F
:1047900003F01750EF6F03C0F0F7F0C7F4F7EFC75F
:1047A000F3F7EEC7F6F7EDC7F5F7000163D7015051
:1047B0000701EF27000EF023F0C703F0EFC7E9FF72
:1047C000F0C7EAFFEF520AE117C0E9FF18C0EAFF9D
:1047D000200EEF6E000E016E026E27D0F0C7F4F7C8
:1047E000EFC7F3F7EEC7F6F7EDC7F5F700018AD785
:1047F00002C0F2F701C0F1F7F2C703F00701F1C7F9
:10480000E9FFF2C7EAFFEF5208E0F1C7E9FFF2C79C
:10481000EAFFEF6AF12BD8B4F22BF2C718F0F1C718
:1048200017F0EFC701F0F0C702F000011200EAC76D
:10483000EEF7E9C7EDF7ECC703F00701EBC7E9FFB7
:10484000ECC7EAFFEF522CE0EE51000806E2FF0A47
:1048500003E1ED51980801E223D0ECC703F0EB51DE
:10486000EB2BD8B4EC2BE96E03C0EAFFEFCFEFF7E8
:10487000F36BF26BEEC7F1F7EDC7F0F7EFC7F4F7A4
:10488000000129EC13F0050E0801646F00013EECF5
:1048900012F00701ED2BD8B4EE2B0001CCD70701A5
:1048A000ECC703F0EBC7E9FFECC7EAFFEF5212E1F8
:1048B000F36BF26BEEC7F1F7EDC7F0F70D0EF46F87
:1048C000000129EC13F0050E0801646F00013EECB5
:1048D00012F0070100011200EF5210E0EACFF5F7E5
:1048E000E9CFF4F7EF50A4A8FED7736EF5C7EAFF3F
:1048F000F4C7E9FFE92AD8B4EA2AEED712001A0E63
:104900000701F06F920EF66E1F0EF76E00013BEC82
:1049100014F04F0E0701F16F4B0EF26FF36B070EA1
:10492000F76FF10EF66F270EF96F100EF86F00019A
:104930008DEC1CF00701EF9101B0EF81020EF46FD6
:10494000FA0E0801646F00013EEC12F00701F42F2B
:10495000F7D79E0EF66E1F0EF76E00013BEC14F0BB
:104960004F0E0701F16F4B0EF26FF36B070EF76FEF
:10497000F10EF66F270EF96F100EF86F00018DEC37
:104980001CF00701EF9101B0EF81020EF46FFA0EF7
:104990000801646F00013EEC12F00701F42FF7D715
:1049A000AE0EF66E1F0EF76E00013BEC14F0ECC776
:1049B000EAFFEBC7E9FF90DF0D0EA4A8FED7736EE8
:1049C0000A0EA4A8FED7736E3E0E0701F16FF26BBC
:1049D000070EF76FF10EF66F270EF96F100EF86FD6
:1049E00000018DEC1CF00701EF9101B0EF81320E58
:1049F0000801646F00013EEC12F0EEC7EAFFEDC75C
:104A0000E9FF6ADF0701F051A4A8FED7736E4F0ECD
:104A1000F16F4B0EF26FF36B070EF76FF10EF66F3F
:104A2000270EF96F100EF86F00018DEC1CF00701D6
:104A3000EF9101B0EF81320E0801646F00013EEC8E
:104A400012F012000701E9531AE0929089909292B5
:104A50008992960E0801646F00013EEC12F092906C
:104A600089800E0E0701EA6FFA0E0801646F0001DB
:104A70003EEC12F00701EA2FF7D7929089900401DB
:104A80003A8335953B6B000112000900F6CFEAF737
:104A9000F7CFEBF7F5CFF6F779DDEAC7F6FFEBC70F
:104AA000F7FF0701E92F01D002D00001EED7000186
:104AB00012000701F651B608F66F036AF7C7FAF756
:104AC000F78FD890F733F833F933033202320132DB
:104AD0000032F62FF6D7FAAF0BD0001E011E021ED1
:104AE000031E002AD8B4012AD8B4022AD8B4032A53
:104AF00000011200D8B204D0070EEA6EFE0EE96E75
:104B0000006A016A026A036A0701FE6BFF6B080113
:104B1000006B016B0701FD51FC11FB11FA1143E021
:104B2000200E0801026FD8900701F637F737F837E3
:104B3000F937FE37FF370801003701370701FD510C
:104B40000801015D0FE10701FC510801005D0AE168
:104B50000701FB51FF5DD8B402D0080103D0FA5120
:104B6000FE5D080119E30701FA51FE5FFB51D8A071
:104B7000FB3DFF5FFC51D8A0FC3D01D003D00801F4
:104B8000005F0701FD51D8A0FD3D01D003D0080111
:104B9000015F0701D880080100360136023603366E
:104BA000022FC1D70701FEC7EFFFFFC7ECFF00C808
:104BB000ECFF01C8ECFF00011200E9500701EE6FA5
:104BC000ED51F06F1CE0ECC7FBF7EBC7FAF7EAC753
:104BD000F9F7E9C7F8F7FF6BFE6B200EFD6F820E49
:104BE000FC6F000164EC16F003C0ECF702C0EBF7B9
:104BF00001C0EAF700C0E9F70701F02FE4D7ECC7DE
:104C0000F9F7EBC7F8F7EAC7F7F7E9C7F6F70001D6
:104C100050DF03C0ECF702C0EBF701C0EAF700C0B9
:104C2000E9F70701ECAF0DD0EE07EE8BE91FEA1FA5
:104C3000EB1FEC1FE92BD8B4EA2BD8B4EB2BD8B47C
:104C4000EC2B3B0EF56F9A0EF46FCA0EF36FF26BFE
:104C50000A0EF06FED51D8B4EE2BD882070EEA6E33
:104C6000E90EE96EECC7F9F7EBC7F8F7EAC7F7F713
:104C7000E9C7F6F7F5C7FDF7F4C7FCF7F3C7FBF78D
:104C8000F2C7FAF7000136DF0150005213E10701C5
:104C9000ED29F05DD8A402D000010CD0EE510DE05A
:104CA0000F0BF05D01E040E2EEBF3ED0EEBD05D05F
:104CB000200E34D0200E0701EE17EEAB0ED0EE9B87
:104CC000ED51D8A4EE070050EE6F2D0EF66F0001E7
:104CD0005DDC0701EE51006EEE6BED51F05D0CE115
:104CE0000050EE6F2E0EF66F000150DC0701EE5102
:104CF000006E200EEE17000E300EEEAB0FD0EE9BC6
:104D0000ED51D8A4EE070050EE6F2D0EF66F0001A6
:104D10003DDC0701EE51006EEE6B300E002600C048
:104D2000F6F7000133DC0701D892F5C7F9F7F4C7AD
:104D3000F8F7F3C7F7F7F2C7F6F7FD6BFC6BFB6B01
:104D40000A0EFA6F0001D6DE03C0F5F702C0F4F7D1
:104D500001C0F3F700C0F2F70701F02F7ED7000182
:104D60001200EACFF1F7E9CFF0F70701EAAF08D078
:104D7000F08FF0A9F02BE91FEA1FE92BD8B4EA2B3A
:104D8000EA39F009EC6FEC27E20FED6F320FEF6FAD
:104D9000EA510F0BED27ED27EF27E90FEE6FEE2716
:104DA000EE27E9390F0BEE27EF27EE37EF37EF1F2E
:104DB000EF37E9510F0BEF27EC37070EEB6F0A0EB9
:104DC000EE07EF27FDE3ED07EE27FDE3EC07ED2708
:104DD000FDE3EB07EC27FDE3070EEA6EEB0EE96E51
:104DE000070EF015F09DED52F01507E1F0B9EE5207
:104DF000F0B903D0200E006E21D0E926000EEA2281
:104E0000E950EF0804E1EA50070801E1F08DEF50A6
:104E1000006E08E1F0BD06D0F0B91ED0F0B702D0A8
:104E2000200E0BD0F0AF06D02D0E006EED50F09D91
:104E3000F09F04D0F087F099300E0026EACFEAF711
:104E4000E9CFE9F700C0F6F70001C6EC22F0EAC7A7
:104E5000EAFFE9C7E9FF0701EE50F0ADD1D7000145
:104E600045EF38F00701F051016AEF5D03E2EFC74B
:104E700000F00CD0006A080EF16FEF370036F051E9
:104E8000005CD8B0006E0136F12FF7D70001120098
:104E9000200E0701EAA9300EEB6FE9C700F0E9AF79
:104EA00008D0001E002A00C0E9F72D0EEB6FEA8F34
:104EB000EA810150E9C7EFF7640EF06F0001D2DF1D
:104EC00000C0E9F7300E01240701EC6FE9C7EFF7E6
:104ED0000A0EF06F0001C6DF300E00240701EE6FEE
:104EE000300E0124ED6FEBC700F0300EEC5D04E0F6
:104EF000EA83EABFEA8512D0EBC7ECF7200EEB6F2E
:104F0000300EED5D04E0EA81EABFEA8307D0D8A461
:104F1000EA8104E1ECC7EDF7200EEC6FEAB505D0AD
:104F2000EAB308D0EAB10BD00FD0EBC7F6F7000117
:104F3000C6EC22F0ECC7F6F70001C6EC22F0EDC794
:104F4000F6F70001C6EC22F0EEC7F6F70001C6EC5A
:104F500022F012008E0E006EFDC701F0FCC702F0B9
:104F6000036A015209E102C001F0026A080E005E04
:104F7000015202E1006A08D0D89001BE04D0023686
:104F800001360006F9D7019E12000701FC51D8B482
:104F9000B4D00801086F0051D8A402D00701ADD0E9
:104FA000085F07E37F0E0827D8A002D00701A5D02D
:104FB0000AD0810E085FD8B002D007019ED0D8A4D5
:104FC00002D007019AD008C800F0016A026A036A99
:104FD000076BFDC706F8068FFEC705F8FFC704F884
:104FE000190E086F0351045F0DE2010E055F0AE21E
:104FF000065F08E2075F06E2072B062B052B03512D
:10500000042728D00251055F12E2010E065F0FE26D
:10501000075F0DE2072B062B0251052703510427DA
:1050200019E3052B17E1062B15E1072B13D00151CE
:105030008009065F0EE2010E075F0BE2072B0151AC
:105040008009062702510527E9E3062BE7E1072B34
:10505000E5D70380082F01D00BD0D890043705374F
:1050600006370737D8900336023601360937BAD7E4
:1050700009A106D0D890013202320332093304D09C
:10508000002E02D0070139D009BF1ED0D8900437B6
:105090000537063707370351045F07E2010E055F46
:1050A00004E2065F02E2075F1DE30251055F05E2CD
:1050B000010E065F02E2075F15E301518009065FFA
:1050C00003E2010E075F0EE3032A0CE1022A0AE164
:1050D000012A08E1002AD8A402D007010ED001322B
:1050E00002320332FDC708F80151081B08AF02D095
:1050F000018E08D0019E06D00701006A016A026A8B
:10510000036A080100011200800ED8A202D0080133
:10511000011B0801066B076BFDC705F80151051B54
:105120000701FC51D8B4E0D00801046F006E0051B3
:10513000D8B4E4D0045FD8B484D03DE301C80AF801
:105140000A8F02C809F803C808F8076BD8900A3319
:10515000093308330733042FF8D705AF03D006818E
:10516000E1D0069104910689070EEA6EE968EDD058
:10517000069905BF0AD004A113D00A3309330833B6
:105180000733002AD8B4C9D00BD00ABF0CD0D890AE
:105190000737083709370A370006D8B4BED0F5D725
:1051A000068D6ED0069DFDC705F805AF02D00A8FAB
:1051B000ADD00A9FABD000C804F800C800F00701CA
:1051C000FC510801045FFDC70AF80A8FFEC709F801
:1051D000FFC708F8076BD8900A3309330833073341
:1051E000042FF8D705AF03D006839CD00693049113
:1051F000068B080EEA6E030EE96EA7D0069B05BF6C
:105200000AD004A113D00A33093308330733002A24
:10521000D8B483D00BD00ABF0CD0D890073708374A
:1052200009370A370006D8B478D0F5D7068F28D0CA
:10523000069F01C805F801AF02D00A8F67D00A9F08
:1052400065D001C80AF80A8F02C809F803C808F82F
:1052500005AF04D00A9F068565D00695076B0491BB
:10526000070EEA6EE96871D005BF1CD0FDC705F8CE
:1052700004A106D00A33093308330733002A4DE06E
:1052800007AF0BD0082B09E1092B07E10A2B05E139
:105290000A3309330833002A40E006BD83D706BF2E
:1052A000C7D71CD0800E0A1B0AAF04D03BD001C860
:1052B00005F80AD0FDC705F80A5306E1095304E1D1
:1052C000085302E1006A22D00ABF08D0D8900737FD
:1052D000083709370A37002EF7D71FD005AF02D09D
:1052E0000A8F14D00A9F12D000C800F001C80AF833
:1052F00002C809F803C808F8080108D0FCC700F084
:10530000FDC70AF8FEC709F8FFC708F80AC801F088
:1053100009C802F008C803F034D0006A016A026AC2
:10532000036A2FD0076B081F091F0A1F071F072BCF
:1053300005E1082B03E1092B01E10A2B06B111D786
:1053400006B354D706B589D7B2D7EF50082705E37F
:10535000092B03E10A2BD8B40481ED52EF50092741
:1053600003E30A2BD8B40481ED52EF50EFBE01D015
:10537000800A0A27D8B0048106B9FAD606BB3ED700
:1053800073D7000112000701F06BEF6BEE6B7F0E1D
:10539000ED6FF46BF36BF26BF16BF581F593F595B3
:1053A000F76BE951EA1105E1006A016A026A036AD2
:1053B00012D1F751F72B036AE925E96EEA51032070
:1053C000EA6EEFCFF6F7F653D8B4C7D0F5A10FD0F9
:1053D000F65120080CE0F591F6512B0803E1F59306
:1053E000AFD005D0F6512D0802E1F583A9D0F5B173
:1053F00007D0F6512E0804E1F5B502D0F585A0D00E
:10540000F5B19BD0F6512F08D8B097D0F651390896
:10541000D8A093D0300EF65FF5A554D0F0C7FBF7B7
:10542000EFC7FAF7EEC7F9F7EDC7F8F7FF6BFE6BBA
:10543000200EFD6F820EFC6F000164EC16F003C0BD
:10544000F0F702C0EFF701C0EEF700C0EDF707017B
:10545000FD6BF6C7FCF700017DDD03C0FBF702C062
:10546000FAF701C0F9F700C0F8F703C0FFF702C070
:10547000FEF701C0FDF700C0FCF7F0C703F8EFC767
:1054800002F8EEC701F8EDC700F87FDDD892F4C747
:10549000FFF7F3C7FEF7F2C7FDF7F1C7FCF703C04C
:1054A00003F802C002F801C001F800C000F82CDEC9
:1054B00003C0F4F702C0F3F701C0F2F700C0F1F740
:1054C0003AD00701FB6BFA6B200EF96F820EF86F72
:1054D000F4C7FFF7F3C7FEF7F2C7FDF7F1C7FCF714
:1054E000000164EC16F003C0FBF702C0FAF701C03C
:1054F000F9F700C0F8F70701FD6BF6C7FCF70001EC
:1055000029DDD892FBC7FFF7FAC7FEF7F9C7FDF709
:10551000F8C7FCF703C003F802C002F801C001F8A5
:1055200000C000F8F1DD03C0F4F702C0F3F701C0DA
:10553000F2F700C0F1F705D00701F5B101D00DD0A9
:1055400000010701F751F72B036AE925E96EEA51DB
:105550000320EA6EEFCFF6F736D7F5A31AD0FB6B30
:10556000FA6B800EF96F7F0EF86FF4C7FFF7F3C781
:10557000FEF7F2C7FDF7F1C7FCF7000164EC16F087
:1055800003C0F4F702C0F3F701C0F2F700C0F1F76F
:105590000701EB51EC1117E0F7530CE0F707EBC7ED
:1055A000E9FFECC7EAFFF751E925EF6E000EEA21AB
:1055B000EC6E09D0EBC7E9FFECC7EAFFEAC7ECFFE6
:1055C000ED52E9C7EFFFF1C700F0F2C701F0F3C7F2
:1055D00002F0F4C703F000011200060E0401476F49
:1055E00006018A6B8E6B0701C46BC36B270EC66FF7
:1055F000100EC56FB80EF66E1F0EF76E080EE96F2F
:105600000001E9EC22F006018951A4A8FED7736ECF
:105610000D0EA4A8FED7736E0A0EA4A8FED7736E53
:105620000701C6C703F0C551D8B4C607C5070310A4
:10563000D8B4DCD0A4AAD1D000012BEC1CF001C05E
:105640008BF6040000D0000006018E2D0DD08B518A
:105650002C080AE08F518F2B036AB20FE96E070EF8
:105660000320EA6E8BC6EFFF8A51020818E18B51C6
:105670002C0815E18E5304E1010E8E6F8F6B0FD055
:105680008E2D0DD0020E8E6F036A8F51B20FE96E10
:10569000070E0320EA6EEF6A040000D000008A5370
:1056A0000CE18B512B0809E1010E8A6F0701C46BD5
:1056B000C36B040000D0000006018B510D0809E106
:1056C0008A51030806E1040000D0000007018ED0D3
:1056D00006018A2D01D003D08A51020825E1070175
:1056E000C4C703F0C351C32BD8B4C42BE96F900EC9
:1056F000E925E96E060E0320EA6E8BC6EFFF040073
:1057000000D00000900EC325E96E060EC421EA6E9B
:10571000EF6A040000D00000C45303E1C3517F08C6
:1057200001E264D027D006018A51030824E1070171
:10573000C4C703F0C351C32BD8B4C42BE96F440EC4
:10574000E925E96E070E0320EA6E8BC6EFFF040021
:1057500000D00000440EC325E96E070EC421EA6E96
:10576000EF6A040000D00000C45303E1C351630892
:1057700001E23CD006018B510A0809E18A51020876
:1057800006E10701C46BC36B030E06018A6F8A2D05
:1057900022D02B0E0701C76F430EC86F4D0EC96F85
:1057A000470ECA6F520ECB6FCC6B060EEC6F900E8D
:1057B000EB6F070EEE6FC70EED6FF06B050EEF6F20
:1057C0000001F4EC20F0015207E1020E06018A6F9D
:1057D000040000D0000000010701010E0801646F01
:1057E00000013EEC12F006011BD70701070EEA6E1E
:1057F000CD0EE96EF2CFE9F7F29E100E016EF76A58
:10580000000E0001F0EC09F00A000900F5CFEEFFF0
:10581000012EFBD70701E9BFF28E070EEC6FB20E27
:10582000EB6F070EEE6FCD0EED6F0001FEEC22F078
:10583000015210E0070E0701EC6FB20EEB6F010E84
:10584000EE6F140EED6F0001FEEC22F00152D8A4B1
:105850004DEF3BF0070144512308D8A458D1E36B26
:10586000230ECD6FCE6B070EEC6F440EEB6F070E61
:10587000EE6FCD0EED6F0001BFEC23F002C0E2F73A
:1058800001C0E1F70701E151E211D8B495D0E3512D
:10589000000A000111E0010A1BE0030A25E0010AE9
:1058A0002FE0070A39E0010A43E0030A4DE0010A4C
:1058B00057E00F0A61E06CD00701EA6B120EE96F46
:1058C000E2C7ECF7E1C7EBF7000117EC24F060D07A
:1058D0000701EA6B160EE96FE2C7ECF7E1C7EBF7D9
:1058E000000117EC24F054D00701EA6B1A0EE96F9F
:1058F000E2C7ECF7E1C7EBF7000117EC24F048D062
:105900000701EA6B200EE96FE2C7ECF7E1C7EBF79E
:10591000000117EC24F03CD00701EA6B500EE96F50
:10592000E2C7ECF7E1C7EBF7000117EC24F030D049
:105930000701EA6B300EE96FE2C7ECF7E1C7EBF75E
:10594000000117EC24F024D00701EA6B700EE96F18
:10595000E2C7ECF7E1C7EBF7000117EC24F018D031
:105960000701EA6B800EE96FE2C7ECF7E1C7EBF7DE
:10597000000117EC24F00CD00701EA6B900EE96FE0
:10598000E2C7ECF7E1C7EBF7000117EC24F000D019
:105990000701E32B230ECD6FCE6BEC6BEB6B070E89
:1059A000EE6FCD0EED6F0001BFEC23F002C0E2F709
:1059B00001C0E1F767D70701F36BF26BF16BF06998
:1059C000F469000129EC13F0050E0801646F000171
:1059D0003EEC12F00701F36BF26BF16BF00EF06F1F
:1059E000690EF46F000129EC13F0050E0801646FD5
:1059F00000013EEC12F00701F36BF26BF16BF10E5C
:105A0000F06F2A0EF46F000129EC13F0050E080167
:105A1000646F00013EEC12F00701F36BF26BF16B67
:105A2000FC0EF06F2A0EF46F000129EC13F0050E46
:105A30000801646F00013EEC12F00701F36BF26B9A
:105A4000F16BFB0EF06F2A0EF46F000129EC13F0DE
:105A5000050E0801646F00013EEC12F00701F36BC4
:105A6000F26BF16BFE0EF06F690EF46F000129EC22
:105A700013F0020E0701E96FFA0E0801646F0001CE
:105A80003EEC12F00701E92FF7D7070EEA6ECD0EB4
:105A9000E96EF2CFE9F7F29E0F0E016EF76A000E83
:105AA000000105EC0AF00A000900F5CFEEFF012E17
:105AB000FBD70701E9BFF28E070EEC6FB20EEB6F5A
:105AC000070EEE6FCD0EED6F00017FEC24F0040E9B
:105AD0000701E96FFA0E0801646F00013EEC12F055
:105AE0000701E92FF7D7010EE96F000122EC25F03D
:105AF000040E0701E96FFA0E0801646F00013EEC25
:105B000012F00701E92FF7D7FF004AEF3BF04451AD
:105B10002408D8A4AFD0E66B240ECD6FCE6B070E51
:105B2000EC6F440EEB6F070EEE6FCD0EED6F0001C4
:105B3000BFEC23F002C0E5F701C0E4F70701E45130
:105B4000E5115DE0E651000A000107E0010A1CE0F2
:105B5000030A27E0010A32E03ED00701EA6BD10ECA
:105B6000E96FE5C7ECF7E4C7EBF7000117EC24F0A9
:105B7000EA6AE00EE96EE5C7E2FFE4C7E1FFE7523B
:105B8000E6CFEEFFFCE127D0010E0701EA6F040E1D
:105B9000E96FE5C7ECF7E4C7EBF7000117EC24F079
:105BA0001AD0010E0701EA6F140EE96FE5C7ECF792
:105BB000E4C7EBF7000117EC24F00DD0010E07014C
:105BC000EA6F240EE96FE5C7ECF7E4C7EBF70001D5
:105BD00017EC24F000D00701E62B240ECD6FCE6B1E
:105BE000EC6BEB6B070EEE6FCD0EED6F0001BFECB3
:105BF00023F002C0E5F701C0E4F7A0D70701050EC6
:105C00000801646F00013EEC12F00701F36BF26BC8
:105C1000F16BF20EF06F2A0EF46F000129EC13F015
:105C2000050E0801646F00013EEC12F0070EEA6EEB
:105C3000CD0EE96EF2CFE9F7F29E0C0E016EF76A17
:105C4000000E1AEC0AF00A000900F5CFEEFF012E53
:105C5000FBD70701E9BFF28E070EEC6FB20EEB6FB8
:105C6000070EEE6FCD0EED6F00017FEC24F04AEFD2
:105C70003BF00701070EEA6ECD0EE96EF2CFE9F7B1
:105C8000F29E080E016EF76A000E00012DEC0AF07C
:105C90000A000900F5CFEEFF012EFBD70701E9BF8F
:105CA000F28E070EEC6F440EEB6F070EEE6FCD0E0B
:105CB000ED6FF06B070EEF6F0001F4EC20F0015276
:105CC0006DE1070E0701EA6F440EE96F00013FEC3A
:105CD00021F00701EA6B500EE96F070EEC6F440EDE
:105CE000EB6F000117EC24F00701F36BF26BF16B23
:105CF000FC0EF06F2A0EF46F000129EC13F0050E74
:105D00000801646F00013EEC12F00701F36BF26BC7
:105D1000F16BF069F46B000129EC13F0050E08013A
:105D2000646F00013EEC12F0EA6AA40EE96E070E01
:105D3000E26E440EE16EE752E6CFEEFFFCE1050EA7
:105D40000801646F00013EEC12F0060E0401526F70
:105D5000900E516FC60EF66E1F0EF76E080E0701FD
:105D6000E96F000145EC25F0070EEA6E440EE96E7E
:105D7000D7EC22F0050E0801646F00013EEC12F032
:105D8000070E0701EC6FB20EEB6F060EEE6F900E72
:105D9000ED6F00017FEC24F04AEF3BF0070EEA6E56
:105DA000CD0EE96EF2CFE9F7F29E070E016EF76AAB
:105DB000000E3EEC0AF00A000900F5CFEEFF012EBE
:105DC000FBD70701E9BFF28E070EEC6F440EEB6FB5
:105DD000070EEE6FCD0EED6FF06B060EEF6F00014C
:105DE000F4EC20F001526DE1070E0701EA6F440E5A
:105DF000E96F00013FEC21F00701EA6B200EE96F2B
:105E0000070EEC6F440EEB6F000117EC24F0070156
:105E1000F36BF26BF16BFB0EF06F2A0EF46F000167
:105E200029EC13F0050E0801646F00013EEC12F03E
:105E30000701F36BF26BF16BF069F46B000129EC75
:105E400013F0050E0801646F00013EEC12F0EA6ADF
:105E5000950EE96E070EE26E440EE16EE752E6CF54
:105E6000EEFFFCE1050E0801646F00013EEC12F04C
:105E7000060E0401526F900E516FD20EF66E1F0E79
:105E8000F76E070E0701E96F000145EC25F0070EDC
:105E9000EA6E440EE96ED7EC22F0050E0801646F3D
:105EA00000013EEC12F0070E0701EC6FB20EEB6F33
:105EB000060EEE6F900EED6F00017FEC24F04AEFBE
:105EC0003BF0070EEA6ECD0EE96EF2CFE9F7F29ED7
:105ED000080E016EF76A000E4FEC0AF00A00090086
:105EE000F5CFEEFF012EFBD70701E9BFF28E070EBB
:105EF000EC6F440EEB6F070EEE6FCD0EED6FF06B97
:105F0000070EEF6F0001F4EC20F001522CE1070EB8
:105F10000701EA6F440EE96F00013FEC21F0010E2A
:105F20000701EA6F350EE96F070EEC6F440EEB6F59
:105F3000000117EC24F00701F36BF26BF16BF50E27
:105F4000F06F2A0EF46F000129EC13F0EA6A1F0EBD
:105F5000E96E070EE26E440EE16EE752E6CFEEFF09
:105F6000FCE14AEF3BF0070EEA6ECD0EE96EF2CF90
:105F7000E9F7F29E070E016EF76A000E60EC0AF078
:105F80000A000900F5CFEEFF012EFBD70701E9BF9C
:105F9000F28E070EEC6F440EEB6F070EEE6FCD0E18
:105FA000ED6FF06B060EEF6F0001F4EC20F0015284
:105FB0000FE10701F36BF26BF16BF20EF06FF46B14
:105FC000000129EC13F00201179F4BEF3BF0000199
:105FD000070EEA6ECD0EE96EF2CFE9F7F29E090EDA
:105FE000016EF76A000E71EC0AF00A000900F5CFA5
:105FF000EEFF012EFBD70701E9BFF28E070EEC6F13
:10600000440EEB6F070EEE6FCD0EED6FF06B080ECA
:10601000EF6F0001F4EC20F001525AE1070E070186
:10602000EA6F440EE96F00013FEC21F00701EA6BD3
:106030001A0EE96F070EEC6F440EEB6F000117ECC0
:1060400024F0010EEA6E2D0EE96E070EE26E440E8C
:10605000E16EE752E6CFEEFFFCE1070E0701EA6FC3
:10606000440EE96F000177EC14F002C063F101C047
:1060700062F1010E0801646F00013EEC12F0060EA1
:106080000401526F900E516FDC0EF66E1F0EF76E0C
:106090000A0E0701E96F000145EC25F0070EEA6ED4
:1060A000440EE96ED7EC22F0050E0801646F000182
:1060B0003EEC12F0070E0701EC6FB20EEB6F060E0E
:1060C000EE6F900EED6F00017FEC24F04AEF3BF095
:1060D000070EEA6ECD0EE96EF2CFE9F7F29E090ED9
:1060E000016EF76A000E83EC0AF00A000900F5CF92
:1060F000EEFF012EFBD70701E9BFF28E070EEC6F12
:10610000440EEB6F070EEE6FCD0EED6FF06B080EC9
:10611000EF6F0001F4EC20F00152D8A477D0070E05
:106120000701EA6F440EE96F00013FEC21F007011F
:10613000EA6B160EE96F070EEC6F440EEB6F000171
:1061400017EC24F0010EEA6E290EE96E070EE26EDE
:10615000440EE16EE752E6CFEEFFFCE1070E0701C9
:10616000EA6F440EE96F000177EC14F002C065F1AC
:1061700001C064F10101655303E16451090805E2BE
:10618000655303E164511E0803E2656B0F0E646FF3
:1061900065C1EAF764C1E9F70701EC6B3C0EEB6FF0
:1061A000000171EC15F002C067F101C066F1010E4B
:1061B0000801646F00013EEC12F0060E0401526FFC
:1061C000900E516FEA0EF66E1F0EF76E0A0E070163
:1061D000E96F000145EC25F0070EEA6E440EE96E0A
:1061E000D7EC22F0050E0801646F00013EEC12F0BE
:1061F000070E0701EC6FB20EEB6F060EEE6F900EFE
:10620000ED6F00017FEC24F04AEF3BF0070EEA6EE1
:10621000CD0EE96EF2CFE9F7F29E090E016EF76A34
:10622000000E95EC0AF00A000900F5CFEEFF012EF2
:10623000FBD70701E9BFF28E070EEC6F440EEB6F40
:10624000070EEE6FCD0EED6FF06B080EEF6F0001D5
:10625000F4EC20F001525AE1070E0701EA6F440EF8
:10626000E96F00013FEC21F00701EA6BA40EE96F32
:10627000070EEC6F440EEB6F000117EC24F0010EDB
:10628000EA6E310EE96E070EE26E440EE16EE752E1
:10629000E6CFEEFFFCE1070E0701EA6F440EE96F5F
:1062A000000177EC14F002C04BF401C04AF4010E77
:1062B0000801646F00013EEC12F0060E0401526FFB
:1062C000900E516FF80EF66E1F0EF76E0D0E070151
:1062D000E96F000145EC25F0070EEA6E440EE96E09
:1062E000D7EC22F0050E0801646F00013EEC12F0BD
:1062F000070E0701EC6FB20EEB6F060EEE6F900EFD
:10630000ED6F00017FEC24F04AEF3BF0070EEA6EE0
:10631000CD0EE96EF2CFE9F7F29E070E016EF76A35
:10632000000EA7EC0AF00A000900F5CFEEFF012EDF
:10633000FBD70701E9BFF28E070EEC6F440EEB6F3F
:10634000070EEE6FCD0EED6FF06B060EEF6F0001D6
:10635000F4EC20F0015238E10701F36BF26BF16BC2
:10636000F06BF469000129EC13F0050E0801646F6D
:1063700000013EEC12F0070EEA6ECD0EE96EF2CF90
:10638000E9F7F29E0D0E016EF76A000EB8EC0AF006
:106390000A000900F5CFEEFF012EFBD70701E9BF88
:1063A000F28E070EEC6FB20EEB6F070EEE6FCD0E96
:1063B000ED6F00017FEC24F0050E0801646F000111
:1063C0003EEC12F04AEF3BF0070EEA6ECD0EE96E9E
:1063D000F2CFE9F7F29E0A0E016EF76A000ECCECDE
:1063E0000AF00A000900F5CFEEFF012EFBD70701E6
:1063F000E9BFF28E070EEC6F440EEB6F070EEE6FE7
:10640000CD0EED6FF06B090EEF6F0001F4EC20F094
:1064100001525AE1070E0701EA6F440EE96F0001CD
:106420003FEC21F00701EA6B120EE96F070EEC6FEB
:10643000440EEB6F000117EC24F0010EEA6E250EFE
:10644000E96E070EE26E440EE16EE752E6CFEEFF14
:10645000FCE1070E0701EA6F440EE96F000177ECDB
:1064600014F002C05FF101C05EF1010E0801646F1B
:1064700000013EEC12F0060E0401526F900E516FB7
:10648000080EF66E200EF76E0A0E0701E96F000186
:1064900045EC25F0070EEA6E440EE96ED7EC22F0CB
:1064A000050E0801646F00013EEC12F0070E0701B3
:1064B000EC6FB20EEB6F060EEE6F900EED6F0001FB
:1064C0007FEC24F04AEF3BF0070EEA6ECD0EE96E4A
:1064D000F2CFE9F7F29E080E016EF76A000EDEECCD
:1064E0000AF00A000900F5CFEEFF012EFBD70701E5
:1064F000E9BFF28E070EEC6F440EEB6F070EEE6FE6
:10650000CD0EED6FF06B070EEF6F0001F4EC20F095
:106510000152D8A48BD007014B53D8A402D000015C
:1065200085D04E53D8A402D0000180D04F53D8B4A8
:1065300002D000017BD04BC7FEF0F36BF26BF16B26
:10654000A00EF06F4BC7F4F7000129EC13F0050E15
:106550000801646F00013EEC12F04CC7FFF0070128
:10656000F36BF26BF16BA00EF06F4CC7F4F7000108
:1065700029EC13F0050E0801646F00013EEC12F0E7
:106580004DC700F10701F36BF26BF16BA00EF06FDA
:106590004DC7F4F7000129EC13F0050E0801646FF4
:1065A00000013EEC12F04EC701F10701F36BF26BF4
:1065B000F16BA00EF06F4EC7F4F7000129EC13F059
:1065C0000101026B050E0801646F00013EEC12F040
:1065D000060E0401526F900E516F160EF66E200ECD
:1065E000F76E0F0E0701E96F000145EC25F0EA6A2E
:1065F000FE0EE96ED7EC22F0050E0801646F000173
:106600003EEC12F0070E0701EC6FB20EEB6F060EB8
:10661000EE6F900EED6F00017FEC24F0050E080187
:10662000646F00013EEC12F04AEF3BF04C0E0701A4
:10663000CD6F6F0ECE6F630ECF6FD06B070EEC6F0A
:10664000440EEB6F070EEE6FCD0EED6FF06B030E89
:10665000EF6F0001F4EC20F0015257E1060E040147
:10666000526F900E516F280EF66E200EF76E1E0EB2
:106670000701E96F000145EC25F080C1F6F7C6EC93
:1066800022F0890EE96ED9C1ECF7D8C1EBF7D7C17A
:10669000EAF7D6C1E9F7060E0701ED6F0001DDEC60
:1066A00025F02C0E0701F66F0001C6EC22F096C112
:1066B000F6F7C6EC22F0890EE96EDDC1ECF7DCC11D
:1066C000EBF7DBC1EAF7DAC1E9F7060E0701ED6F78
:1066D0000001DDEC25F0050E0801646F00013EECC1
:1066E00012F0070E0701EC6FB20EEB6F060EEE6FA5
:1066F000900EED6F00017FEC24F0050E0801646F31
:1067000000013EEC12F04AEF3BF0070EEA6ECD0EB0
:10671000E96EF2CFE9F7F29E090E016EF76A000EFC
:10672000EFEC0AF00A000900F5CFEEFF012EFBD7CF
:106730000701E9BFF28E070EEC6F440EEB6F070EF8
:10674000EE6FCD0EED6FF06B080EEF6F0001F4EC05
:1067500020F0015230E104013751350815E1590E9E
:106760000701CD6F650ECE6F730ECF6FD06B070E26
:10677000EC6FB20EEB6F070EEE6FCD0EED6F0001FA
:106780007FEC24F015D004013751310812E14E0E90
:106790000701CD6F6F0ECE6FCF6B070EEC6FB20E91
:1067A000EB6F070EEE6FCD0EED6F00017FEC24F066
:1067B00004014CEF3BF0520E0701CD6F730ECE6F0C
:1067C000740ECF6FD06B070EEC6F440EEB6F070E9D
:1067D000EE6FCD0EED6FF06B030EEF6F0001F4EC7A
:1067E00020F0015242E1070EEA6ECD0EE96EF2CFC3
:1067F000E9F7F29E0A0E016EF76A000E01EC0BF04B
:106800000A000900F5CFEEFF012EFBD70701E9BF13
:10681000F28E070EEC6FB20EEB6F070EEE6FCD0E21
:10682000ED6F00017FEC24F0040E0701E96FFA0E12
:106830000801646F00013EEC12F00701E92FF7D761
:10684000010EE96F000122EC25F0040E0701E96F4B
:10685000FA0E0801646F00013EEC12F00701E92F07
:10686000F7D7FF004AEF3BF00001070EEA6ECD0EAE
:10687000E96EF2CFE9F7F29E070E016EF76A000E9D
:1068800013EC0BF00A000900F5CFEEFF012EFBD749
:106890000701E9BFF28E070EEC6F440EEB6F070E97
:1068A000EE6FCD0EED6FF06B060EEF6F0001F4ECA6
:1068B00020F00152D8A466D1070E0701EA6F440EFA
:1068C000E96F00013FEC21F00201016B026B410E08
:1068D0000701CD6F750ECE6F740ECF6F6F0ED06F38
:1068E000D16B070EEC6F440EEB6F070EEE6FCD0E03
:1068F000ED6FF06B040EEF6F0001F4EC20F001522D
:106900003AE10201009B0701F36BF26BF16BCE0ED3
:10691000F06FF469000129EC13F0010E0801646FB7
:1069200000013EEC12F0070EEA6ECD0EE96EF2CFDA
:10693000E9F7F29E0C0E016EF76A000E24EC0BF0E4
:106940000A000900F5CFEEFF012EFBD70701E9BFD2
:10695000F28E070EEC6FB20EEB6F070EEE6FCD0EE0
:10696000ED6F00017FEC24F0010E0801646F00015F
:106970003EEC12F005D1070144512F0808E24451C2
:10698000390805E3300E445D0201016F07014551EE
:106990002F080EE2455139080BE3020101510A0D9F
:1069A000F3CF01F2300E0701455D02010127070117
:1069B00045512C0820E146512F0808E2465139087C
:1069C00005E3300E465D0201026F070147512F08B3
:1069D0000EE2475139080BE3020102510A0DF3CFD1
:1069E00002F2300E0701475D020102270701020192
:1069F000008B26D0070146512C0820E147512F0873
:106A000008E24751390805E3300E475D0201026F85
:106A1000070148512F080EE2485139080BE30201E3
:106A200002510A0DF3CF02F2300E0701485D020158
:106A3000022707010201008B03D007010201009B1E
:106A400000AB63D001510C0860E302513B085DE3E9
:106A5000070EEA6ECD0EE96EF2CFE9F7F29E070E51
:106A6000016EF76A000E000137EC0BF00A00090016
:106A7000F5CFEEFF012EFBD70701E9BFF28E070E1F
:106A8000EC6FB20EEB6F070EEE6FCD0EED6F0001E7
:106A90007FEC24F0010E0801646F00013EEC12F05F
:106AA0000701F36BF26BF16BCE0EF06F2A0EF46FF1
