:040FD0008FEF6AF045
:080FD800046ED8CF05F0E0CF54
:100FE00006F00001E9CF0CF0EACF07F0E1CF08F0FE
:100FF000E2CF09F0D9CF0AF0DACF0BF0F3CF12F03D
:10100000F4CF13F0FACF14F000C00EF001C00FF0CF
:1010100002C010F003C011F09DA212EF08F09EB2C2
:1010200040EF0DF00EC000F00FC001F010C002F054
:1010300011C003F00CC0E9FF07C0EAFF078E08C02B
:10104000E1FF09C0E2FF0AC0D9FF0BC0DAFF12C0FE
:10105000F3FF13C0F4FF14C0FAFF045006C0E0FF12
:1010600005C0D8FF1000F2CF0DF0F29EF76A800F96
:10107000F66E100EF7220900F5500DBEF28E12002A
:1010800068656C6C6F20776F726C6400F2CF0DF046
:10109000F29EF76AA60FF66E100EF7220900F550C1
:1010A0000DBEF28E12004F536F666600F2CF0DF048
:1010B000F29EF76AC60FF66E100EF7220900F55081
:1010C0000DBEF28E12002447504747410000F2CF78
:1010D0000DF0F29EF76AE80FF66E100EF722090087
:1010E000F5500DBEF28E120024474E4747410000D6
:1010F000F2CF0DF0F29EF76A0A0FF66E110EF7228C
:101100000900F5500DBEF28E1200244750524D4397
:101110000000F2CF0DF0F29EF76A2C0FF66E110E62
:10112000F7220900F5500DBEF28E120024474E52F0
:101130004D430000F2CF0DF0F29EF76A4E0FF66EAF
:10114000110EF7220900F5500DBEF28E1200566105
:101150006C696400F2CF0DF0F29EF76A6E0FF66EC6
:10116000110EF7220900F5500DBEF28E12005468E0
:10117000656674206F7220546F77696E67206163B3
:101180007469766974792064657465637465640054
:10119000F2CF0DF0F29EF76AAA0FF66E110EF7224B
:1011A0000900F5500DBEF28E12006770732073694E
:1011B000676E616C206C6F737400F2CF0DF0F29E5D
:1011C000F76AD40FF66E110EF7220900F5500DBE26
:1011D000F28E1200496E76616C696400F2CF0DF0F8
:1011E000F29EF76AF60FF66E110EF7220900F5501F
:1011F0000DBEF28E12000D0A434F4E4E4543540D64
:101200000A00F2CF0DF0F29EF76A1C0FF66E120E76
:10121000F7220900F5500DBEF28E12000D0A4F4B59
:101220000D0A0D0A2B51485454504745543A20306A
:101230002C3230302C00F2CF0DF0F29EF76A500FB6
:10124000F66E120EF7220900F5500DBEF28E120056
:101250000D0A4F4B0D0A0D0A2B514854545052455C
:10126000414446494C453A20300D0A00F2CF0DF07A
:10127000F29EF76A860FF66E120EF7220900F550FD
:101280000DBEF28E12006F746120696E2070726F55
:10129000677265737300F2CF0DF0F29EF76AB00FBC
:1012A000F66E120EF7220900F5500DBEF28E1200F6
:1012B0004F536F6E0000F2CF0DF0F29EF76AD00F21
:1012C000F66E120EF7220900F5500DBEF28E1200D6
:1012D00049444C450000F2CF0DF0F29EF76AF00F42
:1012E000F66E120EF7220900F5500DBEF28E1200B6
:1012F00052554E4E494E4700F2CF0DF0F29EF76A1E
:10130000120FF66E130EF7220900F5500DBEF28E85
:1013100012005041524B45440000F2CF0DF0F29EB6
:10132000F76A340FF66E130EF7220900F5500DBE62
:10133000F28E1200496E20526F6D696E6700F2CF17
:101340000DF0F29EF76A580FF66E130EF7220900A1
:10135000F5500DBEF28E1200486F6D65204E65741B
:10136000776F726B0000F2CF0DF0F29EF76A800F7C
:10137000F66E130EF7220900F5500DBEF28E120024
:1013800067707320676F742066697800F2CF0DF084
:10139000F29EF76AA60FF66E130EF7220900F550BB
:1013A0000DBEF28E120073657276657220636F6EE9
:1013B0006E65637465640000F2CF0DF0F29EF76A0B
:1013C000D20FF66E130EF7220900F5500DBEF28E05
:1013D00012004F54412046696E69736865640000CD
:1013E000F2CF0DF0F29EF76AFA0FF66E130EF722A7
:1013F0000900F5500DBEF28E1200222B3931373024
:1014000031323538363539362200F2CF0DF0F29EC2
:10141000F76A240FF66E140EF7220900F5500DBE80
:10142000F28E1200736574757020636F6D706C6559
:1014300074650000F2CF0DF0F29EF76A4E0FF66E63
:10144000140EF7220900F5500DBEF28E12007365DE
:1014500072766572322073657400F2CF0DF0F29EE1
:10146000F76A740FF66E140EF7220900F5500DBEE0
:10147000F28E120073657461706E3A00F2CF0DF057
:10148000F29EF76A960FF66E140EF7220900F550D9
:101490000DBEF28E120073657469643A0000F2CFDB
:1014A0000DF0F29EF76AB80FF66E140EF7220900DF
:1014B000F5500DBEF28E12004F544155524C3A0079
:1014C000F2CF0DF0F29EF76ADA0FF66E140EF722E5
:1014D0000900F5500DBEF28E1200636C7269703215
:1014E0000000F2CF0DF0F29EF76AFC0FF66E140EBC
:1014F000F7220900F5500DBEF28E12005365746993
:101500006E746E3A0000F2CF0DF0F29EF76A200F73
:10151000F66E150EF7220900F5500DBEF28E120080
:10152000536574696E74703A0000F2CF0DF0F29E4C
:10153000F76A440FF66E150EF7220900F5500DBE3E
:10154000F28E120049646C65696E743A0000F2CF45
:101550000DF0F29EF76A680FF66E150EF72209007D
:10156000F5500DBEF28E1200556E61757468000064
:10157000F2CF0DF0F29EF76A8A0FF66E150EF72283
:101580000900F5500DBEF28E1200556E617574683B
:101590006572697A65640000F2CF0DF0F29EF76A19
:1015A000B20FF66E150EF7220900F5500DBEF28E41
:1015B000120053657473706565643A00F2CF0DF0E4
:1015C000F29EF76AD60FF66E150EF7220900F55057
:1015D0000DBEF28E12005365747077643A00F2CF3C
:1015E0000DF0F29EF76AF80FF66E150EF72209005D
:1015F000F5500DBEF28E1200526F616D696E673F3D
:101600000000F2CF0DF0F29EF76A1C0FF66E160E78
:10161000F7220900F5500DBEF28E12005265626F7E
:101620006F74696E6700F2CF0DF0F29EF76A400F9B
:10163000F66E160EF7220900F5500DBEF28E12005E
:10164000536574545A3A0000F2CF0DF0F29EF76AD7
:10165000620FF66E160EF7220900F5500DBEF28EDF
:1016600012004175746F20545A2073657400F2CFD4
:101670000DF0F29EF76A880FF66E160EF72209003B
:10168000F5500DBEF28E1200545A205365740000BE
:10169000F2CF0DF0F29EF76AAA0FF66E160EF72241
:1016A0000900F5500DBEF28E1200696E76616C690C
:1016B0006420545A0000F2CF0DF0F29EF76AD00F6A
:1016C000F66E160EF7220900F5500DBEF28E1200CE
:1016D000486F7420737461727400F2CF0DF0F29E43
:1016E000F76AF40FF66E160EF7220900F5500DBEDC
:1016F000F28E12005761726D207374617274000073
:10170000F2CF0DF0F29EF76A1A0FF66E170EF7225F
:101710000900F5500DBEF28E1200436F6C64207309
:10172000746172740000F2CF0DF0F29EF76A400F00
:10173000F66E170EF7220900F5500DBEF28E12005C
:10174000526C796F6E00F2CF0DF0F29EF76A600F67
:10175000F66E170EF7220900F5500DBEF28E12003C
:1017600052656C6179205475726E6564204F4E002D
:10177000F2CF0DF0F29EF76A8A0FF66E170EF7227F
:101780000900F5500DBEF28E1200526C796F66663C
:101790000000F2CF0DF0F29EF76AAC0FF66E170E56
:1017A000F7220900F5500DBEF28E120052656C61F1
:1017B00079205475726E6564204F46460000F2CF62
:1017C0000DF0F29EF76AD80FF66E170EF722090099
:1017D000F5500DBEF28E1200454550524F4D20453A
:1017E000524153454400F2CF0DF0F29EF76A000FCC
:1017F000F66E180EF7220900F5500DBEF28E12009B
:1018000041434C2073657400F2CF0DF0F29EF76AED
:10181000220FF66E180EF7220900F5500DBEF28E5B
:10182000120044434C2073657400F2CF0DF0F29E19
:10183000F76A440FF66E180EF7220900F5500DBE38
:10184000F28E1200526573746F726500F2CF0DF064
:10185000F29EF76A660FF66E180EF7220900F55031
:101860000DBEF28E1200526573746F726520746F34
:101870002044656661756C742100F2CF0DF0F29E14
:10188000F76A940FF66E180EF7220900F5500DBE98
:10189000F28E1200417574686572697A65640000A1
:1018A000F2CF0DF0F29EF76ABA0FF66E180EF7221D
:1018B0000900F5500DBEF28E12000D0A2B514D5449
:1018C0004F50454E3A20302C3000F2CF0DF0F29EB2
:1018D000F76AE40FF66E180EF7220900F5500DBEF8
:1018E000F28E12000D0A2B514D544F50454E3A20A6
:1018F000312C3000F2CF0DF0F29EF76A0E0FF66E2B
:10190000190EF7220900F5500DBEF28E12000D0AD5
:101910002B514D54434F4E4E3A20302C302C30003A
:10192000F2CF0DF0F29EF76A3A0FF66E190EF7221B
:101930000900F5500DBEF28E12000D0A2B514D54C8
:10194000434F4E4E3A20312C302C3000F2CF0DF068
:10195000F29EF76A660FF66E190EF7220900F5502F
:101960000DBEF28E12000D0A2B514D5444495343C3
:101970003A00F2CF0DF0F29EF76A8C0FF66E190E58
:10198000F7220900F5500DBEF28E12002B514D5476
:10199000434C4F53453A0000F2CF0DF0F29EF76AE8
:1019A000B20FF66E190EF7220900F5500DBEF28E39
:1019B00012000D0A2B514D54434C4F53453A000031
:1019C000F2CF0DF0F29EF76ADA0FF66E190EF722DB
:1019D0000900F5500DBEF28E12000D0A2B514D5428
:1019E00050554245583A20302C302C300000F2CF70
:1019F0000DF0F29EF76A080FF66E1A0EF722090034
:101A0000F5500DBEF28E12000D0A2B514D5450555B
:101A10004245583A20312C302C300000F2CF0DF0E6
:101A2000F29EF76A360FF66E1A0EF7220900F5508D
:101A30000DBEF28E120049476F6E0000F2CF0DF01E
:101A4000F29EF76A560FF66E1A0EF7220900F5504D
:101A50000DBEF28E120049476F666600F2CF0DF0A0
:101A6000F29EF76A760FF66E1A0EF7220900F5500D
:101A70000DBEF28E12004E4F53455256494345005B
:101A80000401422B432B46AB29D04FB127D0502B1A
:101A9000D8B4512B515308E15051020805E39290FC
:101AA0008990929289921AD0515303E150511008B3
:101AB00008E2515306E15051130803E392908980E4
:101AC0000DD0515100080AE2FF0A03E150516E089F
:101AD00005E2516B506B929089904F8146AD2AD0B0
:101AE00046BF28D0502BD8B4512B515303E150514D
:101AF000100808E2515306E15051130803E3929095
:101B0000898018D0515303E15051EC0808E2515339
:101B100006E15051EF0803E3929089900BD05151A8
:101B2000030808E2FF0A03E150517D0803E2516B0C
:101B3000506B468F4251130847E2442B426B485387
:101B40000EE048074851050805E04851030802E047
:101B5000482D03D094928B9202D094928B823BA119
:101B60001ED0020117B902D0040119D004013C2D86
:101B700009D03B7F3BAF03D094928B8202D09492EA
:101B80008B920CD03C51020805E1485303E194923A
:101B90008B8204D03C5302E194928B9215D00201C7
:101BA00017B913D004013BB102D002010ED0475146
:101BB000010803E394928B8202D094928B92472B7C
:101BC0004751030801E2476B020104014351310808
:101BD00014E2436B3BB10DD03B7D3BAD05D09492FD
:101BE0008B8294948B8404D094928B9294948B9453
:101BF00004D0020117A900D0040144510408D8B050
:101C0000EBD0446B4FB302D0452B02D04F93456BC2
:101C1000020117A9D6D004013E530DE13F2BD8B4E1
:101C2000402B4051060807E2FF0A03E13F51090833
:101C300002E2406B3F6B2453D8A472D04695020158
:101C400000B106D000B304D000B702D000A50BD07D
:101C500004013E53D8B402D0020105D0010E3E6FFC
:101C6000406B3F6B020101015D531DE15C510108B6
:101C70001AE3040136BF02D0010115D046A302D0F9
:101C8000010111D0492BD8B44A2B4A5303E14951E1
:101C9000780808E24A6B496B468302010089010E0D
:101CA00004013E6F10D0040146A30DD001015D5325
:101CB00006E15C510508D8A002D0040104D004015B
:101CC0004A6B496B469346B31CD001016351040132
:101CD000405D08E305E10101625104013F5D02E35B
:101CE00046A907D046A90CD0405303E13F513B0819
:101CF00007E2406B3F6B02010089010E04013E6F59
:101D00000ED04C51405D0BE303E14B513F5D07E3C7
:101D1000406B3F6B02010089010E04013E6F47D00A
:101D2000242D45D04A6B496B3BA905D03B99010E48
:101D30003E6F406B3F6B46B51AD04D2BD8B44E2B3F
:101D4000090ED88001016655006E070E6755036EB7
:101D500000C001F0035004014E5D09E303E10150AE
:101D60004D5D05E34E6B4D6B406B3F6B46853BA76E
:101D70000AD0405303E13F511D0805E2406B3F6B21
:101D8000010E3E6F14D0010167510401405D0FE365
:101D900005E10101665104013F5D09E346A507D055
:101DA000406B3F6B02010089010E04013E6F3E5300
:101DB00004E1245302E03BA703D03BA301D04687B4
:101DC0000201040146A103D03BB301D0412B415194
:101DD0001D0802E2416B3B8B45510E0802E2456B48
:101DE0004F879E92000112EF08F02450414952386B
:101DF00036342C302C302C3131353230302A3142CF
:101E00000D0A000024504149523439302C312A3215
:101E1000410D0A0024504149523630302C25732C94
:101E200025732C25732C35302E302C35302E302C4C
:101E3000302E302C3130302E300041542B5149445B
:101E4000454143543D310D0A000041542B43545A3F
:101E5000553D310D0A00706F776572696E675F647A
:101E60006F776E210A0041542B5148545450434619
:101E7000473D22636F6E746578746964222C310D5E
:101E80000A0041542B51485454504346473D227256
:101E90006573706F6E7365686561646572222C315D
:101EA0000D0A000041542B514854545055524C3D9A
:101EB00025642C313030300D0A006D61696E2E685A
:101EC00065780D0A000041542B5148545450474541
:101ED000543D31303030300D0A0041542B514854BC
:101EE00054505245414446494C453D225546533A8B
:101EF0006D61696E322E747874222C38300D0A00B0
:101F000041542B51485454505245414446494C4544
:101F10003D225546533A6D61696E312E74787422B4
:101F20002C38300D0A00696E697420706F77657205
:101F3000696E675F646F776E210A000049443A203A
:101F400025732C20677073206E6F74206669786526
:101F5000640041542B435245473F0D0A0000415451
:101F60002B434D47463D310D0A0041542B4353430B
:101F7000533D2247534D220D0A0041542B434D47F8
:101F8000533D000041542B434D47523D25630D0AFC
:101F9000000061706E207365743A257300006964F7
:101FA000207365743A257300496E74206E20736542
:101FB000743A25730000496E742070207365743A7A
:101FC0002573000049646C6520696E742073657424
:101FD0003A2573007370656564207365743A2573E0
:101FE0000000505744206368616E67656420746F19
:101FF0003A257300687474703A2F2F6D6170732ED8
:10200000676F6F676C652E636F6D2F6D6170733FC7
:10201000713D256325322E36662C256325322E36FA
:10202000660024504D544B3130312A33320D0A00B2
:1020300024504D544B3130322A33310D0A00245094
:102040004D544B3130332A33300D0A00534F532057
:102050006E756D6265722069732073657420746F8C
:10206000202B2573000041542B434D47443D2563ED
:102070000D0A000041542B434D47463D310D0A00E7
:1020800041542B435343533D2247534D220D0A00E5
:1020900041542B434D474C0D0A0041542B514D5494
:1020A0004F50454E3D0041542B514D54434F4E4EE1
:1020B0003D00222C2200222C2200222C2200220D64
:1020C0000A0041542B514D54444953433D0041545F
:1020D0002B514D54434C4F53453D25640D0A000090
:1020E00041542B514D544F50454E3D0041542B51BE
:1020F0004D54434F4E4E3D00222C2200222C2200F4
:10210000220D0A0041542B514D54444953433D0084
:1021100041542B514D54434C4F53453D00004154C5
:102120002B514D5450554245583D000025642C30EC
:102130002C302C302C22000041540D0A0000415458
:1021400045300D0A000041542B4950523D3936307C
:10215000300D0A00415426570D0A000041540D0A63
:10216000000041540D0A00004154453026570D0A25
:10217000000041542B4950523D393630300D0A0091
:1021800041542B434D45453D320D0A0041542B43EC
:102190004D47463D310D0A00415426570D0A0000B7
:1021A00041542B434D47443D312C340D0A004154DA
:1021B0002B4350494E3F0D0A000041542B514943D7
:1021C0005347503D312C312C2200222C22222C222C
:1021D000222C310D0A0041542B51494143543D31C9
:1021E0000D0A000041542B4347534E3D310D0A0068
:1021F000534F5320687474703A2F2F6D6170732E93
:10220000676F6F676C652E636F6D2F6D6170733FC5
:10221000713D256325322E36662C256325322E36F8
:102220006600485F53544152543A256C640A0000DA
:10223000485F454E443A256C640A00007B22646581
:10224000766963654944223A20222573222C22496B
:102250004D4549223A2025732C2274696D657374AB
:10226000616D70223A2022002530346C642D2530B7
:1022700032752D2530327520253032753A253032B1
:10228000753A25303275222C226461746156616C76
:102290006964697479223A202256616C6964222C3F
:1022A00022737461747573223A20224E2564222CA5
:1022B000226C61746974756465223A2022002530AD
:1022C00031312E3766222C226C6F6E67697475640B
:1022D00065223A2022253031322E3766222C227395
:1022E00070656564223A20222530336C64222C22EA
:1022F000636F75727365223A20222530336C642235
:102300002C2269676E6974696F6E223A2022000080
:1023100049476F66660049476F6E0000222C22769F
:10232000656869636C65537461747573223A202221
:1023300000005041524B4544000052554E4E494E0C
:10234000470049444C450000222C226164646974B2
:10235000696F6E616C44617461223A2022257300BA
:10236000222C2274696D65496E74657276616C7396
:10237000223A202225732C25732C2530334C6422DD
:102380002C22616E676C65496E74657276616C2291
:102390003A20222530336C64222C226469737461E4
:1023A0006E6365496E74657276616C223A202225EF
:1023B00030336C64222C2267736D537472656E67C0
:1023C0007468223A202225303364222C22736571EE
:1023D00075656E63654E756D626572223A202200E6
:1023E0000D0A427265616B204B3D256C6420433DB4
:1023F00025630D0A000041540D0A000041540D0AE6
:10240000000041542B4350494E3F0D0A00000D0A75
:102410005055424C495348204641494C0D0A000052
:1024200041540D0A000041542B43545A553D310D7F
:102430000A0041542B43434C4B3F0D0A00004154CA
:102440002B514353510D0A00080EEA6E660EE96ED9
:10245000EF5011E0050E016EBF0E006E0400002E5D
:10246000FDD7012EF9D72E0E006E002EFED70000EC
:102470000400EF2EEFD71200948694888BEF6BF058
:10248000080E016E040E006E002EFED78B969496F9
:10249000040E006E002EFED7080106378B98D8B0C8
:1024A0009488D8A09498948682A6FED7012E01D055
:1024B00002D00001E7D7040E006E002EFED78B96E7
:1024C000949600009488040E006E002EFED7040E31
:1024D000006E002EFED7948682A6FED7016A040EF7
:1024E000006E002EFED782B801808B9694968B9852
:1024F000949800011200080E0701F66F00C0F7F76C
:102500009488040E006E002EFED7948682A6FED715
:1025100082B8D88082A8D8900136040E006E002EB2
:10252000FED794968B96F62FEBD79488040E006E08
:10253000002EFED78B98F751D8A49498000094866B
:1025400082A6FED7040E006E002EFED78B969496C0
:10255000040E006E002EFED78B989498000123EF96
:1025600013F0A00E0701F06F030EED17EE6BEE53A4
:1025700003E1ED51000822E2EE31F86FED31F76F23
:10258000EC31F66FF833F733F633F833F733F633CD
:10259000F833F733F633F833F733F633F833F733EA
:1025A000F633F833F733F633010EF817F651060B0E
:1025B000F16FF26BF36BF46BF151F0139488040E2E
:1025C000006E002EFED79486040E006E002EFED7FD
:1025D00082A6FED78B989498040E006E002EFED72C
:1025E0008B969496F0C706F800014ADFECC7F6F721
:1025F000EDC7F7F7EEC7F8F70701F96BECC706F878
:1026000000013EDFEBC706F83BDF9488040E006E46
:10261000002EFED79486040E006E002EFED782A6F2
:10262000FED78B989498040E006E002EFED78B96E2
:102630009496010E0701F025F56FE8CF06F800012A
:102640001FDF006A58D701C0EFF794980000948606
:1026500082A6FED7040E006E002EFED700D000002A
:102660009488040E006E002EFED70701EFC701F01C
:1026700000011200A00E0701FC6F030EF817F96BA2
:10268000F95303E1F85100082BE20701F931080181
:10269000046F0701F8310801036F0701F7310801E2
:1026A000026F04330333023304330333023304333E
:1026B000033302330433033302330433033302336B
:1026C000043303330233010E04170251060B0701D2
:1026D000FD6FFE6BFF6B0801006B0701FD51FC13E2
:1026E0009488040E006E002EFED79486040E006EB1
:1026F000002EFED78B989498040E006E002EFED705
:102700008B969496FCC706F80001BADEF7C702F86C
:10271000F8C703F8F9C704F80801056BF7C706F80E
:102720000001AEDEF6C706F8ABDEFAC706F8A8DE93
:1027300094980000948682A6FED7040E006E002EA8
:10274000FED700D000009488040E006E002EFED745
:102750009488040E006E002EFED79486040E006E40
:10276000002EFED78B989498040E006E002EFED794
:102770008B969496FCC706F883DE01500701FB9107
:1027800001B0FB81FBA11ED09488040E006E002EC8
:10279000FED79486040E006E002EFED782A6FED7CA
:1027A0008B989498040E006E002EFED78B9694960C
:1027B000FCC706F8000164DE01500701FB9101B07F
:1027C000FB81E0D700011200928680B623D004017D
:1027D000242D05D04683010E3E6F406B3F6B246B6A
:1027E000010EEA6E3C0EE96EF2CF4DF5F29E000E40
:1027F00000010EEC0DF00A000900F550EE6E000924
:10280000FBE105014DBFF28E04013BA701D03B97D0
:102810001DD000010401245303E1050E3D6F3B89E7
:10282000010E246FEA6E3C0EE96EF2CF4DF5F29E7A
:10283000000E00011EEC0DF00A000900F550EE6ECE
:102840000009FBE105014DBFF28E040100011200F9
:10285000938281A205D0300E0401236F04D00001C1
:10286000310E0401236F00011200040125531AE107
:10287000245318E1929A898A010EEA6E350EE96EA8
:10288000F2CF4DF5F29E000E000193EC0BF00A0022
:102890000900F550EE6E0009FBE105014DBFF28E17
:1028A0001DD00401253D18D0929A899A010EEA6E36
:1028B000350EE96EF2CF4DF5F29E000E0001B8EC38
:1028C0000BF00A000900F550EE6E0009FBE105016E
:1028D0004DBFF28E03D004012569050100011200ED
:1028E0000900F5520DE0F6CFEBF7F7CFECF7F55016
:1028F0009EA8FED7AD6EEBC7F6FFECC7F7FFF0D78B
:10290000120005016A9165C56EF564C56DF563C574
:102910006CF562C56BF566516225006E000E632191
:10292000016E000E6421026E000E6521036E6E5171
:10293000035C61E30BE16D51025C5DE307E16C5107
:10294000015C59E303E100506B5D55E26EC5EEF7A3
:102950006DC5EDF76CC5ECF76BC5EBF7000101DE5B
:1029600001C069F5010E0801666F00016DDD05010A
:1029700069510D081FE162516B5D6F6F63516C59B6
:10298000706F64516D5965516E5967516F25E96ECD
:1029900068517021EA6EEF6A010E0801666F00014E
:1029A00053DD05016A81010E0801666F00014CDDEF
:1029B000050121D062516B5D6F6F63516C59706F6F
:1029C00064516D5965516E5967516F25E96E6851B3
:1029D0007021EA6E69C5EFFF010E0801666F000104
:1029E00033DD010E05016B27D8B06C2BD8B46D2BED
:1029F000D8B46E2B90D7000E6AB1010E016E0001A3
:102A0000120053C4EAFF52C4E9FF0701F8C7EFFF01
:102A1000E92AD8B4EA2AEF6A0401522BD8B4532B1E
:102A2000000112000900F6CFECF7F7CFEDF7F5CF74
:102A3000F8F7E7DFECC7F6FFEDC7F7FF0701EB2F6D
:102A400001D002D00001EED700011200EF520FE0DA
:102A5000EACFECF7E9CFEBF7EFCFF8F7D2DFECC72F
:102A6000EAFFEBC7E9FFE92AD8B4EA2AEFD7120058
:102A700005014F6B4EC503F04DC5E9FF4EC5EAFF9A
:102A8000EF50240803E14D2BD8B44E2B4EC503F074
:102A90004DC5E9FF4EC5EAFFEF5213E04EC503F006
:102AA0004DC5E9FF4EC5EAFFEF502A080AE04DC5C3
:102AB000E9FF4EC5EAFFEF504F1B4D2BD8B44E2B0C
:102AC000E5D74FC501F000013EEF6DF0EF5210E089
:102AD000EACF4EF5E9CF4DF5EF509EA8FED7AD6E8B
:102AE0004EC5EAFF4DC5E9FFE92AD8B4EA2AEED778
:102AF00046EF6DF005014EBF10D00F0E006E4D3940
:102B000000160A0E005C03E2300E002602D04E5181
:102B1000002600509EA8FED7AD6E0F0E4D170A0E70
:102B20004D5D02E2300E02D04E9F4E514D274D5169
:102B30009EA8FED7AD6E000152EF6DF00900F55270
:102B40000DE0F6CFF6F7F7CFF7F7F550A4A8FED7CC
:102B5000736EF6C7F6FFF7C7F7FFF0D7120007014D
:102B6000F451F619800BF86FF4AF05D0F31FF41F82
:102B7000F32BD8B4F42BF6AF05D0F51FF61FF52BC9
:102B8000D8B4F62BF351F503F3CF01F0F4CF00F0F6
:102B9000F603F3500026F451F503F3500020026EC3
:102BA000F8AF05D0011E021E012AD8B4022A000186
:102BB0004DEF16F00701F16BEF6B0A0EF06FEE6B45
:102BC000ED6BEB51EC1104E1000E016E026EEAD0E8
:102BD000F151F12B036AEB25E96EEC510320EA6E0B
:102BE000EFCFF2F7F2512D080DE1010EEF6FF15129
:102BF000F12B036AEB25E96EEC510320EA6EEFCF6F
:102C0000F2F70DD0F2512B080AE1F151F12B036AD2
:102C1000EB25E96EEC510320EA6EEFCFF2F7F251AB
:102C20002F08D8B0B1D0F2513908D8A0ADD0F251A8
:102C3000300821E1036AF151EB25E96EEC510320E4
:102C4000EA6EEF5078080AE0036AF151EB25E96E6D
:102C5000EC510320EA6EEF5058080DE1100EF06FB2
:102C6000F12BF151F12B036AEB25E96EEC510320B6
:102C7000EA6EEFCFF2F7F0510A0823E1F2512F0884
:102C80001FE2F25139081CE3F46B0A0EF36FEEC732
:102C9000F6F7EDC7F5F7000162D7300E0701F25DD8
:102CA0000124ED6F000E0220EE6FF151F12B036A4B
:102CB000EB25E96EEC510320EA6EEFCFF2F7DED799
:102CC00063D0F051100860E1F251600806E2F25161
:102CD0007A0803E3F251DF0B01D0F251F26FF251A7
:102CE0002F0803E2F251390806E2F25140084CE2A3
:102CF000F251460849E3F2512F081AE2F25139081D
:102D000017E3ED35F36FEE35F46FF337F437F33740
:102D1000F437F337F437F00EF317300EF25DF32586
:102D2000016E000EF421036E01C0EDF7EE6F16D0B8
:102D3000ED35F36FEE35F46FF337F437F337F437DF
:102D4000F337F437F00EF317410EF25D0A0FF32557
:102D5000016E000EF42101C0EDF7EE6FF151F12B81
:102D6000036AEB25E96EEC510320EA6EEFCFF2F730
:102D7000F251600806E2F2517A0803E3F251DF0BE8
:102D800001D0F251F26FABD7F0510A0807E1EF2DF5
:102D900005D0ED1FEE1FED2BD8B4EE2BEDC701F0E3
:102DA000EEC702F0000112000701EB51ED03F3CF73
:102DB00001F0F4CF00F0EE03F3500026EC51ED03E8
:102DC000F3500020026E000112008BC68DF68AC6F9
:102DD0008CF68DC603F006018CC6E9FF8DC6EAFFAE
:102DE000EF5206E08C2BD8B48D2B0001F2D70601F0
:102DF0008A518C5D006E8B518D59036E00C001F0BD
:102E0000000112008E0E006E9CC501F09BC502F001
:102E1000036A01AE05D0011E021E022A01E1012A49
:102E2000015209E102C001F0026A080E005E01527F
:102E300002E1006A0ED0D89001BE04D002360136FD
:102E40000006F9D705019CAF02D0000102D0019E17
:102E500000011200ACC5B3F50501B051B31BB3AF0F
:102E600005D0D894D890ACBFD8802FD0ACC5B3F5DE
:102E7000AFC5B4F5AB51B45F06E0B3AF26D0D850C0
:102E8000010AD86E22D0B0C5B4F5AC51B45F06E0EB
:102E9000B3AF1BD0D850010AD86E17D0B1C5B4F566
:102EA000AD51B45F06E0B3AF10D0D850010AD86E70
:102EB0000CD0B2C5B4F5AE51B45F06E0B3AF05D0E7
:102EC000D850010AD86E01D0D89000011200070135
:102ED000FA51D8B484D0006EFE51D8B480D0002608
:102EE00005E3810E0026D8B07AD005D07F0E005EB3
:102EF000D8A075D074E0FBC702F8FF510801021B8F
:102F00000701FB8FFF8FFD5108010103F4CF04F887
:102F10000701FC5108010003F4CF03F0F3CF03F8DD
:102F20000103F3500427F4500323000E032207018A
:102F3000FD5108010003F3500427F4500323000E51
:102F4000026A032202220701FB5108010103F35028
:102F50000327F4500322000E02220701FB5108014F
:102F60000003F3500326F4500222000E016A0122EE
:102F70000701FD51FF03F35008010327F45003221A
:102F8000000E022201220701FC51FF03F350032629
:102F9000F4500222000E0122FB51FF03F3500226DF
:102FA000F4500122002A01BE06D00801033703367F
:102FB000023601360006000E080103AF0AD0032ACC
:102FC00002220122015005E1025003E1035001E118
:102FD000002A02BF018E02AF019E06D00701006ADF
:102FE000016A026A036A0801000112000701EE6B20
:102FF000ED6BEC6BF90EEB6F0001B1EC12F00150D0
:10300000A5080AE1010E0801666F000124EC12F028
:103010000201178709D00001010E0801666F000147
:1030200024EC12F0020117970701EE6BED6BEC6BCD
:10303000FE0EEB6F0001B1EC12F00150690809E1DE
:10304000010E0801666F000124EC12F002011789DD
:1030500000010701EE6BED6BEC6BEB6B0001B1EC6B
:1030600012F00150220853E1010E0801666F0001C1
:1030700024EC12F0220E0101146F010E0501566FAF
:103080005651100843E30701EE6BED6BEC6B56C530
:10309000EBF70001B1EC12F001C055F5010E08018B
:1030A000666F000124EC12F005015551220823E15E
:1030B000036A5651140FE96E010E0320EA6E55C5DE
:1030C000EFFF010E5625036A140FE96E010E03206F
:1030D000EA6EEF6A010E0801666F000124EC12F03F
:1030E00004012283010E0801666F000124EC12F036
:1030F00005010CD009D0036A5651140FE96E010E78
:103100000320EA6E55C5EFFF562BBAD70001070121
:10311000EE6BED6BEC6BAA0EEB6F0001B1EC12F0F5
:103120000150220857E1220E0101036F0501596B7E
:10313000010E586F59534DE1585110084AE3AA0E39
:103140005825626F000E5921636F0701EE6BED6B1E
:10315000EC6F62C5EBF70001B1EC12F001C057F55E
:10316000040000D0000005015751220826E1030E9B
:103170005825E96E010E5921EA6E57C5EFFF010E81
:103180005825626F000E5921636F030E6225E96EA8
:10319000010E6321EA6EEF6A010E0801666F0001FD
:1031A00024EC12F004012285010E0801666F000173
:1031B00024EC12F005010DD008D0030E5825E96E5D
:1031C000010E5921EA6E57C5EFFF582BD8B4592B81
:1031D000B1D700010701EE6BED6BEC6B150EEB6FD9
:1031E0000001B1EC12F001500D085EE105015B6BCE
:1031F000120E5A6F5B5347E15A51150844E3070119
:10320000EE6BED6B5BC5ECF75AC5EBF70001B1EC6B
:1032100012F001C04DF5010E0801666F000124ECAB
:1032200012F005014D510D0815E1120E5A5D626F45
:10323000000E5B59636F250E6225E96E010E632156
:10324000EA6EEF6A010E0801666F000124EC12F0CD
:10325000050119D0120E5A5D626F000E5B59636F43
:10326000250E6225E96E010E6321EA6E4DC5EFFF62
:10327000010E0801666F000124EC12F005015A2BC3
:10328000D8B45B2BB7D7010E0701EC6F250EEB6F9F
:10329000000190DC02C05FF101C05EF1010E080187
:1032A000666F000124EC12F00701EE6BED6BEC6B26
:1032B0001D0EEB6F0001B1EC12F001500D085EE144
:1032C00005015D6B1A0E5C6F5D5347E15C511D0893
:1032D00044E30701EE6BED6B5DC5ECF75CC5EBF706
:1032E0000001B1EC12F001C04DF5010E0801666F4E
:1032F000000124EC12F005014D510D0815E11A0EE4
:103300005C5D626F000E5D59636F2D0E6225E96E84
:10331000010E6321EA6EEF6A010E0801666F00017B
:1033200024EC12F0050119D01A0E5C5D626F000EDC
:103330005D59636F2D0E6225E96E010E6321EA6E01
:103340004DC5EFFF010E0801666F000124EC12F07D
:1033500005015C2BD8B45D2BB7D7010E0701EC6FCC
:103360002D0EEB6F000126DC02C063F101C062F19B
:10337000010E0801666F000124EC12F00701EE6BEC
:10338000ED6BEC6B190EEB6F0001B1EC12F001501C
:103390000D08D8A47BD005015F6B160E5E6F5F53DE
:1033A00047E15E51190844E30701EE6BED6B5FC521
:1033B000ECF75EC5EBF70001B1EC12F001C04DF582
:1033C000010E0801666F000124EC12F005014D5159
:1033D0000D0815E1160E5E5D626F000E5F59636F9A
:1033E000290E6225E96E010E6321EA6EEF6A010E75
:1033F0000801666F000124EC12F0050119D0160EC9
:103400005E5D626F000E5F59636F290E6225E96E83
:10341000010E6321EA6E4DC5EFFF010E0801666FD4
:10342000000124EC12F005015E2BD8B45F2BB7D756
:10343000010E0701EC6F290EEB6F0001DAEC15F0BD
:1034400002C065F101C064F10101655303E16451FB
:10345000090805E2655303E164511E0803E2656B48
:103460000F0E646F65C1ECF764C1EBF70701EE6BFB
:103470003C0EED6F000198DC02C067F101C066F1FF
:10348000010E0801666F000124EC12F00701EE6BDB
:10349000ED6BEC6BA70EEB6F0001B1EC12F001507D
:1034A0000D0860E10501616BA40E606F615347E197
:1034B0006051A70844E30701EE6BED6B61C5ECF7C3
:1034C00060C5EBF70001B1EC12F001C04DF5010E43
:1034D0000801666F000124EC12F005014D510D0842
:1034E00015E1A40E605D626F000E6159636F310ECD
:1034F0006225E96E010E6321EA6EEF6A010E080192
:10350000666F000124EC12F0050119D0A40E605D75
:10351000626F000E6159636F310E6225E96E010E14
:103520006321EA6E4DC5EFFF010E0801666F0001D1
:1035300024EC12F00501602BD8B4612BB7D7010E33
:103540000701EC6F310EEB6F0001DAEC15F002C0F1
:103550004CF401C04BF4010E0801666F000124EC2D
:1035600012F005D004014C6B3C0E4B6F00010701BB
:10357000EE6BED6BEC6BF10EEB6F0001B1EC12F04A
:1035800001502A0811E10501656B646B636B300E15
:10359000626F1F0E666F686BC20E676F000181EC71
:1035A00014F00201178D00010701EE6BED6BEC6B5F
:1035B000F20EEB6F0001B1EC12F001502A0811E19C
:1035C0000501656B646B636BD10E626F1F0E666FD6
:1035D000686BE00E676F000181EC14F00201178F39
:1035E00000010701EE6BED6BEC6BFB0EEB6F000166
:1035F000B1EC12F001502A0819E10501656B646B0A
:10360000636B200E626F0B0E666F686B950E676FB3
:10361000000181EC14F00401228106018B6B950EF0
:103620008A6F0001E5EC16F001C003F20701EE6BB2
:10363000ED6BEC6BFC0EEB6F0001B1EC12F0015086
:103640002A0811E10501656B646B636B500E626FB4
:103650001F0E666F686BA40E676F000181EC14F09B
:103660000201178B00010701EE6BED6BEC6BF50EA1
:10367000EB6F0001B1EC12F001502A080FE10501D7
:10368000656B646B010E636F350E626F640E666F5F
:10369000686B1F0E676F000181EC14F00701EE6B81
:1036A000ED6BEC6BF40EEB6F0001B1EC12F001C0AE
:1036B00025F4050E0801666F000124EC12F00701E5
:1036C000EE6BED6BEC6BA00EEB6F0001B1EC12F04A
:1036D00001C0FEF0050E0801666F000124EC12F037
:1036E0000701EE6BED6BEC6BA10EEB6F0001B1EC23
:1036F00012F001C0FFF0050E0801666F000124EC16
:1037000012F00701EE6BED6BEC6BA20EEB6F00019C
:10371000B1EC12F001C000F1050E0801666F000166
:1037200024EC12F00701EE6BED6BEC6BA30EEB6F6C
:103730000001B1EC12F001C001F1050E0801666F45
:10374000000124EC12F00701EE6BED6B010EEC6F43
:103750009A0EEB6F0001B1EC12F0012C97D007012B
:10376000EE6BED6B010EEC6F9B0EEB6F0001B1EC9D
:1037700012F00401296B286B276B01C026F428C4C2
:1037800029F427C428F426C427F4266B010E080167
:10379000666F000124EC12F00701EE6BED6B010E79
:1037A000EC6F9C0EEB6F0001B1EC12F001500401C4
:1037B0002613010E0801666F000124EC12F00701C8
:1037C000EE6BED6B010EEC6F9D0EEB6F0001B1EC3B
:1037D00012F004012D6B2C6B2B6B01C02AF42CC44E
:1037E0002DF42BC42CF42AC42BF42A6B010E0801EF
:1037F000666F000124EC12F00701EE6BED6B010E19
:10380000EC6F9E0EEB6F0001B1EC12F00150040161
:103810002A13010E0801666F000124EC12F0040166
:103820002D5321E12C531FE12B5101081CE303E12F
:103830002A519E0818E32D6B2C6B010E2B6F9F0EE7
:103840002A6F0701F96BF86B010EF76F9A0EF66F8E
:10385000FA6B00013AEC13F0010E0801666F0001EB
:1038600024EC12F0040129530FE128530DE12751F4
:1038700001080AE303E126519E0806E3296B286B41
:10388000010E276F9F0E266F0ED0000104012D6BD5
:103890002C6B010E2B6F9F0E2A6F296B286B010E6C
:1038A000276F9F0E266F0701EE6BED6B010EEC6F1D
:1038B0009F0EEB6F0001B1EC12F001507B080EE19E
:1038C0000401296B286B010E276F9F0E266F2D6B4D
:1038D0002C6B010E2B6F9F0E2A6F00010501656B8B
:1038E000646B636BC00E626F070E666F050E686FC8
:1038F0004E0E676F000181EC14F0015217E0050EC7
:103900000701EC6F4E0EEB6F0001DAEC15F002C010
:103910009CF501C09BF502EC17F003C031F402C026
:1039200030F401C02FF400C02EF407D00401316B35
:10393000306B2F6B800E2E6F00010501656B646B81
:10394000636BC70E626F070E666F050E686F4E0ED3
:10395000676F000181EC14F0015243E0050E07018E
:10396000EC6F4E0EEB6F0001DAEC15F002C09CF527
:1039700001C09BF502EC17F003C035F402C034F42B
:1039800001C033F400C032F40501AE6BAD6BAC6B1B
:10399000AB6B35C4B2F534C4B1F533C4B0F532C441
:1039A000AFF500012AEC17F01BE335C4FDF734C472
:1039B000FCF733C4FBF732C4FAF70801016B006B64
:1039C000800E0701FF6F7F0EFE6F000167EC17F09E
:1039D00003C035F402C034F401C033F400C032F443
:1039E00006D00401356B346B800E336F326F0001EB
:1039F0007EEF6DF09290899092928992960E0801D6
:103A0000666F000124EC12F0929089800E0E050181
:103A1000616FFA0E0801666F000124EC12F00501D7
:103A2000612FF7D79290899004013B833695140E4D
:103A30000501616FFA0E0801666F000124EC12F0B7
:103A40000501612FF7D79290899092928992960EF4
:103A50000801666F000124EC12F0929089800A0E32
:103A60000501616FDC0E0801666F000124EC12F0A5
:103A70000501612FF7D79290899004013B930001D3
:103A80001200A4AAFED771CF16F074CF01F016A2CF
:103A900002D071987188120067C803F0080166C8E7
:103AA000E9FF67C8EAFFEF5239E067C86BF866C8FC
:103AB0006AF869C86DF868C86CF86DC803F06CC81E
:103AC000E9FF6DC8EAFFEF5216E06AC8E9FF6BC86C
:103AD000EAFFEFCF6EF86DC803F06CC8E9FF6DC860
:103AE000EAFFEF506E5D07E16A2BD8B46B2B6C2BAD
:103AF000D8B46D2BE2D76DC803F06CC8E9FF03C0E2
:103B0000EAFFEF5205E166C801F067C802F009D08C
:103B1000662BD8B4672B0001BFD70801000E016ED9
:103B2000026E00011200040E0801675F0AE3080E2E
:103B3000EA6E670EE96EEF5004E001D00400EF2E4C
:103B4000FDD7000112000701FD6BFC6B08016491B9
:103B5000656B0701FD51FB5D6AE303E1FA51FC5D12
:103B600066E2A4AA4DD008016551652B036AE96E8F
:103B7000080E0324EA6EEACF69F8E9CF68F800017D
:103B800080DF69C8EAFF68C8E9FF01C0EFFF0400F1
:103B9000010E006E002EFED700D00000036A08015F
:103BA00065C8E9FF080E0324EA6EEF6A0400010EFF
:103BB000006E002EFED700D00000080E676F666B07
:103BC000F9C769F8F8C768F8000166DF02C0FFF7B7
:103BD00001C0FEF70701FE51FF1112E00400010EC3
:103BE000006E002EFED700D00000080164810400A2
:103BF000010E006E002EFED700D00000070117D086
:103C00000400020E0801666FF80E676F00018BDF7B
:103C10000801662FF9D70701FC2BD8B4FD2B04004F
:103C2000010E006E002EFED700D0000093D7050EC7
:103C30000801666F000124EC12F0000E080164B167
:103C4000010E016E00011200270E0501626F100EB9
:103C5000616F636B6591520EF66E1F0EF76E000179
:103C60009EEC15F0050162C503F06151D8B46207FE
:103C70006107031041E0A4AA3ED0000102DF01C0A9
:103C800064F5040000D00000050165B112D0645154
:103C90002B080FE16351632B036A660FE96E050E73
:103CA0000320EA6E64C5EFFF040000D000006581C8
:103CB0000CD065A10AD06351632B036A660FE96ECD
:103CC000050E0320EA6E64C5EFFF040000D000007B
:103CD00063510A080AE16E512C0807E1040000D084
:103CE00000006FC501F00AD006D063510A0803E155
:103CF000300E016E03D0B7D7300E016E00011200F6
:103D0000A4A8FED7736E1200B1C5B5F5B0C5B4F561
:103D1000AFC5B3F5AEC5B2F50501B5532FE1B45348
:103D20002DE1B35101082AE303E1B251350826E33E
:103D3000B5C5EEF7B4C5EDF7B3C5ECF7B2C5EBF713
:103D40000001B1EC12F001C0B6F5040000D0000093
:103D50000501B6510D0802E111D007D0B65100019E
:103D6000CFDF040000D000000501010EB227D8B05B
:103D7000B32BD8B4B42BD8B4B52BCFD700011200D5
:103D800005014E6B506B4F6B4F510F0877E150534D
:103D900075E17086220E756E000E766EA60E726E3E
:103DA000900E716E020E616FFA0E0801666F0001CF
:103DB00024EC12F00501612FF7D7380EF66E210EB4
:103DC000F76E00019EEC15F0080E0501616FFA0E0A
:103DD0000801666F000124EC12F00501612FF7D78E
:103DE0003E0EF66E210EF76E00019EEC15F0080EE9
:103DF0000501616FFA0E0801666F000124EC12F0F4
:103E00000501612FF7D7460EF66E210EF76E000101
:103E10009EEC15F0080E0501616FFA0E0801666F41
:103E2000000124EC12F00501612FF7D7540EF66E55
:103E3000210EF76E00019EEC15F0080E0501616F72
:103E4000FA0E0801666F000124EC12F00501612FE3
:103E5000F7D77086A00E756E010E766EA60E726E86
:103E6000900E716E080E616FFA0E0801666F000108
:103E700024EC12F00501612FF7D72BD0505303E14A
:103E80004F51640826E2506B4F6B0001B3DD080E02
:103E90000501616FFA0E0801666F000124EC12F053
:103EA0000501612FF7D7080E616FFA0E0801666FE2
:103EB000000124EC12F00501612FF7D7080E616FA5
:103EC000FA0E0801666F000124EC12F00501612F63
:103ED000F7D75C0EF66E210EF76E00019EEC15F022
:103EE0000D0E0501516F0A0E526F4F0E536F4B0EA0
:103EF000546F556B050E0701F96F510EF86F070EE1
:103F0000FB6FD00EFA6F00011EDE015005014E2737
:103F10000A0E0801666F000124EC12F005014F2B18
:103F2000D8B4502B4E53D8B42FD7506B4F6B0A0ECA
:103F30000801666F000124EC12F086DE01C037F440
:103F40000A0E0801666F000124EC12F004013751DB
:103F5000310803E03751350802E13B8504D03B9539
:103F6000000E016E62D20701EE6BED6BEC6BEB693C
:103F70000001B1EC12F001506908D8B499D1050ED6
:103F80000801666F000124EC12F0300EFE6FFF6F27
:103F90000101006F016F0701F96BF86BF76BA00E61
:103FA000F66F300EFA6F00013AEC13F0050E0801BF
:103FB000666F000124EC12F00701F96BF86BF76BE8
:103FC000A10EF66F300EFA6F00013AEC13F0050EF9
:103FD0000801666F000124EC12F00701F96BF86B21
:103FE000F76BA20EF66F300EFA6F00013AEC13F089
:103FF000050E0801666F000124EC12F00701F96B51
:10400000F86BF76BA30EF66F300EFA6F00013AEC07
:1040100013F0050E0801666F000124EC12F0050193
:104020004E6B620EF66E210EF76E00019EEC15F0DF
:104030000D0E0501566F0A0E576F4F0E586F4B0E3F
:10404000596F5A6B050E0701F96F560EF86F130E74
:10405000FB6F880EFA6F000176DD015005014E27D7
:10406000C80E0801666F000124EC12F0680EF66EAF
:10407000210EF76E9EEC15F00D0E0501566F0A0E1F
:10408000576F4F0E586F4B0E596F5A6B050E070145
:10409000F96F560EF86F130EFB6F880EFA6F000162
:1040A00052DD015005014E27C80E0801666F000160
:1040B00024EC12F0720EF66E210EF76E9EEC15F0E7
:1040C0000D0E0501566F0A0E576F4F0E586F4B0EAF
:1040D000596F5A6B050E0701F96F560EF86F130EE4
:1040E000FB6F880EFA6F00012EDD015005014E278F
:1040F000C80E0801666F000124EC12F0800EF66E07
:10410000210EF76E9EEC15F00D0E0501566F0A0E8E
:10411000576F4F0E586F4B0E596F5A6B050E0701B4
:10412000F96F560EF86F130EFB6F880EFA6F0001D1
:104130000ADD015005014E27C80E0801666F000117
:1041400024EC12F08C0EF66E210EF76E9EEC15F03C
:104150000D0E0501566F0A0E576F4F0E586F4B0E1E
:10416000596F5A6B050E0701F96F560EF86F130E53
:10417000FB6F880EFA6F0001E6DC015005014E2747
:10418000C80E0801666F000124EC12F0980EF66E5E
:10419000210EF76E9EEC15F00D0E0501566F0A0EFE
:1041A000576F4F0E586F4B0E596F5A6B050E070124
:1041B000F96F560EF86F130EFB6F880EFA6F000141
:1041C000C2DC015005014E27C80E0801666F0001D0
:1041D00024EC12F0A00EF66E210EF76E9EEC15F098
:1041E0000D0E0501566F0A0E576F4F0E586F4B0E8E
:1041F000596F5A6B050E0701F96F560EF86F130EC3
:10420000FB6F880EFA6F00019EDC015005014E27FE
:10421000C80E0801666F000124EC12F005014E5132
:1042200007082FE04F2BD8B4502B505303E14F51C8
:10423000320827E2506B4F6B0001FAEC1CF0080EBD
:104240000501616FFA0E0801666F000124EC12F09F
:104250000501612FF7D7080E616FFA0E0801666F2E
:10426000000124EC12F00501612FF7D7080E616FF1
:10427000FA0E0801666F000124EC12F00501612FAF
:10428000F7D74E510708D8A4CBD6010E04013C6FD6
:104290000701F96BF86BF76BF669690EFA6F0001AD
:1042A0003AEC13F0050E0801666F000124EC12F0E1
:1042B000AE0EF66E210EF76E9EEC15F0520E050155
:1042C0005B6F450E5C6F410E5D6F440E5E6F590E65
:1042D0005F6F606B050E0701F96F5B0EF86F130ED1
:1042E000FB6F880EFA6F00012EDC01C04EF5C80E80
:1042F0000801666F000124EC12F00701EE6BED6B14
:10430000EC6BFC0EEB6F0001B1EC12F001502A08CF
:1043100079E105014E2D01D002D0000173D0050EC8
:104320000801666F000124EC12F00401228F050ED3
:104330000801666F000124EC12F00201178B050ED4
:104340000801666F000124EC12F0BA0EF66E210E21
:10435000F76E9EEC15F00501B16BB06BAF6B500EB4
:10436000AE6F0001D1DCCA0EF66E210EF76E9EEC28
:1043700015F00D0E05015B6F0A0E5C6F4F0E5D6F41
:104380004B0E5E6F5F6B050E0701F96F5B0EF86FEA
:10439000130EFB6F880EFA6F0001A3EC1DF00150A5
:1043A00005014E27C80E0801666F000124EC12F0CB
:1043B00005014E51020827E1D60EF66E210EF76E6A
:1043C00000019EEC15F00D0E05015B6F0A0E5C6F8F
:1043D0004F0E5D6F4B0E5E6F5F6B050E0701F96F41
:1043E0005B0EF86F130EFB6F880EFA6F0001A3ECE3
:1043F0001DF0015005014E27C80E0801666F00012F
:1044000024EC12F005014E51030806E10401368345
:10441000020E3C6F03D0050104013693050E08011E
:10442000666F000124EC12F0040100011200070184
:10443000F15302E1F25342E0EDC7E9FFEEC7EAFFB4
:10444000EFCFF3F7F0C703F0EFC7E9FFF0C7EAFFDC
:10445000EF50F35D17E0EEC703F0EDC7E9FF03C0CF
:10446000EAFFEFCFF3F7F0C703F0EFC7E9FFF0C7BC
:10447000EAFFEF50F35D02E2FF0E01D0010E016E84
:104480001FD00BD0EEC703F0EDC7E9FFEEC7EAFF80
:10449000EF5203E1000E016E13D0EEC703F0ED51B1
:1044A000ED2BD8B4EE2BF0C703F0EF51EF2BD8B4BF
:1044B000F02BF151D8B4F207F107BAD7000E016E14
:1044C00000011200040000D000000801516B51519E
:1044D0001D0824E3036A51510701EB25E96EEC51F5
:1044E0000320EA6EEF503A0816E10801512B036AE7
:1044F00051510701EB25E96EEC510320EA6EEF50B4
:10450000200803E10801512B0701040000D000003E
:10451000080104D007010801512BD9D751C852F81E
:10452000036A52510701EB25E96EEC510320EA6E54
:10453000EF5221E008015151525D036AED0F016E07
:10454000070E032203C054F8036A52510701EB25FA
:10455000E96EEC510320EA6EEFCF55F8080154C81C
:10456000EAFF01C0E9FF55C8EFFF040000D00000DA
:10457000522BD6D7070108015151525D036AED0F46
:10458000E96E070E0320EA6EEF6A040000D0000017
:10459000ECC7EAFFEBC7E9FF070EE26EED0EE16E36
:1045A000E752E6CFEEFFFCE1040000D0000000017E
:1045B00012000501B26BB16BB46BB56BE40EF66E15
:1045C000210EF76E00019EEC15F00501B2511308A3
:1045D000D8A07FD004E1B1518708D8A07AD0B12B00
:1045E000D8B4B22BA4AA68D0000141EC1DF001C0E0
:1045F000B3F50400010E006E002EFED700D00000BF
:104600000501B3512B080BE1B46B010EB56F04002B
:10461000010E006E002EFED700D0000007D0B3516F
:104620000D0804E1B551020801E153D0B55344E04F
:10463000B451B42B036A4D0FE96E050E0320EA6EE8
:10464000B3C5EFFF0400010E006E002EFED700D0B0
:104650000000036AB4514D0FE96E050E0320EA6EA7
:10466000EF6A0400010E006E002EFED700D000009D
:10467000B451050821E12B0EB66F430EB76F470EFC
:10468000B86F530EB96F4E0EBA6FBB6B050E0701B4
:10469000EE6F4D0EED6F050EF06FB60EEF6FF26B15
:1046A000050EF16F0001C3DE0152D8B402D005013E
:1046B00003D0020E0501B56F04000D0EBC6F2D0E68
:1046C0000801676F000193EC1DF00501BC2FF7D7BF
:1046D0007DD7050E0701EC6F4D0EEB6F0001F2DE8A
:1046E000010E0801666F000124EC12F0010EEA6E63
:1046F000480EE96E050EE26E4D0EE16EE752E6CF12
:10470000EEFFFCE1010E0801666F000124EC12F0DF
:10471000050E0801666F000124EC12F09CEF6DF0AD
:1047200006018C6B0701BA6BB96B06018BC603F0EF
:104730008A51D8B48B078A07031045E0A4AA3AD05F
:10474000000141EC1DF001C0BBF70701BAC703F03F
:10475000B951B92BD8B4BA2BBC6F8D0EBC25E96EFC
:10476000060E0320EA6EBBC7EFFF040000D0000076
:104770008D0EB925E96E060EBA21EA6EEF6A0400C5
:1047800000D0000006018C530AE10701BB514F081D
:10479000D8B402D0060103D006018C2B0BD08C2D8F
:1047A00009D00701BB514B08D8B402D0060102D092
:1047B000060109D0010E0801666F000124EC12F019
:1047C0000701B3D706018D0E016E060E026E0001C1
:1047D00012000900F6CFECF7F7CFEDF7F550A4A8DB
:1047E000FED7736EECC7F6FFEDC7F7FF0701EB2F9F
:1047F00001D002D00001EDD7000112000701EDC782
:10480000E9FFEEC7EAFFEFCFF1F7F0C703F0EFC71C
:10481000E9FFF0C7EAFFEF50F15D15E1EEC703F0E5
:10482000EDC7E9FF03C0EAFFEF5203E1000E016E9E
:104830001FD0EEC703F0ED51ED2BD8B4EE2BEF2BCC
:10484000D8B4F02BDCD7EEC703F0EDC7E9FFEEC715
:10485000EAFFEFCFF1F7F0C703F0EFC7E9FFF0C7CA
:10486000EAFFEF50F15D02E2FF0E01D0010E016E92
:1048700000011200F6C7FAF7F5C7F9F7FAC703F017
:104880000701F9C7E9FFFAC7EAFFEF5230E0F8C7BE
:10489000FCF7F7C7FBF7FCC703F0FBC7E9FFFCC752
:1048A000EAFFEF520AE1F551F95D006EF651FA594F
:1048B000036E00C001F023D010D0F9C7E9FFFAC79A
:1048C000EAFFEFCFFDF7FCC703F0FBC7E9FFFCC72A
:1048D000EAFFEF50FD5D01E104D0FB2BD8B4FC2BC7
:1048E000DAD7F92BD8B4FA2B0001C8D70701F55154
:1048F000F95D006EF651FA59036E00C001F0000137
:10490000D7EF24F0F6C7FAF7F5C7F9F7FAC703F0BF
:104910000701F9C7E9FFFAC7EAFFEF522AE0F8C733
:10492000FCF7F7C7FBF7FCC703F0FBC7E9FFFCC7C1
:10493000EAFFEF5218E0F9C7E9FFFAC7EAFFEFCF45
:10494000FDF7FCC703F0FBC7E9FFFCC7EAFFEF5028
:10495000FD5D05E1F9C701F0FAC702F00DD0FB2BB0
:10496000D8B4FC2BE0D7F92BD8B4FA2B0001CED762
:104970000701000E016E026E0001F8EF24F007013E
:10498000ED51EE1104E0EEC703F0ED5103D018C075
:1049900003F01750F16F03C0F2F7F2C7F6F7F1C753
:1049A000F5F7F0C7F8F7EFC7F7F7000163D7015045
:1049B0000701F127000EF223F2C703F0F1C7E9FF68
:1049C000F2C7EAFFEF520AE117C0E9FF18C0EAFF99
:1049D000200EEF6E000E016E026E27D0F2C7F6F7C2
:1049E000F1C7F5F7F0C7F8F7EFC7F7F700018AD777
:1049F00002C0F4F701C0F3F7F4C703F00701F3C7EF
:104A0000E9FFF4C7EAFFEF5208E0F3C7E9FFF4C794
:104A1000EAFFEF6AF32BD8B4F42BF4C718F0F3C70E
:104A200017F0F1C701F0F2C702F000011200EEC763
:104A3000F4F7EDC7F3F7ECC7F2F7EBC7F1F7F0C700
:104A400003F00701EFC7E9FFF0C7EAFFEF522AE0E2
:104A5000F0C703F0EF51EF2BD8B4F02BE96E03C091
:104A6000EAFFEFCFF5F7F4C7F9F7F3C7F8F7F2C7A6
:104A7000F7F7F1C7F6F7F5C7FAF700013AEC13F0CC
:104A8000050E0801666F000124EC12F0010E07010B
:104A9000F127D8B0F22BD8B4F32BD8B4F42B000103
:104AA000CED70701F0C703F0EFC7E9FFF0C7EAFF71
:104AB000EF5214E1F4C7F9F7F3C7F8F7F2C7F7F7C5
:104AC000F1C7F6F70D0EFA6F00013AEC13F0050E80
:104AD0000801666F000124EC12F0070100011200CA
:104AE000EF5210E0EACFF7F7E9CFF6F7EF50A4A8BE
:104AF000FED7736EF7C7EAFFF6C7E9FFE92AD8B415
:104B0000EA2AEED712001A0E0701F26F5E0EF66E59
:104B10001F0EF76E00019EEC15F04F0E0701F36FAC
:104B20004B0EF46FF56B070EF96FF30EF86F270E4F
:104B3000FB6F100EFA6F0001A3EC1DF00701F1915D
:104B400001B0F181020EF66FFA0E0801666F0001E6
:104B500024EC12F00701F62FF7D76A0EF66E1F0E3F
:104B6000F76E00019EEC15F04F0E0701F36F4B0E30
:104B7000F46FF56B070EF96FF30EF86F270EFB6FEE
:104B8000100EFA6F0001A3EC1DF00701F19101B0C6
:104B9000F181020EF66FFA0E0801666F000124EC37
:104BA00012F00701F62FF7D77A0EF66E1F0EF76E8A
:104BB00000019EEC15F0EEC7EAFFEDC7E9FF90DFBC
:104BC0000D0EA4A8FED7736E0A0EA4A8FED7736EAE
:104BD0003E0E0701F36FF46B070EF96FF30EF86FDB
:104BE000270EFB6F100EFA6F0001A3EC1DF00701FA
:104BF000F19101B0F181320E0801666F000124ECE1
:104C000012F0F0C7EAFFEFC7E9FF6ADF0701F251D0
:104C1000A4A8FED7736E4F0EF36F4B0EF46FF56BB7
:104C2000070EF96FF30EF86F270EFB6F100EFA6F79
:104C30000001A3EC1DF00701F19101B0F181320EEA
:104C40000801666F000124EC12F012000701EB531B
:104C50001AE09290899092928992960E0801666F5E
:104C6000000124EC12F0929089800E0E0701EC6F87
:104C7000FA0E0801666F000124EC12F00701EC2F18
:104C8000F7D79290899004013B8336953C6B0001E5
:104C900012000701F851B608F86F036AF9C7FCF76C
:104CA000F98FD890F933FA33FB33033202320132F1
:104CB0000032F82FF6D7FCAF0BD0001E011E021EEB
:104CC000031E002AD8B4012AD8B4022AD8B4032A71
:104CD00000011200D8B203D0080EEA6EE96A006A39
:104CE000016A026A036A0801006B016B026B036BC5
:104CF0000701FF51FE11FD11FC1148E0200E0801D3
:104D0000046FD8900701F837F937FA37FB370801F5
:104D100000370137023703370701FF510801035DF0
:104D20000EE10701FE510801025D09E10701FD5195
:104D30000801015D04E10701FC510801005D1FE36A
:104D40000701FC510801005F0701FD51D8A0FD3D9E
:104D500001D003D00801015F0701FE51D8A0FE3D3C
:104D600001D003D00801025F0701FF51D8A0FF3D29
:104D700001D003D00801035F0701D8800801003685
:104D8000013602360336042FBCD7070100C8EFFFF7
:104D900001C8ECFF02C8ECFF03C8ECFF00011200E1
:104DA000E9500701F06FEF51F26F1EE0EEC7FDF71B
:104DB000EDC7FCF7ECC7FBF7EBC7FAF70801016B8F
:104DC000006B200E0701FF6F820EFE6F000167EC83
:104DD00017F003C0EEF702C0EDF701C0ECF700C01A
:104DE000EBF70701F22FE2D7EEC7FBF7EDC7FAF7B3
:104DF000ECC7F9F7EBC7F8F700014BDF03C0EEF79C
:104E000002C0EDF701C0ECF700C0EBF70701EEAF11
:104E10000DD0F007F08BEB1FEC1FED1FEE1FEB2BFF
:104E2000D8B4EC2BD8B4ED2BD8B4EE2B3B0EF76FE7
:104E30009A0EF66FCA0EF56FF46B0A0EF26FEF5111
:104E4000D8B4F02BD882070EEA6EEB0EE96EEEC7EF
:104E5000FBF7EDC7FAF7ECC7F9F7EBC7F8F7F7C7B9
:104E6000FFF7F6C7FEF7F5C7FDF7F4C7FCF700013B
:104E700031DF0150005213E10701EF29F25DD8A4A0
:104E800002D000010CD0F0510DE00F0BF25D01E0FB
:104E900044E2F0BF42D0F0BD05D0200E37D0200E46
:104EA0000701F017F0AB0FD0F09BEF51D8A4F0073B
:104EB0000050F06F2D0EF86F000101EC15F00701A6
:104EC000F051006EF06BEF51F25D0DE10050F06FAC
:104ED0002E0EF86F000101EC15F00701F051006E85
:104EE000200EF017000E300EF0AB10D0F09BEF51FB
:104EF000D8A4F0070050F06F2D0EF86F000101EC00
:104F000015F00701F051006EF06B300E002600C066
:104F1000F8F7000101EC15F00701D892F7C7FBF78D
:104F2000F6C7FAF7F5C7F9F7F4C7F8F7FF6BFE6BAA
:104F3000FD6B0A0EFC6F0001CDDE03C0F7F702C067
:104F4000F6F701C0F5F700C0F4F70701F22F7AD7A2
:104F500000011200EACFF3F7E9CFF2F70701ECAF57
:104F600008D0F28FF2A9F22BEB1FEC1FEB2BD8B479
:104F7000EC2BEC39F009EE6FEE27E20FEF6F320FFA
:104F8000F16FEC510F0BEF27EF27F127E90FF06FCF
:104F9000F027F027EB390F0BF027F127F037F13727
:104FA000F11FF137EB510F0BF127EE37070EED6FC5
:104FB0000A0EF007F127FDE3EF07F027FDE3EE0708
:104FC000EF27FDE3ED07EE27FDE3070EEA6EED0E9A
:104FD000E96E070EF215F29DED52F21507E1F2B9F6
:104FE000EE52F2B903D0200E006E21D0E926000E59
:104FF000EA22E950F10804E1EA50070801E1F28DE4
:10500000EF50006E08E1F2BD06D0F2B91ED0F2B743
:1050100002D0200E0BD0F2AF06D02D0E006EED5058
:10502000F29DF29F04D0F287F299300E0026EACF6B
:10503000ECF7E9CFEBF700C0F8F7000101EC15F051
:10504000ECC7EAFFEBC7E9FF0701EE50F2ADD1D79D
:1050500000016AEF39F00701F251016AF15D03E2E4
:10506000F1C700F00CD0006A080EF36FF13700367C
:10507000F251005CD8B0006E0136F32FF7D7000173
:105080001200200E0701ECA9300EED6FEBC700F007
:10509000EBAF08D0001E002A00C0EBF72D0EED6F1D
:1050A000EC8FEC810150EBC7F1F7640EF26F000159
:1050B000D2DF00C0EBF7300E01240701EE6FEBC723
:1050C000F1F70A0EF26F0001C6DF300E002407016F
:1050D000F06F300E0124EF6FEDC700F0300EEE5D83
:1050E00004E0EC83ECBFEC8512D0EDC7EEF7200EA8
:1050F000ED6F300EEF5D04E0EC81ECBFEC8307D088
:10510000D8A4EC8104E1EEC7EFF7200EEE6FECB50A
:1051100005D0ECB308D0ECB10BD00FD0EDC7F8F749
:10512000000101EC15F0EEC7F8F7000101EC15F0F5
:10513000EFC7F8F7000101EC15F0F0C7F8F7000130
:1051400001EC15F012008E0E006EFFC701F0FEC7D5
:1051500002F0036A015209E102C001F0026A080E7E
:10516000005E015202E1006A08D0D89001BE04D06E
:10517000023601360006F9D7019E12000701FE51E2
:10518000D8B4B4D008010A6F0251D8A402D00701E4
:10519000ADD00A5F07E37F0E0A27D8A002D007012F
:1051A000A5D00AD0810E0A5FD8B002D007019ED0E8
:1051B000D8A402D007019AD00AC800F0016A026A96
:1051C000036A096BFFC708F8088F00C807F801C811
:1051D00006F8190E0A6F0551065F0DE2010E075F12
:1051E0000AE2085F08E2095F06E2092B082B072B99
:1051F0000551062728D00451075F12E2010E085F0F
:105200000FE2095F0DE2092B082B04510727055116
:10521000062719E3072B17E1082B15E1092B13D0FB
:1052200003518009085F0EE2010E095F0BE2092BB2
:1052300003518009082704510727E9E3082BE7E118
:10524000092BE5D703800A2F01D00BD0D890063761
:10525000073708370937D8900336023601360B373F
:10526000BAD70BA106D0D8900132023203320B33E9
:1052700004D0002E02D0070139D00BBF1ED0D89029
:1052800006370737083709370551065F07E2010E71
:10529000075F04E2085F02E2095F1DE30451075F54
:1052A00005E2010E085F02E2095F15E30351800980
:1052B000085F03E2010E095F0EE3032A0CE1022AF4
:1052C0000AE1012A08E1002AD8A402D007010ED081
:1052D000013202320332FFC70AF803510A1B0AAF38
:1052E00002D0018E08D0019E06D00701006A016A33
:1052F000026A036A080100011200800ED8A202D0DF
:105300000801031B0801086B096BFFC707F803516D
:10531000071B0701FE51D8B4E2D00801066F006EEA
:105320000251D8B4E6D0065FD8B485D03EE303C8B6
:105330000CF80C8F04C80BF805C80AF8096BD89054
:105340000C330B330A330933062FF8D707AF03D0DA
:105350000881E3D0089106910889080EEA6E010ED3
:10536000E96EEED0089907BF0AD006A113D00C331E
:105370000B330A330933002AD8B4CAD00BD00CBF80
:105380000CD0D89009370A370B370C370006D8B441
:10539000BFD0F5D7088D6FD0089DFFC707F807AFBE
:1053A00002D00C8FAED00C9FACD002C806F802C859
:1053B00000F00701FE510801065FFFC70CF80C8FD3
:1053C00000C80BF801C80AF8096BD8900C330B33EE
:1053D0000A330933062FF8D707AF03D008839DD0CF
:1053E00008930691088B080EEA6E050EE96EA8D0A8
:1053F000089B07BF0AD006A113D00C330B330A3326
:105400000933002AD8B484D00BD00CBF0CD0D8906C
:1054100009370A370B370C370006D8B479D0F5D7DF
:10542000088F29D0089F03C807F803AF02D00C8F5C
:1054300068D00C9F66D003C80CF80C8F04C80BF81A
:1054400005C80AF807AF04D00C9F088566D00895F8
:10545000096B0691080EEA6E010EE96E71D007BF66
:105460001CD0FFC707F806A106D00C330B330A3354
:105470000933002A4DE009AF0BD00A2B09E10B2BB1
:1054800007E10C2B05E10C330B330A33002A40E013
:1054900008BD82D708BFC6D71CD0800E0C1B0CAF2E
:1054A00004D03BD003C807F80AD0FFC707F80C5355
:1054B00006E10B5304E10A5302E1006A22D00CBF5B
:1054C00008D0D89009370A370B370C37002EF7D79A
:1054D0001FD007AF02D00C8F14D00C9F12D002C87F
:1054E00000F003C80CF804C80BF805C80AF8080156
:1054F00008D0FEC700F0FFC70CF800C80BF801C8C1
:105500000AF80CC801F00BC802F00AC803F034D046
:10551000006A016A026A036A2FD0096B0A1F0B1F17
:105520000C1F091F092B05E10A2B03E10B2B01E1DD
:105530000C2B08B10FD708B353D708B588D7B2D70B
:10554000EF500A2705E30B2B03E10C2BD8B406819F
:10555000ED52EF500B2703E30C2BD8B40681ED522C
:10556000EF50EFBE01D0800A0C27D8B0068108B9F1
:10557000F9D608BB3DD773D7000112000701F26BC3
:10558000F16BF06B7F0EEF6FF66BF56BF46BF36BFB
:10559000F781F793F795F96BEB51EC1105E1006A90
:1055A000016A026A036A14D1F951F92B036AEB25E7
:1055B000E96EEC510320EA6EEFCFF8F7F853D8B458
:1055C000C9D0F7A10FD0F85120080CE0F791F8519D
:1055D0002B0803E1F793B1D005D0F8512D0802E173
:1055E000F783ABD0F7B107D0F8512E0804E1F7B537
:1055F00002D0F785A2D0F7B19DD0F8512F08D8B0CE
:1056000099D0F8513908D8A095D0300EF85FF7A599
:1056100056D0F2C7FDF7F1C7FCF7F0C7FBF7EFC7AD
:10562000FAF70801016B006B200E0701FF6F820E75
:10563000FE6F000167EC17F003C0F2F702C0F1F74C
:1056400001C0F0F700C0EFF70701FF6BF8C7FEF7E6
:10565000000179DD03C0FDF702C0FCF701C0FBF7D4
:1056600000C0FAF703C001F802C000F801C0FFF75C
:1056700000C0FEF7F2C705F8F1C704F8F0C703F859
:10568000EFC702F87BDDD892F6C701F8F5C700F83E
:10569000F4C7FFF7F3C7FEF703C005F802C004F82C
:1056A00001C003F800C002F828DE03C0F6F702C00C
:1056B000F5F701C0F4F700C0F3F73AD00701FD6B2E
:1056C000FC6B200EFB6F820EFA6FF6C701F8F5C770
:1056D00000F8F4C7FFF7F3C7FEF7000167EC17F017
:1056E00003C0FDF702C0FCF701C0FBF700C0FAF7EA
:1056F0000701FF6BF8C7FEF7000125DDD892FDC753
:1057000001F8FCC700F8FBC7FFF7FAC7FEF703C0B4
:1057100005F802C004F801C003F800C002F8EDDD8E
:1057200003C0F6F702C0F5F701C0F4F700C0F3F7C5
:1057300005D00701F7B101D00DD000010701F951E3
:10574000F92B036AEB25E96EEC510320EA6EEFCFEB
:10575000F8F734D7F7A31AD0FD6BFC6B800EFB6F04
:105760007F0EFA6FF6C701F8F5C700F8F4C7FFF728
:10577000F3C7FEF7000167EC17F003C0F6F702C0AD
:10578000F5F701C0F4F700C0F3F70701ED51EE1192
:1057900017E0F9530CE0F907EDC7E9FFEEC7EAFFA0
:1057A000F951EB25EF6E000EEC21EC6E09D0EDC740
:1057B000E9FFEEC7EAFFECC7ECFFED52EBC7EFFFE6
:1057C000F3C700F0F4C701F0F5C702F0F6C703F025
:1057D00000011200060E0401486F06018C6B906BED
:1057E0000701C66BC56B270EC86F100EC76F840EFE
:1057F000F66E1F0EF76E080EEB6F0001E9EC23F05A
:1058000006018B51A4A8FED7736E0D0EA4A8FED777
:10581000736E0A0EA4A8FED7736E0701C8C703F003
:10582000C751D8B4C807C7070310D8B4DCD0A4AA9E
:10583000D1D0000141EC1DF001C08DF6040000D074
:1058400000000601902D0DD08D512C080AE09151D9
:10585000912B036AB40FE96E070E0320EA6E8DC622
:10586000EFFF8C51020818E18D512C0815E190537F
:1058700004E1010E906F916B0FD0902D0DD0020EB0
:10588000906F036A9151B40FE96E070E0320EA6E20
:10589000EF6A040000D000008C530CE18D512B08FE
:1058A00009E1010E8C6F0701C66BC56B040000D0C7
:1058B000000006018D510D0809E18C51030806E135
:1058C000040000D0000007018ED006018C2D01D00D
:1058D00003D08C51020825E10701C6C703F0C5516A
:1058E000C52BD8B4C62BEB6F920EEB25E96E060ED6
:1058F0000320EA6E8DC6EFFF040000D00000920E78
:10590000C525E96E060EC621EA6EEF6A040000D0D6
:105910000000C65303E1C5517F0801E264D027D0DF
:1059200006018C51030824E10701C6C703F0C551E5
:10593000C52BD8B4C62BEB6F460EEB25E96E070ED0
:105940000320EA6E8DC6EFFF040000D00000460E73
:10595000C525E96E070EC621EA6EEF6A040000D085
:105960000000C65303E1C551630801E23CD00601C3
:105970008D510A0809E18C51020806E10701C66B46
:10598000C56B030E06018C6F8C2D22D02B0E0701E8
:10599000C96F430ECA6F4D0ECB6F470ECC6F520EC0
:1059A000CD6FCE6B060EEE6F920EED6F070EF06FA1
:1059B000C90EEF6FF26B050EF16F000117EC22F0CC
:1059C000015207E1020E06018C6F040000D00000B6
:1059D00000010701010E0801666F000124EC12F0BE
:1059E00006011BD70701070EEA6ECF0EE96EF2CF54
:1059F000EBF7F29E100E016EF76A000E0001F0EC5C
:105A000009F00A000900F5CFEEFF012EFBD70701D0
:105A1000EBBFF28E070EEE6FB40EED6F070EF06F58
:105A2000CF0EEF6F0001FEEC23F0015210E0070EE5
:105A30000701EE6FB40EED6F010EF06F140EEF6FF5
:105A40000001FEEC23F00152D8A476EF3CF00701F0
:105A500046512308D8A46AD1E56B230ECF6FD06BD3
:105A6000070EEE6F460EED6F070EF06FCF0EEF6F65
:105A70000001BFEC24F002C0E4F701C0E3F7070126
:105A8000E351E411D8B4A7D0E551000A000111E0B8
:105A9000010A1DE0030A29E0010A35E0070A41E096
:105AA000010A4DE0030A59E0010A65E00F0A71E0BE
:105AB0007ED00701EE6BED6BEC6B120EEB6FE4C763
:105AC000F0F7E3C7EFF7000117EC25F070D00701FE
:105AD000EE6BED6BEC6B160EEB6FE4C7F0F7E3C704
:105AE000EFF7000117EC25F062D00701EE6BED6BCC
:105AF000EC6B1A0EEB6FE4C7F0F7E3C7EFF70001AA
:105B000017EC25F054D00701EE6BED6BEC6B200E1B
:105B1000EB6FE4C7F0F7E3C7EFF7000117EC25F0F0
:105B200046D00701EE6BED6BEC6B500EEB6FE4C7EC
:105B3000F0F7E3C7EFF7000117EC25F038D00701C5
:105B4000EE6BED6BEC6B300EEB6FE4C7F0F7E3C779
:105B5000EFF7000117EC25F02AD00701EE6BED6B93
:105B6000EC6B700EEB6FE4C7F0F7E3C7EFF70001E3
:105B700017EC25F01CD00701EE6BED6BEC6B800E83
:105B8000EB6FE4C7F0F7E3C7EFF7000117EC25F080
:105B90000ED00701EE6BED6BEC6B900EEB6FE4C774
:105BA000F0F7E3C7EFF7000117EC25F000D007018D
:105BB000E52B230ECF6FD06BEE6BED6B070EF06F06
:105BC000CF0EEF6F0001BFEC24F002C0E4F701C07C
:105BD000E3F755D70701F96BF86BF76BF669FA69CC
:105BE00000013AEC13F0050E0801666F000124EC89
:105BF00012F00701F96BF86BF76BF00EF66F690E98
:105C0000FA6F00013AEC13F0050E0801666F00010F
:105C100024EC12F00701F96BF86BF76BF10EF66FDD
:105C20002A0EFA6F00013AEC13F0050E0801666FB8
:105C3000000124EC12F00701F96BF86BF76BFC0E16
:105C4000F66F2A0EFA6F00013AEC13F0050E080108
:105C5000666F000124EC12F00701F96BF86BF76B2B
:105C6000FB0EF66F2A0EFA6F00013AEC13F0050EE8
:105C70000801666F000124EC12F00701F96BF86B64
:105C8000F76BFE0EF66F690EFA6F00013AEC13F037
:105C9000020E0701EB6FFA0E0801666F000124EC9B
:105CA00012F00701EB2FF7D7070EEA6ECF0EE96E61
:105CB000F2CFEBF7F29E0F0E016EF76A000E0001B5
:105CC00005EC0AF00A000900F5CFEEFF012EFBD724
:105CD0000701EBBFF28E070EEE6FB40EED6F070EED
:105CE000F06FCF0EEF6F000183EC25F0040E07017B
:105CF000EB6FFA0E0801666F000124EC12F0070149
:105D0000EB2FF7D7010EEB6F000126EC26F0040E07
:105D10000701EB6FFA0E0801666F000124EC12F028
:105D20000701EB2FF7D7FF0073EF3CF04651240833
:105D3000D8A4B7D0E86B240ECF6FD06B070EEE6FF0
:105D4000460EED6F070EF06FCF0EEF6F0001BFEC48
:105D500024F002C0E7F701C0E6F70701E651E711BA
:105D600065E0E851000A000107E0010A1EE0030AAD
:105D70002BE0010A38E046D00701EE6BED6BEC6BCF
:105D8000D10EEB6FE7C7F0F7E6C7EFF7000117ECAE
:105D900025F0EA6AE00EE96EE7C7E2FFE6C7E1FF39
:105DA000E752E6CFEEFFFCE12DD00701EE6BED6B85
:105DB000010EEC6F040EEB6FE7C7F0F7E6C7EFF7E5
:105DC000000117EC25F01ED00701EE6BED6B010E04
:105DD000EC6F140EEB6FE7C7F0F7E6C7EFF70001C3
:105DE00017EC25F00FD00701EE6BED6B010EEC6F99
:105DF000240EEB6FE7C7F0F7E6C7EFF7000117ECEB
:105E000025F000D00701E82B240ECF6FD06BEE6B8E
:105E1000ED6B070EF06FCF0EEF6F0001BFEC24F0BB
:105E200002C0E7F701C0E6F798D70701050E0801A1
:105E3000666F000124EC12F00701F96BF86BF76B49
:105E4000F20EF66F2A0EFA6F00013AEC13F0050E0F
:105E50000801666F000124EC12F0070EEA6ECF0E07
:105E6000E96EF2CFEBF7F29E0C0E016EF76A000EB0
:105E70001AEC0AF00A000900F5CFEEFF012EFBD75D
:105E80000701EBBFF28E070EEE6FB40EED6F070E3B
:105E9000F06FCF0EEF6F000183EC25F073EF3CF055
:105EA0000701070EEA6ECF0EE96EF2CFEBF7F29E16
:105EB000080E016EF76A000E00012DEC0AF00A00D0
:105EC0000900F5CFEEFF012EFBD70701EBBFF28EE5
:105ED000070EEE6F460EED6F070EF06FCF0EEF6FF1
:105EE000F26B070EF16F000117EC22F001526FE127
:105EF000070E0701EC6F460EEB6F000162EC22F01B
:105F00000701EE6BED6BEC6B500EEB6F070EF06F55
:105F1000460EEF6F000117EC25F00701F96BF86BE7
:105F2000F76BFC0EF66F2A0EFA6F00013AEC13F0D5
:105F3000050E0801666F000124EC12F00701F96BF1
:105F4000F86BF76BF669FA6B00013AEC13F0050E8B
:105F50000801666F000124EC12F0EA6AA40EE96EF3
:105F6000070EE26E460EE16EE752E6CFEEFFFCE171
:105F7000050E0801666F000124EC12F0060E040104
:105F8000536F920E526F920EF66E1F0EF76E080E42
:105F90000701EB6F000112EC15F0070EEA6E460EDA
:105FA000E96E26EC15F0050E0801666F000124EC81
:105FB00012F0070E0701EE6FB40EED6F060EF06FD4
:105FC000920EEF6F000183EC25F073EF3CF0070EAB
:105FD000EA6ECF0EE96EF2CFEBF7F29E070E016E7E
:105FE000F76A000E3EEC0AF00A000900F5CFEEFF5A
:105FF000012EFBD70701EBBFF28E070EEE6F460EA8
:10600000ED6F070EF06FCF0EEF6FF26B060EF16FB4
:10601000000117EC22F001526FE1070E0701EC6F4F
:10602000460EEB6F000162EC22F00701EE6BED6BA8
:10603000EC6B200EEB6F070EF06F460EEF6F00015A
:1060400017EC25F00701F96BF86BF76BFB0EF66F99
:106050002A0EFA6F00013AEC13F0050E0801666F84
:10606000000124EC12F00701F96BF86BF76BF6698D
:10607000FA6B00013AEC13F0050E0801666F00019F
:1060800024EC12F0EA6A950EE96E070EE26E460EF7
:10609000E16EE752E6CFEEFFFCE1050E0801666F08
:1060A000000124EC12F0060E0401536F920E526FA1
:1060B0009E0EF66E1F0EF76E070E0701EB6F0001C6
:1060C00012EC15F0070EEA6E460EE96E26EC15F09E
:1060D000050E0801666F000124EC12F0070E07019F
:1060E000EE6FB40EED6F060EF06F920EEF6F0001C3
:1060F00083EC25F073EF3CF0070EEA6ECF0EE96EED
:10610000F2CFEBF7F29E080E016EF76A000E4FEC2D
:106110000AF00A000900F5CFEEFF012EFBD70701B8
:10612000EBBFF28E070EEE6F460EED6F070EF06FAF
:10613000CF0EEF6FF26B070EF16F000117EC22F03C
:1061400001522EE1070E0701EC6F460EEB6F0001C6
:1061500062EC22F00701EE6BED6B010EEC6F350E79
:10616000EB6F070EF06F460EEF6F000117EC25F096
:106170000701F96BF86BF76BF50EF66F2A0EFA6FE5
:1061800000013AEC13F0EA6A1F0EE96E070EE26EA8
:10619000460EE16EE752E6CFEEFFFCE173EF3CF016
:1061A000070EEA6ECF0EE96EF2CFEBF7F29E070E06
:1061B000016EF76A000E60EC0AF00A000900F5CFE4
:1061C000EEFF012EFBD70701EBBFF28E070EEE6F3D
:1061D000460EED6F070EF06FCF0EEF6FF26B060EEF
:1061E000F16F000117EC22F001520FE10701F96B8A
:1061F000F86BF76BF20EF66FFA6B00013AEC13F0E6
:106200000201179F74EF3CF00001070EEA6ECF0EFB
:10621000E96EF2CFEBF7F29E090E016EF76A000EFF
:1062200071EC0AF00A000900F5CFEEFF012EFBD752
:106230000701EBBFF28E070EEE6F460EED6F070EF5
:10624000F06FCF0EEF6FF26B080EF16F000117ECDD
:1062500022F001525CE1070E0701EC6F460EEB6F76
:10626000000162EC22F00701EE6BED6BEC6B1A0E95
:10627000EB6F070EF06F460EEF6F000117EC25F085
:10628000010EEA6E2D0EE96E070EE26E460EE16E0D
:10629000E752E6CFEEFFFCE1070E0701EC6F460E7A
:1062A000EB6F0001DAEC15F002C063F101C062F19E
:1062B000010E0801666F000124EC12F0060E0401C5
:1062C000536F920E526FA80EF66E1F0EF76E0A0EE7
:1062D0000701EB6F000112EC15F0070EEA6E460E97
:1062E000E96E26EC15F0050E0801666F000124EC3E
:1062F00012F0070E0701EE6FB40EED6F060EF06F91
:10630000920EEF6F000183EC25F073EF3CF0070E67
:10631000EA6ECF0EE96EF2CFEBF7F29E090E016E38
:10632000F76A000E83EC0AF00A000900F5CFEEFFD1
:10633000012EFBD70701EBBFF28E070EEE6F460E64
:10634000ED6F070EF06FCF0EEF6FF26B080EF16F6F
:10635000000117EC22F00152D8A479D0070E0701F2
:10636000EC6F460EEB6F000162EC22F00701EE6B62
:10637000ED6BEC6B160EEB6F070EF06F460EEF6FCA
:10638000000117EC25F0010EEA6E290EE96E070EEA
:10639000E26E460EE16EE752E6CFEEFFFCE1070E3D
:1063A0000701EC6F460EEB6F0001DAEC15F002C04E
:1063B00065F101C064F10101655303E1645109080D
:1063C00005E2655303E164511E0803E2656B0F0E9D
:1063D000646F65C1ECF764C1EBF70701EE6B3C0E2F
:1063E000ED6F0001D4EC16F002C067F101C066F158
:1063F000010E0801666F000124EC12F0060E040184
:10640000536F920E526FB60EF66E1F0EF76E0A0E97
:106410000701EB6F000112EC15F0070EEA6E460E55
:10642000E96E26EC15F0050E0801666F000124ECFC
:1064300012F0070E0701EE6FB40EED6F060EF06F4F
:10644000920EEF6F000183EC25F073EF3CF0070E26
:10645000EA6ECF0EE96EF2CFEBF7F29E090E016EF7
:10646000F76A000E95EC0AF00A000900F5CFEEFF7E
:10647000012EFBD70701EBBFF28E070EEE6F460E23
:10648000ED6F070EF06FCF0EEF6FF26B080EF16F2E
:10649000000117EC22F001525CE1070E0701EC6FDE
:1064A000460EEB6F000162EC22F00701EE6BED6B24
:1064B000EC6BA40EEB6F070EF06F460EEF6F000152
:1064C00017EC25F0010EEA6E310EE96E070EE26E52
:1064D000460EE16EE752E6CFEEFFFCE1070E070144
:1064E000EC6F460EEB6F0001DAEC15F002C04CF4D5
:1064F00001C04BF4010E0801666F000124EC12F09C
:10650000060E0401536F920E526FC40EF66E1F0EEC
:10651000F76E0D0E0701EB6F000112EC15F0070E80
:10652000EA6E460EE96E26EC15F0050E0801666F60
:10653000000124EC12F0070E0701EE6FB40EED6FB0
:10654000060EF06F920EEF6F000183EC25F073EFF3
:106550003CF0070EEA6ECF0EE96EF2CFEBF7F29E3B
:10656000070E016EF76A000EA7EC0AF00A00090098
:10657000F5CFEEFF012EFBD70701EBBFF28E070E22
:10658000EE6F460EED6F070EF06FCF0EEF6FF26BF2
:10659000060EF16F000117EC22F0015238E10701FD
:1065A000F96BF86BF76BF66BFA6900013AEC13F0D4
:1065B000050E0801666F000124EC12F0070EEA6E6A
:1065C000CF0EE96EF2CFEBF7F29E0D0E016EF76A79
:1065D000000EB8EC0AF00A000900F5CFEEFF012E1C
:1065E000FBD70701EBBFF28E070EEE6FB40EED6F17
:1065F000070EF06FCF0EEF6F000183EC25F0050E54
:106600000801666F000124EC12F073EF3CF0070EF6
:10661000EA6ECF0EE96EF2CFEBF7F29E0A0E016E34
:10662000F76A000ECCEC0AF00A000900F5CFEEFF85
:10663000012EFBD70701EBBFF28E070EEE6F460E61
:10664000ED6F070EF06FCF0EEF6FF26B090EF16F6B
:10665000000117EC22F001525CE1070E0701EC6F1C
:10666000460EEB6F000162EC22F00701EE6BED6B62
:10667000EC6B120EEB6F070EF06F460EEF6F000122
:1066800017EC25F0010EEA6E250EE96E070EE26E9C
:10669000460EE16EE752E6CFEEFFFCE1070E070182
:1066A000EC6F460EEB6F0001DAEC15F002C05FF103
:1066B00001C05EF1010E0801666F000124EC12F0CA
:1066C000060E0401536F920E526FD40EF66E1F0E1B
:1066D000F76E0A0E0701EB6F000112EC15F0070EC2
:1066E000EA6E460EE96E26EC15F0050E0801666F9F
:1066F000000124EC12F0070E0701EE6FB40EED6FEF
:10670000060EF06F920EEF6F000183EC25F073EF31
:106710003CF0070EEA6ECF0EE96EF2CFEBF7F29E79
:10672000080E016EF76A000EDEEC0AF00A0009009E
:10673000F5CFEEFF012EFBD70701EBBFF28E070E60
:10674000EE6F460EED6F070EF06FCF0EEF6FF26B30
:10675000070EF16F000117EC22F00152D8A48BD084
:1067600007014D53D8A402D0000185D05053D8A4BE
:1067700002D0000180D05153D8B402D000017BD0A8
:106780004DC7FEF0F96BF86BF76BA00EF66F4DC7B7
:10679000FAF700013AEC13F0050E0801666F0001EC
:1067A00024EC12F04EC7FFF00701F96BF86BF76BA2
:1067B000A00EF66F4EC7FAF700013AEC13F0050E83
:1067C0000801666F000124EC12F04FC700F10701C9
:1067D000F96BF86BF76BA00EF66F4FC7FAF7000175
:1067E0003AEC13F0050E0801666F000124EC12F07C
:1067F00050C701F10701F96BF86BF76BA00EF66F4C
:1068000050C7FAF700013AEC13F00101026B050ED4
:106810000801666F000124EC12F0060E0401536FAC
:10682000920E526FE20EF66E1F0EF76E0F0E0701FC
:10683000EB6F000112EC15F0EA6AFE0EE96E26EC31
:1068400015F0050E0801666F000124EC12F0070E2A
:106850000701EE6FB40EED6F060EF06F920EEF6F44
:10686000000183EC25F0050E0801666F000124ECA1
:1068700012F073EF3CF04C0E0701CF6F6F0ED06F2C
:10688000630ED16FD26B070EEE6F460EED6F070EE3
:10689000F06FCF0EEF6FF26B030EF16F000117EC8C
:1068A00022F0015257E1060E0401536F920E526F0F
:1068B000F40EF66E1F0EF76E1E0E0701EB6F000151
:1068C00012EC15F080C1F8F701EC15F0890EE96EB5
:1068D000D9C1EEF7D8C1EDF7D7C1ECF7D6C1EBF7C8
:1068E000060E0701EF6F0001D0EC26F02C0E070119
:1068F000F86F000101EC15F096C1F8F701EC15F006
:10690000890EE96EDDC1EEF7DCC1EDF7DBC1ECF716
:10691000DAC1EBF7060E0701EF6F0001D0EC26F0AD
:10692000050E0801666F000124EC12F0070E070146
:10693000EE6FB40EED6F060EF06F920EEF6F00016A
:1069400083EC25F0050E0801666F000124EC12F0BF
:1069500073EF3CF0070EEA6ECF0EE96EF2CFEBF765
:10696000F29E090E016EF76A000EEFEC0AF00A00C3
:106970000900F5CFEEFF012EFBD70701EBBFF28E2A
:10698000070EEE6F460EED6F070EF06FCF0EEF6F36
:10699000F26B080EF16F000117EC22F0015230E1AA
:1069A00004013851350815E1590E0701CF6F650E06
:1069B000D06F730ED16FD26B070EEE6FB40EED6F0A
:1069C000070EF06FCF0EEF6F000183EC25F015D0AE
:1069D00004013851310812E14E0E0701CF6F6F0EDE
:1069E000D06FD16B070EEE6FB40EED6F070EF06F28
:1069F000CF0EEF6F000183EC25F0040175EF3CF042
:106A0000520E0701CF6F730ED06F740ED16FD26B21
:106A1000070EEE6F460EED6F070EF06FCF0EEF6FA5
:106A2000F26B030EF16F000117EC22F0015242E10C
:106A3000070EEA6ECF0EE96EF2CFEBF7F29E0A0E6A
:106A4000016EF76A000E01EC0BF00A000900F5CFA9
:106A5000EEFF012EFBD70701EBBFF28E070EEE6FA4
:106A6000B40EED6F070EF06FCF0EEF6F000183ECE9
:106A700025F0040E0701EB6FFA0E0801666F0001A6
:106A800024EC12F00701EB2FF7D7010EEB6F00019A
:106A900026EC26F0040E0701EB6FFA0E0801666F74
:106AA000000124EC12F00701EB2FF7D7FF0073EF82
