:0400000023EF46F0B4
:08000800046ED8CF05F0E0CF33
:1000100006F00001E9CF0CF0EACF07F0E1CF08F0DD
:10002000E2CF09F0D9CF0AF0DACF0BF0F3CF12F01C
:10003000F4CF13F0FACF14F0F5CF15F0F6CF16F099
:10004000F7CF17F000C00EF001C00FF002C010F0A3
:1000500003C011F09DA230EF00F09EB267EF03F0F5
:100060000EC000F00FC001F010C002F011C003F08C
:100070000CC0E9FF07C0EAFF078E08C0E1FF09C016
:10008000E2FF0AC0D9FF0BC0DAFF12C0F3FF13C0B2
:10009000F4FF14C0FAFF15C0F5FF16C0F6FF17C035
:1000A000F7FF045006C0E0FF05C0D8FF1000F76A54
:1000B000BE0FF66E000EF7220900F55012006865BB
:1000C0006C6C6F20776F726C6400F76ADA0FF66EF3
:1000D000000EF7220900F55012004F536F666600BC
:1000E000F76AF00FF66E000EF7220900F5501200C5
:1000F0005041524B45440000F76A080FF66E010E5E
:10010000F7220900F5501200444556494345205056
:100110004F57455220555000F76A280FF66E010ED2
:10012000F7220900F5501200244750524D430000B9
:10013000F76A400FF66E010EF7220900F550120023
:100140002447504747410000F76A580FF66E010EEA
:10015000F7220900F550120024474E524D4300008B
:10016000F76A700FF66E010EF7220900F5501200C3
:1001700024474E4747410000F76A880FF66E010E8C
:10018000F7220900F550120056616C696400F76AA5
:100190009E0FF66E010EF7220900F550120054680A
:1001A000656674206F7220546F77696E6720616393
:1001B0007469766974792064657465637465640034
:1001C000F76AD00FF66E010EF7220900F550120003
:1001D000677073207369676E616C206C6F73740055
:1001E000F76AF00FF66E010EF7220900F5501200C3
:1001F000496E76616C696400F76A080FF66E020E4C
:10020000F7220900F55012004F536F6E0000F76A95
:100210001E0FF66E020EF7220900F5501200544828
:10022000454654204F5220544F57494E4700F76AD5
:100230003E0FF66E020EF7220900F55012005348E9
:10024000415250205455524E494E4700F76A5C0FB8
:10025000F66E020EF7220900F5501200414E474C8F
:1002600045204348414E4745203E33300000F76A61
:100270007E0FF66E020EF7220900F5501200444977
:100280005354414E4345204348414E474520333067
:10029000304D0000F76AA40FF66E020EF722090037
:1002A000F550120044495354414E434520434841C0
:1002B0004E4745203130304D0000F76ACA0FF66EC8
:1002C000020EF7220900F5501200534554205350F6
:1002D0004545442043524F5353454400F76AEC0FC1
:1002E000F66E020EF7220900F55012004441544107
:1002F00020494E54455256414C00F76A0A0FF66E9B
:10030000030EF7220900F550120049444C45000045
:10031000F76A200FF66E030EF7220900F55012005F
:1003200052554E4E494E4700F76A380FF66E030E8F
:10033000F7220900F55012000D0A2B514D5450556B
:100340004245583A20302C302C300000F76A5C0FC0
:10035000F66E030EF7220900F55012000D0A2B511C
:100360004D54434C4F53453A20302C300000F76A2F
:100370007E0FF66E030EF7220900F5501200496E4B
:1003800020526F6D696E6700F76A980FF66E030E64
:10039000F7220900F5501200486F6D65204E657414
:1003A000776F726B0000F76AB60FF66E030EF722D6
:1003B0000900F550120067707320676F742066693A
:1003C0007800F76AD20FF66E030EF7220900F55097
:1003D000120073657276657220636F6E6E6563746A
:1003E00065640000F76AF40FF66E030EF722090049
:1003F000F5501200222B393137303132353836354D
:1004000039362200F76A140FF66E040EF72209003F
:10041000F5501200736574757020636F6D706C65B4
:1004200074650000F76A340FF66E040EF7220900B7
:10043000F550120073657461706E3A00F76A4C0FE4
:10044000F66E040EF7220900F55012007365746908
:10045000643A0000F76A640FF66E040EF722090092
:10046000F550120073657469703A0000F76A7C0FEA
:10047000F66E040EF7220900F550120053657469F8
:100480006E746E3A0000F76A960FF66E040EF7224D
:100490000900F5501200536574696E74703A0000DB
:1004A000F76AB00FF66E040EF7220900F55012003D
:1004B00049646C65696E743A0000F76ACA0FF66E9B
:1004C000040EF7220900F5501200556E617574682C
:1004D0000000F76AE20FF66E040EF7220900F550ED
:1004E0001200556E617574686572697A6564000002
:1004F000F76A000FF66E050EF7220900F55012009C
:1005000053657473706565643A00F76A1A0FF66E86
:10051000050EF7220900F5501200536574707764D8
:100520003A00F76A320FF66E050EF7220900F55011
:100530001200526F616D696E673F0000F76A4C0FE1
:10054000F66E050EF7220900F55012005265626F33
:100550006F74696E672E2E2E0000F76A6A0FF66EB2
:10056000050EF7220900F5501200526C796F6E00EB
:10057000F76A800FF66E050EF7220900F55012009B
:1005800052656C6179205475726E6564204F4E001F
:10059000F76AA00FF66E050EF7220900F55012005B
:1005A000526C796F66660000F76AB80FF66E050E3A
:1005B000F7220900F550120052656C6179205475DC
:1005C000726E6564204F46460000F76ADA0FF66ED9
:1005D000050EF7220900F5501200454550524F4DC7
:1005E0002045524153454400F76AF80FF66E050E58
:1005F000F7220900F5501200526573746F7265009E
:10060000F76A100FF66E060EF7220900F550120079
:10061000526573746F726520746F204465666175EE
:100620006C742100F76A340FF66E060EF72209008B
:10063000F5501200417574686572697A656400004E
:10064000F76A500FF66E060EF7220900F5501200F9
:100650000D0A2B514D544F50454E3A20302C30004E
:10066000F76A700FF66E060EF7220900F5501200B9
:100670000D0A2B514D54434F4E4E3A20302C302C06
:100680003000F76A920FF66E060EF7220900F55059
:1006900012000D0A2B514D54444953433A20302C3B
:1006A0003000F76AB20FF66E060EF7220900F55019
:1006B000120049476F6E0000F76AC80FF66E060E0B
:1006C000F7220900F550120049476F6666000101E4
:1006D000D32BD42BD35113083AE2D7530EE0D707CC
:1006E000D751050805E0D751030802E0D72D03D004
:1006F00094928B9202D094928B82D52BD36BC8A705
:1007000015D0AEA513D0CC2D09D0D175D1A503D06D
:1007100094928B8202D094928B9207D0CC51020893
:1007200004E1D75302E194928B8211D0AEB50FD081
:10073000C8A70DD0D651010803E394928B8202D052
:1007400094928B92D62BD651030801E2D66BD451EA
:10075000310818E2D46BC8B711D0D173D1A307D038
:1007600094908B8094928B8294948B8406D09490F6
:100770008B9094928B9294948B9404D0AEA502D0DB
:1007800094908B80D5510408D8B0FAD0C8AB0FD064
:10079000C8BD0DD0DEB30BD0E12BD8B4E22BE253B1
:1007A00003E1E151770803E2E26BE16BDE83BE53C4
:1007B0001CE10001EC53D8B402D0010116D0ED5376
:1007C000D8B402D0010111D00101C8A50ED0D1BF0B
:1007D0000CD0DA2BD8B4DB2BDB5303E1DA517808E9
:1007E00003E2DB6BDA6BD18F15D0BE2D01D00FD0B9
:1007F000BE5310E10001ED53D8B402D0010107D07F
:10080000EC510508D8A002D0010104D00101DB6B36
:10081000DA6BD19FC8B51CD0D1BB1AD0D951010811
:1008200017E303E1D8512B0813E3D82BD8B4D92B05
:10083000D8513C0804E1D95302E1D18D09D0D951F6
:10084000000806E2FF0A03E1D8512B0801E2D18932
:10085000C889D56BD1A701D0D22BCE530DE1CF2BB8
:10086000D8B4D02BD051060807E2FF0A03E1CF51DC
:10087000090802E2D06BCF6BBE2D1AD0DEB118D0C2
:10088000DF2BD8B4E02B090ED8800001F655006E9E
:10089000070EF755036E00C001F003500101E05D43
:1008A00007E303E1DF51015C03E2E06BDF6BDE8114
:1008B000BE5324E10001F3510101D05D1FE305E1C6
:1008C0000001F2510101CF5D19E3D1BF17D0AEA5F0
:1008D00015D0DE91B991DEB506D0D06BCF6B96897D
:1008E000010ECE6F0AD0D05303E1CF513B0805E291
:1008F000D06BCF6B9689010ECE6F42D0BE5313E101
:10090000DD51D05D10E303E1DC51CF5D0CE3D1AFED
:100910000AD0AEA508D0DE91D06BCF6B9689010EC0
:10092000CE6FB9912DD0BE2D0ED0C8AF0CD0D05304
:1009300003E1CF511D0807E2AEA505D0D06BCF6B08
:10094000010ECE6F1DD0BE2D16D00001F751010152
:10095000D05D11E305E10001F6510101CF5D0BE32C
:10096000DEA109D0AEA507D0D06BCF6B9689010E62
:10097000CE6FB98105D0D2511D0802E2D26BD18170
:100980009E92000130EF00F0706F776572696E67BC
:100990005F646F776E210A0041542B514D545055BE
:1009A0004245583D302C302C302C302C22007B22FC
:1009B0006465766963654944223A20222573222CB6
:1009C0002274696D657374616D70223A2022254C22
:1009D000642D253032752D25303275202530327545
:1009E0003A253032753A25303275222C22646174F2
:1009F0006156616C6964697479223A2022257322F8
:100A00002C22737461747573223A20224E31222C89
:100A1000226C61746974756465223A202225322E35
:100A20003666222C226C6F6E676974756465223A93
:100A3000202225322E3666222C22737065656422B0
:100A40003A2022254C64222C22636F757273652232
:100A50003A202225302E3266222C2269676E697474
:100A6000696F6E223A20222573222C2276656869EE
:100A7000636C65537461747573223A202225732266
:100A80002C226164646974696F6E616C4461746185
:100A9000223A20222573222C2273657175656E63BC
:100AA000654E756D626572223A202231227D00000A
:100AB0007B226465766963654944223A2022257366
:100AC000222C2274696D657374616D70223A202244
:100AD000254C642D253032752D253032752025307A
:100AE00032753A253032753A25303275222C22641F
:100AF00061746156616C6964697479223A202225B7
:100B000073222C22737461747573223A20224E3141
:100B1000222C226C61746974756465223A20222546
:100B2000322E3666222C226C6F6E6769747564658E
:100B3000223A202225322E3666222C2273706565D9
:100B400064223A2022254C64222C22636F75727332
:100B500065223A20222573222C2269676E69746906
:100B60006F6E223A20222573222C227665686963F3
:100B70006C65537461747573223A20222573222C9C
:100B8000226164646974696F6E616C44617461228E
:100B90003A20222573222C2273657175656E636578
:100BA0004E756D626572223A202231227D004154D9
:100BB0002B514D5450554245583D302C302C302C43
:100BC000302C220041542B514D54434C4F53453D42
:100BD000300D0A0064756D6D792064617461206662
:100BE000726F6D206465766963653A2025732C20E9
:100BF000677073206E6F74206669786564210000E9
:100C000041542B514D54434C4F53453D300D0A0038
:100C100041542B51504F57443D300D0A0000415470
:100C20002B435245473F0D0A000041542B43475286
:100C300045473F0D0A0041542B5149435347503D0E
:100C4000312C312C2261697274656C677072732E5D
:100C5000636F6D222C22222C22222C310D0A0000DF
:100C600041542B51494143543D310D0A0000415438
:100C70002B514944454143543D310D0A0000415434
:100C80002B514D544F50454E3D302C2231332E3197
:100C900032372E3133322E313336222C313838333D
:100CA0000D0A000041542B514D54434F4E4E3D30E0
:100CB0002C22626567696E6F77313233222C2254A1
:100CC000222C227474220D0A000041542B514D54E1
:100CD000444953433D300D0A000041542B514D54BB
:100CE000434C4F53453D300D0A0041542B514D5458
:100CF00050554245583D302C302C302C302C22544D
:100D0000222C25640D0A000041542B4350494E3FCC
:100D10000D0A000041542B434D47463D310D0A005A
:100D200041542B435343533D2247534D220D0A0058
:100D300041542B434D47533D000041542B434D47F5
:100D4000523D25630D0A000041542B51504F57442A
:100D50003D310D0A000061706E207365743A257391
:100D600000006964207365743A257300697020730C
:100D700065743A257300496E74206E207365743A69
:100D800025730000496E742070207365743A2573D2
:100D9000000049646C6520696E74207365743A259F
:100DA00073007370656564207365743A2573000081
:100DB00050617373776F7264206368616E676564F6
:100DC00020746F3A25730000687474703A2F2F6D89
:100DD0006170732E676F6F676C652E636F6D2F6D1B
:100DE0006170733F713D256325322E36662C256375
:100DF00025322E36660041542B51504F57443D3119
:100E00000D0A0000534F53206E756D6265722069A4
:100E1000732073657420746F202B25730000563087
:100E20002E31000041542B51504F57443D310D0A93
:100E3000000041542B434D47443D25630D0A0000FB
:100E400041542B434D47463D310D0A0041542B433D
:100E50005343533D2247534D220D0A0041542B4327
:100E60004D474C0D0A00736D73206964783A256311
:100E70000A0041542B514D544F50454E3D302C22C9
:100E8000000041542B514D54434F4E4E3D302C22C7
:100E90000000222C2200222C2200220D0A004154A4
:100EA0002B514D54444953433D30000041542B5184
:100EB0004D54434C4F53453D300D0A0041542B5186
:100EC0004D5450554245583D302C302C302C302C50
:100ED000220041540D0A000041542B4950523D3923
:100EE00036303026570D0A0041542B51504F57448D
:100EF0003D310D0A000041540D0A000041540D0A15
:100F000000004154453026570D0A000041542B493A
:100F100050523D3936303026570D0A0041542B438C
:100F20004D45453D320D0A0041542B434D47463D4A
:100F3000310D0A00415426570D0A000041542B433D
:100F40004D47443D312C340D0A0041542B51504F34
:100F500057443D310D0A000041542B4350494E3F48
:100F60000D0A000041542B5149435347503D312C49
:100F7000312C2200222C22222C22222C310D0A007C
:100F800041542B51494143543D310D0A0000415415
:100F90002B4347534E3D310D0A00534F5320687485
:100FA00074703A2F2F6D6170732E676F6F676C6569
:100FB0002E636F6D2F6D6170733F713D2563253218
:100FC0002E36662C256325322E36660041540D0AD6
:100FD000000041542B43434C4B3F0D0A00009486C4
:100FE0009488D4EF46F0060EEA6E6E0EE96EEF506E
:100FF00011E0050E016EBF0E006E0400002EFDD73D
:10100000012EF9D72E0E006E002EFED70000040030
:10101000EF2EEFD71200928680B61AD00101BE2DB6
:1010200001D0D19FBE6B310EBA6FEA6ACC0EE96E69
:10103000000E000151EC03F00A000900F550EE6EBD
:101040000009FBE10101C8AF01D0C89F17D0000122
:101050000101BE5301E1B983010EBE6F300EBA6FBC
:10106000EA6ACC0EE96E000E00015CEC03F00A00A7
:101070000900F550EE6E0009FBE1010100011200CC
:10108000938281A205D0300E0101BB6F04D0000114
:10109000310E0101BB6F000112000101BF5314E1C9
:1010A000BA51310811E1929A898AEA6AC50EE96E4D
:1010B000000E0001ADEC02F00A000900F550EE6EE2
:1010C0000009FBE116D00101BF3D11D0929A899A27
:1010D000EA6AC50EE96E000E0001C8EC02F00A00D3
:1010E0000900F550EE6E0009FBE103D00101BF6974
:1010F00000011200080E016E040E006E002EFED7D5
:101100008B969496040E006E002EFED706010437CF
:101110008B98D8B09488D8A09498948682A6FED74D
:10112000012E01D002D00001E7D7040E006E002E80
:10113000FED78B96949600009488040E006E002EC5
:10114000FED7040E006E002EFED7948682A6FED730
:10115000016A040E006E002EFED782B801808B96C5
:1011600094968B98949800011200080E0501F86F70
:1011700000C0F9F59488040E006E002EFED7948608
:1011800082A6FED782B8D88082A8D8900136040EF5
:10119000006E002EFED794968B96F82FEBD794888E
:1011A000040E006E002EFED78B98F951D8A49498A7
:1011B0000000948682A6FED7040E006E002EFED795
:1011C0008B969496040E006E002EFED78B98949802
:1011D00000013BEF09F00501F45303E1F35100086E
:1011E00003E2A80EF66F02D0A00EF66F9488040EEC
:1011F000006E002EFED79486040E006E002EFED7E1
:1012000082A6FED78B989498040E006E002EFED70F
:101210008B969496F6C504F600016CDFF2C5F8F5DE
:10122000F3C5F9F5F4C5FAF50501FB6BF2C504F653
:10123000000160DFF1C504F65DDF9488040E006EE6
:10124000002EFED79486040E006E002EFED782A6D6
:10125000FED78B989498040E006E002EFED78B96C6
:101260009496010E0501F625F76FE8CF04F600010C
:1012700041DF006A7AD701C0F5F5949800009486A2
:1012800082A6FED7040E006E002EFED700D000000E
:101290009488040E006E002EFED70501F5C501F0FE
:1012A000000112000501FA51FC19800BFE6FFAAF24
:1012B00005D0F91FFA1FF92BD8B4FA2BFCAF05D0D3
:1012C000FB1FFC1FFB2BD8B4FC2BF951FB03F3CF06
:1012D00001F0F4CF00F0FC03F3500026FA51FB03B9
:1012E000F3500020026EFEAF05D0011E021E012A3F
:1012F000D8B4022A0001F0EF09F00501F76BF56B95
:101300000A0EF66FF46BF36BF151F21104E1000E6B
:10131000016E026EE9D0F751F72B036AF125E96EF1
:10132000F2510320EA6EEFCFF8F5F8512D080DE1E8
:10133000010EF56FF751F72B036AF125E96EF251B3
:101340000320EA6EEFCFF8F50DD0F8512B080AE133
:10135000F751F72B036AF125E96EF2510320EA6E8B
:10136000EFCFF8F5F8512F08D8B0B0D0F8513908C0
:10137000D8A0ACD0F851300821E1036AF751F1252B
:10138000E96EF2510320EA6EEF5078080AE0036A32
:10139000F751F125E96EF2510320EA6EEF5058083B
:1013A0000DE1100EF66FF72BF751F72B036AF125BD
:1013B000E96EF2510320EA6EEFCFF8F5F6510A0814
:1013C00023E1F8512F081FE2F85139081CE3FA6BAA
:1013D0000A0EF96FF4C5FCF5F3C5FBF5000162D701
:1013E000300E0501F85D0124F36F000E0220F46F4A
:1013F000F751F72B036AF125E96EF2510320EA6EEB
:10140000EFCFF8F5DED762D0F65110085FE1F85162
:10141000600806E2F8517A0803E3F851DF0B01D0C7
:10142000F851F86FF8512F0803E2F851390806E235
:10143000F85140084BE2F851460848E3F8512F08AC
:1014400019E2F851390816E3F335F96FF435FA6FFC
:10145000F937FA37F937FA37F937FA37F00EF9175B
:10146000300EF85DF925016E000EFA2101C0F3F58A
:10147000F46F16D0F335F96FF435FA6FF937FA37A0
:10148000F937FA37F937FA37F00EF917410EF85DE8
:101490000A0FF925016E000EFA2101C0F3F5F46F71
:1014A000F751F72B036AF125E96EF2510320EA6E3A
:1014B000EFCFF8F5F851600806E2F8517A0803E337
:1014C000F851DF0B01D0F851F86FACD7F6510A088C
:1014D00007E1F52D05D0F31FF41FF32BD8B4F42B3F
:1014E000F3C501F0F4C502F0000112000501F1514D
:1014F000F303F3CF01F0F4CF00F0F403F350002630
:10150000F251F303F3500020026E000112000301B8
:1015100074916FC376F36EC375F370516E25016ECF
:10152000000E6F21036E7651035C4BE303E1015023
:10153000755D47E20501F46BF36B76C3F2F575C395
:10154000F1F5000148DE01C073F3010E06016E6F74
:10155000000149DD030173510D081BE16E51755DFA
:10156000776F6F517659786F71517725E96E7251A7
:101570007821EA6EEF6A010E06016E6F000133DD1D
:1015800003017481010E06016E6F00012CDD030161
:1015900018D06E51755D776F6F517659786F7151B4
:1015A0007725E96E72517821EA6E73C3EFFF010E61
:1015B00006016E6F000117DD0301752BD8B4762B81
:1015C000ACD7000E74B1010E016E000112000501CE
:1015D000F46BF36BF26BF1690001FDDD01506908FA
:1015E00007E1010E06016E6F0001FDDC0101AE8511
:1015F0000501F46BF36BF26BF16B0001ECDD015054
:1016000022084CE1010E06016E6F0001ECDC220E97
:10161000A46F010E0301626F625110083FE30501E0
:10162000F46BF36BF26B62C3F1F50001D4DD01C022
:1016300061F3010E06016E6F0001D5DC03016151FB
:10164000220821E1036A6251A40FE96E000E032013
:10165000EA6E61C3EFFF010E6225036AA40FE96E13
:10166000000E0320EA6EEF6A010E06016E6F0001A4
:10167000BADC0101AE8D010E06016E6F0001B3DC14
:1016800003010CD009D0036A6251A40FE96E000E69
:101690000320EA6E61C3EFFF622BBED70501F46B36
:1016A000F36BF26BAA0EF16F000195DD0150220879
:1016B00052E1220E936F0301656B010E646F655357
:1016C0004AE16451100847E3AA0E64256E6F000ECC
:1016D00065216F6F0501F46BF36BF26F6EC3F1F56B
:1016E000000179DD01C063F3040000D000000301B4
:1016F0006351220824E1930E6425E96E000E6521F2
:10170000EA6E63C3EFFF010E64256E6F000E652164
:101710006F6F930E6E25E96E000E6F21EA6EEF6A11
:10172000010E06016E6F00015EDC0101AE8F010E3D
:1017300006016E6F000157DC03010DD008D0930E37
:101740006425E96E000E6521EA6E63C3EFFF642B2A
:10175000D8B4652BB4D70501F46BF36BF26B150E9F
:10176000F16F000138DD01500D085AE10301676B8C
:10177000120E666F675344E16651150841E3050197
:10178000F46BF36B67C3F2F566C3F1F5000123DD7B
:1017900001C060F3010E06016E6F000124DC03013D
:1017A00060510D0814E1120E665D6E6F000E6759F0
:1017B0006F6FB50E6E25E96E000E6F21EA6EEF6A4F
:1017C000010E06016E6F00010EDC030119D0120E2E
:1017D000665D6E6F000E67596F6FB50E6E25E96E10
:1017E000000E6F21EA6E60C3EFFF010E06016E6FFF
:1017F0000001F3EC07F00301662BD8B4672BBAD7CE
:101800000501F26BB50EF16F000177DD02C0EFF05C
:1018100001C0EEF0010E06016E6F0001F3EC07F05F
:101820000501F46BF36BF26B1D0EF16F0001D3DC5D
:1018300001500D085CE10301696B1A0E686F695372
:1018400046E168511D0843E30501F46BF36B69C37E
:10185000F2F568C3F1F50001BEDC01C060F3010ED2
:1018600006016E6F0001F3EC07F0030160510D08F3
:1018700015E11A0E685D6E6F000E69596F6FBD0E2F
:101880006E25E96E000E6F21EA6EEF6A010E060109
:101890006E6F0001F3EC07F0030119D01A0E685DBA
:1018A0006E6F000E69596F6FBD0E6E25E96E000EEA
:1018B0006F21EA6E60C3EFFF010E06016E6F00013B
:1018C000F3EC07F00301682BD8B4692BB8D70501F6
:1018D000F26BBD0EF16F000110DD02C0F3F001C02C
:1018E000F2F0010E06016E6F0001F3EC07F0050146
:1018F000F46BF36BF26B190EF16F00016CDC0150AD
:101900000D08D8A477D003016B6B160E6A6F6B536A
:1019100046E16A51190843E30501F46BF36B6BC3AD
:10192000F2F56AC3F1F5000156DC01C060F3010E67
:1019300006016E6F0001F3EC07F0030160510D0822
:1019400015E1160E6A5D6E6F000E6B596F6FB90E62
:101950006E25E96E000E6F21EA6EEF6A010E060138
:101960006E6F0001F3EC07F0030119D0160E6A5DEB
:101970006E6F000E6B596F6FB90E6E25E96E000E1B
:101980006F21EA6E60C3EFFF010E06016E6F00016A
:10199000F3EC07F003016A2BD8B46B2BB8D7050121
:1019A000F26BB90EF16F0001A8DC02C0F5F001C0C6
:1019B000F4F0F55303E1F451090805E2F55303E1AE
:1019C000F4511E0803E2F56B0F0EF46FF5C0F2F54B
:1019D000F4C0F1F50501F46B3C0EF36F000186DDF8
:1019E00002C0F7F001C0F6F0010E06016E6F0001B3
:1019F000F3EC07F00501F46BF36BF26BA70EF16FDC
:101A00000001EBEC08F001500D085EE103016D6B85
:101A1000A40E6C6F6D5347E16C51A70844E30501B8
:101A2000F46BF36B6DC3F2F56CC3F1F50001EBECF5
:101A300008F001C060F3010E06016E6F0001F3ECC7
:101A400007F0030160510D0815E1A40E6C5D6E6F87
:101A5000000E6D596F6FC10E6E25E96E000E6F217D
:101A6000EA6EEF6A010E06016E6F0001F3EC07F0FB
:101A7000030119D0A40E6C5D6E6F000E6D596F6F6F
:101A8000C10E6E25E96E000E6F21EA6E60C3EFFF96
:101A9000010E06016E6F0001F3EC07F003016C2BE1
:101AA000D8B46D2BB7D70501F26BC10EF16F0001F1
:101AB00024DC02C0DDF101C0DCF1010E06016E6F15
:101AC0000001F3EC07F004D00101DD6B3C0EDC6F8C
:101AD0000501F46BF36BF26BF10EF16F0001EBECAF
:101AE00008F001502A080DE103016F6B300E6E6F94
:101AF0001F0E706F726B700E716F000108DD0101B7
:101B0000AE890501F46BF36BF26BFB0EF16F000114
:101B1000EBEC08F001502A080DE103016F6B200E79
:101B20006E6F0B0E706F726B430E716F0001EFDC06
:101B30000101AE8B0501F46BF36BF26BFC0EF16FE0
:101B40000001EBEC08F001502A080DE103016F6B76
:101B5000500E6E6F1F0E706F726B520E716F000120
:101B6000D6DC0101AE870501F46BF36BF26BF20E6C
:101B7000F16F0001EBEC08F001C0BFF1050E0601AA
:101B80006E6F0001F3EC07F00501F46BF36BF26B81
:101B9000A00EF16F0001EBEC08F001C08EF0050E15
:101BA00006016E6F0001F3EC07F00501F46BF36BB7
:101BB000F26BA10EF16F0001EBEC08F001C08FF0A9
:101BC000050E06016E6F0001F3EC07F00501F46BE2
:101BD000F36BF26BA20EF16F0001EBEC08F001C0A9
:101BE00090F0050E06016E6F0001F3EC07F00501A1
:101BF000F46BF36BF26BA30EF16F0001EBEC08F0EA
:101C000001C091F0050E06016E6F0001F3EC07F0C4
:101C10000501F46BF36B010EF26FF16B0001EBEC5D
:101C200008F0012C21D00501F46BF36B010EF26F6B
:101C3000F16F0001EBEC08F001C06EF303016E6B75
:101C40000501F46BF36B010EF26F020EF16F0001F0
:101C5000EBEC08F003016E5101100101C46FC56B7C
:101C6000C66BC76B08D000010101C76BC66B010EC4
:101C7000C56F030EC46F000131EF47F00900F55244
:101C80000DE0F6CFFCF5F7CFFDF5F550A4A8FED793
:101C9000736EFCC5F6FFFDC5F7FFF0D71200A4AACE
:101CA000FED771CF19F074CF01F019A202D071984C
:101CB000718812006FC603F006016EC6E9FF6FC699
:101CC000EAFFEF5239E06FC673F66EC672F671C660
:101CD00075F670C674F675C603F074C6E9FF75C66E
:101CE000EAFFEF5216E072C6E9FF73C6EAFFEFCFD4
:101CF00076F675C603F074C6E9FF75C6EAFFEF50C5
:101D0000765D07E1722BD8B4732B742BD8B4752B86
:101D1000E2D775C603F074C6E9FF75C6EAFFEF5255
:101D200005E16EC601F06FC602F009D06E2BD8B483
:101D30006F2B0001BFD70601000E016E026E00017D
:101D4000F4EF0EF0040E06016F5F0AE3060EEA6E72
:101D50006F0EE96EEF5004E001D00400EF2EFDD7C6
:101D6000000112000601036B026B6A916B6B035159
:101D7000015D67E303E10051025D63E2A4AA4CD078
:101D80006B516B2B036A060FE96E060E0320EA6E99
:101D9000EACF6FF6E9CF6EF6000181DF6FC6EAFF8A
:101DA0006EC6E9FF01C0EFFF0400010E006E002EB9
:101DB000FED700D00000036A06016B51060FE96EE2
:101DC000060E0320EA6EEF6A0400010E006E002E7C
:101DD000FED700D00000060E6F6F6E6FFFC571F664
:101DE000FEC570F6000166D702C005F601C004F614
:101DF00006010451051110E00400010E006E002ED2
:101E0000FED700D000006A810400010E006E002E93
:101E1000FED700D0000015D00400020E6C6FF80E43
:101E20006F6F00018FDF06016C2FF9D7022BD8B43A
:101E3000032B0400010E006E002EFED700D0000020
:101E400096D7050E6E6F0001F3EC07F0000E060149
:101E50006AB1010E016E00011200270E0301746FBA
:101E6000100E736F756B77911E0EF66E0C0EF76E7B
:101E7000000104DF030174C303F07351D8B4740785
:101E80007307031041E0A4AA3ED0000108DF01C09F
:101E900076F3040000D00000030177B112D0765130
:101EA0002B080FE17551752B036A780FE96E030E4D
:101EB0000320EA6E76C3EFFF040000D000007781B4
:101EC0000CD077A10AD07551752B036A780FE96E93
:101ED000030E0320EA6E76C3EFFF040000D000007B
:101EE00075510A080AE180512C0807E1040000D06E
:101EF000000081C301F00AD006D075510A0803E141
:101F0000300E016E03D0B7D7300E016E0001120003
:101F10000501FB5303E1FA51000803E2A80EFE6F2E
:101F200002D0A00EFE6F9488040E006E002EFED725
:101F30009486040E006E002EFED78B989498040EA3
:101F4000006E002EFED78B969496FEC504F6000117
:101F50007AEC08F0F9C500F6FAC501F6FBC502F601
:101F60000601036BF9C504F600017AEC08F0F8C528
:101F700004F67AEC08F0FCC504F67AEC08F09498C4
:101F80000000948682A6FED7040E006E002EFED7B7
:101F900000D000009488040E006E002EFED79488B6
:101FA000040E006E002EFED79486040E006E002EE6
:101FB000FED78B989498040E006E002EFED78B9659
:101FC0009496FEC504F67AEC08F001500501FD91E7
:101FD00001B0FD81FDA11FD09488040E006E002E7B
:101FE000FED79486040E006E002EFED782A6FED782
:101FF0008B989498040E006E002EFED78B969496C4
:10200000FEC504F600017AEC08F001500501FD91CF
:1020100001B0FD81DFD700011200A4A8FED7736EC6
:10202000120078C37AF377C379F303017A5323E17B
:102030007951FE0820E30501F46BF36B7AC3F2F5E6
:1020400079C3F1F50001EBEC08F001C07BF304006B
:1020500000D0000003017B510D0802E10CD007D035
:102060007B510001DADF040000D000000301792B6E
:10207000D8B47A2BDBD7000112000301606B626BCE
:10208000616B61510F084FE162534DE17086220E82
:10209000756E000E766EA60E726E900E716E020E4A
:1020A000736FFA0E06016E6F0001F3EC07F0030187
:1020B000732FF7D7D20EF66E0E0EF76E0001DEDD2F
:1020C000080E0301736FFA0E06016E6F0001F3EC48
:1020D00007F00301732FF7D7D80EF66E0E0EF76ECA
:1020E0000001CCDD080E0301736FFA0E06016E6F5E
:1020F0000001F3EC07F00301732FF7D77086A00EF1
:10210000756E010E766EA60E726E900E716E080ED2
:10211000736FFA0E06016E6F0001F3EC07F0030116
:10212000732FF7D72FD0625303E1615164082AE27D
:10213000626B616BE80EF66E0E0EF76E00019EDDAF
:10214000080E0301736FFA0E06016E6F0001F3ECC7
:1021500007F00301732FF7D7080E736FFA0E06010D
:102160006E6F0001F3EC07F00301732FF7D7080E31
:10217000736FFA0E06016E6F0001F3EC07F00301B6
:10218000732FF7D7F60EF66E0E0EF76E000176DDA2
:102190000D0E0301636F0A0E646F4F0E656F4B0ED9
:1021A000666F676B030E0501FF6F630EFE6F130E04
:1021B0000601016F880E006F0001D4DD015003019C
:1021C0006027020E736FFA0E06016E6F0001F3ECCA
:1021D00007F00301732FF7D7612BD8B4622B60533C
:1021E000D8B44FD7626B616BC80E06016E6F0001E9
:1021F000F3EC07F032DE01C0C9F1320E06016E6F5A
:102200000001F3EC07F00101C951310803E0C951A5
:10221000350802E1C88D04D0C951300801E1C89DDC
:102220000501F46BF36BF26BF1690001EBEC08F064
:1022300001506908D8B49AD1050E06016E6F0001ED
:10224000F3EC07F0300E8E6F8F6F906F916F05017A
:10225000FB6BFA6BF96BA00EF86F300EFC6F000190
:1022600057DE050E06016E6F0001F3EC07F0050165
:10227000FB6BFA6BF96BA10EF86F300EFC6F00016F
:1022800047DE050E06016E6F0001F3EC07F0050155
:10229000FB6BFA6BF96BA20EF86F300EFC6F00014E
:1022A00037DE050E06016E6F0001F3EC07F0050145
:1022B000FB6BFA6BF96BA30EF86F300EFC6F00012D
:1022C00027DE050E06016E6F0001F3EC07F0030137
:1022D000606BFC0EF66E0E0EF76E0001CFDC0D0E7D
:1022E0000301686F0A0E696F4F0E6A6F4B0E6B6FBA
:1022F0006C6B030E0501FF6F680EFE6F130E060177
:10230000016F880E006F00012DDD01500301602771
:10231000C80E06016E6F0001F3EC07F0020EF66EB8
:102320000F0EF76EABDC0D0E0301686F0A0E696FBE
:102330004F0E6A6F4B0E6B6F6C6B030E0501FF6FD8
:10234000680EFE6F130E0601016F880E006F00010C
:1023500009DD015003016027C80E06016E6F000100
:10236000F3EC07F00C0EF66E0F0EF76E87DC0D0E19
:102370000301686F0A0E696F4F0E6A6F4B0E6B6F29
:102380006C6B030E0501FF6F680EFE6F130E0601E6
:10239000016F880E006F0001E5DC0150030160272A
:1023A000C80E06016E6F0001F3EC07F01C0EF66E0E
:1023B0000F0EF76E63DC0D0E0301686F0A0E696F76
:1023C0004F0E6A6F4B0E6B6F6C6B030E0501FF6F48
:1023D000680EFE6F130E0601016F880E006F00017C
:1023E000C1DC015003016027C80E06016E6F0001B9
:1023F000F3EC07F0280EF66E0F0EF76E3FDC0D0EB5
:102400000301686F0A0E696F4F0E6A6F4B0E6B6F98
:102410006C6B030E0501FF6F680EFE6F130E060155
:10242000016F880E006F00019DDC015003016027E1
:10243000C80E06016E6F0001F3EC07F0340EF66E65
:102440000F0EF76E1BDC0D0E0301686F0A0E696F2D
:102450004F0E6A6F4B0E6B6F6C6B030E0501FF6FB7
:10246000680EFE6F130E0601016F880E006F0001EB
:1024700079DC015003016027C80E06016E6F000170
:10248000F3EC07F03C0EF66E0F0EF76E3EEC0EF01E
:102490000D0E0301686F0A0E696F4F0E6A6F4B0EC7
:1024A0006B6F6C6B030E0501FF6F680EFE6F130EF2
:1024B0000601016F880E006F000154DC015003011A
:1024C0006027C80E06016E6F0001F3EC07F00301F0
:1024D0006051070833E0612BD8B4622B625303E1EB
:1024E000615132082BE2626B616B4A0EF66E0F0E81
:1024F000F76E00013EEC0EF0080E0301736FFA0E4A
:1025000006016E6F0001F3EC07F00301732FF7D79C
:10251000080E736FFA0E06016E6F0001F3EC07F000
:102520000301732FF7D7080E736FFA0E06016E6F53
:102530000001F3EC07F00301732FF7D76051070890
:10254000D8A4C6D6010E0101CC6F0501FB6BFA6B56
:10255000F96BF869690EFC6F0001DADC0101AE85E8
:10256000050E06016E6F0001F3EC07F0580EF66ED3
:102570000F0EF76E3EEC0EF0520E03016D6F450E1E
:102580006E6F410E6F6F440E706F590E716F726BEC
:10259000030E0501FF6F6D0EFE6F130E0601016F36
:1025A000880E006F0001B2EC0EF001C060F3C80E9F
:1025B00006016E6F0001F3EC07F00501F46BF36B9D
:1025C000F26BFC0EF16F0001EBEC08F001502A08F1
:1025D00079E10301602D01D002D0000173D0050E16
:1025E00006016E6F0001F3EC07F00101B98B050ED7
:1025F00006016E6F0001F3EC07F00101AE87050ED6
:1026000006016E6F0001F3EC07F0640EF66E0F0E1C
:10261000F76E3EEC0EF00301786B500E776F000101
:1026200000DD740EF66E0F0EF76E3EEC0EF00D0E22
:1026300003016D6F0A0E6E6F4F0E6F6F4B0E706F52
:10264000716B030E0501FF6F6D0EFE6F130E060119
:10265000016F880E006F0001B2EC0EF00150030113
:102660006027C80E06016E6F0001F3EC07F003014E
:102670006051020828E1800EF66E0F0EF76E000121
:102680003EEC0EF00D0E03016D6F0A0E6E6F4F0ED5
:102690006F6F4B0E706F716B030E0501FF6F6D0E48
:1026A000FE6F130E0601016F880E006F0001B2EC81
:1026B0000EF0015003016027C80E06016E6F000185
:1026C000F3EC07F003016051030806E10101B98F43
:1026D000020ECC6F03D003010101B99F050E060164
:1026E0006E6F0001F3EC07F012000501F75302E1F1
:1026F000F85342E0F3C5E9FFF4C5EAFFEFCFF9F57F
:10270000F6C503F0F5C5E9FFF6C5EAFFEF50F95D40
:1027100017E0F4C503F0F3C5E9FFF4C5EAFFEFCF16
:10272000F9F5F6C503F0F5C5E9FFF6C5EAFFEF5088
:10273000F95D02E2FF0E01D0010E016E1FD00BD039
:10274000F4C503F0F3C5E9FFF4C5EAFFEF5203E176
:10275000000E016E13D0F4C503F0F351F32BD8B47F
:10276000F42BF6C503F0F551F52BD8B4F62BF75141
:10277000D8B4F807F707BAD7000E016E00011200AF
:10278000040000D000000601116B11511D0824E364
:10279000036A11510501F125E96EF2510320EA6E39
:1027A000EF503A0816E10601112B036A1151050199
:1027B000F125E96EF2510320EA6EEF50200803E1A3
:1027C0000601112B0501040000D00000060104D011
:1027D00005010601112BD9D711C612F6036A125151
:1027E0000501F125E96EF2510320EA6EEF5220E077
:1027F00006011151125D036AF30F016E050E0322EB
:1028000003C014F6036A12510501F125E96EF25175
:102810000320EA6EEFCF15F6060114C6EAFF01C0E9
:10282000E9FF15C6EFFF040000D00000122BD6D739
:1028300006011151125D036AF30FE96E050E0320C4
:10284000EA6EEF6A040000D00000F2C5EAFFF1C5AD
:10285000E9FF050EE26EF30EE16EE752E6CFEEFF02
:10286000FCE1040000D00000000112000301C56B70
:10287000C46BC76BC86B8E0EF66E0F0EF76E000141
:102880003EEC0EF00301C5511308D8A07FD004E13F
:10289000C4518708D8A07AD0C42BD8B4C52BA4AA19
:1028A00068D000014FEC0EF001C0C6F30400010E29
:1028B000006E002EFED700D000000301C6512B0889
:1028C0000BE1C76B010EC86F0400010E006E002EF5
:1028D000FED700D0000007D0C6510D0804E1C85152
:1028E000020801E153D0C85344E0C751C72B036A23
:1028F000600FE96E030E0320EA6EC6C3EFFF04000B
:10290000010E006E002EFED700D00000036AC751F2
:10291000600FE96E030E0320EA6EEF6A0400010EF9
:10292000006E002EFED700D00000C751050821E13F
:102930002B0EC96F430ECA6F470ECB6F530ECC6F71
:102940004E0ECD6FCE6B030E0501F46F600EF36F6C
:10295000030EF66FC90EF56FF86B050EF76F0001E9
:10296000C4DE0152D8B402D0030103D0020E030129
:10297000C86F04000D0ECF6F2D0E06016F6F0001A2
:10298000A2EC0EF00301CF2FF7D77DD7030E050180
:10299000F26F600EF16F0001F3DE010E06016E6F43
:1029A0000001F3EC07F0EA6AD80EE96E030EE26E5E
:1029B000600EE16EE752E6CFEEFFFCE1010E06018C
:1029C0006E6F0001F3EC07F0050E06016E6F00015B
:1029D000F3EC07F04FEF47F004019F6B0501CD6B5F
:1029E000CC6B04019EC403F09D51D8B49E079D0793
:1029F000031045E0A4AA3AD000014FEC0EF001C04C
:102A0000CEF50501CDC503F0CC51CC2BD8B4CD2BE0
:102A1000CF6FA00ECF25E96E040E0320EA6ECEC55F
:102A2000EFFF040000D00000A00ECC25E96E040EDC
:102A3000CD21EA6EEF6A040000D0000004019F532C
:102A40000AE10501CE514F08D8B402D0040103D0E9
:102A500004019F2B0BD09F2D09D00501CE514B08AF
:102A6000D8B402D0040102D0040109D0010E06013D
:102A70006E6F0001F3EC07F00501B3D70401A00E5F
:102A8000016E040E026E00011200E4C1EAFFE3C110
:102A9000E9FF0501FEC5EFFFE92AD8B4EA2AEF6A8B
:102AA0000101E32BD8B4E42B00011200EF520FE038
:102AB000EACFF2F5E9CFF1F5EFCFFEF5E6DFF2C5AB
:102AC000EAFFF1C5E9FFE92AD8B4EA2AEFD71200F4
:102AD0009EC4A0F49DC49FF4A0C403F004019FC44D
:102AE000E9FFA0C4EAFFEF5206E09F2BD8B4A02B69
:102AF0000001F2D704019D519F5D006E9E51A059C7
:102B0000036E00C001F0000112008E0E006EC3C300
:102B100001F0C2C302F0036A015209E102C001F0F0
:102B2000026A080E005E015202E1006A08D0D890E5
:102B300001BE04D0023601360006F9D7019E12000C
:102B40000301B151D8B4A5D0BD6FB551D8B4A1D04F
:102B5000BD5F05E37F0EBD27D8B09BD006D0810EA8
:102B6000BD5FD8A096D0D8B494D0BDC300F0016AA0
:102B7000026A036ABC6BB2C3BBF3BB8FB3C3BAF3C5
:102B8000B4C3B9F3190EBD6FB851B95F0DE2010EB0
:102B9000BA5F0AE2BB5F08E2BC5F06E2BC2BBB2B5C
:102BA000BA2BB851B92728D0B751BA5F12E2010E3B
:102BB000BB5F0FE2BC5F0DE2BC2BBB2BB751BA274A
:102BC000B851B92719E3BA2B17E1BB2B15E1BC2B80
:102BD00013D0B6518009BB5F0EE2010EBC5F0BE261
:102BE000BC2BB6518009BB27B751BA27E9E3BB2BF1
:102BF000E7E1BC2BE5D70380BD2F01D00BD0D890E7
:102C0000B937BA37BB37BC37D890033602360136EE
:102C1000BE37BAD7BEA106D0D890013202320332F5
:102C2000BE3302D0000635E0BEBF1ED0D890B93703
:102C3000BA37BB37BC37B851B95F07E2010EBA5F8C
:102C400004E2BB5F02E2BC5F1AE3B751BA5F05E280
:102C5000010EBB5F02E2BC5F12E3B6518009BB5FAD
:102C600003E2010EBC5F0BE3032A09E1022A07E13C
:102C7000012A05E1002A0DE0013202320332B2C31B
:102C8000BDF3B651BD1BBDAF02D0018E06D0019E73
:102C900004D0006A016A026A036A000112008E0E03
:102CA000006E0301BE51005EBFC302F0C0C301F05D
:102CB000028E005209E0D890025202E1015204E073
:102CC00002320132002EF7D7BFAF05D0011E021E1F
:102CD000012AD8B4022A00011200800ED8A202D024
:102CE0000301C71B0301CC6BCD6BC3C3CBF3C7512F
:102CF000CB1BC251D8B4DFD0CA6F006EC651D8B456
:102D0000E3D0CA5FD8B483D03EE3C7C3D0F3D08F3B
:102D1000C8C3CFF3C9C3CEF3CD6BD890D033CF3374
:102D2000CE33CD33CA2FF8D7CBAF03D0CC81E0D090
:102D3000CC91CA91CC89030EEA6EC50EE96EEBD038
:102D4000CC99CBBF0AD0CAA113D0D033CF33CE3366
:102D5000CD33002AD8B4C7D00BD0D0BF0CD0D89078
:102D6000CD37CE37CF37D0370006D8B4BCD0F5D763
:102D7000CC8D6DD0CC9DC3C3CBF3C3AF02D0D08F6D
:102D8000ABD0D09FA9D0C6C3CAF3C6C300F0C2510E
:102D9000CA5FC3C3D0F3D08FC4C3CFF3C5C3CEF3D0
:102DA000CD6BD890D033CF33CE33CD33CA2FF8D7B5
:102DB000CBAF03D0CC839CD0CC93CA91CC8B030EE9
:102DC000EA6EC90EE96EA7D0CC9BCBBF0AD0CAA1D0
:102DD00013D0D033CF33CE33CD33002AD8B483D001
:102DE0000BD0D0BF0CD0D890CD37CE37CF37D0371F
:102DF0000006D8B478D0F5D7CC8F29D0CC9FC7C3E4
:102E0000CBF3C7AF02D0D08F67D0D09F65D0C7C3F8
:102E1000D0F3D08FC8C3CFF3C9C3CEF3CBAF04D0A8
:102E2000D09FCC8565D0CC95CD6BCA91030EEA6E50
:102E3000C50EE96E70D0CBBF1CD0C3C3CBF3CAA103
:102E400006D0D033CF33CE33CD33002A4CE0CDAFD4
:102E50000BD0CE2B09E1CF2B07E1D02B05E1D033EE
:102E6000CF33CE33002A3FE0CCBD84D7CCBFC6D70A
:102E70001CD0800ED01BD0AF04D03AD0C7C3CBF348
:102E80000AD0C3C3CBF3D05306E1CF5304E1CE53F2
:102E900002E1006A21D0D0BF08D0D890CD37CE371C
:102EA000CF37D037002EF7D71ED0CBAF02D0D08F80
:102EB00013D0D09F11D0C6C300F0C7C3D0F3C8C38E
:102EC000CFF3C9C3CEF308D0C2C300F0C3C3D0F35D
:102ED000C4C3CFF3C5C3CEF3D0C301F0CFC302F058
:102EE000CEC303F034D0006A016A026A036A2FD0AD
:102EF000CD6BCE1FCF1FD01FCD1FCD2B05E1CE2B0D
:102F000003E1CF2B01E1D02BCCB112D7CCB354D7F6
:102F1000CCB589D7B3D7EF50CE2705E3CF2B03E14C
:102F2000D02BD8B4CA81ED52EF50CF2703E3D02B7A
:102F3000D8B4CA81ED52EF50EFBE01D0800AD0273D
:102F4000D8B0CA81CCB9FCD6CCBB3ED774D700016F
:102F500012000501FE51D8B486D0006E0601025160
:102F6000D8A402D005017FD0002607E3810E0026F9
:102F7000D8A002D0050177D00AD07F0E005ED8B06D
:102F800002D0050170D0D8A402D005016CD0FFC5D5
:102F900006F60351061B0501FF8F0601038F015141
:102FA0000503F4CF08F600510403F4CF03F0F3CF88
:102FB00007F60503F3500827F4500723000E0322F9
:102FC00001510403F3500827F4500723000E026A4E
:102FD000032202220501FF5106010503F3500727D2
:102FE000F4500322000E02220501FF5106010403E2
:102FF000F3500326F4500222000E016A012201510F
:103000000303F3500727F4500322000E022201228B
:1030100000510303F3500326F4500222000E012254
:103020000501FF5106010303F3500226F45001226B
:10303000002A01BE05D007370336023601360006E6
:10304000000E07AF0AD0032A02220122015005E137
:10305000025003E1035001E1002A06BF018E06AFD2
:10306000019E06D00501006A016A026A036A060130
:10307000000112000301929192930400050E006E6C
:10308000002EFED700D00000CC0EF66E0F0EF76EAD
:1030900000013EEC0EF00D0E03019D6F0A0E9E6FB7
:1030A0004F0E9F6F4B0EA06FA16B030E0501FF6FBC
:1030B0009D0EFE6F270E0601016F100E006F0001BE
:1030C000B2EC0EF00301929101B09281C80E06019C
:1030D0006E6F0001F3EC07F0D20EF66E0F0EF76E76
:1030E0003EEC0EF00B0E04019E6FB80E9D6F0001BA
:1030F00073DC02C0A4F301C0A3F3030E0101E46F6B
:10310000600EE36F02C0EAFF01C0E9FF0001CEDC00
:103110000A0E06016E6F0001F3EC07F00301A26BCB
:10312000030E04019E6F600E9D6F0001D1DC015003
:103130000301A25DD8B087D0036AA251600FE96E87
:10314000030E0320EA6EEF502B082FE1010EA2259B
:10315000036A600FE96E030E0320EA6EEF50430826
:1031600024E1020EA225036A600FE96E030E03201C
:10317000EA6EEF50430819E1030EA225036A600FBF
:10318000E96E030E0320EA6EEF504C080EE1040EC8
:10319000A225036A600FE96E030E0320EA6EEF506A
:1031A0004B0803E19283040EA22792A34AD0036A3C
:1031B000A251600FE96E030E0320EA6EEF502B0858
:1031C00040E1A22B036AA251600FE96E030E0320B7
:1031D000EA6EEF502F0835E2036AA251600FE96EE4
:1031E000030E0320EA6EEF5039082BE3A251A22B05
:1031F000036A600FE96E030E0320EA6EEFCF93F3CC
:10320000036AA251600FE96E030E0320EA6EEF50CD
:103210002F0816E2036AA251600FE96E030E032025
:10322000EA6EEF5039080CE3A251A22B036A600F3B
:10323000E96E030E0320EA6EEFCF94F3956B01D095
:10324000946BA22B6DD7030E0501F26F930EF16FF5
:1032500000017DEC09F002C098F301C097F303016F
:10326000985305E19751300802E30101968B98C30A
:10327000C3F397C3C2F3000148DC00C0A3F301C04D
:10328000A4F302C0A5F303C0A6F303C0B4F302C0C5
:10329000B3F301C0B2F300C0B1F30301B86BB76B75
:1032A000B66B810EB56F00014BDC03C09CF302C00E
:1032B0009BF301C09AF300C099F39CC3C1F39BC375
:1032C000C0F39AC3BFF399C3BEF3E9DC01C097F121
:1032D0000301C36B97C1C2F3000117DCD8829CC302
:1032E000C5F39BC3C4F39AC3C3F399C3C2F303C02A
:1032F000C9F302C0C8F301C0C7F300C0C6F3EDDCD8
:103300000601016B006B700E0501FF6F840EFE6FEE
:1033100003C005F602C004F601C003F600C002F6C1
:10332000000117DE03C0C1F302C0C0F301C0BFF348
:1033300000C0BEF3B4DC01C098F1320E06016E6F1E
:103340000001F3EC07F01200030160910501F46B3A
:10335000F36BF26BF10EF16F0001EBEC08F0015032
:103360002A08D8A431D1720EF66E0E0EF76E3EEC1E
:103370000EF00301636B626B63532EE162511D0813
:103380002BE3700E6225E96E000E6321EA6EEFCF2B
:1033900061F361513A0809E1220EA4A8FED7736EC9
:1033A0002C0EA4A8FED7736E11D0615306E06151B4
:1033B00000010DEC10F00BD003010D0EA4A8FED7F8
:1033C000736E0A0EA4A8FED7736E06D00001030127
:1033D000622BD8B4632BD0D7030EEA6E640EE96E6D
:1033E000100E016EF76A000E000120EC03F00A00D7
:1033F0000900F5CFEEFF012EFBD7030E0501FF6F8D
:10340000640EFE6F3A0E0601016F980E006F000108
:10341000B2EC0EF00301609101B06081C80E0601AC
:103420006E6F0001F3EC07F0030160A197D0820EEC
:10343000F66E0E0EF76E00013EEC0EF00301786B97
:10344000200E776F000111EC10F0920EF66E0E0E4A
:10345000F76E3EEC0EF00301786B700E776F000193
:1034600011EC10F0960EF66E0E0EF76E3EEC0EF0AE
:103470000301786B800E776F000111EC10F09A0E4B
:10348000F66E0E0EF76E3EEC0EF0030EEA6E640E54
:10349000E96E120E016EF76A000E30EC03F00A00BE
:1034A0000900F5CFEEFF012EFBD7030E0501FF6FDC
:1034B000640EFE6F3A0E0601016F980E006F000158
:1034C000B2EC0EF00301609101B06081020E766FE4
:1034D000FA0E06016E6F0001F3EC07F00301762F80
:1034E000F7D760B12CD09E0EF66E0E0EF76E00016F
:1034F0003EEC0EF0030EEA6E640EE96E100E016EE5
:10350000F76A000E41EC03F00A000900F5CFEEFF68
:10351000012EFBD7030E0501FF6F640EFE6F3A0EFE
:103520000601016F980E006F0001B2EC0EF003016E
:10353000609101B060810101C89103D003010101D4
:10354000C881020E0301766FFA0E06016E6F00014C
:10355000F3EC07F00301762FF7D735D00101C891BE
:10356000AC0EF66E0E0EF76E00013EEC0EF0030E82
:10357000EA6E640EE96E110E016EF76A000EA6EC9B
:1035800001F00A000900F5CFEEFF012EFBD7030E74
:103590000501FF6F640EFE6F3A0E0601016F980E73
:1035A000006F0001B2EC0EF00301609101B0608188
:1035B000020E766FFA0E06016E6F0001F3EC07F053
:1035C0000301762FF7D700011200EACF81F3E9CF8C
:1035D00080F303017AAF08D0808F80A9802B791FF8
:1035E0007A1F792BD8B47A2B7A39F0097C6F7C2733
:1035F000E20F7D6F320F7F6F7A510F0B7D277D2792
:103600007F27E90F7E6F7E277E2779390F0B7E2774
:103610007F277E377F377F1F7F3779510F0B7F27BB
:103620007C37070E7B6F0A0E7E077F27FDE37D0741
:103630007E27FDE37C077D27FDE37B077C27FDE3F9
:10364000030EEA6E7B0EE96E070E8015809DE9067B
:10365000801507E180B9E92A80B903D0200E006EF9
:103660001CD0E9267F0EE95CD8B4808DEF50006E47
:1036700008E180BD06D080B914D080B702D0200EFA
:103680000BD080AF06D02D0E006EED50809D809F38
:1036900004D080878099300E00260050A4A8FED761
:1036A000736EEE5080ADDED700011200EF5210E0D5
:1036B000EACFFDF5E9CFFCF5EF50A4A8FED7736E75
:1036C000FDC5EAFFFCC5E9FFE92AD8B4EA2AEED72E
:1036D0001200BC0EF66E0E0EF76E3EEC0EF00301FD
:1036E000786B900E776F000111EC10F0220EA4A8F9
:1036F000FED7736E2C0EA4A8FED7736E63C39EF420
:1037000062C39DF468EC15F0010E01240301786B8F
:10371000776F100EE96E78C37AF377C379F30001FF
:1037200054DF0D0EA4A8FED7736E0A0EA4A8FED710
:10373000736E0D0E0301646F0A0E656F3E0E666FA9
:10374000676B030E0501FF6F640EFE6F3A0E0601F4
:10375000016F980E006F0001B2EC0EF0050E06012D
:103760006E6F0001F3EC07F063C3EAFF62C3E9FF89
:103770009DDF0D0EA4A8FED7736E0A0EA4A8FED777
:10378000736E030EEA6E640EE96E130E016EF76A35
:10379000000E94EC01F00A000900F5CFEEFF012EB7
:1037A000FBD7030E0501FF6F640EFE6F3A0E060194
:1037B000016F980E006F0001B2EC0EF0015202E0B2
:1037C0000101C883020E0301776FFA0E06016E6FC6
:1037D0000001F3EC07F00301772FF7D70001120087
:1037E0009EAAFED7ABCF19F0AECF01F019A202D03E
:1037F000AB98AB88E8EF47F061C363F360C362F353
:1038000061C365F360C364F30301666B65C303F0D2
:1038100064C3E9FF65C3EAFFEF5259E065C303F0F3
:1038200064C3E9FF65C3EAFFEF502C084CE164C3B1
:10383000E9FF65C3EAFFEF6A6651010A000107E08C
:10384000060A12E00F0A1DE0010A28E034D0010E3A
:10385000EA6E340EE96E63C3E2FF62C3E1FFE75232
:10386000E6CFEEFFFCE127D0010EEA6E430EE96ED3
:1038700063C3E2FF62C3E1FFE752E6CFEEFFFCE184
:103880001AD0010EEA6E5C0EE96E63C3E2FF62C3FA
:10389000E1FFE752E6CFEEFFFCE10DD0010EEA6E4C
:1038A0004D0EE96E63C3E2FF62C3E1FFE752E6CF6C
:1038B000EEFFFCE100D0010E03016425626F000EF3
:1038C0006521636F662B642BD8B4652B9FD7050EDB
:1038D00006016E6F0001F3EC07F0120061C363F3A1
:1038E00060C362F361C365F360C364F30301666B95
:1038F00065C303F064C3E9FF65C3EAFFEF52D8B4C0
:1039000077D065C303F064C3E9FF65C3EAFFEF50F6
:103910002C08D8A469D064C3E9FF65C3EAFFEF6A45
:103920006651020A00010BE0010A15E0070A20E0D7
:10393000010A2BE0030A36E00F0A41E04DD0EA6AA3
:10394000FC0EE96E63C3E2FF62C3E1FFE752E6CF1C
:10395000EEFFFCE141D0010EEA6E100EE96E63C38A
:10396000E2FF62C3E1FFE752E6CFEEFFFCE134D0B5
:10397000010EEA6E120EE96E63C3E2FF62C3E1FF5D
:10398000E752E6CFEEFFFCE127D0010EEA6E260EED
:10399000E96E63C3E2FF62C3E1FFE752E6CFEEFFE9
:1039A000FCE11AD0010EEA6E280EE96E63C3E2FF55
:1039B00062C3E1FFE752E6CFEEFFFCE10DD0010E5E
:1039C000EA6E2A0EE96E63C3E2FF62C3E1FFE752CB
:1039D000E6CFEEFFFCE100D0010E03016425626F2B
:1039E000000E6521636F662B642BD8B4652B80D7DE
:1039F000050E06016E6F0001F3EC07F01200016680
:103A000003D0026602D007D0022A00C0EEFF012ECA
:103A1000FCD7022EFAD7E6EF48F0010196BB04D09E
:103A200000013AEC18F0010196BB02D0986B976B3D
:103A3000300E4D5D0A0DF3504E25D00F9D6F300EA8
:103A40004F5D0A0DF3505025D00F9C6F300E515D25
:103A50000A0DF350D00F0301606F070E616FD8B0ED
:103A6000612B0101525103016027000E6123300ECA
:103A7000605D01019E6F000E0301615901019F6F9E
:103A8000300E345D0A0DF3503525D00F996F300E8E
:103A9000365D0A0DF3503725D00F9A6F300E385D22
:103AA0000A0DF3503925D00F9B6F98519A279A51E0
:103AB0003B0804E23C0E9A5F010E99279751992723
:103AC0009951170802E2180E995F000183EF49F03F
:103AD0008E0E006EAFC301F0AEC302F0036A01AEFA
:103AE00005D0011E021E022A01E1012A015209E14C
:103AF00002C001F0026A080E005E015202E1006A93
:103B00000ED0D89001BE04D0023601360006F9D797
:103B10000301AFAF02D0000102D0019E00011200EC
:103B200083C301F682C300F681C3FFF580C3FEF5AF
:103B30002E0E0601056FFA0E046F0E0E036F790E3E
:103B4000026F0001A9EC17F01200BFC3C6F3030116
:103B5000C351C61BC6AF05D0D894D890BFBFD8807C
:103B60002FD0BFC3C6F3C2C3C7F3BE51C75F06E0C1
:103B7000C6AF26D0D850010AD86E22D0C3C3C7F32F
:103B8000BF51C75F06E0C6AF1BD0D850010AD86E40
:103B900017D0C4C3C7F3C051C75F06E0C6AF10D08B
:103BA000D850010AD86E0CD0C5C3C7F3C151C75F46
:103BB00006E0C6AF05D0D850010AD86E01D0D89023
:103BC000000112000301A36BA26BA16B7F0EA06F1B
:103BD0007E0EAA6F800EAB6FAC6BAD6B7A0EAE6FC4
:103BE0002A0EAF6FAA0EB06FA30EB16F750EB26F33
:103BF000B60EB36F090EB46FB40EB56F6F0EB66F1D
:103C00004F0EB76FB60EB86FAA0EB96F690EBA6FC6
:103C10008B0EBB6FF60EBC6FE80EBD6F97C3C1F382
:103C200096C3C0F395C3BFF394C3BEF3C56BC46B17
:103C3000C36BC26B000189DF04E303019551800A65
:103C4000956F97C301F696C300F695C3FFF594C32D
:103C5000FEF5830E0601056FF90E046F220E036F49
:103C60007E0E026F0001A9EC17F003C0C1F302C081
:103C7000C0F301C0BFF300C0BEF34FEC16F001C0AB
:103C8000A4F397C301F696C300F695C3FFF594C35A
:103C9000FEF5830E0601056FF90E046F220E036F09
:103CA0007E0E026F0001A9EC17F000C0BEF301C048
:103CB000BFF302C0C0F303C0C1F30301C36BA4C3CD
:103CC000C2F3000185EC15F0D882C1C3C5F3C0C3AF
:103CD000C4F3BFC3C3F3BEC3C2F303C0C9F302C07E
:103CE000C8F301C0C7F300C0C6F36DEC16F003C003
:103CF000A9F302C0A8F301C0A7F300C0A6F3030E06
:103D00000301A417A45303E0A45102081EE1A9C3B0
:103D100001F6A8C300F6A7C3FFF5A6C3FEF5DB0EA8
:103D20000601056F0F0E046F490E036F7F0E026FC1
:103D30000001A9EC17F003C09FF302C09EF301C07D
:103D40009DF300C09CF36FD00301A42D37D0D8821F
:103D5000C56BC46BC36B7F0EC26FA9C3C9F3A8C385
:103D6000C8F3A7C3C7F3A6C3C6F300016DEC16F0F2
:103D700000C0BEF301C0BFF302C0C0F303C0C1F373
:103D800003C001F602C000F601C0FFF500C0FEF559
:103D9000DB0E0601056F0F0E046F490E036F7F0ED9
:103DA000026F0001A9EC17F003C09FF302C09EF35D
:103DB00001C09DF300C09CF336D00301D882A9C393
:103DC000C5F3A8C3C4F3A7C3C3F3A6C3C2F3C96BA7
:103DD000C86BC76B7F0EC66F00016DEC16F000C09C
:103DE000BEF301C0BFF302C0C0F303C0C1F303C000
:103DF00001F602C000F601C0FFF500C0FEF5DB0EC3
:103E00000601056F0F0E046F490E036F7F0E026FE0
:103E10000001A9EC17F003C09FF302C09EF301C09C
:103E20009DF300C09CF303019B6B9A6B996B7F0E13
:103E3000986F9FC301F69EC300F69DC3FFF59CC318
:103E4000FEF59FC305F69EC304F69DC303F69CC30F
:103E500002F60001A9EC17F003C09FF302C09EF325
:103E600001C09DF300C09CF30301A56BA55104089C
:103E700066E3A3C301F6A2C300F6A1C3FFF5A0C386
:103E8000FEF59FC305F69EC304F69DC303F69CC3CF
:103E900002F60001A9EC17F003C0A3F302C0A2F3DD
:103EA00001C0A1F300C0A0F30301A551040DF3501C
:103EB000036AAA0FE96E030E0320EA6EEFCFBEF38A
:103EC000ECCFBFF3ECCFC0F3ECCFC1F3C1C301F62D
:103ED000C0C300F6BFC3FFF5BEC3FEF5A3C305F61E
:103EE000A2C304F6A1C303F6A0C302F60001A9EC25
:103EF00017F0EACFBFF3E9CFBEF3D8929BC3C5F367
:103F00009AC3C4F399C3C3F398C3C2F303C0C9F3FC
:103F100002C0C8F301C0C7F300C0C6F36DEC16F0D1
:103F2000BFC3EAFFBEC3E9FF03C09BF302C09AF31D
:103F300001C099F300C098F30301A52B97D7A451B2
:103F4000020802E0A42D03D09951800A996F98C30A
:103F500000F099C301F09AC302F09BC303F0000183
:103F60001200D8828FC3C5F38EC3C4F38DC3C3F3CD
:103F70008CC3C2F3DB0E0301C96F0F0EC86F490E6D
:103F8000C76F7F0EC66F00016DEC16F000C090F396
:103F900001C091F302C092F303C093F303C097F3FF
:103FA00002C096F301C095F300C094F30BDE12003B
:103FB0000301B791ABC3B0F3AAC3AFF3A9C3AEF388
:103FC000A8C3ADF3ABC3C1F3AAC3C0F3A9C3BFF386
:103FD000A8C3BEF3C56BC46BC36BC26B0001B5DD78
:103FE00005E30301B781AE51800AAE6FB0C3C1F3E0
:103FF000AFC3C0F3AEC3BFF3ADC3BEF30301C56B24
:10400000C46BC36B8E0EC26F00019FDD01E219E12C
:10401000B0C3C1F3AFC3C0F3AEC3BFF3ADC3BEF310
:104020004FEC16F002C0C3F301C0C2F385EC15F0EB
:1040300003C0B4F302C0B3F301C0B2F300C0B1F3E4
:10404000D4D0B0C3C1F3AFC3C0F3AEC3BFF3ADC3ED
:10405000BEF3800E0301C56F960EC46F180EC36FBA
:10406000960EC26F000171DDD8A0B7D0B0C301F6C3
:10407000AFC300F6AEC3FFF5ADC3FEF50601056B99
:10408000046B036B700E026F0001A9EC17F003C004
:10409000C1F302C0C0F301C0BFF300C0BEF34FECD8
:1040A00016F002C0B6F301C0B5F3B0C301F6AFC35A
:1040B00000F6AEC3FFF5ADC3FEF50601056B046B5C
:1040C000036B700E026F0001A9EC17F000C0B8F38B
:1040D00001C0B9F302C0BAF303C0BBF3B6C3C3F364
:1040E000B5C3C2F385EC15F0D882BBC3C5F3BAC320
:1040F000C4F3B9C3C3F3B8C3C2F303C0C9F302C066
:10410000C8F301C0C7F300C0C6F36DEC16F006019A
:10411000016B006B0501FF6B8E0EFE6F03C005F691
:1041200002C004F601C003F600C002F60001A9ECCB
:1041300017F003C0B0F302C0AFF301C0AEF300C08C
:10414000ADF3B6C3C3F3B5C3C2F385EC15F00601F6
:10415000016B006B0501FF6B8E0EFE6F03C005F651
:1041600002C004F601C003F600C002F60001A9EC8B
:1041700017F003C0B4F302C0B3F301C0B2F300C040
:10418000B1F3B0C3C1F3AFC3C0F3AEC3BFF3ADC3AC
:10419000BEF34FEC16F002C0C3F301C0C2F385ECCE
:1041A00015F0D892B4C3C5F3B3C3C4F3B2C3C3F319
:1041B000B1C3C2F303C0C9F302C0C8F301C0C7F35F
:1041C00000C0C6F36DEC16F003C0B4F302C0B3F345
:1041D00001C0B2F300C0B1F308D0B0C3B4F3AFC3B1
:1041E000B3F3AEC3B2F3ADC3B1F3B0C3C1F3AFC366
:1041F000C0F3AEC3BFF3ADC3BEF34FEC16F002C0C5
:10420000C3F301C0C2F385EC15F0D882B0C3C5F387
:10421000AFC3C4F3AEC3C3F3ADC3C2F303C0C9F3AA
:1042200002C0C8F301C0C7F300C0C6F36DEC16F0BE
:1042300003C0B0F302C0AFF301C0AEF300C0ADF3F2
:104240000301B7A103D0B251800AB26FB0C3C1F36A
:10425000AFC3C0F3AEC3BFF3ADC3BEF3C56BC46B96
:10426000C36BC26B000171DC3CE00301B7A11CD041
:10427000AC531AE1D882B4C3C5F3B3C3C4F3B2C319
:10428000C3F3B1C3C2F3C96BC86BC76B7F0EC66FF4
:1042900000016DEC16F003C0B4F302C0B3F301C02B
:1042A000B2F300C0B1F30301B7B11CD0AC2D1AD0EA
:1042B000D892B4C3C5F3B3C3C4F3B2C3C3F3B1C399
:1042C000C2F3C96BC86BC76B7F0EC66F00016DEC84
:1042D00016F003C0B4F302C0B3F301C0B2F300C0E0
:1042E000B1F30301ABC3C1F3AAC3C0F3A9C3BFF3C6
:1042F000A8C3BEF3C56BC46BC36BC26B000125DCE6
:1043000006E10301B46BB36BB26BB16B0001B1C3D7
:1043100000F0B2C301F0B3C302F0B4C303F0120063
:10432000A7C3ABF3A6C3AAF3A5C3A9F3A4C3A8F379
:10433000010E0301AC6F00013BDE0DEF22F0A7C3BD
:10434000ABF3A6C3AAF3A5C3A9F3A4C3A8F30301BF
:10435000AC6B00012DDE31EF22F09BC3C1F39AC399
:10436000C0F399C3BFF398C3BEF30301C56BC46B1D
:10437000C36BC26B0001A5EC1DF0D8B4A0D097C3ED
:10438000B4F396C3B3F395C3B2F394C3B1F39BC331
:10439000B8F39AC3B7F399C3B6F398C3B5F3A0ECD7
:1043A00015F000C0A0F301C0A1F302C0A2F303C046
:1043B000A3F303C0C1F302C0C0F301C0BFF300C048
:1043C000BEF30301C56BC46BC36BC26B0001A5ECEC
:1043D0001DF024E397C3B4F396C3B3F395C3B2F3CC
:1043E00094C3B1F39BC3B8F39AC3B7F399C3B6F3BD
:1043F00098C3B5F3A0EC15F000C0A0F301C0A1F381
:1044000002C0A2F303C0A3F303C0A7F302C0A6F344
:1044100001C0A5F300C0A4F383D723D097C3B4F39E
:1044200096C3B3F395C3B2F394C3B1F39BC3B8F38C
:104430009AC3B7F399C3B6F398C3B5F3A0EC15F0DC
:1044400000C0A0F301C0A1F302C0A2F303C0A3F314
:1044500003C0A7F302C0A6F301C0A5F300C0A4F3F4
:104460006ED703C09FF302C09EF301C09DF300C04E
:104470009CF39FC301F69EC300F69DC3FFF59CC34A
:10448000FEF59BC305F69AC304F699C303F698C3D9
:1044900002F6A9EC17F0D88297C3C5F396C3C4F30C
:1044A00095C3C3F394C3C2F303C0C9F302C0C8F3F6
:1044B00001C0C7F300C0C6F36DEC16F000D01200C7
:1044C0009BC39FF39AC39EF399C39DF398C39CF338
:1044D0009FC3C1F39EC3C0F39DC3BFF39CC3BEF390
:1044E0000301C56BC46BC36B7F0EC26F0001A5ECEB
:1044F0001DF0D8B4A3D1030E0301AE6F9C0EE96E7C
:10450000AEC3EAFF7E0EEF6ED8829FC3C5F39EC393
:10451000C4F39DC3C3F39CC3C2F3C96BC86BC76B21
:104520007F0EC66F00016DEC16F000C0ADF301C048
:10453000AEF302C0AFF303C0B0F3D8929FC3C5F38C
:104540009EC3C4F39DC3C3F39CC3C2F30301C96BF1
:10455000C86BC76B7F0EC66F00016DEC16F0B0C361
:10456000B4F3AFC3B3F3AEC3B2F3ADC3B1F303C09F
:10457000B8F302C0B7F301C0B6F300C0B5F3A0ECC6
:1045800015F003C09FF302C09EF301C09DF300C06D
:104590009CF39FC301F69EC300F69DC3FFF59CC329
:1045A000FEF59FC305F69EC304F69DC303F69CC3A8
:1045B00002F6A9EC17F003C0ABF302C0AAF301C0E6
:1045C000A9F300C0A8F3990E0601016F470E006F12
:1045D0008A0E0501FF6F7F0EFE6FABC305F6AAC3FF
:1045E00004F6A9C303F6A8C302F60001A9EC17F06C
:1045F00000C0ADF301C0AEF302C0AFF303C0B0F32F
:10460000D89203C0C5F302C0C4F301C0C3F300C015
:10461000C2F30301C96BC86BC76B800EC66F000184
:104620006DEC16F003C0A3F302C0A2F301C0A1F326
:1046300000C0A0F34C0E0601016FF30E006F3A0E9E
:104640000501FF6F7B0EFE6FABC305F6AAC304F630
:10465000A9C303F6A8C302F60001A9EC17F000C035
:10466000ADF301C0AEF302C0AFF303C0B0F3D89214
:1046700003C0C5F302C0C4F301C0C3F300C0C2F35A
:104680002B0E0301C96F9D0EC86FDF0EC76F7E0E24
:10469000C66F00016DEC16F003C0A7F302C0A6F3CD
:1046A00001C0A5F300C0A4F3A7C301F6A6C300F69A
:1046B000A5C3FFF5A4C3FEF5ABC305F6AAC304F674
:1046C000A9C303F6A8C302F6A9EC17F000C0ADF326
:1046D00001C0AEF302C0AFF303C0B0F3D89203C081
:1046E000C5F302C0C4F301C0C3F300C0C2F30301A9
:1046F000C96BC86BC76B7F0EC66F00016DEC16F0FF
:1047000003C0A7F302C0A6F301C0A5F300C0A4F341
:104710009FC301F69EC300F69DC3FFF59CC3FEF543
:10472000A3C305F6A2C304F6A1C303F6A0C302F611
:10473000A9EC17F000C0ADF301C0AEF302C0AFF3B7
:1047400003C0B0F303C0B4F302C0B3F301C0B2F3CB
:1047500000C0B1F3A7C3B8F3A6C3B7F3A5C3B6F3BC
:10476000A4C3B5F3A0EC15F003C0A3F302C0A2F3F9
:1047700001C0A1F300C0A0F3030E0301AE6F980EB9
:10478000E96EAEC3EAFF7E0EEF5CAC6FACBF01D04A
:1047900015D0000ED880AC55AF6BAE6FAEBFAF0773
:1047A000000168EC1DF000C0A4F30150800A030171
:1047B000A56F02C0A6F303C0A7F310D0AF6BACC3C4
:1047C000AEF3AEBFAF07000168EC1DF003C0A7F366
:1047D00002C0A6F301C0A5F300C0A4F3A7C301F66D
:1047E000A6C300F6A5C3FFF5A4C3FEF5180E060187
:1047F000056F720E046F310E036F7E0E026F0001A3
:10480000A9EC17F0D892A3C3C5F3A2C3C4F3A1C304
:10481000C3F3A0C3C2F303C0C9F302C0C8F301C00D
:10482000C7F300C0C6F36DEC16F003C0A3F302C0DB
:10483000A2F301C0A1F300C0A0F306D00301A36B53
:10484000A26BA16BA06B0001A0C300F0A1C301F09B
:10485000A2C302F0A3C303F012009BC301F69AC3E4
:1048600000F699C3FFF598C3FEF53B0E0601056FF0
:10487000AA0E046F380E036F7F0E026F0001A9ECC1
:1048800017F003C0C1F302C0C0F301C0BFF300C002
:10489000BEF34FEC16F001C0A8F30301A9919BC32E
:1048A0009FF39AC39EF399C39DF398C39CF39BC354
:1048B000C1F39AC3C0F399C3BFF398C3BEF3C56BEA
:1048C000C46BC36BC26B0001A5EC1DF006E30301D2
:1048D000A981A86D9D51800A9D6F0301A36BA26BF6
:1048E000A16BA06B030EAB6FA00EE96EABC3EAFF2A
:1048F0007F0EA825EF6E9FC301F69EC300F69DC3F1
:10490000FFF59CC3FEF53B0E0601056FAA0E046F72
:10491000380E036F7F0E026F0001A9EC17F000C084
:10492000AAF301C0ABF302C0ACF303C0ADF30301C3
:10493000AF6BA8C3AEF3AEBFAF07000168EC1DF0CC
:10494000D882ADC3C5F3ACC3C4F3ABC3C3F3AAC32E
:10495000C2F303C0C9F302C0C8F301C0C7F300C06B
:10496000C6F36DEC16F003C09FF302C09EF301C0C6
:104970009DF300C09CF37C0E0601016F880E006F52
:10498000590E0501FF6F720EFE6F9FC305F69EC3A1
:1049900004F69DC303F69CC302F60001A9EC17F0D0
:1049A00000C0AAF301C0ABF302C0ACF303C0ADF387
:1049B000D89203C0C5F302C0C4F301C0C3F300C062
:1049C000C2F3E00E0301C96F970EC86F260EC76FC2
:1049D000750EC66F00016DEC16F003C0A7F302C0A0
:1049E000A6F301C0A5F300C0A4F3A7C301F6A6C3B4
:1049F00000F6A5C3FFF5A4C3FEF59FC305F69EC34D
:104A000004F69DC303F69CC302F6A9EC17F000C0A0
:104A1000AAF301C0ABF302C0ACF303C0ADF3D8926C
:104A200003C0C5F302C0C4F301C0C3F300C0C2F3A6
:104A3000C40E0301C96F1D0EC86F1E0EC76F780E1E
:104A4000C66F00016DEC16F003C0A7F302C0A6F319
:104A500001C0A5F300C0A4F3A7C301F6A6C300F6E6
:104A6000A5C3FFF5A4C3FEF59FC305F69EC304F6D8
:104A70009DC303F69CC302F6A9EC17F000C0AAF38D
:104A800001C0ABF302C0ACF303C0ADF3D89203C0D6
:104A9000C5F302C0C4F301C0C3F300C0C2F35E0E8D
:104AA0000301C96F500EC86F630EC76F7A0EC66FD1
:104AB00000016DEC16F003C0A7F302C0A6F301C01D
:104AC000A5F300C0A4F3A7C301F6A6C300F6A5C3CF
:104AD000FFF5A4C3FEF59FC305F69EC304F69DC370
:104AE00003F69CC302F6A9EC17F000C0AAF301C0BC
:104AF000ABF302C0ACF303C0ADF3D89203C0C5F36F
:104B000002C0C4F301C0C3F300C0C2F31A0E030114
:104B1000C96FFE0EC86F750EC76F7C0EC66F0001A1
:104B20006DEC16F003C0A7F302C0A6F301C0A5F315
:104B300000C0A4F3A7C301F6A6C300F6A5C3FFF502
:104B4000A4C3FEF59FC305F69EC304F69DC303F6FA
:104B50009CC302F6A9EC17F000C0AAF301C0ABF3A6
:104B600002C0ACF303C0ADF3D89203C0C5F302C0DA
:104B7000C4F301C0C3F300C0C2F3180E0301C96F30
:104B8000720EC86F310EC76F7E0EC66F00016DECDE
:104B900016F003C0A7F302C0A6F301C0A5F300C03E
:104BA000A4F39FC301F69EC300F69DC3FFF59CC30B
:104BB000FEF5A7C305F6A6C304F6A5C303F6A4C372
:104BC00002F6A9EC17F0D8920301C56BC46BC36B56
:104BD0007F0EC26F03C0C9F302C0C8F301C0C7F3A0
:104BE00000C0C6F300016DEC16F0A3C301F6A2C32A
:104BF00000F6A1C3FFF5A0C3FEF503C005F602C091
:104C000004F601C003F600C002F6A9EC17F003C0D9
:104C1000A3F302C0A2F301C0A1F300C0A0F30301FB
:104C2000A9A119D0B46BB36BB26B7F0EB16FA3C3E4
:104C3000B8F3A2C3B7F3A1C3B6F3A0C3B5F30001A1
:104C4000A0EC15F003C0A3F302C0A2F301C0A1F3CE
:104C500000C0A0F30301A0C300F0A1C301F0A2C3F0
:104C600002F0A3C303F0000112008FC3C1F38EC38F
:104C7000C0F38DC3BFF38CC3BEF30301C56BC46B1C
:104C8000C36BC26B0001A5EC1DF0D8A0D9D093C3B3
:104C900097F392C396F391C395F390C394F30301F2
:104CA0009B6B9A6B996B7F0E986F0001ADEC21F0B6
:104CB00000C094F301C095F302C096F303C097F3CC
:104CC00003C0C1F302C0C0F301C0BFF300C0BEF314
:104CD0000301C56BC46BC36BC26B0001A5EC1DF077
:104CE000D8A4AED093C397F392C396F391C395F330
:104CF00090C394F303019B6B9A6B996B800E986F32
:104D00000001ADEC21F000C094F301C095F302C0A6
:104D100096F303C097F303C0C1F302C0C0F301C010
:104D2000BFF300C0BEF30301C56BC46BC36BC26BA2
:104D30000001A5EC1DF041E18CC394F303018D51FA
:104D4000800A956F8EC396F38FC397F38FC39BF33F
:104D50008EC39AF3996F8CC398F3000160EC22F034
:104D600000C094F301C095F302C096F303C097F31B
:104D700003C001F602C000F601C0FFF500C0FEF559
:104D800093C305F692C304F691C303F690C302F6EB
:104D9000A9EC17F000C094F301C095F302C096F39C
:104DA00003C097F303C09BF302C09AF301C099F3C9
:104DB00000C098F352DDDDD042D08CC394F30301E0
:104DC0008D51800A956F8EC396F38FC397F38FC36F
:104DD0009BF38EC39AF3996F8CC398F3000160EC38
:104DE00022F000C094F301C095F302C096F303C013
:104DF00097F303C001F602C000F601C0FFF500C042
:104E0000FEF593C305F692C304F691C303F690C36F
:104E100002F6A9EC17F000C094F301C095F302C0AC
:104E200096F303C097F303C09BF302C09AF301C04B
:104E300099F300C098F311DD800E011A9AD099D031
:104E40008FC3C1F38EC3C0F38DC3BFF38CC3BEF356
:104E50000301C56BC46BC36BC26B0001A5EC1DF0F5
:104E600030E393C397F392C396F391C395F390C342
:104E700094F303019B6B9A6B996B7F0E986F000103
:104E8000ADEC21F000C094F301C095F302C096F39D
:104E900003C097F303C0C1F302C0C0F301C0BFF366
:104EA00000C0BEF30301C56BC46BC36BC26B0001D2
:104EB000A5EC1DF006E0006A016A026A036A59D097
:104EC00058D08FC3C1F38EC3C0F38DC3BFF38CC35F
:104ED000BEF30301C56BC46BC36BC26B0001A5ECD1
:104EE0001DF012E193C3C1F392C3C0F391C3BFF3AA
:104EF00090C3BEF30301C56BC46BC36BC26B0001EF
:104F0000A5EC1DF001E235E18FC39BF38EC39AF34C
:104F10008DC399F38CC398F360EC22F000C094F336
:104F200001C095F302C096F303C097F303C001F6E6
:104F300002C000F601C0FFF500C0FEF593C305F600
:104F400092C304F691C303F690C302F6A9EC17F0DE
:104F500000C094F301C095F302C096F303C097F329
:104F600003C09BF302C09AF301C099F300C098F309
:104F700074DC12008FC3C1F38EC3C0F38DC3BFF3C3
:104F80008CC3BEF30301C56BC46BC36BC26B000162
:104F9000A5EC1DF001E205E1006A016A026A036AFC
:104FA0007BD08FC393F38EC392F38DC391F38CC3E5
:104FB00090F3030E0301996F900E986F98C3E9FF69
:104FC00099C3EAFFEF509D6B9C6F7F0E9C27000EEC
:104FD0009D23D8909D319C3199C3EAFF98C3E9FF86
:104FE000EF6E93C397F392C396F391C395F390C377
:104FF00094F38FC3B4F38EC3B3F38DC3B2F38CC3F6
:10500000B1F393C3B8F392C3B7F391C3B6F390C3AC
:10501000B5F30001A0EC15F0D89293C3C5F392C389
:10502000C4F391C3C3F390C3C2F303C0C9F302C076
:10503000C8F301C0C7F300C0C6F36DEC16F003C09F
:1050400093F302C092F301C091F300C090F3030107
:1050500098C3E9FF99C3EAFFEF0697C3C1F396C36C
:10506000C0F395C3BFF394C3BEF393C3C5F392C318
:10507000C4F391C3C3F390C3C2F30001A5EC1DF0C8
:10508000D8B402D00301ADD794C300F095C301F0AA
:1050900096C302F097C303F012000301AA91AA93EA
:1050A0009DC3A1F39CC3A0F39BC39FF39AC39EF33C
:1050B0009DC3C1F39CC3C0F39BC3BFF39AC3BEF3AC
:1050C000C56BC46BC36BC26B0001A5EC1DF005E39F
:1050D0000301AA819F51800A9F6F0301C16BC06BBE
:1050E000BF6B7F0EBE6FA1C3C5F3A0C3C4F39FC344
:1050F000C3F39EC3C2F30001A5EC1DF01BE3030143
:10510000B46BB36BB26B7F0EB16FA1C3B8F3A0C326
:10511000B7F39FC3B6F39EC3B5F30001A0EC15F03F
:1051200003C0A1F302C0A0F301C09FF300C09EF32F
:105130000301AA830A0E0601016F890E006F340E67
:105140000501FF6F7C0EFE6FA1C305F6A0C304F638
:105150009FC303F69EC302F60001A9EC17F000C03E
:10516000ABF301C0ACF302C0ADF303C0AEF303C0B8
:1051700001F602C000F601C0FFF500C0FEF5A1C3B4
:1051800005F6A0C304F69FC303F69EC302F6A9EC7E
:1051900017F000C0ABF301C0ACF302C0ADF303C025
:1051A000AEF3D89203C0C5F302C0C4F301C0C3F389
:1051B00000C0C2F37C0E0301C96F790EC86F350EB3
:1051C000C76F810EC66F00016DEC16F003C0A5F32A
:1051D00002C0A4F301C0A3F300C0A2F3A5C301F66B
:1051E000A4C300F6A3C3FFF5A2C3FEF5A1C305F651
:1051F000A0C304F69FC303F69EC302F6A9EC17F002
:1052000000C0ABF301C0ACF302C0ADF303C0AEF31A
:1052100003C001F602C000F601C0FFF500C0FEF5B4
:10522000A1C305F6A0C304F69FC303F69EC302F60E
:10523000A9EC17F000C0ABF301C0ACF302C0ADF3B2
:1052400003C0AEF3D89203C0C5F302C0C4F301C0DB
:10525000C3F300C0C2F33F0E0301C96F020EC86F53
:10526000330EC76F830EC66F00016DEC16F003C0DE
:10527000A5F302C0A4F301C0A3F300C0A2F3A5C329
:1052800001F6A4C300F6A3C3FFF5A2C3FEF5A1C3B4
:1052900005F6A0C304F69FC303F69EC302F6A9EC6D
:1052A00017F000C0ABF301C0ACF302C0ADF303C014
:1052B000AEF303C001F602C000F601C0FFF500C066
:1052C000FEF5A1C305F6A0C304F69FC303F69EC373
:1052D00002F6A9EC17F000C0ABF301C0ACF302C0BA
:1052E000ADF303C0AEF3D89203C0C5F302C0C4F35C
:1052F00001C0C3F300C0C2F3330E0301C96F8C0EAB
:10530000C86F1E0EC76F830EC66F00016DEC16F0DE
:1053100003C0A5F302C0A4F301C0A3F300C0A2F32D
:105320000601016B006B0501FF6B7F0EFE6FA1C3D1
:1053300005F6A0C304F69FC303F69EC302F6000160
:10534000A9EC17F000C0ABF301C0ACF302C0ADF3A1
:1053500003C0AEF303C001F602C000F601C0FFF5C2
:1053600000C0FEF5A1C305F6A0C304F69FC303F673
:105370009EC302F6A9EC17F000C0ABF301C0ACF37A
:1053800002C0ADF303C0AEF3D89203C0C5F302C0B0
:10539000C4F301C0C3F300C0C2F31B0E0301C96F05
:1053A000E40EC86F350EC76F820EC66F00016DEC3C
:1053B00016F003C0A9F302C0A8F301C0A7F300C010
:1053C000A6F3A9C301F6A8C300F6A7C3FFF5A6C3B9
:1053D000FEF5A1C305F6A0C304F69FC303F69EC362
:1053E00002F6A9EC17F000C0ABF301C0ACF302C0A9
:1053F000ADF303C0AEF303C001F602C000F601C076
:10540000FFF500C0FEF5A1C305F6A0C304F69FC3D7
:1054100003F69EC302F6A9EC17F000C0ABF301C07F
:10542000ACF302C0ADF303C0AEF3D89203C0C5F332
:1054300002C0C4F301C0C3F300C0C2F3A40E030151
:10544000C96FDB0EC86F670EC76F830EC66F000192
:105450006DEC16F003C0A9F302C0A8F301C0A7F3D6
:1054600000C0A6F3A9C301F6A8C300F6A7C3FFF5C1
:10547000A6C3FEF5A1C305F6A0C304F69FC303F6B9
:105480009EC302F6A9EC17F000C0ABF301C0ACF369
:1054900002C0ADF303C0AEF303C001F602C000F6D4
:1054A00001C0FFF500C0FEF5A1C305F6A0C304F6D8
:1054B0009FC303F69EC302F6A9EC17F000C0ABF33E
:1054C00001C0ACF302C0ADF303C0AEF3D89203C089
:1054D000C5F302C0C4F301C0C3F300C0C2F3330E6E
:1054E0000301C96F8C0EC86F1E0EC76F830EC66F87
:1054F00000016DEC16F003C0A9F302C0A8F301C0CF
:10550000A7F300C0A6F3A1C301F6A0C300F69FC392
:10551000FFF59EC3FEF5A5C305F6A4C304F6A3C319
:1055200003F6A2C302F6A9EC17F000C0ABF301C06A
:10553000ACF302C0ADF303C0AEF303C0B4F302C0DA
:10554000B3F301C0B2F300C0B1F3A9C3B8F3A8C369
:10555000B7F3A7C3B6F3A6C3B5F3A0EC15F003C029
:10556000A5F302C0A4F301C0A3F300C0A2F303019A
:10557000AAA31DD0D882DB0EC56F0F0EC46F490ED3
:10558000C36F7F0EC26FA5C3C9F3A4C3C8F3A3C37F
:10559000C7F3A2C3C6F300016DEC16F003C0A5F378
:1055A00002C0A4F301C0A3F300C0A2F30301AAA1A7
:1055B00003D0A351800AA36FA2C300F0A3C301F0DC
:1055C000A4C302F0A5C303F00001120003019891E7
:1055D000996B8FC3C1F38EC3C0F38DC3BFF38CC36C
:1055E000BEF3C56BC46BC36BC26B0001A5EC1DF0B1
:1055F00001E216E193C3C1F392C3C0F391C3BFF3B9
:1056000090C3BEF30301C56BC46BC36BC26B0001D7
:10561000A5EC1DF001E202E1030E01D0040E14D04E
:1056200093C3C1F392C3C0F391C3BFF390C3BEF35E
:105630000301C56BC46BC36BC26B0001A5EC1DF00D
:1056400002E3020E01D0010E0301996F8FC3C1F373
:105650008EC3C0F38DC3BFF38CC3BEF3C56BC46BE5
:10566000C36BC26B0001A5EC1DF005E3030198813B
:105670008D51800A8D6F93C3C1F392C3C0F391C360
:10568000BFF390C3BEF30301C56BC46BC36BC26BA6
:105690000001A5EC1DF004E303019151800A916F14
:1056A00093C3C1F392C3C0F391C3BFF390C3BEF3DE
:1056B0000301C56BC46BC36BC26B0001A5EC1DF08D
:1056C0002AE18FC3C1F38EC3C0F38DC3BFF38CC374
:1056D000BEF30301C56BC46BC36BC26B0001A5ECC9
:1056E0001DF001E117D0030198A10AD07F0E006ED2
:1056F000C90E016E0F0E026EDB0E036EA9D009D02B
:105700007F0E006E490E016E0F0E026EDB0E036EF1
:105710009FD000019CD08FC3B4F38EC3B3F38DC36D
:10572000B2F38CC3B1F393C3B8F392C3B7F391C38D
:10573000B6F390C3B5F3A0EC15F003C097F302C025
:1057400096F301C095F300C094F3010E0301995D37
:10575000FC0FD8B07DD0040F00012BEF2CF097C3C5
:105760009DF396C39CF395C39BF394C39AF395DC86
:1057700003016ED06DD0000197C39DF396C39CF3D7
:1057800095C39BF394C39AF388DCEACF9BF3E9CFEC
:105790009AF3D882DB0E0301C56F0F0EC46F490E5A
:1057A000C36F800EC26F03C0C9F302C0C8F301C04B
:1057B000C7F300C0C6F300016DEC16F09BC3EAFF0F
:1057C0009AC3E9FF030144D043D0000197C39DF37E
:1057D00096C39CF395C39BF394C39AF35EDC00C01D
:1057E0009AF301C09BF302C09CF303C09DF3EACF80
:1057F0009FF3E9CF9EF3D88203C0C5F302C0C4F380
:1058000001C0C3F300C0C2F3DB0E0301C96F0F0E6A
:10581000C86F490EC76F800EC66F00016DEC16F0A1
:105820009FC3EAFF9EC3E9FF030112D011D000011C
:1058300097C39DF396C39CF395C39BF394C39AF3CC
:105840002CDC800E011A030103D002D000010301F9
:105850000001FCEF2DF0E824F76AF736710FF66EC1
:10586000580EF7220A00F550FA6E0800F550F96E4E
:105870005E577857CC57305863C383F362C382F3C3
:1058800061C381F360C380F390EC1DF003C063F348
:1058900002C062F301C061F300C060F367C383F329
:1058A00066C382F365C381F364C380F390EC1DF09B
:1058B00003C067F302C066F301C065F300C064F380
:1058C0006BC383F36AC382F369C381F368C380F354
:1058D00090EC1DF003C06BF302C06AF301C069F3E2
:1058E00000C068F36FC383F36EC382F36DC381F3AB
:1058F0006CC380F390EC1DF003C06FF302C06EF335
:1059000001C06DF300C06CF3D8826BC3C5F36AC3EA
:10591000C4F369C3C3F368C3C2F363C3C9F362C307
:10592000C8F361C3C7F360C3C6F36DEC16F003C0E0
:1059300073F302C072F301C071F300C070F3D88238
:105940006FC3C5F36EC3C4F36DC3C3F36CC3C2F3BB
:1059500067C3C9F366C3C8F365C3C7F364C3C6F3BB
:105960006DEC16F003C077F302C076F301C075F357
:1059700000C074F373C3B4F372C3B3F371C3B2F36F
:1059800070C3B1F30301B86BB76BB66B800EB56F24
:105990000001A0EC15F000C080F301C081F302C04B
:1059A00082F303C083F303C08FF302C08EF301C000
:1059B0008DF300C08CF3B1EC1FF000C080F301C088
:1059C00081F302C082F303C083F303C08FF302C0EC
:1059D0008EF301C08DF300C08CF30301936B926BC7
:1059E000916B800E906F000135EC26F000C080F3C3
:1059F00001C081F302C082F303C083F363C397F352
:105A000062C396F361C395F360C394F3E2EC1DF0B7
:105A100000C084F301C085F302C086F303C087F39E
:105A20006BC397F36AC396F369C395F368C394F3A2
:105A3000E2EC1DF087C301F686C300F685C3FFF5CF
:105A400084C3FEF503C005F602C004F601C003F6E8
:105A500000C002F6A9EC17F000C084F301C085F382
:105A600002C086F303C087F377C3B4F376C3B3F3FE
:105A700075C3B2F374C3B1F30301B86BB76BB66B04
:105A8000800EB56F0001A0EC15F000C088F301C0D6
:105A900089F302C08AF303C08BF303C08FF302C003
:105AA0008EF301C08DF300C08CF3B1EC1FF000C089
:105AB00088F301C089F302C08AF303C08BF303C0EB
:105AC0008FF302C08EF301C08DF300C08CF303018D
:105AD000936B926B916B800E906F000135EC26F00A
